:090000000210FAD20032B2EE3215
:10000B000200031217CBC2811217D2C2800217D281
:06001B00020006B2ED3206
:1000230002161C8F3E12000E7F78121663E4FF1235
:100033001663AF3E1216630200B9B2EC32B2EB3272
:100043000215CF8F3D12000E7F781216637F401288
:0A0053001663AF3D1216630200B9F8
:1000630002001EE4F52675250175290175282DFB6F
:100073007A007924121204E4FB7D78FF1212FAE568
:0B008300BA54CF4410F5BA2202153128
:03009300021580D3
:03009B0002003D23
:1000A3000200400A410000000000000000000001BF
:1000B3004B0001510000C2811217CDD2810217D229
:1000C30002105702040EE86480F8E933E833601144
:1000D3000460F0ED33EC337009E8FCE9FDEAFEEB74
:1000E300FF220460DED3EB9FEA9EE99DE8C2E78C22
:1000F300F0C2F795F0400CE8CCF8E9CDF9EACEFA76
:10010300EBCFFB1203D985D0F05804700320D5B38D
:10011300E80470075002B2D502041892D5EC0460CB
:10012300F7E4CCC0E0C398F8603B94186008400D36
:10013300D0E0FB0203F0E4FBFAC9FC8028E830E4DA
:1001430006E4C9FBE4CAFCE830E305E4C9CACBFC16
:10015300E854076010F8C3E913F9EA13FAEB13FB49
:10016300EC13FCD8F130F52FC3E49CFCEF9BFFEEBE
:100173009AFEED99FDD0E0FBEF4E4D4C701222DB61
:1001830003020415EC2CFCEF33FFEE33FEED33FDDD
:10019300ED30E7EB0203F0EF2BFFEE3AFEED39FD16
:1001A300D0E0FB50130BBB0003020418ED13FDEE6C
:1001B30013FEEF13FFEC13FC0203F0EC4D6011E8A8
:1001C300497017ED33EC3304600DE4FCFFFEFD22B0
:1001D300E933E8330470F802040E1203D9580460BB
:1001E30009E4CC248150062850090204182840034E
:1001F300020415C0E0EB4A7044B98006D0E0FB026C
:100203000404EF4E701CBD8008EBFFEAFEE9FD809D
:10021300EBE98DF0A4FEE5F00202A7E9CDF9EAFED1
:10022300EBFFEF89F0A4FCE5F0CE89F0A42EFFE408
:1002330035F0CD89F0A42DFEE435F08067EF4E70E4
:1002430005BD80D780C3EF8BF0A4ACF0EE8BF0A498
:100253002CFCE435F0F8EF8AF0A42CE5F038FCE44C
:1002630033CB8DF0A42CFCE5F03BF8EE8AF0A42C04
:10027300FCE5F038F8E433CF89F0A42CFCE5F03842
:10028300CF3400CE89F0A42FFFE5F03EFEE433C95E
:100293008DF0A42EFEE5F039CD8AF0A42FFFE5F012
:1002A3003EFEE43DFD33D0E0FB50070BBB000F02E5
:1002B3000418EC2CFCEF33FFEE33FEED33FD0203A9
:1002C300F0020418EC5D046005E8590470030204AD
:1002D3000E1203D9580460F6EC4860F2EC7004FD8A
:1002E300FEFF22C860DB2481C85009C39860025016
:1002F300060204159850CAF582E9294B4A7005ABEA
:100303008202040475F0007C1A7880C3EF9BEE9A96
:10031300ED99400DC3EF9BFFEE9AFEED99FDE84288
:10032300F0DC23ACF0D0E0FFD0E0FED0E0FDAB8208
:1003330020E7101BEB60BAEC2CFCEF33FFEE33FE2F
:10034300ED33FD0203F0E803F830E705C0F075F084
:1003530000EF2FFFEE33FEED33FD40B830E7C280F0
:10036300AA75F020800E75F010800575F0087D00E9
:100373007E007F003392D530D5031205D6EC33408F
:1003830010EF33FFEE33FEED33FDEC33FCD5F0ED30
:1003930022E5F0247EA2D513CC92E7CDCEFF22ED49
:1003A300D2E7CD33EC3392D524814006E4FFFEFD42
:1003B300FC22FCE4CFCECDCC24E0501174FF80EDC1
:1003C300C3CC13CCCD13CDCE13CECF13CF0470F04B
:1003D30030D5DE0205D6E9D2E7C933E833F892D542
:1003E300EDD2E7CD33EC33FC5002B2D522EC30E74B
:1003F300100FBF000C0EBE00080DBD00040BEB6018
:1004030014A2D5EB13FCED92E7FD2274FFFCFDFE75
:10041300FF22E480F8A2D574FF13FC7D80E480EF13
:10042300BB010689828A83E0225002E722BBFE02D7
:10043300E32289828A83E49322BB010CE58229F5B6
:1004430082E5833AF583E0225006E92582F8E62225
:10045300BBFE06E92582F8E222E58229F582E583DF
:100463003AF583E49322BB010689828A83F0225002
:1004730002F722BBFE01F322BC000BBE0029EF8D65
:10048300F084FFADF022E4CCF875F008EF2FFFEE17
:1004930033FEEC33FCEE9DEC984005FCEE9DFE0F25
:1004A300D5F0E9E4CEFD22EDF8F5F0EE8420D21C80
:1004B300FEADF075F008EF2FFFED33FD40079850C8
:1004C30006D5F0F222C398FD0FD5F0EA22BB011046
:1004D300E58229F582E5833AF583E0F5F0A3E0228E
:1004E3005009E92582F886F008E622BBFE0AE925D1
:1004F30082F8E2F5F008E222E5832AF583E993F531
:10050300F0A3E9932275F008758200EF2FFFEE3315
:10051300FECD33CDCC33CCC58233C5829BED9AEC73
:1005230099E58298400CF582EE9BFEED9AFDEC99DD
:10053300FC0FD5F0D6E4CEFBE4CDFAE4CCF9A882E7
:1005430022B800C1B90059BA002DEC8BF084CFCE8C
:10055300CDFCE5F0CBF97818EF2FFFEE33FEED334A
:10056300FDEC33FCEB33FB10D703994004EB99FB11
:100573000FD8E5E4F9FA227818EF2FFFEE33FEEDFA
:1005830033FDEC33FCC933C910D7059BE99A400707
:10059300EC9BFCE99AF90FD8E0E4C9FAE4CCFB221E
:1005A30075F010EF2FFFEE33FEED33FDCC33CCC8E7
:1005B30033C810D7079BEC9AE899400AED9BFDECF2
:1005C3009AFCE899F80FD5F0DAE4CDFBE4CCFAE431
:1005D300C8F922C3E49FFFE49EFEE49DFDE49CFC76
:1005E30022EB9FF5F0EA9E42F0E99D42F0E89C453C
:1005F300F022E8600FECC313FCED13FDEE13FEEFE6
:1006030013FFD8F122BB010DE58229F582E5833A78
:10061300F5830206455007E92582F8020638BBFE3A
:1006230007E92582F8020651E58229F582E5833A36
:10063300F58302065EE6FB08E6F908E6FA08E6CB70
:10064300F822E0F8A3E0F9A3E0FAA3E0FB22E2FB3F
:1006530008E2F908E2FA08E2CBF822E493F874011D
:1006630093F9740293FA740393FB228F2D8B2E8AD2
:100673002F8930EF640160030207ECF508F509F5F3
:100683000AF50BF50CF531F53274402532F5827419
:10069300013531F583E4F00532E53270020531644A
:1006A30080453170E4E4F531F53274002532F5828A
:1006B30074003531F583E4F00532E532700205311B
:1006C3006480453170E4AB2EAA2FA930120423FFB6
:1006D300E598543F4FF598EF64C06008EF644060BD
:1006E3000302079B9000021206087F807E8D7D5BCC
:1006F3007C001205448F368E358D348C33E4FFFE37
:100703007D01FCAB36AA35A934A833C31205E440F6
:10071300037FFF22C3E49536F536E49535F535744A
:10072300019534F534E49533F533AB2EAA2FA93074
:1007330090000112043CFB7A006401702CC28E53BA
:100743008EFE5389BF5389CF438E40AF36AE35AD4E
:1007530034AC3378081205F58F8D85368BC2AB53D5
:1007630089BF538FFDD28E8069EB64024A70265392
:100773008EEF438E01538EF7438E04AF36AE35AD05
:1007830034AC3378081205F58FD68536D753AFFBD3
:10079300438E10803D7FFF22AB2EAA2FA930120477
:1007A30023FF7E00701490000812043C640170055E
:1007B300438E20801D538EDF8018EF64804E7012AD
:1007C30090000812043C6401700543878080035342
:1007D300877FAB2EAA2FA93090000712043C700428
:1007E300C29C8002D29C7F0022E52D64026003023A
:1007F30008E9F50DF50EF50FF510F511F531F532A4
:1008030074E02532F58274013531F583E4F0053265
:10081300E532700205316480453170E4E4F531F569
:100823003274802532F58274003531F583E4F005A6
:1008330032E532700205316480453170E4AB2EAA93
:100843002FA930120423FF7E0064C06005EF6440CB
:100853007077EF64C04E7005439A808003539A7F8C
:100863009000021206087F807E8D7D5B7C0012055E
:10087300448F368E358D348C33E4FFFE7D01FCAB23
:1008830036AA35A934A833C31205E440037FFF22F7
:10089300C3E49536F536E49535F53574019534F5AD
:1008A30034E49533F533538EEF538EF7438E04AF11
:1008B30036AE35AD34AC3378081205F58FD68536B0
:1008C300D753AFFB438E1080037FFF22AB2EAA2F9B
:1008D300A93090000712043CC454F0FFE59A54EF8A
:1008E3004FF59A7F0022E52D64036003020A25F584
:1008F30012F513F514F515F516F531F53274602577
:1009030032F58274023531F583E4F00532E5327055
:100913000205316440453170E4E4F531F532740089
:100923002532F58274013531F583E4F00532E53281
:10093300700205316440453170E4AB2EAA2FA93013
:10094300120423FF7E0064C06008EF64406003026A
:100953000A08EF64C04E700543AC80800353AC7F3C
:100963009000021206087F807E8D7D5B7C0012055D
:10097300448F368E358D348C33E4FFFE7D01FCAB22
:1009830036AA35A934A833C31205E440037FFF22F6
:10099300C3E49536F536E49535F53574019534F5AC
:1009A30034E49533F533AB2EAA2FA930900001120E
:1009B300043CFB7A006403701D43AC40AF36AE3594
:1009C300AD34AC3378081205F58FD48536D553D1C1
:1009D300F043D10A8032EB64024A7026538EEF5300
:1009E300ACBF538EF7438E04AF36AE35AD34AC3364
:1009F30078081205F58FD68536D753AFFB438E1093
:100A030080067FFF227FFF22AB2EAA2FA930900002
:100A13000712043CC454F0FFE5AC54EF4FF5AC7F30
:100A23000022E52D64046003020B61F517F518F548
:100A330019F51AF51BF531F53274A02532F58274D8
:100A4300023531F583E4F00532E532700205316495
:100A530020453170E4E4F531F53274C02532F58276
:100A630074013531F583E4F00532E5327002053166
:100A73006420453170E4AB2EAA2FA930120423FF62
:100A83007E0064C06008EF64406003020B44EF64BF
:100A9300C04E7005438480800353847F900002120C
:100AA30006087F807E8D7D5B7C001205448F368E29
:100AB300358D348C33E4FFFE7D01FCAB36AA35A9BA
:100AC30034A833C31205E440037FFF22C3E4953601
:100AD300F536E49535F53574019534F534E49533FD
:100AE300F533AB2EAA2FA93090000112043CFB7AF8
:100AF300006404701D438440AF36AE35AD34AC336F
:100B030078081205F58FD28536D353D10F43D1A080
:100B13008032EB64024A7026538EEF5384BF538EA8
:100B2300F7438E04AF36AE35AD34AC3378081205D7
:100B3300F58FD68536D753AFFB438E1080067FFFE4
:100B4300227FFF22AB2EAA2FA93090000712043C6C
:100B5300C454F0FFE58454EF4FF5847F00227FFFF8
:100B630022AD07ED707EC28C120423FED39403746E
:100B730080948040037FFF22E58954FC4EF58990E1
:100B8300000112043CFED394027480948040037FDE
:100B9300FF22EEFF7E007006538E7F5389FBEF64C6
:100BA300014E7006438E805389FBEF64024E70033F
:100BB30043890490000212043CFFE58F54FE4FF575
:100BC3008F9000031204D0E5F0F58C90000312041B
:100BD300D0F58A90000512043C7004C28C8002D2C6
:100BE3008C7F0022ED64016003020C74C28E120438
:100BF30023FED394037480948040037FFF22EEC4CA
:100C030054F0FFE58954CF4FF58990000112043C5D
:100C1300FED394027480948040037FFF22EEFF7E14
:100C2300007006538EBF5389BFEF64014E700643B5
:100C33008E405389BFEF64024E7003438940900096
:100C43000212043C25E0FFE58F54FD4FF58F900021
:100C5300031204D0E5F0F58D9000031204D0F58B58
:100C630090000512043C7004C28E8002D28E7F0075
:100C730022ED64027061538EEF90000112043CFF79
:100C83007E007006538EFB538EF7EF64014E7006A1
:100C9300438E04538EF7EF64024E7003438E089025
:100CA300000212043C25E025E0FFE58F54FB4FF5DD
:100CB3008F9000031204D0E5F0F5D69000031204E0
:100CC300D0F5D790000512043CC454F0FFE58E54D0
:100CD300EF4FF58E7F0022ED6403706953D1F790D7
:100CE300000112043CFED394027480948040037F7D
:100CF300FF22EEFF7E00700653D1FD53D1FBEF645C
:100D0300014E700643D10253D1FBEF64024E7003D0
:100D130043D10490000212043CFFE5D154FE4FF589
:100D2300D19000031204D0E5F0F5D490000312042F
:100D3300D0F5D590000512043C33333354F8FFE566
:100D4300D154F78076ED6404707753D17F9000011E
:100D530012043CFD7C00D394027480948040037F92
:100D6300FF22ED4C700653D1DF53D1BF9000011227
:100D7300043C6401700643D12053D1BF900001129B
:100D8300043C6402700343D14090000212043CC44B
:100D930054F0FFE5D154EF4FF5D19000031204D086
:100DA300FDACF0ECF5D2AF058FD390000512043CF7
:100DB300C43333335480FFE5D1547F4FF5D17F00E3
:100DC300227FFF228F248D258B26E4F538F537F516
:100DD30036F535C3E5269FF52AE49400F529AF25BA
:100DE3007E00C3E5279FF52CE49EF52B7531008526
:100DF30024328E338F34D3E52A9400E5296480941A
:100E0300804008752D00752E01801DE52A45297047
:100E130006F52DF52E801174FFF52DF52EC3E495FF
:100E23002AF52AE49529F529D3E52C9400E52B64CA
:100E33008094804008752F00753001801DE52C4596
:100E43002B7006F52FF530801174FFF52FF530C3A5
:100E5300E4952CF52CE4952BF52BE52E452D702DE3
:100E6300F528E52C2401FFE4352BFED3E5289FEE7E
:100E73006480F87480984003020F76AF32E53085C2
:100E830028F0A42534FD121369052880D5E53045E3
:100E93002F702DF528E52A2401FFE43529FED3E53B
:100EA300289FEE6480F87480984003020F76E52E45
:100EB3008528F0A42532FFAD34121369052880D5A7
:100EC300AC24E412036EC004C005C006C007AC2600
:100ED300E412036ED003D002D001D0001200C9C0C7
:100EE30004C005C006C007AC25E412036EC004C0ED
:100EF30005C006C007AC27E412036ED003D002D0AE
:100F030001D0001200C9D003D002D001D0001202D8
:100F1300C78F388E378D368C35E4F528E52A2401C2
:100F2300FFE43529FED3E5289FEE6480F8748098AA
:100F33005041E5282532FFC007AC28E412036EAB0D
:100F430038AA37A936A8351201BEC004C005C006A9
:100F5300C007AC33AD34EC120369D003D002D00127
:100F6300D0001200CD1203A2AD07D00712136905FA
:100F73002880A922E4F527F526F525F524E47FE862
:100F83007E03FDFCAB27AA26A925A824C31205E4EA
:100F9300504CE4F52BF52AF529F528E47FE87E0388
:100FA300FDFCAB2BAA2AA929A828C31205E45017D4
:100FB300E52B2401F52BE4352AF52AE43529F52917
:100FC300E43528F52880D4E5272401F527E43526E0
:100FD300F526E43525F525E43524F524809F7FAEF9
:100FE3001200267FD51200267F801200267FA812CA
:100FF30000267F3F1200267FD3120026E4FF120053
:10100300267F401200267FA11200267FC8120026E9
:101013007FDA1200267F121200267F811200267FBC
:10102300CF1200267FD91200267FF11200267FDB24
:101033001200267F301200267FA41200267FA612FC
:1010430000267F8D1200267F141200267FAF120028
:10105300260216D9C0E0C083C082C0D075D000C0BC
:1010630006C00790FE84E030E606E054BFF0807AC5
:1010730090FE84E030E535E054DFF0E51D60057552
:101083001D008066E51C600D751C0090FE87E0F571
:101093001E24C0803490FE87E0FFAE1E051E74C080
:1010A3002EF582E43402F583EFF0803E90FE84E077
:1010B30030E424E054EFF0E030E10890FE8674FF62
:1010C300F08027051E74C0251EF582E43402F583E3
:1010D300E090FE86F0801390FE84E030E30CE05451
:1010E300F7F0751D01751C01D201D007D006D0D0D1
:1010F300D082D083D0E032787FE4F6D8FD75815377
:10110300021141021186E493A3F8E493A34003F68A
:101113008001F208DFF48029E493A3F85407240C38
:10112300C8C333C4540F4420C8834004F456800119
:1011330046F6DFE4800B0102040810204080900093
:10114300A6E47E019360BCA3FF543F30E509541F1E
:10115300FEE493A360010ECF54C025E060A840B81D
:10116300E493A3FAE493A3F8E493A3C8C582C8CA9B
:10117300C583CAF0A3C8C582C8CAC583CADFE9DE6E
:10118300E780BEE4F522F52343BA801217AB1217AA
:101193004E1200661216A712172CD2AF120F773019
:1011A30000FDC2000551AF21121280EEC4F854F0C5
:1011B300C8EFC4540F48FFD3943F74809480AE07A4
:1011C30040027E3FAF0612176F12170A8F4CC3E51A
:1011D3004B947F7480948040047F008004E54B042B
:1011E300FF8F4BD3EF940074809480400C854C2781
:1011F300AB4BAD23AF22120DC7854B22854C238009
:101203009E90000212043C6401702990FE80E04429
:1012130040F090FE82E4F0120423543FFF90FE80DE
:10122300E054C04FF090000312043C640190FE8828
:10123300702C803090FE80E054BFF090FE84E4F088
:1012430090000412043C25E0FF90FE85E054014F1A
:10125300F090000512043C640190FE857006E05492
:10126300FEF08004E04401F090000112043C90FE83
:10127300807005E0547FF022E04480F022EFD394A5
:101283000F7480948040028069E4F5BDF5BEE5BC2F
:1012930054F044404FF5BC00000000000000000083
:1012A30000E4FDEDC394FA748094805045E5BC30AE
:1012B300E53D53BCDFE5DEAFBD30E50EEFFEACBE72
:1012C300ECFBEEF524EBF52580207524008F25E556
:1012D300BEC4540FFBE525C4F8540FC868FFE524CA
:1012E300C454F048F524EF4BF525AE24AF25220D69
:1012F30080B17E107F0022EFD394017480948040EC
:10130300037FFF22EBD394037480948040037FFF19
:1013130022EF64017012ED90FE817006E0547FF0BD
:101323008011E04480F0800BEF700890FE83E0545E
:10133300874DF0EBFF7E00700653B6DF53B5DFEF4A
:1013430064014E700653B6DF43B520EF64024E705E
:101353000643B62053B5DFEF64034E700643B62051
:1013630043B5207F00228F39E4F53BD3EF947F749C
:101373008094805055ED943F74809480504CC37496
:101383003F9DFD131313541FF53AED5407FFF874F3
:1013930001088002C333D8FCF53BAD39AF3A1217CD
:1013A3008DAF3B120046E4F53CC3E53C94087480E2
:1013B30094805016E53C653A600CAD39AF3C12178A
:1013C3008DE4FF120046053C80DF229000011204E9
:1013D3003CFFE5DE54F04FF5DE90000212043CC4FE
:1013E3003354E0FFE5DE54DF4FF5DE120423D394DC
:1013F3001F74809480503790000312043CFFD394F1
:101403000174809480502790000412043CFED3940E
:1014130003748094805017EEC43354E0FEEFC4335A
:10142300333354804EFF1204234F90FEA8F022EF73
:10143300FB7A00D394017480948040037FFF22EDF4
:10144300D394037480948040037FFF22EB4A70049B
:10145300C2A98002D2A9ED700553B7FDC2B9EDFF51
:101463007E006401700553B7FDD2B9EF64024E707C
:101473000543B702C2B9EF64034E700543B702D206
:10148300B97F0022EFFB7A00D394017480948040EB
:10149300037FFF22EDD394037480948040037FFF86
:1014A30022EB4A7004C2AD8002D2ADED700553B792
:1014B300DFC2BDEDFF7E006401700553B7DFD2BD0F
:1014C300EF64024E700543B720C2BDEF64034E7054
:1014D3000543B720D2BD7F0022EFFB7A00D39401EE
:1014E3007480948040037FFF22EDD394037480942F
:1014F3008040037FFF22EB4A7004C2AC8002D2AC6F
:10150300ED700553B7EFC2BCEDFF7E0064017005BB
:1015130053B7EFD2BCEF64024E700543B710C2BCA1
:10152300EF64034E700543B710D2BC7F0022C0E0C6
:10153300C083C082C0D075D000C007E5AC54016041
:101543002553ACFEC3E51594407480948040037525
:101553001500AF15051574002FF582E43401F583EA
:10156300E5ADF0751605E5AC5402600653ACFD75A8
:101573001400D007D0D0D082D083D0E032C0E0C0F6
:1015830083C082C0D075D000C007E58454016025B4
:101593005384FEC3E51A9420748094804003751A23
:1015A30000AF1A051A74C02FF582E43401F583E500
:1015B30085F0751B05E584540260065384FD751997
:1015C30000D007D0D0D082D083D0E032C0E0C08337
:1015D300C082C0D075D000C007E59A30E025539A89
:1015E300FEC3E5109480748094804003751000AFAF
:1015F30010051074802FF582E43400F583E59BF029
:10160300751105E59A30E106539AFD750F00D00771
:10161300D0D0D082D083D0E032C0E0C083C082C0BB
:10162300D075D000C007309824C298C3E50B9480CE
:10163300748094804003750B00AF0B050B74002F6F
:10164300F582E43400F583E599F0750C05309905CE
:10165300C299750A00D007D0D0D082D083D0E032AF
:101663008F3FE4F540C3E540940874809480502A8A
:101673007E007480A840088006CEA2E713CE13D85C
:10168300F8FFEF553F24FF92811217D2D280121731
:10169300D2C2801217D2054080CBD2801217D2C299
:1016A300800217D27524407525017529007528C25B
:1016B300752701752600752B01E4F52CFB7A00795B
:1016C300247F0112066E7D017F011214DCE5A25412
:1016D3003F4440F5A222E4F52DC3E52D9408748020
:1016E30094805022E4FDAF2D12178DE4F52CC3E551
:1016F3002C9480748094805009E4FF120046052CDA
:1017030080EC052D80D322E4FFFEFDEDC3940A7423
:10171300809480500D74412DF8E62FFFE43EFE0DBA
:1017230080E97C007D0A02047B75241FE4F527759C
:10173300280175250F752601FB7A0079241213CE33
:101743007F011217BEE4FDFF021487E4F52475251B
:1017530001F5267527A2752840752901FB7A0079C2
:1017630024FF120B64E4FD7F01021432E4FEEEC396
:10177300940974809480500F74422EF8E6FD7441EE
:101783002EF8A6050E80E78F4A228D3DEF44B0FF69
:10179300120026E53D54F0C4540F4410FF120026F6
:1017A300E53D540FFF0200265393FC5394FC7591BF
:1017B300FF75920053B13F53B23F22EF64017004AF
:1017C30043BC802253BC7F22D2811217D2D2807FA6
:0417D3000CDFFE2207
:00000001FF
