:020000040800F2
:10000000786B002029030008C73C000895360008DB
:10001000C53C0008970A00080147000800000000DE
:10002000000000000000000000000000690200085D
:100030009F11000800000000C5020008D53F00081D
:100040004303000843030008430300084303000878
:100050004303000843030008430300084303000868
:100060004303000843030008C513000843030008C6
:100070005D0D000843030008430300084303000824
:10008000690D0008750D00084303000843030008CC
:10009000C10A00084303000843030008CB1300080B
:1000A0004303000843030008430300084303000818
:1000B000AD40000843030008430300084303000861
:1000C00043030008430300084303000843030008F8
:1000D00043030008E94500083D4600089146000832
:1000E00043030008430300084303000843030008D8
:1000F00043030008430300084303000843030008C8
:1001000043030008430300084303000843030008B7
:1001100043030008430300084303000843030008A7
:10012000810D0008430300088D0D0008990D00089B
:100130004303000843030008430300084303000887
:10014000D10B0008430300084303000843030008E1
:100150004303000843030008A50D000843030008FB
:100160004303000843030008430300084303000857
:100170004303000843030008430300080000000095
:10018000430300084303000800F002F800F05CF8A5
:100190000AA090E8000C82448344AAF10107DA45E2
:1001A00001D100F051F8AFF2090EBAE80F0013F0D8
:1001B000010F18BFFB1A43F0010318472872000013
:1001C000487200000A444FF0000C10F8013B13F095
:1001D000070408BF10F8014B1D1108BF10F8015BA0
:1001E000641E05D010F8016B641E01F8016BF9D193
:1001F00013F0080F1EBF10F8014BAD1C0C1B09D1EA
:100200006D1E58BF01F801CBFAD505E014F8016B5B
:1002100001F8016B6D1EF9D59142D6D370470000ED
:100220000023002400250026103A28BF78C1FBD8FF
:10023000520728BF30C148BF0B6070471FB506F09A
:100240006FFC1FBD10B510BD00F088F91146FFF717
:10025000F5FF04F077FF00F0A6F903B4FFF7F2FF13
:1002600003BC00F0A9F900002C4B19680868B0E83D
:10027000F04F80F30988BFF36F8F4FF0000080F3D9
:10028000118870470000000008480068006880F38B
:1002900008884FF0000080F3148862B661B6BFF39F
:1002A0004F8FBFF36F8F00DF00BF00BF08ED00E08E
:1002B000DFF80C00016841F470010160704700BF75
:1002C00088ED00E0EFF30980BFF36F8F134B1A68DE
:1002D0001EF0100F08BF20ED108A20E9F04F1060CB
:1002E00009B44FF0500080F31188BFF34F8FBFF374
:1002F0006F8F06F03DFA4FF0000080F3118809BCC3
:1003000019680868B0E8F04F1EF0100F08BFB0EC95
:10031000108A80F30988BFF36F8F7047241F002075
:10032000EFF30580704700000948804709480047FF
:10033000FEE7FEE7FEE7FEE7FEE7FEE7FEE7FEE795
:10034000FEE7FEE704480549054A064B70470000F2
:100350009D4000088901000878650020786B002026
:10036000786700207867002053EA020C00F069806B
:100370002DE9F04B4FF00006002B1FBFB3FA83F5B9
:1003800003FA05F424FA05F65E4012BF1643B2FAEA
:1003900082F502FA05F4C5F120051EBF22FA05FC1C
:1003A00044EA0C04203556EA044C4FEA144418BFC2
:1003B000641C4FF000084FF00009904271EB030CF1
:1003C00039D3002919BFB1FA81F701FA07F6B0FA5B
:1003D00080F700FA07F6C7F120071EBF20FA07FCD6
:1003E00046EA0C062037B6FBF4FCA7EB0507103FE6
:1003F00007F01F0BCBF120060CFA0BFB2CFA06F6CC
:1004000044BFB3460026202FA4BF5E464FF0000B2A
:100410005BEA060C08BF4FF0010B19EB0B09ABFBB5
:10042000027C48EB0608C01B06FB02CC0BFB03CC8E
:1004300071EB0C01C1E70B46024641464846BDE858
:10044000F08B13B54FF000004FF00001AFF30080C8
:10045000BDE81C40704710B5203AC0F00B80B1E8F1
:100460001850203AA0E81850B1E81850A0E81850E9
:10047000BFF4F5AF5FEA027C24BFB1E81850A0E8F2
:10048000185044BF18C918C0BDE810405FEA827C0C
:1004900024BF51F8043B40F8043B08BF7047D20723
:1004A00028BF31F8023B48BF11F8012B28BF20F8C4
:1004B000023B48BF00F8012B70474FF000020429AF
:1004C000C0F0128010F0030C00F01B80CCF1040C83
:1004D000BCF1020F18BF00F8012BA8BF20F8022BB7
:1004E000A1EB0C0100F00DB85FEAC17C24BF00F85D
:1004F000012B00F8012B48BF00F8012B70474FF08B
:10050000000200B5134694469646203922BFA0E863
:100510000C50A0E80C50B1F12001BFF4F7AF09076F
:1005200028BFA0E80C5048BF0CC05DF804EB890060
:1005300028BF40F8042B08BF704748BF20F8022BA3
:1005400011F0804F18BF00F8012B704770477047BB
:100550007047000000487047186500207546FFF797
:10056000F9FFAE4605006946534620F00700854670
:1005700018B020B5FFF7E6FEBDE820404FF00006BA
:100580004FF000074FF000084FF0000B21F007017B
:10059000AC46ACE8C009ACE8C009ACE8C009ACE8BE
:1005A000C0098D46704710B50446AFF30080204661
:1005B000BDE81040FFF751BE01491820ABBEFEE771
:1005C000260002007047000010B504462DED088B90
:1005D00082B094ED326AD4ED336A94ED340AF6EECB
:1005E000000A60EE203A94ED213AD4ED222A94EDEF
:1005F000232AD4ED241A94ED037A94ED044AD4ED21
:10060000054A94ED069AD4ED078A94ED088A27EE00
:10061000040A20EE240AB5EEC00AF1EE10FA7DD0ED
:1006200023EE030A02EEA20A02EE020A01EEA10A7A
:1006300004F072FD23EE003A62EE802A22EE002AD8
:1006400061EE801A27EE070A04EE040A04EEA40AFB
:1006500004F062FD27EE007A64EE009A24EE801A20
:1006600022EEA10AB0EE00AA03EE420A20EE0A5AD8
:1006700023EE220A02EE210A20EE0A0A63EE030AA2
:1006800042EEE20A42EE420A41EEA10A29EEA04AF7
:1006900001EE404A21EE051A07EE601A67EE004AA5
:1006A00049EEC54A624890ED020A04EE260A80ED42
:1006B000020AD0ED030A41EE260AC0ED030A90EDCE
:1006C000045A04EEA65A80ED045A06EE049A39EE56
:1006D000000A46EE018A78EEA00A06EE248A38EE79
:1006E000051AB1EE624AF0EE437A24EE004A02EEB9
:1006F000604A01EEC14A44EE237A23EE004AF0EE4E
:10070000625A02EE014A01EEE04A44EE235A23EE19
:10071000204A02EEC14A01EE804A00E083E0B0EEDA
:10072000425A04EE235A23EE011A02EEA01A02EEF8
:10073000401A41EE231A27EEA70A05EEA50A05EE98
:10074000050A01EEA10A04F0E7FC67EE809A25EEA7
:10075000808A65EE008A21EE809AC4ED219A84EDAC
:10076000228AC4ED238A84ED249A28EE0A0A29EE0F
:100770008A1A60EE09AA41EE68AAB7EE000A0AEEEC
:10078000EA0AB5EEC00AF1EE10FA04DBF1EEC00A97
:10079000CDED010A03E09FED270A8DED010A69EE18
:1007A000A90A28EE8A0A04F15C00B0EE60BA48EEAD
:1007B000480A20EE090A01EE080A48EEE80A49EE66
:1007C000090A03F0AFFF04F15800DDED010AB0EEB5
:1007D0006A0A03F0A7FFF0EE4B0A28EE280A48EE5B
:1007E000080A04F1540009EE890A48EEE80A20EEEE
:1007F0000A0A49EE490A03F095FFD4ED170A9FED66
:100800000E0A60EE800AC4ED170AD4ED160A9FEDB9
:100810000B1A60EE810AC4ED160AD4ED150A20EE1B
:10082000800A84ED150A02B0BDEC088B10BD0000F3
:10083000841E002000000000DF2E6542DF2E65C20E
:1008400001221021014801F07FBC0000000002409D
:1008500000221021014801F077BC00000000024096
:100860007047000001221146014801F06DBC0000F4
:100870000004024000220121014801F065BC000093
:1008800000040240704770B504464FF47A7502E0E8
:10089000284600F004F8641EA4B2F9D270BD70B509
:1008A000054604F0CDF9044604F0CAF9001BA8423D
:1008B000FAD370BD10B5FFF7D3FFFFF7E3FF04F0E5
:1008C000CBF8044604F04EF9204310BD2DE9FC415D
:1008D00004460D461646002000900190FFF7B8FF31
:1008E000922000F0BFF806226946122000F09CF822
:1008F000FFF7A6FF9DF801009DF80010000200B26E
:10090000084300EE100A474FB8EEC00AD7ED000AC0
:1009100020EE200A85ED000A9DF803009DF80210E4
:10092000000200B2084300EE100AF8EEC00A97ED8C
:10093000000A60EE800AC5ED010A9DF805009DF8E9
:100940000410000200B2084300EE900AF8EEE00A3C
:1009500020EE800A85ED020AFFF78CFF0822694627
:10096000002000F061F8FFF77DFF9DF800000F28E0
:1009700030D19DF803009DF80210000200B2084338
:1009800000EE100AD7ED010AB8EEC00A20EE200AE8
:1009900084ED000A9DF805009DF80410000200B2E5
:1009A000084300EE100AF8EEC00A97ED010A60EE67
:1009B000800AC4ED010A9DF807009DF806100002A8
:1009C00000B2084300EE900AF8EEE00A20EE800A3A
:1009D00084ED020AFFF73CFFA22000F043F8022258
:1009E0006946222000F020F8FFF72AFF9DF800005A
:1009F0009DF80110C00040EA5110B0F5806F02DB95
:100A0000A0F5006000B200EE100AB4EE001AF8EE95
:100A1000C00AB3EE070A00EE810A86ED000ABDE8BF
:100A2000FC810000981E002070B50D46144640F071
:100A3000800000F017F806E0552000F013F805F8E4
:100A4000010B641EE4B2002CF6D170BD10B50C464B
:100A500040F0800000F006F8552000F003F8207008
:100A600010BD000001B582B04FF47A7000900123F0
:100A700001AA02A9024802F063F89DF804000EBD25
:100A80004822002010B50C46FFF7ECFF2046BDE8D9
:100A90001040FFF7E7BFFEE700B58BB001A800F0FC
:100AA0000AF901A9054800F019FD0221034800F0E8
:100AB00091FC024801F061F80BB000BD981F0020C6
:100AC000014800F01DBE0000981F002070B5174CB3
:100AD00040F2FF1525600025A560E5600826266127
:100AE000134C060A26706070080AA070E170100AA4
:100AF00020716271180AA071E3710020215C09B9AC
:100B0000401CC0B208280FD0401CC0B20828F5D342
:100B1000074B074A0C3B0549064800F06DFC0449A9
:100B20000C39CD600D6170BD002070BDD026002055
:100B3000D41E0020981F002070B5174C4FF400758C
:100B400025600025A560E56008262661134C060A8D
:100B500026706070080AA070E170100A207162713E
:100B6000180AA071E3710020215C09B9401CC0B2D1
:100B700008280FD0401CC0B20828F5D3074B0649FF
:100B80001B1F1A1D064800F037FC0449091F4D6061
:100B90008D6070BD002070BDD0260020CC1E0020CE
:100BA000981F00207047000000B58BB001A800F02E
:100BB00082F801A9054800F091FC0221034800F0E9
:100BC00009FC024800F0D9FF0BB000BDC01F002097
:100BD000014800F095BD0000C01F002070B5174C03
:100BE00040F2FF1525600025A560E5600826266116
:100BF000134C060A26706070080AA070E170100A93
:100C000020716271180AA071E3710020215C09B99A
:100C1000401CC0B208280FD0401CC0B20828F5D331
:100C2000074B074A343B0549064800F0E5FB0449F9
:100C300034394D638D6370BD002070BDD026002017
:100C4000FC1E0020C01F002070B5174C4FF400752B
:100C500025600025A560E56008262661134C060A7C
:100C600026706070080AA070E170100A207162712D
:100C7000180AA071E3710020215C09B9401CC0B2C0
:100C800008280FD0401CC0B20828F5D3074B074AEC
:100C90002C3B0549064800F0AFFB04492C39CD62D6
:100CA0000D6370BD002070BDD0260020F41E002012
:100CB000C01F002070470021016041608160C16059
:100CC0000161416181610122C2610262416270473A
:100CD0004178007841EA002070474179007941EA83
:100CE000002000B27047C178807841EA002000B24D
:100CF0007047807970474179007941EA002000B25D
:100D00007047000010B5124A016891420DD1114B95
:100D100000211C46A3F11C0200F069FC0D4821468D
:100D20001C380068FFF73EFF10BD0B4A9142FBD113
:100D3000084B002124331C46A3F11C0200F057FC91
:100D40000448214608300068FFF7B4FF10BD0000DA
:100D5000006400400427002000680040014800F0C3
:100D600099BF000000260020014800F093BF00005A
:100D700040250020014800F08DBF0000A025002084
:100D8000014800F087BF0000A0220020014800F0C9
:100D900081BF000080240020014800F07BBF0000DC
:100DA00000230020014800F075BF0000E02400206F
:100DB0002DE9F04F099E00248568802D18D0A24DA2
:100DC000C563A24D456490F83450012D15D001251E
:100DD00080F8345090F83550012D10D0002180F863
:100DE00034100224002180F834102046BDE8F08F32
:100DF0004FF4807141650120F8E70220F6E70225F3
:100E000080F835500025456505682F6847F4802730
:100E10002F6005682B6103685E608368402B25D0D6
:100E2000036899600168CA608A4D8A4E884FDFF86E
:100E300020E2EA14DFF81CC2DFF81482DFF8149213
:100E4000DFF80CA201687836303793020CF1300CD1
:100E5000A8F1180809F190090AF1480A4FF0006B4F
:100E600071453BD9A94206D1202233E003689A603C
:100E70000268D160D8E7764D483DA94201D12022D1
:100E800028E0744D6035A94201D1202222E0704D46
:100E90001835A94201D120221CE06E4D1835A94217
:100EA00018D06B4D303DA94214D0B14212D0B94296
:100EB00010D0614501D11A460CE0414501D11A46D6
:100EC00008E0494501D11A4604E0514501D11A46CE
:100ED00000E05A465E494C390A60AFE0DFF874E141
:100EE0000EF1A80E714536D9A94201D120222EE07B
:100EF000574D483DA94201D1202228E0554D60358B
:100F0000A94201D1202222E0514D1835A94201D138
:100F100020221CE04F4D1835A94218D04C4D303DD1
:100F2000A94214D0B14212D0B94210D0614501D1CA
:100F30001A460CE0414501D11A4608E0494501D165
:100F40001A4604E0514501D11A4600E05A4640498C
:100F500050390A6072E0DFF8FCE00EF1480E71458E
:100F600036D9A94201D120222EE0394D483DA9426F
:100F700001D1202228E0374D6035A94201D120223D
:100F800022E0334D1835A94201D120221CE0314D19
:100F90001835A94218D02E4D303DA94214D0B14287
:100FA00012D0B94210D0614501D11A460CE041453A
:100FB00001D11A4608E0494501D11A4604E05145DD
:100FC00001D11A4600E05A4622491039CA6035E07C
:100FD000A94201D120222EE01D4D483DA94201D158
:100FE000202228E01B4D6035A94201D1202222E0B9
:100FF000174D1835A94201D120221CE0154D183596
:10100000A94218D0124D303DA94214D0B14212D09D
:10101000B94210D0614501D11A460CE0414501D1D9
:101020001A4608E0494501D11A4604E0514501D16C
:101030001A4600E05A46074910398A6001680A6872
:1010400042F001020A60CDE68D4C0008A54C000874
:1010500058640240106002400168CAB2103A182376
:10106000B2FBF3F2064B9B5CC3656FF30901032AE5
:1010700002D9091D816500E08165806D704700001F
:10108000C473000810B5014600208A6A8B694FF0CE
:10109000C074002B0ED0B3F5005F1AD062B3012AE2
:1010A0002AD0022A28D0032A03D1C96AC90100D54F
:1010B000012010BD1AB1012A06D0022AF9D1C96A4D
:1010C000C901F6D5012010BDC96AA142FBD101209A
:1010D00010BD52B1012A0AD0022A06D0032AF7D144
:1010E000C96AA142F4D1012010BD012010BDC96A16
:1010F000C901FBD5012010BD012010BD70B5002431
:1011000090F83450012D0CD0012580F8345090F81F
:1011100035600025012E06D080F834500224204688
:1011200070BD022070BD022680F8356045650568F7
:101130002E6826F480262E6005686B608368402B3D
:1011400009D0036899600168CA600068016841F0CD
:1011500001010160E3E703689A600268D160F4E787
:1011600001680A68D20604D5C968C90601D505F028
:1011700061B97047F0EE401AB0EE600A71EEC00A35
:10118000F5EEC00AF1EE10FA01DC70EE610AF4EE41
:10119000C10AF1EE10FA01D3B0EE610A7047704750
:1011A00070B5514880688047504D2846D5F8941254
:1011B0008847D5F8601505F533708847D5F82C18A1
:1011C00005F5B3608847D5F8F81A05F66400884736
:1011D000D5F8C41D05F533608847454CA4F5257046
:1011E00021688847D4F8981504F541708847D4F8E9
:1011F000CC1204F138008847D4F8641804F5BA60BA
:101200008847D5F89C223B4905F12C009047394985
:10121000D5F868251C31A4F6985090473549D5F883
:1012200034283831A4F6CC2090473249D5F8002B29
:101230005431A4F5006090472E49D5F8CC2D70317B
:10124000A4F5677090472B49D5F8CC2D8C31A4F5C7
:10125000787090472749A268A831A4F1D000904740
:101260002449A268C431A4F58A7090472149D5F871
:10127000CC2DE031A4F5457090471E49D5F8CC2D12
:10128000FC31A4F556709047A2681B49A4F14800B0
:1012900090471949A2681C31A4F18C009047164967
:1012A000D4F8A025383104F54C7090471249D4F891
:1012B000D422383104F1640090470F49D4F86C28E7
:1012C000543104F2FC5090470B49D4F86C2870312B
:1012D00004F20C70904704F5D960D4F86C28BDE88E
:1012E000704005498C311047241D0020D00100209A
:1012F0006012002010000020280100200EB590EDA3
:10130000170AD0ED1A0A30EE600A8DED000A90ED52
:10131000160AD0ED190A30EE600A8DED010A90ED43
:10132000150AD0ED180A30EE600A8DED020A002190
:101330009FED122A6B4603EB8102F0EE420A92ED1A
:10134000000A03F0FAFC82ED000A491CC9B2032925
:10135000F1D3DDED000A9FED0A0A60EE800AC0EDD0
:101360001B0ADDED010A60EE800AC0ED1C0ADDED0E
:10137000020A20EE800A80ED1D0A0EBD0000B44373
:1013800000007A4410B50E48D0F8101188470A20A2
:1013900000F0D2FDFFF780FBFFF706FC03F030F909
:1013A00003F058F903F080F9012002F05BFA022003
:1013B00002F058FABDE81040032002F053BA0000D2
:1013C000581D0020102000F0CBBD202000F0C8BD2B
:1013D00072B6FEE790F82020012A07D0022A05D035
:1013E000416A41F4802141620120704700684269EE
:1013F0000A43426100207047F0B590F8205004681D
:10140000A468012D07D0022D05D0416A41F4802146
:1014100041620120F0BD04F0806504F000663543B0
:1014200001D1E50053D5C4F301640125A5401D6039
:101430008B684FF4C0759BB1CE6805EB041733433E
:101440004E6843EAC6030668F3514FF4C273076857
:1014500003EB04130E69FE50097D012909D00DE04C
:101460000E88CB6805EB041743EA46530668F35130
:10147000EBE70168CE5846F48076CE501179D379E7
:10148000567941EA036193791B0443EA0623194321
:101490004FF4C676036806EB041699511178D37899
:1014A00041EA0361937852781B0443EA0222114314
:1014B0004FF4C473026803EB0413D150006805EBCA
:1014C0000411425842F0010242500020F0BD416A2E
:1014D00041F4001141620120F0BD000010B590F808
:1014E0002020012A07D0022A05D0416A41F4802138
:1014F0004162012010BD3C4800F50070026842F0D6
:1015000001020260026822F47C52026002684B6AA7
:1015100042EA032202600A7D02F01F0301229A4080
:10152000C3699343C361A0F50070CB69B3B9D0F828
:101530000C329343C0F80C328C894B6864F31F4320
:101540004C6900EBC404C4F840320C890B6864F3A6
:101550001F434C6900EBC404C4F84432CB69012B2F
:1015600016D1D0F80C321343C0F80C320C884B68FB
:1015700064F31F434C6900EBC404C4F840320C8987
:10158000CB6864F31F434C6900EBC404C4F84432D5
:101590008B697BB1D0F804321343C0F804320B6975
:1015A00073B1D0F814321343C0F81432096A012918
:1015B0000CD010E0D0F804329343C0F80432EEE7C8
:1015C000D0F814329343C0F81432EFE7D0F81C126D
:1015D0001143C0F81C12D0F8001221F00101C0F82C
:1015E0000012002010BD000000640040704770B57C
:1015F00090F82040012C07D0022C05D0416A41F41C
:1016000080214162012070BD21B104682469A407D2
:101610002AD003E00468E468A4071FD04FF4D8740C
:10162000056804EB01142D5905F0040595600DB310
:1016300005682D59ED08556005682C5904F0020421
:10164000D4604FF4DA74056804EB01142E5906F0E7
:101650000F06082E13D30825156114E0416A41F4E2
:1016600000114162012070BD416A41F400114162E4
:10167000012070BD05682D596D0D1560DCE72D59F1
:1016800005F00F05156105682D59C5F3072595610E
:1016900005682C59240C54614FF4DC72046802EB89
:1016A0000112A4581C700468A458240A5C700468D1
:1016B000A458240C9C700468A258120EDA704FF4DF
:1016C000DE72046802EB0112A4581C710468A4586D
:1016D000240A5C710468A458240C9C710468A25804
:1016E000120EDA7131B10068016941F02001016127
:1016F000002070BD0068C16841F02001C160F7E7BB
:101700002DE9F05F0546002428684669D0F804906A
:101710008768D0F80CA0D0F810B0D0F81880F10786
:1017200048D0F90714D001218160B80703D52846B5
:1017300000F050FA0CE0780702D54FF4006407E09F
:10174000380702D54FF4805402E0284600F041FAF1
:10175000F80516D529684FF480708860B80503D560
:10176000284600F039FA0CE0780502D544F400541C
:1017700007E0380502D544F4804402E0284600F032
:101780002AFAF80316D529684FF480308860B80328
:1017900003D5284600F022FA0CE0780302D544F481
:1017A000004407E0380302D544F4803402E02846C0
:1017B00000F013FA300707D55FEACA6004D544F495
:1017C000007429681020C86070074FF0080707D51B
:1017D0005FEA0A7004D52868C760284600F0B8F9A7
:1017E000B00706D52868C068800702D0284600F0F8
:1017F000B1F9700607D55FEACB6004D544F4806484
:10180000296810200861B00607D55FEA0B7004D57F
:1018100028680761284600F0ADF9F00606D528686B
:101820000069800702D0284600F0A5F9B00308D56A
:101830005FEAC96005D5296810204860284600F095
:101840009BF9F00307D55FEA097004D52868476063
:10185000284600F0C4F9300446D55FEA497040D507
:10186000F00504D55FEAC87001D044F00104B0056A
:1018700004D55FEA887001D544F00204700504D5F0
:101880005FEA487001D544F00404300529D518F00A
:10189000700F26D008F07000402815D006DC102804
:1018A00009D020280AD0302816D10AE050280ED0BE
:1018B000602811D10EE044F008040DE044F010045B
:1018C0000AE044F0200407E044F0400404E044F05F
:1018D000800401E044F480742868816921F070017B
:1018E0008161296804204860002C05D0686A204383
:1018F00068622846FFF77AFEBDE8F09F70B504469F
:10190000002C03D094F8200010B104E0012070BD39
:10191000204600F09DF82068016841F00101016057
:1019200000F01AFC054605260CE000F015FC401BF3
:101930000A2807D9606A40F40030606284F82060A9
:10194000012070BD20684068C007EED020680168A3
:1019500021F00201016000F0FFFB05460CE000F001
:10196000FBFB401B0A2807D9606A40F40030606224
:1019700084F82060012070BD206840688007EED4A4
:10198000207E01283FD02068016821F0800101609D
:10199000607E01283DD02068016821F0400101608F
:1019A000A07E01283BD02068016821F02001016061
:1019B000E07E012839D02068016841F01001016003
:1019C000207F012837D02068016821F008010160DC
:1019D000607F012835D02068016821F00401016092
:1019E000D4E902010843D4E90412114308436168B1
:1019F000491E08432168C86100206062012084F804
:101A00002000002070BD2068016841F08001016065
:101A1000BEE72068016841F040010160C0E720682E
:101A2000016841F020010160C2E72068016821F0EF
:101A300010010160C4E72068016841F008010160FD
:101A4000C6E72068016841F004010160C8E70000B2
:101A50002DE9F04186B00446142101A8FEF74FFDA0
:101A6000364B374ADFF8D08018682168344C03269B
:101A70000227401C103200254FF0090C414527D1A8
:101A80001860012807D1106840F0007010601068DD
:101A900000F000700090206840F00800206020688E
:101AA00000F0080000900196029703950496CDF887
:101AB00014C001A9234800F05FFA00220521142078
:101AC00000F028FC142000F017FC06B0BDE8F081FF
:101AD000DFF874804145F8D1116841F080611160F0
:101AE000116801F0806100911860012807D1106829
:101AF00040F000701060106800F0007000902068E6
:101B000040F002002060206800F002000090602099
:101B10000190029703950496CDF814C001A90B48D3
:101B200000F02AFA00220521402000F0F3FB4020BB
:101B300000F0E2FBC9E70000006400400000002064
:101B400030380240000C02400068004000040240AF
:101B500070470000054A0168914201D1FFF7D2B8F1
:101B6000034A914201D1FFF7CDB8704700640040AD
:101B70000068004070477047704770B5044694F89D
:101B80002000012805D0606A40F400206062012036
:101B900070BD022084F820002068016821F0010156
:101BA000016000F0D9FA05460DE000F0D5FA401BBF
:101BB0000A2808D9606A40F400306062052084F881
:101BC0002000012070BD20684068C007EDD1606230
:101BD00070BD7047704770477047704770477047D7
:101BE0002DE9F0410446A76D00F0B6FA054694F8D9
:101BF00035000026022806D08020606584F8346015
:101C00000120BDE8F0812068016821F01601016023
:101C10002068416921F080014161206C08B9A06C05
:101C200020B12068016821F0080101602068016886
:101C300021F0010101600BE000F08EFA401B052845
:101C400006D9202034342062032060702670D8E743
:101C500020680068C007EFD134343F2094F8281082
:101C60008840B8600120607026700020C9E790F8B5
:101C70003510022903D080214165012070470521DC
:101C800080F835100068016821F001010160002032
:101C9000704700002DE9F84304464FF00009CDF8E5
:101CA00000906F484FF416510068B0FBF1F7A56D36
:101CB0002E6894F85C00082202FA00F1314210D03C
:101CC0002068016849070CD5016821F00401016012
:101CD00094F85C0002FA00F1A960606D40F0010028
:101CE000606594F85C104FF0010808FA01F030428A
:101CF00008D021684969090604D5A860606D40F0E4
:101D00000200606594F85C1004208840304208D0DE
:101D100021680968890704D5A860606D40F0040057
:101D2000606594F85C1010208840304220D0216813
:101D3000096809071CD5A8602068016849030CD50B
:101D40000068000304D4216C91B1204688470FE05D
:101D5000A16C69B1204688470AE00168C90503D42F
:101D6000016821F008010160216C09B12046884713
:101D700094F85C102020884030424CD021680968DB
:101D8000C90648D5A86094F8350005280BD020680E
:101D90000168490330D50068000328D4616C51B351
:101DA0002046884737E02068016821F0160101606D
:101DB0002068416921F080014161206C08B9A06C64
:101DC00020B12068016821F00801016094F85C10DE
:101DD0003F208840A86084F8358084F83490216DD5
:101DE00000293BD001B02046BDE8F0430847E16B35
:101DF00009B1204688470EE00168C90507D401688B
:101E000021F01001016084F8358084F83490E16B92
:101E100009B120468847606D00281FD0606DC0075B
:101E200014D0052084F835002068016821F00101F4
:101E300001600098401C0090B84203D820680068F8
:101E4000C007F6D184F8358084F83490E16C00291D
:101E500004D001B02046BDE8F0430847BDE8F88350
:101E6000201F00202DE9F041044600F075F90546D9
:101E70005CB1022084F83500002684F834602068C4
:101E8000016821F0010101600DE00120BDE8F08151
:101E900000F062F9401B052805D920206065032069
:101EA00084F83500F2E720680068C007F0D12168A7
:101EB0000A6820480240D4E901031843D4E90335F5
:101EC0002B43184363691843A3691843E369184314
:101ED000236A18431043626A042A03D1D4E90B230E
:101EE0001A43104308602068406920F00700656AC3
:101EF00029460543012704290DD1A06A0543E06A5C
:101F000048B12046FFF7BEF828B14020606584F84C
:101F100035700120BAE7206845612046FFF79CF83C
:101F200094F85C203F2191408160666584F83570AB
:101F30000020ABE73F8010F070B5044600F00CF9CC
:101F40000546601C02D004480078044400F004F9FF
:101F5000401BA042FAD370BD8C1F002070470000C8
:101F600010B504490A68024202D00860FFF7F6FF84
:101F700010BD0000143C01402DE9F84F0022DFF8AD
:101F80009C914FF0010803274FF00F0C09F1040A50
:101F9000A9F1040B08FA02F50B682B40AB426ED195
:101FA0000C7904F00304012C01D0022C15D18668B1
:101FB000540007FA04FE26EA0E06D1F80CE00EFAE9
:101FC00004FE4EEA060EC0F808E04468AC430D7902
:101FD000C5F300159540254345600C79E443A407FB
:101FE00008D0C568540007FA04F6B5438E68A640C9
:101FF0002E43C6600C7904F00304022C11D1D408DE
:1020000000EB8406356A5407E40E0CFA04FE25EA58
:102010000E05D1F810E00EFA04FE4EEA050EC6F8E1
:1020200020E00568540007FA04F6B5430E7906F07F
:102030000306A6402E4306604C6814F4403F67D068
:10204000374C256845F480452560246804F48044B5
:102050000094344C22F003052E19D6F80858940742
:102060004FEA147E0CFA0EF4A5432F4CA04201D186
:10207000002424E02D4CA04202D101241FE047E0BF
:102080002B4CA04201D1022419E02A4CA04201D1DC
:10209000032414E0284CA04201D104240FE0274C73
:1020A000A04201D105240AE0254CA04201D106241A
:1020B00005E0244CA04201D1072400E0082404FAE2
:1020C0000EF42C43C6F80848D9F800409C434D68EC
:1020D000ED0200D51C43C9F80040DAF800409C43EB
:1020E0004D68AD0200D51C43CAF80040DBF8004043
:1020F0009C434D68AD0300D51C43CBF80040074D11
:10210000083D2C689C434E68F60300D51C432C60A8
:10211000521C102AFFF43EAFBDE8F88F083C014086
:1021200044380240003001400000024000040240F8
:1021300000080240000C024000100240001402405F
:1021400000180240001C0240002A01D08161704743
:1021500009048161704700000148806870470000F1
:102160008C1F002070B50446002C11D021684CF65D
:10217000CC400860216845F255500860D4E9001051
:1021800048602168A0688860FFF7E6FF05460CE01C
:10219000012070BDFFF7E0FF401B312805D9206802
:1021A000C068800701D0032070BD2068C068800728
:1021B000F0D121684AF6AA200860002070BD000016
:1021C00009480168094A1278114401604FF08041C2
:1021D000496A006800EB4002C2EBC01001EBC0008E
:1021E0000349086070470000941F00208C1F0020E6
:1021F0001C1F002010B50B48016841F400710160FC
:10220000016841F480610160016841F480710160FE
:10221000032000F09FF80F2000F006F800F050F8BF
:10222000002010BD003C024030B587B005460024B8
:102230001F48016841F001010160006800F00100E1
:10224000009001A902A800F03DF90598B0B100F096
:102250005DF940001749B0FBF1F1491E16484FF0F7
:102260008042026040F2E732C260416004618460F3
:10227000846100F062FD04461CB115E000F046F9EF
:10228000E8E70D4800F092FD04466CB91C2000F010
:1022900033F8102D07D2002229461C2000F03AF80E
:1022A0000648056000E0012407B0204630BD00006C
:1022B0004038024040420F0060260020901F00205E
:1022C00082B00C48016841F480410160006800F46C
:1022D000804001900748001F016841F08051016073
:1022E000006800F08050019000220F21901E02B083
:1022F00000F010B844380240002809DB00F01F024B
:10230000012191404009800000F1E020C0F8001157
:1023100070470000F0B40D460D4B1B68C3F3022359
:10232000C3F10704042C00D90424191D072901D284
:10233000002300E0DB1E012606FA04F1491E2940B5
:1023400099409E40761E16403143F0BC02F0D9B948
:102350000CED00E000F00701054A10684FF6FF039E
:10236000184040EA0120034908431060704700000C
:102370000CED00E00000FA052DE9F04704460D469B
:10238000002C13D0DFF82891D9F80000EFB200F04C
:102390000700A8420CD289F80070D9F8000000F0BC
:1023A0000700A84204D00120BDE8F0870120FBE728
:1023B0002068404E810712D5400703D5306840F4AD
:1023C000E05030602078000703D5306840F460406A
:1023D00030603068A16820F0F00008433060207859
:1023E000C00731D0334960680839012808D0022875
:1023F0000BD0032809D0096889070BD40120D3E743
:102400000968890306D40120CEE70968890101D44F
:102410000120C9E7316821F0030101433160FFF772
:102420009BFE804641F2883A07E0FFF795FEA0EB5D
:102430000800504501D90320B6E73068616800F014
:102440000C00B0EB810FF0D1D9F8000000F00700CC
:10245000A84209D989F80070D9F8000000F00700F7
:10246000A84201D001209FE72078400705D53068B9
:10247000E16820F4E050084330602078000706D57A
:102480003068216920F4604040EAC100306000F00B
:102490005DF83168084AC1F30311515CC84007492F
:1024A000086007480068FFF7BFFE00207CE70000D7
:1024B000003C024008380240AC730008201F002096
:1024C000901F00200F2202600B4A136803F00303E1
:1024D0004360136803F0F0038360136803F4E05370
:1024E000C360126802F46042D208026103480068C7
:1024F00000F007000860704708380240003C0240C6
:102500000148006870470000201F002000B5FFF759
:10251000F7FF04490968044AC1F38221515CC840AD
:1025200000BD000008380240BC73000800B5FFF78A
:10253000E7FF04490968044AC1F34231515CC840CD
:1025400000BD000008380240BC73000810B51748F1
:10255000006810F00C01164816D0164B042912D052
:10256000082911D1114C241F216801F03F02216874
:1025700049020AD52068C0F38810A0FB030100239C
:10258000FDF7F2FE09E0184610BD21680023C1F3F3
:102590008811A1FB0001FDF7E7FE2168C1F30141AD
:1025A000491C4900B0FBF1F010BD000008380240A2
:1025B0000024F400001BB7002DE9F84F0446002C5E
:1025C00013D02078DFF8A083C007A8F1040556D007
:1025D00008F104000168C1F3810101290CD00068F1
:1025E000C0F38100022803D00DE00120BDE8F88F80
:1025F000D8F80000400206D5286880033FD56068FF
:1026000070BB0120F2E76068B0F5803F10D0B0F5F4
:10261000A02F12D0286820F480302860286820F489
:10262000802028606068E0B1FFF796FD064614E060
:10263000286840F480302860F4E7286840F480205F
:102640002860286840F480302860EBE7FFF784FDBD
:10265000801B642801D90320C8E728688003F5D5CA
:102660000DE0FFF779FD064606E0FFF775FD801BDC
:10267000642801D90320B9E728688003F5D42078BD
:10268000BA4F80074FF0000948D5B748001D0168D0
:1026900011F00C0F08D00068C0F38100022813D19C
:1026A000D8F8000040020FD42868800704D5E068FD
:1026B000012801D0012099E72868216920F0F8005D
:1026C00040EAC100286029E0E068B8B10120386024
:1026D000FFF742FD064606E0FFF73EFD801B02289D
:1026E00001D9032082E728688007F5D52868216989
:1026F00020F0F80040EAC10028600FE0C7F8009021
:10270000FFF72AFD064606E0FFF726FD801B02289C
:1027100001D903206AE728688007F5D420780007EC
:1027200029D5DFF844A2924861690AF1700A89B19B
:1027300001210160FFF710FD064606E0FFF70CFDE2
:10274000801B022801D9032050E7DAF80000800737
:10275000F4D510E0C0F80090FFF7FEFC064606E056
:10276000FFF7FAFC801B022801D903203EE7DAF8C4
:1027700000008007F4D42078400778D54FF0000A95
:1027800079483C300068C0000BD477483C30016881
:1027900041F080510160006800F0805000904FF0DF
:1027A000010ADFF8D0B1DBF80000C00514D4DBF873
:1027B000000040F48070CBF80000FFF7CDFC064627
:1027C00006E0FFF7C9FC801B022801D903200DE7B2
:1027D000DBF80000C005F4D5634EA0686C36012814
:1027E0000FD0052812D0306820F00100306030682A
:1027F00020F004003060A068F8B1FFF7ADFC83461C
:1028000017E0306840F001003060F4E7306840F0D5
:1028100004003060306840F001003060EBE7FFF703
:102820009BFCA0EB0B0141F28830814201D90320CF
:10283000DCE630688007F2D510E0FFF78DFC8346B8
:1028400009E0FFF789FCA0EB0B0141F288308142DF
:1028500001D90320CAE630688007F2D4BAF1010F2B
:1028600005D141483C30016821F080510160A069E8
:10287000C0B33D49091D09684FF0FF36C1F381011E
:10288000022946D0022805D0C7F86090FFF764FC03
:1028900004463AE0C7F86090FFF75EFC814607E027
:1028A000FFF75AFCA0EB0900022801D903209DE69E
:1028B00028688001F4D4D4E907010843616AA26A58
:1028C000890106EB520241EA0241084394F82C10B8
:1028D00040EA0160C8F8000001203866FFF73CFCC0
:1028E000044607E03DE0FFF737FC001B022801D952
:1028F00003207BE628688001F5D532E0FFF72CFC49
:10290000001B022801D9032070E628688001F5D455
:1029100027E0012823D0D8F80000E26900F4800104
:1029200091421AD1226A00F03F01914215D147F637
:10293000C071626A0140B1EB821F0ED1A26A00F43D
:10294000403106EB5202B1EB024F06D194F82C1045
:1029500000F07060B0EB016F03D0012046E601206B
:1029600044E6002042E600000438024000004742EE
:10297000800E47420070004070B50446002C09D01C
:10298000606A002540B125616561A56294F8510037
:1029900040B10CE0012070BD6068B0F5827FF4D0DA
:1029A000E561F2E784F85050204600F045F8022037
:1029B00084F851002068016821F040010160A0887E
:1029C000218900F4827001F404410843A18901F4D3
:1029D00000610843217C01F002010843217D01F0E0
:1029E00001010843218B01F400710843217F01F0AC
:1029F0003801084394F8201001F080010843218D2C
:102A000001F40051084321680860A069042101EA2B
:102A1000104094F8241001F0100108432168486028
:102A20002068C16921F40061C1616565012084F8F5
:102A30005100002070BD00002DE9F04186B0054630
:102A4000142101A8FDF75BFD37492868884268D149
:102A500000263648016841F480510160006800F4A6
:102A60008050009031481438016841F00201016043
:102A7000016801F002010091016841F0010101606B
:102A8000006800F0010000901820019002270297D2
:102A900003964FF00308CDF810800524059401A992
:102AA0002348FFF769FA8020019002970396CDF83A
:102AB0001080059401A91F48FFF75EFA1F4C1E48BD
:102AC00020604FF0C068C4F80480A660E660071577
:102AD00027616661A661E6614FF44030206266625C
:102AE0002046FFF7BFF908B1FEF772FCEC64A5635E
:102AF0001148124C483060342060C4F804804020F3
:102B0000A060E66027616661A661E661C00220629E
:102B100066622046FFF7A6F908B1FEF759FCAC64DF
:102B2000A56306B0BDE8F0810030014044380240A2
:102B3000000402400000024010640240A022002075
:102B40002DE9FF4F81B004460E9E8B469846012525
:102B5000002794F8500001280ED0AA4684F850A00F
:102B6000FFF7FAFA814694F85100616801280DD008
:102B7000B1F5827F08D103E0022005B0BDE8F08FF7
:102B8000A16809B9042801D00227CFE0BBF1000FEA
:102B90002DD0039858B35FEA080028D094F851006C
:102BA000042802D0052084F85100002060650399B4
:102BB000A163A4F83E80A4F83C80C4F830B0A4F827
:102BC0003680A4F834802064606420680168490677
:102BD00003D4016841F040010160E068B0F5006F86
:102BE00007D06068F0B3B8F1010F49D07EE001274B
:102BF0009CE0606810B1B8F1010F3AD1206B2168F8
:102C00000088C860206B801C2063E08E401EE08638
:102C10002FE02068816889070DD5E18E59B1012D1B
:102C200009D1216B0988C160206B801C2063E08E74
:102C3000401EE086002520688168C9070BD0E18F1F
:102C400049B1C068A16B0880A06B801CA063E08FB5
:102C5000401EE0870125FFF77FFAA0EB0900B04294
:102C600007D300E00CE0701C03D0032784F851A0C8
:102C70005CE0E08E0028CCD1E08F0028C9D13BE099
:102C8000206B216800780873206B401C2063E08E65
:102C9000401EE0862AE02068816889070DD5E18E14
:102CA00059B1012D09D1216B09780173206B401CAA
:102CB0002063E08E401EE086002520688168C907F9
:102CC0000BD0E18F49B1C068A16B0870A06B401CAC
:102CD000A063E08F401EE0870125FFF73DFAA0EBDF
:102CE0000900B04201D3701C10D17EB1E08E0028E3
:102CF000D1D1E08F0028CED14A463146204601F09E
:102D0000C1F838B10127202060650FE0032784F85F
:102D100051A00BE0A06818B92068C16880680090D5
:102D2000606D08B1012701E084F851A0002084F80B
:102D30005000384621E77047704710B50446002C14
:102D400003D094F83D0010B107E0012010BD002031
:102D500084F83C00204600F015F8022084F83D007D
:102D6000211D206801F0A8F901203D3460726070D7
:102D7000A070E07020716071A071E071207220700D
:102D8000002010BD08B500680649884208D10648F1
:102D9000016841F400310160006800F400300090E7
:102DA00008BD0000004401404438024090F83D1046
:102DB000012901D001207047022180F83D100168EF
:102DC000CA6842F00102CA6000681449884214D0FF
:102DD000B0F1804F11D0124988420ED0114988427B
:102DE0000BD01149884208D01049884205D01049BB
:102DF000884202D00F49884209D1816801F0070159
:102E0000062908D0016841F00101016003E0016872
:102E100041F0010101600020704700000000014006
:102E20000004004000080040000C00400004014085
:102E3000004001400018004070472DE9F041044671
:102E40002068C56806694FF00007B10714D5A907C7
:102E500012D5F91E01610120207720688069800762
:102E600003D02046FFF7E8FF05E0204600F0ACF86D
:102E7000204600F03CF92777700717D5680715D56D
:102E800021686FF0040008610220207720688069C3
:102E900010F4407F03D02046FFF7CEFF05E0204628
:102EA00000F092F8204600F022F92777300716D577
:102EB000280714D521686FF00800086104202077E6
:102EC0002068C069800703D02046FFF7B5FF05E002
:102ED000204600F079F8204600F009F92777F0063F
:102EE00017D5E80615D521686FF010000861082095
:102EF00020772068C06910F4407F03D02046FFF798
:102F00009BFF05E0204600F05FF8204600F0EFF858
:102F10002777F00708D0E80706D021686FF0010096
:102F20000861204600F0E4F8300608D5280606D5EA
:102F300021686FF0800008612046FFF7FCFE7006F4
:102F400008D5680606D521686FF040000861204664
:102F500000F0D5F8B0060AD5A80608D521686FF0AC
:102F6000200008612046BDE8F041FFF7E5BEBDE85E
:102F7000F081000010B586B00446142101A8FDF7C9
:102F8000BEFA0E492068884215D10D48016841F00B
:102F900020010160006800F02000009040200190B6
:102FA000022002900121039104900320059001A9C1
:102FB0000448FEF7E1FF06B010BD000000440140E8
:102FC0003038024000140240704770B504460D4688
:102FD000002694F83C0001280FD0012084F83C0022
:102FE0006AB1042A1FD0082A32D00C2A44D0012604
:102FF000002084F83C00304670BD022070BD294698
:10300000206801F0C7F82068816941F008018161FA
:103010002068816921F004018161206881692A6941
:1030200011438161E4E72946206801F0E7F8206850
:10303000816941F4006181612068816921F48061C6
:103040008161206881692A6941EA02218161CFE7B3
:103050002946206801F00CF92068C16941F0080197
:10306000C1612068C16921F00401C1612068C169A2
:103070002A691143C161BBE72946206801F030F994
:103080002068C16941F40061C1612068C16921F40F
:103090008061C1612068C1692A6941EA0221C16178
:1030A000A6E710B50446002C03D094F83D0010B1FB
:1030B00007E0012010BD002084F83C00204600F00D
:1030C00015F8022084F83D00211D206800F0F4FF6F
:1030D00001203D3460726070A070E07020716071FA
:1030E000A071E07120722070002010BD7047704701
:1030F0000068B0F1804F01D1FFF762B870477047A8
:1031000070477047F8B5044622681068D168536963
:1031100000F00F06002E08D1850606D58D0604D5D1
:103120002046BDE8F84001F041B90025002E66D0E8
:1031300003F0010601F49077374360D0C20705D051
:10314000CA0503D5626C42F001026264420705D5EC
:10315000DA0703D0626C42F002026264820705D58E
:10316000DA0703D0626C42F004026264020707D5FA
:1031700001F02002324303D0626C42F00802626424
:10318000626C002A31D0800604D5880602D520461C
:1031900001F00CF920684069C0F38010616C0907E8
:1031A00000D438B3204601F0CDF8206840694006CD
:1031B0001CD52068143050E8001F21F0400140E881
:1031C0000012002AF5D1E06B60B159490165E06B4E
:1031D000FEF74DFD002808D0E06B016D01B0BDE8A1
:1031E000F04008472046FFF78CFFF8BD2046FFF768
:1031F00088FFF8BD2046FFF784FF6564F8BD236BA8
:10320000012B7DD1C3067BD5CB067FD510685068D6
:10321000009050694FF0200340064FF0020644D55D
:10322000E16B0868406880B20028E7D0A28D824236
:10323000E4D9E085C869B0F5807F2DD020680C30D6
:1032400050E8001F21F4807140E80012002AF5D1F7
:103250002068143050E8001F21F0010140E80012FE
:10326000002AF5D12068143050E8001F21F04001F9
:1032700040E80012002AF5D184F842302563206826
:103280000C3050E8001F21F0100140E80012002A25
:10329000F5D1E06BFEF7A4FC6663A08DE18D401ACA
:1032A00081B22046FFF72CFFF8BDA08DE18D401ABA
:1032B00081B2E08D0028F7D00029F5D020680C30CD
:1032C00050E8002F22F4907240E80027002FF5D13B
:1032D0002068143050E8002F22F0010240E8002757
:1032E000002FF5D184F84230256320680C3050E877
:1032F000002F22F0100240E80023002BF5D100E05F
:1033000004E066632046FFF7FBFEF8BD020606D523
:103310000A0604D52046BDE8F84001F035B940065C
:10332000F3D54806F1D52046BDE8F84001F031B8A4
:103330003543000870B50446002C04D094F84100D1
:10334000002510B106E0012070BD84F840502046F1
:1033500000F024F8242084F841002068C16821F49A
:103360000051C160204601F085F82068016921F410
:10337000904101612068416921F02A014161206882
:10338000C16841F40051C1606564202084F84100A7
:1033900084F842006563002070BD00002DE9F04F05
:1033A00087B00446142102A8FDF7A9F8AD48AC4A3D
:1033B0000221236800258E0607154FF0030A4FF0FF
:1033C000070B4FF4807893427ED1A64A14321368DB
:1033D00043F010031360126802F0100201920268B9
:1033E00042F002020260026802F0020201920268E8
:1033F00042F001020260006800F0010001908020AC
:103400000290894603910495CDF814A0CDF818B028
:1034100002A99548FEF7B0FDB0140290CDF80C90CB
:103420000495CDF814A0CDF818B002A98F48FEF786
:10343000A3FDDFF840928E48C9F80000C9F8046087
:10344000C9F80850C9F80C50C9F81070C9F81450E0
:10345000C9F81850C9F81C804FF44030C9F8200052
:10346000C9F824504846FEF7FDFC08B1FDF7B0FF4F
:10347000C4F83C90C9F83840DFF8F8817C4808F17E
:1034800060087830C8F80000C8F804604020C8F828
:103490000800C8F80C50C8F81070C8F81450C8F8E4
:1034A0001850C8F81C50C8F82050C8F8245040469E
:1034B000FEF7D8FC08B1FDF78BFFC4F83880C8F8D8
:1034C00038400022052100E008E02520FEF722FF19
:1034D0002520FEF711FF07B0BDE8F08F614ADFF845
:1034E00098C110324FF4003963456AD1136843F430
:1034F00000331360126802F400320192026842F055
:1035000008020260006800F008000190602002904C
:1035100003910495CDF814A0CDF818B002A957482E
:10352000FEF72AFDDFF84CA155480AF1C00ACAF897
:103530000000CAF80460CAF80850CAF80C50CAF86B
:103540001070CAF81450CAF81850CAF81C80CAF88B
:103550002090CAF824505046FEF784FC08B1FDF7CD
:1035600037FFC4F83CA0CAF838404548DFF814815A
:103570001830C8F80000C8F804604020C8F80800F7
:10358000C8F80C50C8F81070C8F81450C8F8185093
:10359000C8F81C50C8F82050C8F824504046FEF720
:1035A00061FC08B1FDF714FFC4F83880C8F8384052
:1035B000002205212620FEF7ADFE2620FEF79CFE08
:1035C00089E7DFF8C4C0634585D1136843F48023DD
:1035D0001360126802F480220192026842F0040231
:1035E0000260006800F0040001904FF44060029017
:1035F00003910495CDF814A0CDF818B002A9234882
:10360000FEF7BAFCDFF87CA01D480AF1600A6038BA
:10361000CAF80000CAF80460CAF80850CAF80C508A
:10362000CAF81070CAF81450CAF81850CAF81C80AA
:10363000CAF82090CAF824505046FEF713FC08B18F
:10364000FDF7C6FEC4F83CA0CAF8384000220521A8
:103650002720FEF75FFE2720FEF74EFE3BE7000027
:1036600000100140303802400004024000000240D7
:10367000406402408024002000440040000C0240CE
:1036800088600240A0250020004800400008024059
:10369000704770470A20FEF74FFC00231A46194670
:1036A0001846FDF713FA00231A4619461846FDF787
:1036B00043FA00231A4619461846FDF78FFA0023ED
:1036C0001A4619461846FDF7BFFA0A20FEF734FCE1
:1036D000012080F31388BFF34F8F05480168054A26
:1036E00001F4E06111430160BFF34F8F00BFFDE7BC
:1036F0000CED00E00400FA05B5EEC01AF1EE411A37
:10370000F1EE10FA02DDB0EE412A01E0B0EE612ADE
:1037100012EE100AB0F17E5F0CDDB5EEC01AF1EECC
:1037200010FA01DCB0EE611AB2EE042AC1EE021A00
:10373000B0EE611AF7EE001A71EEC11A21EE800A9E
:1037400000EE810A704710B5044694ED351AB5EEC7
:10375000C01AF1EE10FA1BD0D4ED090A94ED030A59
:10376000FFF7CAFF84ED030A94ED351AD4ED0A0A77
:1037700094ED040AFFF7C0FF84ED040A94ED351AB6
:10378000D4ED0B0A94ED050AFFF7B6FF84ED050AA8
:1037900094ED361AB5EEC01AF1EE10FA1BD0D4ED46
:1037A0000C0A94ED060AFFF7A7FF84ED060A94EDD4
:1037B000361AD4ED0D0A94ED070AFFF79DFF84ED4C
:1037C000070A94ED361AD4ED0E0A94ED080AFFF7B5
:1037D00093FF84ED080A94ED371AB5EEC01AF1EEA6
:1037E00010FA1BD0D4ED1A0A94ED170AFFF784FFE4
:1037F00084ED170A94ED371AD4ED190A94ED160AE0
:10380000FFF77AFF84ED160A94ED371AD4ED180A03
:1038100094ED150AFFF770FF84ED150A94ED381A40
:10382000B5EEC01AF1EE10FA1BD0D4ED1E0A94EDDD
:103830001B0AFFF761FF84ED1B0A94ED381AD4EDE3
:103840001F0A94ED1C0AFFF757FF84ED1C0A94ED44
:10385000381AD4ED200A94ED1D0AFFF74DFF84EDD0
:103860001D0A10BD0321B0FBF1F201FB12010A4851
:1038700000290BD0012905D002290BD10122011505
:10388000FEF762BC01221103FEF75EBC0122D102E9
:10389000FEF75ABC704700000008024010B51048FF
:1038A0000E4901600321416000218160C1604FF435
:1038B000102202614FF40012426101760122427629
:1038C0008276C17601774277FEF718F8002803D098
:1038D000BDE81040FDF77CBD10BD00000064004055
:1038E000981F002010B510480E4901600321416067
:1038F00000218160C1604FF4102202614FF4001278
:1039000042610176012242768276C1760177427762
:10391000FDF7F4FF002803D0BDE81040FDF758BDC7
:1039200010BD000000680040C01F002008B52548F9
:10393000016841F480010160016801F48001009197
:10394000016841F400110160006800F4001000906B
:10395000002205210C20FEF7DDFC0C20FEF7CCFC3C
:10396000002205211020FEF7D5FC1020FEF7C4FC34
:10397000002205211120FEF7CDFC1120FEF7BCFC32
:10398000002205213820FEF7C5FC3820FEF7B4FCE4
:10399000002205213A20FEF7BDFC3A20FEF7ACFCE0
:1039A000002205213B20FEF7B5FC3B20FEF7A4FCDE
:1039B000002205214620FEF7ADFCBDE80840462068
:1039C000FEF79ABC3038024010B596B01C2211495F
:1039D0000FA8FCF740FD00210FA801F014FF0E4CCA
:1039E00020601C220B491C3108A8FCF734FD002183
:1039F00008A801F008FF60601C220649383101A8C0
:103A0000FCF729FD002101A801F0FDFEA06016B021
:103A100010BD00002C6B0008040000202DE9F041CF
:103A200086B0142101A8FCF76AFD00253E48016814
:103A300041F002010160016801F00201009101689A
:103A400041F001010160016801F00101009101688C
:103A500041F008010160016801F00801009101686E
:103A600041F004010160016801F004010091016866
:103A700041F080010160016801F08001009101685E
:103A800041F020010160006800F020000090DFF8A4
:103A90009C804FF4E054002221464046FEF754FB40
:103AA000234F012210213846FEF74EFB214E012202
:103AB00011463046FEF748FB019401240294039519
:103AC000049501A94046FEF757FA10200190029490
:103AD00003940225049501A93846FEF74DFA3020DB
:103AE00001904FF404100290039401A91248FEF7CC
:103AF00043FA019402940394049501A93046FEF719
:103B00003BFA002205210A20FEF704FC0A20FEF7FA
:103B1000F3FB002205211720FEF7FCFB1720FEF720
:103B2000EBFB06B0BDE8F08130380240001C0240DB
:103B300000000240000402400008024010B509489D
:103B4000074901600021416040F6FF718160FEF786
:103B500009FB002803D0BDE81040FDF739BC10BDBB
:103B6000003000403C22002010B510480E49016092
:103B70004FF48271416000218160C16002220261C4
:103B800001224261520282611822C26101624162D5
:103B900081620A21C162FEF7EFFE002803D0BDE872
:103BA0001040FDF715BC10BD003001404822002038
:103BB00010B588B01C2101A8FCF7A1FC14481349DA
:103BC000016000244460846041F28731C160046177
:103BD0008461FFF7B2F808B1FDF7FAFB0C48FFF774
:103BE00060FA08B1FDF7F4FB6020019002940394A1
:103BF0000594002201A90648FFF7E7F908B1FDF78F
:103C0000E7FB0348FFF7B6F908B010BD00440140D8
:103C10006023002010B50C480A4901604FF4E121EF
:103C2000416000218160C16001610C2242618161BB
:103C3000C161FFF77FFB002803D0BDE81040FDF70E
:103C4000C7BB10BD00100140A823002010B50C48D0
:103C50000A4901604FF4E121416000218160C160A7
:103C600001610C2242618161C161FFF763FB0028A1
:103C700003D0BDE81040FDF7ABBB10BD00440040D1
:103C8000F023002010B50D480B4901600C4941603C
:103C900000218160C1604FF4806202610C224261A8
:103CA0008161C161FFF746FB002803D0BDE81040E9
:103CB000FDF78EBB10BD00000048004038240020F6
:103CC000A0860100FEE7FEE700F1740290ED083ADD
:103CD000D0ED072A90ED062AD0ED241A90ED231A94
:103CE000D0ED220A90ED210A111F6C30AFF3008055
:103CF000F0EE005A20EE254A60EEA53A20EE000ACA
:103D000064EE014AB0EE645A03EEA15A25EE036A4E
:103D100024EE215AF0EE456A43EEC16A02EEE66AED
:103D2000F0EE406A40EEA06A41EE416A41EEE16A7F
:103D300002EE266A80ED006A03EE815A00EEE00A88
:103D400024EE204A25EE026A21EE255AF0EE445A6E
:103D5000F0EE400A45EE615A41EE010A03EE656A53
:103D600041EEE10A02EEA06A81ED006A05EE214A09
:103D700043EEE14A01EE410A64EE220A01EEA10A95
:103D800042EE640A43EE000AC2ED000A7047F0EE0C
:103D9000005A20EE254A60EEA53A20EE000A64EEB5
:103DA000214AB0EE645A03EE815A25EE226A24EECF
:103DB000015AF0EE456A43EEE16A03EE666AF0EE00
:103DC000406A40EEA06A41EE416A41EEE16A02EECD
:103DD000266A80ED006A24EE204A61EE255A00EE44
:103DE000E00A43EEC14AB0EE446A05EEA16AF0EE85
:103DF000400A41EE010A26EE036A02EE646A41EED1
:103E0000E10A02EEA06A81ED006A03EEA15A05EE16
:103E1000E14A01EE410A65EE020A01EEA10A42EE14
:103E2000C40A43EE000AC2ED000A704700B503461B
:103E300003F11402111F93ED053AD3ED042A93ED1B
:103E4000032AD3ED281A93ED271AD3ED260A93ED12
:103E5000250A081FFFF79BFF03F1200293ED083AA4
:103E6000D3ED072A93ED062AD3ED281A93ED271AEE
:103E7000D3ED260A93ED250A111F081F5DF804EB08
:103E8000FFF785BF7CB504460E4615463346012232
:103E900002212046009500F033F828B1606D40F013
:103EA0002000606503207CBD134814490068B0FB06
:103EB000F1F04FF47A71484301906068B0F5827F69
:103EC0000DD13346002280212046009500F018F8DD
:103ED00078B1606D40F02000606503207CBD0198E2
:103EE00038B10198401E019020688068C0430006E8
:103EF000F5D500207CBD0000201F002000366E019B
:103F00002DE9F84304460F4691461E46089DFEF7EC
:103F100023F9401B351AFEF71FF980462648006832
:103F2000C0F3CB30684300903AE0701C38D0FEF705
:103F300013F9A0EB0800A84203D215B1009858B3BA
:103F40002BE02068416821F0E00141606068B0F535
:103F5000827F0BD1A068B0F5004F02D0B0F5806F22
:103F600004D12068016821F040010160A06AB0F529
:103F7000005F09D12068016821F4005101602068C8
:103F8000016841F40051016001205034607000204C
:103F900020700320BDE8F88300250098401E0090A3
:103FA0002068806837EA000004D000204845BCD172
:103FB0000020EFE70120F9E7201F0020012001F099
:103FC00015FCFBE7012001F011FCFBE7012001F0EB
:103FD0000DFCFBE710B5502080F31188BFF34F8F25
:103FE000BFF36F8F02F0CEFC18B104494FF0805040
:103FF0000860002080F3118810BD000004ED00E08F
:1040000030B593B0302107A8FCF779FA142102A843
:10401000FCF775FA00251F48016841F080510160E6
:10402000006800F0805001901B48016841F4804115
:104030000160006800F480400190092007904FF46F
:104040008030089001200C9002240D9480050E9081
:1040500006200F90A820109011940420129007A819
:10406000FEF7AAFA08B1FDF7B3F90F200290039406
:1040700004954FF4A05005904FF480500690052110
:1040800002A8FEF779F9002801D0FDF7A1F913B0D5
:1040900030BD000040380240007000400248016816
:1040A00041F470010160704788ED00E00148FEF7BF
:1040B000C4BE0000602600202DE9F04102682A4DB0
:1040C0002A4E2B4FDFF8ACC02B4B4FF08048A84254
:1040D00009D0404507D0B04205D0B84203D0604572
:1040E00001D0984203D122F070044A682243A842CA
:1040F0001BD0404519D0B04217D0B84215D060450A
:1041000013D0984211D01D4CA0420ED01C4CA0429E
:104110000BD01C4CA04208D01B4CA04205D01B4C1D
:10412000A04202D01A4CA04203D122F44074CA68C3
:1041300022434C6922F08002224302608A68C262F4
:104140000A688262A84201D0984201D109690163DC
:10415000012141610169C90703D0016921F0010111
:104160000161BDE8F0810000000001400004004052
:1041700000080040000C00400004014000400140E5
:10418000004401400048014000180040001C00406D
:1041900000200040F0B5056A026A22F001020262C6
:1041A0004368826922F0700222F003020C68144313
:1041B00025F002058A682A430E4E0F4FB04201D007
:1041C000B84205D122F00805CA682A4322F0040249
:1041D000B04201D0B84207D123F4807323F40073B6
:1041E0004D691D438B692B4343608461496841637A
:1041F0000262F0BD0000014000040140F0B5026A17
:10420000036A23F0100303624368846924F4E044E2
:1042100024F440740D6844EA052422F020028D68DD
:1042200042EA0512104D114EA84201D0B04206D10B
:1042300022F08002CF6842EA071222F04002A84230
:1042400001D0B04209D123F4806323F400634D69A7
:1042500043EA85038D6943EA8503436084614968C5
:1042600081630262F0BD00000000014000040140D3
:10427000F0B5026A036A23F4807303624368C46979
:1042800024F0700424F003050C682C4322F400721F
:104290008D6842EA0522104D104EA84201D0B0426E
:1042A00006D122F40062CF6842EA072222F480623B
:1042B000A84201D0B04209D123F4805323F4005323
:1042C0004D6943EA05138D6943EA05134360C461F0
:1042D0004968C1630262F0BD000001400004014072
:1042E00030B5036A026A22F4805202624268C469ED
:1042F00024F4E04424F440740D6844EA052423F4D3
:1043000000538D6843EA0533084DA84202D0084D9A
:10431000A84204D122F480424D6942EA85124260EB
:10432000C46149680164036230BD000000000140BF
:104330000004014010B5806B0021C185C184FEF7E7
:10434000E0FE10BD01680C3151E8002F22F490729C
:1043500041E80023002BF5D10168143151E8002F0A
:1043600022F0010241E80023002BF5D1016B012965
:1043700009D101680C3151E8002F22F0100241E808
:104380000023002BF5D1202180F842100021016389
:10439000704710B50168CA6822F04002CA60202147
:1043A00080F84110FFF775F9002010BD08B590F8AE
:1043B0004210222901D0022008BD82684FF48053A8
:1043C0009A4201D1016921B1816A9A421DD052B14C
:1043D0000BE0816A02685268C2F308020A80816AAF
:1043E000891C816209E002697AB10268526802F0B0
:1043F0007F020A70816A491C8162C18D491E0904CD
:10440000090CC18505D0002008BD026852680A70F9
:10441000F0E70168CA6822F02002CA600168CA6831
:1044200022F48072CA6001684A6922F001024A617E
:10443000202180F8421000214163026B012A03D041
:10444000FFF726F9002008BD016301680C3151E82F
:10445000002F22F0100241E80023002BF5D1016863
:104460000A68D20602D50A6849680091818DFEF774
:1044700047FEE7E72DE9F041044620680169E2685C
:1044800021F4405111430161A1682069E2690143AF
:104490006069104301432068C26849F20C639A4383
:1044A0000A43C26020684169A26921F44071114346
:1044B000416133492068884202D03249884202D1A2
:1044C000FEF734F801E0FEF721F8E169002319272F
:1044D00064253226B1F5004F28D061688B0F8A0021
:1044E000A0FB0701FBF740FF0146B0FBF5F07A4265
:1044F000504301EB800006EB0010B0FBF5F000F03C
:10450000F002B1FBF5F002EB0012B1FBF5F07B42DB
:10451000584301EB800006EB0010B0FBF5F021687A
:1045200000F00F0010448860BDE8F08161684A180F
:10453000A0FB07015B41FBF717FF0146B0FBF5F05D
:104540000201B1FBF5F06FF01803584301EB800056
:1045500006EBC000B0FBF5F000F0F80002EB400203
:10456000B1FBF5F0584301EB800006EBC000B0FB57
:10457000F5F0216800F0070010448860D4E70000DF
:10458000001001400014014090F84110212901D091
:10459000022070478168B1F5805F01D1016961B186
:1045A000016A4A1C0262026809785160C18C491E86
:1045B0000904090CC1840AD013E0016A0268098861
:1045C000C1F308015160016A891C0162EEE70168CC
:1045D000CA6822F08002CA600068C16841F04001E8
:1045E000C16000207047000010B50448FCF7B8FD1A
:1045F000BDE810400148FEF785BD0000A82300205B
:1046000082B00B4A1068016841680191C16841F0AD
:104610001001C1601068416941F0400141611168B9
:10462000D06B091D6423034A02B0FCF767BD00008C
:10463000A8230020302700207047000010B5044850
:10464000FCF78EFDBDE810400148FEF75BBD0000A1
:10465000F023002082B00B4A106801684168019184
:10466000C16841F01001C1601068416941F040012A
:1046700041611168D06B091D6423034A02B0FCF745
:104680003DBD0000F023002094270020704700006B
:1046900010B50448FCF764FDBDE810400148FEF782
:1046A00031BD00003824002008B50C4A10680168AC
:1046B00041680091C16841F01001C1601068416912
:1046C00041F040014161122000901168044BD06B11
:1046D000091DA3F11802FCF76BFB08BD382400206C
:1046E0001028002010B5054C01462046226990474D
:1046F00020466169BDE81040084700001C1B0020EF
:10470000FEE70907090E002804DB00F1E02080F82D
:104710000014704700F00F0000F1E02080F8141D35
:104720007047000010B59FED823A4FF07E51F7EED2
:10473000003ADFED801ADFED802AF5EEC00A7F4AED
:10474000F1EE10FA3CDD80EE201A0023B5EEC01A1F
:10475000F1EE10FA02D20123B1EE411A11EE104A25
:104760008C4214DD83EE810A0121C1F1090402EBC0
:104770008404F0EE610A94ED001AF0EE411A40EE66
:10478000201A491C0A29F0DB32EEE10A11E001216E
:10479000C1F1090402EB8404F0EE610A94ED000A11
:1047A000F0EE401A41EE201A491C0A29F0DB31EEE6
:1047B000830A0BB1B1EE400A80ED000A002010BD63
:1047C000F5EEC00AF1EE10FA7ED29FED5D2AB5EE4D
:1047D000C00AF1EE10FA3DDD80EE201A0023B5EE9E
:1047E000C01AF1EE10FA02D20123B1EE411A11EE15
:1047F000104A8C4214DD83EE810A0121C1F10904C3
:1048000002EB8404F0EE610A94ED001AF0EE411A16
:1048100040EE201A491C0A29F0DB32EEE10A11E0D1
:104820000121C1F1090402EB8404F0EE610A94ED68
:10483000000AF0EE401A41EE201A491C0A29F0DB6A
:1048400031EE830A0BB1B1EE400A30EE020A80ED80
:10485000000A4FE0B5EEC00AF1EE10FA3FD280EE4A
:10486000201A0023B5EEC01AF1EE10FA02D201238D
:10487000B1EE411A11EE104A8C4214DD83EE810A2A
:104880000121C1F1090402EB8404F0EE610A94ED08
:10489000001AF0EE411A40EE201A491C0A29F0DBFA
:1048A00032EEE10A13E00121C1F1090402EB8404B4
:1048B000F0EE610A94ED000AF0EE401A41EE201A83
:1048C000491C0A29F0DB00E016E031EE830A0BB147
:1048D000B1EE400A30EE420A80ED000A0AE010EE26
:1048E000101AC90F21B19FED170A80ED000A01E0EF
:1048F00080ED002A002010BDF5EEC00AF1EE10FA9E
:1049000013D1B5EEC00AF1EE10FA03DDC0ED002AB6
:10491000002010BDB5EEC00AF1EE10FA05D29FEDF1
:104920000A0A80ED000A002010BD6FF0030010BDE0
:1049300000000000A59204BDDB0FC93F806B00089A
:10494000DB0F4940DB0F49C0DB0FC9BF9FED1E1ACB
:10495000F5EE000A40EE010ABDEEE00A10EE100A84
:10496000F5EEC00AF1EE10FA00D2401E00EE100A79
:10497000B8EEC00A30EEC00ADFED140A20EE200ABD
:10498000BCEEC01A11EE100A80B2B0F5007F02D35F
:10499000002030EE600A00EE900AF8EE600A70EE39
:1049A000600A0B4901EB800292ED000A401C01EB0A
:1049B000800090ED001AF7EE001A71EEE01A21EE79
:1049C000800A00EE810A704783F9223E000000440D
:1049D000A86B0008DFED1D0A20EE200AFDEEC00ADC
:1049E00010EE900AB5EEC00AF1EE10FA00D2401EA9
:1049F00000EE900AF8EEE00A30EE600ADFED140AED
:104A000020EE200ABCEEC01A11EE100A80B2B0F5FA
:104A1000007F02D3002030EE600A00EE900AF8EE2C
:104A2000600A70EE600A0B4901EB800292ED000A09
:104A3000401C01EB800090ED001AF7EE001A71EEB9
:104A4000E01A21EE800A00EE810A704783F9223EC7
:104A500000000044A86B00082DE9F0410024FBF79A
:104A6000F7FE8020FBF7FEFF5520FBF7FBFF5520EC
:104A7000FBF7F8FFFBF7E4FE9620FBF710FFFBF7D0
:104A8000E7FE8020FBF7EEFF5520FBF7EBFF5520FC
:104A9000FBF7E8FFFBF7D4FE9620FBF700FFFBF7E0
:104AA000D7FEB6217E20FBF7EDFFFBF7C9FE5020B5
:104AB000FBF7E9FEFBF7CCFE8020FBF7D3FF552088
:104AC000FBF7D0FF5520FBF7CDFFFBF7B9FE962093
:104AD000FBF7E5FEFBF7BCFE8020FBF7C3FF55208C
:104AE000FBF7C0FF5520FBF7BDFF0546FBF7A8FE0F
:104AF0009620FBF7D4FE1E2D02D0FF20BDE8F081EA
:104B0000174FFBF7A5FE04EB4405EE19785D7178AD
:104B1000FBF7B8FFFBF794FE9620FBF7C0FEFBF710
:104B200097FE785D40F08000FBF79CFF5520FBF777
:104B300099FF5520FBF796FF0546FBF781FE96206F
:104B4000FBF7ADFE7078A84204D004EB4400384473
:104B50008078D3E7641CE4B2062CD2D30020CDE7E2
:104B6000A01E0020F8B5002400200090FBF782FE74
:104B700069460020FBF76AFFFBF774FE9620FBF7FF
:104B80008EFEFBF777FE69460020FBF75FFFFBF721
:104B900069FE9620FBF783FEFBF76CFEB62114201E
:104BA000FBF770FFFBF75EFE5020FBF76CFEFBF798
:104BB00061FE69460020FBF749FFFBF753FE962094
:104BC000FBF76DFEFBF756FE69460020FBF73EFF44
:104BD000FBF748FE9620FBF762FE9DF800000F28C9
:104BE00001D0FF20F8BD154FFBF744FE04EB440550
:104BF000EE19785D7178FBF745FFFBF733FE9620E1
:104C0000FBF74DFEFBF736FE785D6946FBF71EFFAE
:104C1000FBF728FE9620FBF742FE70789DF8001007
:104C2000884204D004EB440038448078F8BD641C0A
:104C3000E4B2062CD8D30020F8BD0000B21E00203C
:104C400010B5FDF789FA4FF08041496A00EB400248
:104C5000C2EBC01001EBC0000149086010BD0000AC
:104C6000C41E002010B500280BD051B1027D52B1F6
:104C700090F82120521E022A01D800F01FF8204689
:104C800010BD002010BD002010BD000010B5006850
:104C9000016841F4002101600148FFF723FD10BDC8
:104CA000F827002010B50068016821F40021016098
:104CB0000148FFF717FD10BD1028002070B504460D
:104CC0000D462846FCF704F820802846FCF70BF830
:104CD00060802846FCF701F8A0802846FCF70BF816
:104CE00020812846FCF705F8E080B4F90A0008B9ED
:104CF000216989B12188081A00B200F6FF7141F6D6
:104D0000FE72914211D9002808DBA0F5F850216904
:104D1000FF38014421610BE00020EEE741F6FF720D
:104D2000216910440144216102E0216901442161AB
:104D3000218861810020A07570BDB5EEC00AF1EE3A
:104D400010FA02DDB0EE401A01E0B1EE401AF6EEC4
:104D5000001A60EEA11AB4EEE11AF1EE10FA06DDC7
:104D6000B5EEC00AF1EE10FA02DB30EE600A7047D1
:104D700030EE200A7047E83010F8231F491CC9B2F2
:104D8000017042782338914204D980F82320012110
:104D900001777047017F0129FBD10021017770471E
:104DA0002DE9F04104462DED048B012684F80461C1
:104DB000FBF780FD40B202274C4D1BE034F8F00FAA
:104DC000401C20802775FBF775FD40B2287034F831
:104DD000F01964290ED986F31388BFF34F8F444826
:104DE0000168444A01F4E06111430160BFF34F8F51
:104DF00000BFFDE70028E1D184F8040184F8E860F1
:104E000094F80A0178B1042084F805013A48C4F8FE
:104E10001C013A48C4F824013948C4F8280194F820
:104E2000090120B106E0062084F80501EEE73549C6
:104E3000C4F82011012802D13348C4F82001D4ED70
:104E40003D0A9FED321A80EE810ADFED310A20EE35
:104E5000200AF6EE000A60EE209AB0EE690AFFF72B
:104E600075FDB0EE409AB0EE690AFFF7B3FDD4EDE0
:104E70003E0A20EE208AB0EE690AFFF7ABFDD4EDC2
:104E80003F0A60EE208AB0EE690AFFF7A3FDD4ED79
:104E9000400A60EE201A29EE090A08EE080A08EE18
:104EA000A80A01EEA10A00F037F929EE001A68EE0F
:104EB000000A28EE802A21EE800A84ED211A84ED72
:104EC000251AC4ED220AC4ED260A84ED232A84EDB6
:104ED000272A84ED240A84ED280AFDF73DF9C4F859
:104EE000EC00BDEC048BBDE8F0810000841E0020C6
:104EF0000CED00E00400FA05C9050008473700087A
:104F00002D3E0008C93C0008FD1200080000344393
:104F1000DB0F494010B586B00446114A694603A824
:104F2000FBF7D4FC9DED000A84ED030A9DED010A18
:104F300084ED040A9DED020A84ED050A9DED030A45
:104F400084ED060A9DED040A84ED070A9DED050A2D
:104F500084ED080A002084F80B0106B010BD0000A3
:104F6000881E002070B5044694F8E80000287DD023
:104F7000182204F10C0104F12400FBF76CFA20461E
:104F8000FFF7C8FF94F805010025042807D0DFEDDE
:104F90005F0A5F4A05281BD0062868D089E094ED97
:104FA000060AD4ED120A30EE600A84ED060A94ED8A
:104FB000070AD4ED130A30EE600A84ED070A94ED77
:104FC000080AD4ED140A30EE600A84ED080A70E095
:104FD000B4F8E400518888422CD900EE100AD4EDD0
:104FE000060AB8EE400A80EE801A94ED120A31EEFD
:104FF000000A84ED120A00EE100AD4ED070AB8EE9A
:10500000400A80EE801A94ED130A31EE000A84ED16
:10501000130A00EE100AD4ED080AB8EE401A80EE2A
:10502000810AD4ED140A30EE200A84ED140A491CDA
:1050300051803EE094ED120AB5EEC00AF1EE10FA8E
:1050400001DCB1EE400A10EE100A324988421CDC45
:1050500094ED130AB5EEC00AF1EE10FA01DCB1EEE0
:10506000400A10EE100A88420FDC01E037E016E03B
:1050700094ED140AB5EEC00AF1EE10FA01DCB1EEBF
:10508000400A10EE100A884205DDC4ED120AC4ED94
:10509000130AC4ED140A042084F8050109E05580C0
:1050A000C4ED120AC4ED130AC4ED140A052084F8F5
:1050B0000501D4F828112046884794F8070178B1F3
:1050C0006565A565E56594F80801A0B1E566256705
:1050D0006567D4F824112046884784F80B5170BDC9
:1050E000D4E91612606DC4E919122066D4F81C11B7
:1050F00020468847E7E7D4E91C12E06EC4E91F1296
:10510000A067D4F8201120468847E2E7000000009D
:10511000841E00200AD7233CF6EE000A60EE200A27
:1051200010EE100A0649A1EB600000EE100A20EE16
:10513000801AF7EE080A41EE400A20EE800A704716
:10514000DF59375FFDF756F8FEF75AFFFEF766FCAA
:10515000FEF7ECFBFEF708FDFEF72AFDFEF79EFBCF
:10516000FEF7C0FBFEF78EFDFEF770FDFEF752FD69
:10517000FCF716F8FCF706F9FEF7E0FCFEF724FC56
:1051800000F03CFBFEE701460020842900D0C81C4B
:10519000704700280CD0017D002909D0817D491C71
:1051A000C9B28175427D914203D982750021C175D2
:1051B0007047C17D0029FBD10121C175704770B5D1
:1051C0000025B0F90240002C00DC644200268C422D
:1051D00010DDB0F90410002900DC4942914207DAE1
:1051E000418D491C89B24185994204D3012502E0D1
:1051F000468500E04685284670BD0000002830D076
:105200000021C17581756421417590F82010012934
:1052100001D0022902D11349C0F8A0121249C0F8E6
:105220009C121249C0F898121149C0F8C4121149D1
:10523000C0F8C8121049C0F8C0121049C0F8BC121A
:105240000F49C0F8B0120F49C0F8A8120E49C0F8B3
:10525000A4120E49C0F8B8120D49C0F8B4120121C9
:1052600001757047654C000895520008935100087D
:1052700009530008BF51000839540008FF530008C3
:10528000A5570008895400084157000891570008A5
:1052900015570008002834D0002932D09FED190A94
:1052A00080ED000A80ED010A80ED020A80ED030A1C
:1052B00080ED040A80ED050A80ED060A80ED070AFC
:1052C00080ED080A91ED000A80ED0A0A91ED010ACD
:1052D00080ED0B0A91ED020A80ED0C0A91ED030AB4
:1052E00080ED0D0A91ED040A80ED0E0A91ED050A9C
:1052F00080ED0F0A91ED060A80ED100A012180F879
:10530000241070470000000030B50023047D002CFD
:1053100005D0C47D1CB10025012902D01DE000206C
:1053200030BDD0ED0D0AF5EEC00AF1EE10FA01DC49
:10533000F1EE600AF4EEC00AF1EE10FA0CDDB0F9FD
:105340000240241D082C07D8048D641CA4B20485D7
:10535000944202D1012300E0058502291FD1D0ED3E
:10536000400AF5EEC00AF1EE10FA01DCF1EE600A37
:10537000F4EEC00AF1EE10FA0FDDB0F90210B3310D
:10538000B1F5B37F09D8018D491C89B201859142DD
:1053900001D1012303E0002301E000230585184625
:1053A00030BDB5EEC00AF1EE10FA02D230EE200A9E
:1053B0007047B4EEE00AF1EE10FAF9DB30EE600A65
:1053C0007047B5EEC00AF1EE10FA02DDB0EE401AF9
:1053D00001E0B1EE401AF6EE001A60EEA11AB4EE4A
:1053E000E11AF1EE10FA06DDB5EEC00AF1EE10FAA0
:1053F00002DB30EE600A704730EE200A704710B5CD
:10540000B0F90030B0F924401A1BA34202DA0A4472
:1054100012B200E012B2A2EB5103002B01DCC2EB8E
:105420005103B3EB910F03DA012180F8261010BD70
:10543000002180F8261010BD10B50446B4F90020F4
:10544000B4F92430D01A9A4202DA084400B200E0DB
:1054500000B2081A00EB910002B28A4201DD501A34
:1054600002B2A2EB910000EE100A00EE901AB8EE24
:10547000C00AF8EE600AFFF794FFBDEEC00A10EE16
:10548000100AA08110BD000010B50446DFED120A1D
:10549000207D00281AD094F89400D0B184ED1C0A25
:1054A000B4F90200012200EE100AB4F9000004F180
:1054B000B401F8EEC00A00EE100A04F17000B8EE74
:1054C000C00A00F09BF884EDA40A10BDB0EE600A9B
:1054D00010BDB0EE600A10BD0000000090F824106E
:1054E0009FED450A002974D000F12801D0ED020A91
:1054F000F5EEC00AF1EE10FA01DCF1EE600A91ED72
:10550000031AF4EEC10AF1EE10FA01D880ED020A96
:1055100090ED040AD0ED020A30EE200A80ED040A74
:10552000D1ED040AB4EEE00AF1EE10FA02DDB0EEBD
:10553000600A08E0F1EE600AB4EEE00AF1EE10FA5B
:1055400001D2B0EE600A80ED040A91ED000AD0EDC0
:10555000020A20EE200A80ED050A91ED010AD0ED45
:10556000040A20EE200A80ED060A90ED020AD0ED32
:10557000030A30EE600AD1ED020A20EE200A80ED27
:10558000070AD0ED060A91ED050AF4EEC00AF1EE25
:1055900010FA08DCB1EE400AF4EEC00AF1EE10FA9F
:1055A00001D3B0EE600A80ED060AD0ED050A30EEB8
:1055B000800AD0ED070A30EE200A80ED080AD1ED0E
:1055C000060AB4EEE00AF1EE10FA03DDB0EE600A6E
:1055D00009E010E0F1EE600AB4EEE00AF1EE10FA34
:1055E00001D2B0EE600A80ED080A90ED020A80ED6B
:1055F000030A90ED080A70470000000070B50446E9
:105600002DED028B0D46F0EE608A002C11D09FED3F
:105610003D1A9FED3D8ADFED3D1A7DB1204600F039
:105620007DF872B3012A3BD0022A42D0032A57D117
:105630004EE09FED370ABDEC028B70BD204600F0B6
:105640006DF83AB3012A04D0022A0BD0032A21D1E3
:1056500018E094ED020AF0EE410AFFF7B2FE84ED85
:10566000020A17E094ED020AF0EE410AFFF7A9FEE4
:1056700084ED020AF0EE480AFFF7A3FE84ED020A69
:1056800008E02DE094ED020AF0EE610AFFF799FEC2
:1056900084ED020A2046FFF721FF94ED080ACAE7CD
:1056A00094ED020AF0EE410AFFF78BFE84ED020A48
:1056B00016E094ED020AF0EE410AFFF782FE84ED57
:1056C000020AF0EE480AFFF77CFE84ED020A07E0CA
:1056D00094ED020AF0EE610AFFF773FE84ED020A10
:1056E0002046FFF7FBFE94ED080A85ED000AB0EEB8
:1056F000680A284600F012F82846FFF7EFFE95EDFD
:10570000080A98E700F8FF4500F07F450000B44321
:105710000000000080ED001AFFF770BF90F8241021
:10572000002908D080ED010AD0ED000A30EEC00A51
:1057300080ED020A70479FED010A704700000000EB
:1057400010B50446DFED110A207D002818D094F82A
:105750001C01C0B184ED3E0AB4F90200002200EE43
:10576000100A04F59E7104F1F800F8EEC00A94EDF9
:10577000040AB8EEC00AFFF741FF84EDA40A10BD89
:10578000B0EE600A10BDB0EE600A10BD000000006F
:10579000C0ED000A0022DFED020A1146FFF72EBF1E
:1057A0000000000010B50446F0EE400A207D9FED99
:1057B0000E0A002817D094F85000002813D0C4ED2A
:1057C0000B0AB4F90200002200EE900A114604F11F
:1057D0002C00B8EEE01AF0EE400AB0EE410AFFF7F6
:1057E0000DFF84EDA40A10BD0000000010B50028D4
:1057F00000D1012000F048FF002010BD10B500F0DE
:105800006BFF002010BD7FB504460D466169B4F9F9
:105810000800002910D0A16971B1FFF7B4FCD4E9E8
:105820000521CDE901210090D4E900102B46226921
:1058300001F07AF8039010E0FFF7A5FC03A9CDE989
:105840000001208A2B4682B2D4E9001001F03AF818
:10585000012802D0002004B070BD0398FBE70000CF
:105860002DE9F04104460F46174EF5683068001DDB
:1058700000F040FE38B9306890F82C1001208840C4
:10588000316981433161601C07D137B13168BDE8AE
:10589000F041091D0D4800F071BE2C443068446091
:1058A000AC4206D23168B06B091DBDE8F04100F092
:1058B0004DBE3168706B091D00F048FEB06A84422D
:1058C00000D2B462BDE8F081241F0020042900202A
:1058D00070B5044600F05EFE1C4DA868401CA86030
:1058E000286810B1686938B10CE02C60A8680128FC
:1058F00008D100F0F3F805E02868E16AC06A884240
:1059000000D82C60686A401C6862E06A01212A693C
:105910008140114329610E4900EB800001EB8000BA
:10592000211D00F02BFE00F055FE686900280CD008
:105930002868E16AC06A884207D206494FF0805061
:105940000860BFF34F8FBFF36F8F70BD241F00201F
:105950002828002004ED00E070B50C4D0C4E11E03D
:1059600000F018FEF068C468201D00F0C3FDA868B0
:10597000401EA8606868401E686000F02BFE20464C
:1059800000F008F868680028EAD170BD241F0020E4
:10599000F028002010B5044694F8510000280BD0E0
:1059A000012811D0022814D0502080F31188BFF3B1
:1059B0004F8FBFF36F8FFEE7206B00F021FE204674
:1059C000BDE8104000F01CBE2046BDE8104000F0CD
:1059D00017BE10BD4FF470510F48420706D0C01DCE
:1059E00020F007000C49411AC1F570510B4A1060B4
:1059F000002353600144083921F00701183A11606F
:105A00004B600B600B1A436001604068906050600F
:105A10004FF000405061704718290020781F002087
:105A2000074E4FF08054074DFFF796FF306801286E
:105A3000FAD92C60BFF34F8FBFF36F8FF4E70000EC
:105A40002828002004ED00E02DE9F0478246DDE93A
:105A500008580A9C9946521E206B00EB820020F0E9
:105A60000706700707D0502080F31188BFF34F8FCF
:105A7000BFF36F8FFEE7002761B1002023180A5C97
:105A800083F834200A5C12B1401C1028F6D384F845
:105A9000437001E084F83470072D00D30625E562D9
:105AA0006564A764201D00F04EFD04F1180000F0AD
:105AB0004AFD2461C5F10700A0616462E76484F8CF
:105AC00050704A465146304600F0F4F82060B8F174
:105AD000000F01D0C8F80040BDE8F08770B5002481
