:020000040800F2
:10000000A058002031030008C14100082138000831
:10001000653F0008950A0008E54C00080000000054
:100020000000000000000000000000007102000855
:10003000D311000800000000CD020008414700086D
:100040004B0300084B0300084B0300084B03000858
:100050004B0300084B0300084B0300084B03000848
:100060004B0300084B0300084B0300084B03000838
:10007000910D00084B0300089D0D00084B0300087C
:10008000A90D00084B0300084B0300084B030008B0
:10009000C10A00084B0300084B0300084B0300088B
:1000A0004B0300084B0300084B0300084B030008F8
:1000B000194800084B0300084B0300084B030008D5
:1000C0004B0300084B0300084B0300084B030008D8
:1000D0004B030008B54B0008094C0008794C000898
:1000E0004B0300084B0300084B0300084B030008B8
:1000F0004B0300084B0300084B0300084B030008A8
:100100004B0300084B0300084B0300084B03000897
:100110004B0300084B0300084B0300084B03000887
:100120004B030008B50D0008C10D00084B03000883
:100130004B0300084B0300084B0300084B03000867
:10014000050C00084B0300084B0300084B03000894
:100150004B030008CD0D0008D90D0008CD4C000858
:100160004B0300084B0300084B0300084B03000837
:100170004B0300084B0300084B030008000000007D
:100180004B0300084B03000800F002F800F060F891
:100190000AA090E8000C82448344AAF10107DA45E2
:1001A00001D100F055F8AFF2090EBAE80F0013F0D4
:1001B000010F18BFFB1A43F00103184734E1000098
:1001C00054E100000A444FF0000C10F8013B13F01A
:1001D000070408BF10F8014B1D1108BF10F8015BA0
:1001E000641E05D010F8016B641E01F8016BF9D193
:1001F00013F0080F1EBF10F8014BAD1C0C1B09D1EA
:100200006D1E58BF01F801CBFAD505E014F8016B5B
:1002100001F8016B6D1EF9D59142D6D370470000ED
:100220000023002400250026103A28BF78C1FBD8FF
:10023000520728BF30C148BF0B6070471FB50BF095
:10024000F8FA9DE8030000F0FBF91FBD10B510BDE2
:1002500000F062FA1146FFF7F1FF07F077FF00F0B8
:1002600080FA03B4FFF7F2FF03BC00F0B1FA00001C
:100270002C4B19680868B0E8F04F80F30988BFF389
:100280006F8F4FF0000080F311887047000000006E
:1002900008480068006880F308884FF0000080F389
:1002A000148862B661B6BFF34F8FBFF36F8F00DF64
:1002B00000BF00BF08ED00E0DFF80C00016841F46A
:1002C00070010160704700BF88ED00E0EFF3098026
:1002D000BFF36F8F134B1A681EF0100F08BF20ED8D
:1002E000108A20E9F04F106009B44FF0500080F3FD
:1002F0001188BFF34F8FBFF36F8F0AF0E9F94FF00A
:10030000000080F3118809BC19680868B0E8F04F54
:100310001EF0100F08BFB0EC108A80F30988BFF3FD
:100320006F8F7047380B0020EFF305807047000097
:100330000948804709480047FEE7FEE7FEE7FEE779
:10034000FEE7FEE7FEE7FEE7FEE7FEE704480549B5
:10035000054A064B7047000009480008890100085B
:10036000A0520020A0580020A0540020A05400203B
:1003700070B5064600F048F9056806F10B0020F05C
:100380000704B4429CBF002070BD2B466A68BAB116
:100390001068A04210D304F1080188423CBF5068A5
:1003A000586007D35168101941601168091B01603A
:1003B00058601460101D70BD13465268002AE7D1C2
:1003C0002146284600F028F90028DED170BD70B51E
:1003D0000446051F00F018F90068002C14BF44689B
:1003E00070BD002C18BFAC423CBF20466468F8D3F7
:1003F00001680A18AA4218BF456003D12A68054659
:100400001144016028684119A1421CBF6C6070BD95
:100410006168696021680844286070BD53EA020C75
:1004200000F069802DE9F04B4FF00006002B1FBF54
:10043000B3FA83F503FA05F424FA05F65E4012BF19
:100440001643B2FA82F502FA05F4C5F120051EBF83
:1004500022FA05FC44EA0C04203556EA044C4FEA23
:10046000144418BF641C4FF000084FF0000990427C
:1004700071EB030C39D3002919BFB1FA81F701FAE6
:1004800007F6B0FA80F700FA07F6C7F120071EBF9B
:1004900020FA07FC46EA0C062037B6FBF4FCA7EB73
:1004A0000507103F07F01F0BCBF120060CFA0BFBE2
:1004B0002CFA06F644BFB3460026202FA4BF5E46A2
:1004C0004FF0000B5BEA060C08BF4FF0010B19EB75
:1004D0000B09ABFB027C48EB0608C01B06FB02CCF9
:1004E0000BFB03CC71EB0C01C1E70B460246414606
:1004F0004846BDE8F08B13B54FF000004FF0000107
:10050000AFF30080BDE81C40704710B5203AC0F042
:100510000B80B1E81850203AA0E81850B1E8185004
:10052000A0E81850BFF4F5AF5FEA027C24BFB1E841
:100530001850A0E8185044BF18C918C0BDE81040B2
:100540005FEA827C24BF51F8043B40F8043B08BFBB
:100550007047D20728BF31F8023B48BF11F8012B82
:1005600028BF20F8023B48BF00F8012B70474FF02E
:1005700000020429C0F0128010F0030C00F01B8070
:10058000CCF1040CBCF1020F18BF00F8012BA8BF7E
:1005900020F8022BA1EB0C0100F00DB85FEAC17C42
:1005A00024BF00F8012B00F8012B48BF00F8012BF5
:1005B00070474FF0000200B5134694469646203926
:1005C00022BFA0E80C50A0E80C50B1F12001BFF40C
:1005D000F7AF090728BFA0E80C5048BF0CC05DF872
:1005E00004EB890028BF40F8042B08BF704748BFC0
:1005F00020F8022B11F0804F18BF00F8012B704734
:10060000704770477047000000487047485200200C
:10061000704770477047704738B504460A46002057
:100620006946AFF30080002808BF38BD0246009934
:10063000204600F04FF8012038BD012000F064B8DA
:10064000F8B5AFF30080054600200C46102000BF2F
:100650000646A819A0420DD9324669460020AFF3DC
:100660000080070008BF00F04FF80098A04218BFB4
:100670000546C419FFF7C8FF05600746F01D20F0C6
:1006800007004619284600F00AF8B44208BFF8BD32
:10069000A21B31463868BDE8F84000F01BB80021C5
:1006A0000160C0E9011070471020704710B500F0DC
:1006B0000DF8006810BD10B5044600F007F804609E
:1006C00010BD0000004870474052002000487047AD
:1006D00040520020034640688C46002818BF8842DC
:1006E0003CBF03464068F8D318681844884207D0D6
:1006F0000CF1030020F00700001D411A521A0146B8
:10070000081D0A60FFF763BE10B500F039F8BDE8B8
:10071000104000F02FB870477546FFF7D3FFAE4684
:1007200005006946534620F00700854618B020B5FD
:10073000FFF70CFEBDE820404FF000064FF0000729
:100740004FF000084FF0000B21F00701AC46ACE879
:10075000C009ACE8C009ACE8C009ACE8C0098D46E6
:10076000704710B50446AFF300802046BDE8104046
:10077000FFF777BD002801D000F02AB870470000CD
:1007800010B5012805D0002103A000F027F80120B2
:1007900010BD09A1F8E7000053494752544D454D9B
:1007A0003A204F7574206F662068656170206D6512
:1007B0006D6F7279000000003A2048656170206D0D
:1007C000656D6F727920636F727275707465640005
:1007D00001491820ABBEFEE72600020070B50546B1
:1007E0000C460A2000E06D1C00F011F835B12878A5
:1007F0000028F8D102E0641C00F009F814B1207858
:100800000028F8D1BDE870400A20AFF3008008B599
:1008100069468DF800000320ABBE08BD10B5044644
:100820002DED088B82B094ED336AD4ED346A94EDEB
:10083000350AF6EE000A60EE203A94ED223AD4ED45
:10084000232A94ED242AD4ED251A94ED047A94ED0C
:10085000054AD4ED064A94ED079AD4ED088A94ED42
:10086000098A27EE040A20EE240AB5EEC00AF1EE4A
:1008700010FA7DD023EE030A02EEA20A02EE020A6B
:1008800001EEA10A07F01EFC23EE003A62EE802A78
:1008900022EE002A61EE801A27EE070A04EE040A0F
:1008A00004EEA40A07F00EFC27EE007A64EE009A2C
:1008B00024EE801A22EEA10AB0EE00AA03EE420A4C
:1008C00020EE0A5A23EE220A02EE210A20EE0A0A3C
:1008D00063EE030A42EEE20A42EE420A41EEA10A48
:1008E00029EEA04A01EE404A21EE051A07EE601AF1
:1008F00067EE004A49EEC54A624890ED010A04EEEF
:10090000260A80ED010AD0ED020A41EE260AC0ED6A
:10091000020A90ED035A04EEA65A80ED035A06EE41
:10092000049A39EE000A46EE018A78EEA00A06EE35
:10093000248A38EE051AB1EE624AF0EE437A24EECC
:10094000004A02EE604A01EEC14A44EE237A23EEE9
:10095000004AF0EE625A02EE014A01EEE04A44EE2D
:10096000235A23EE204A02EEC14A01EE804A00E0FB
:1009700083E0B0EE425A04EE235A23EE011A02EE4F
:10098000A01A02EE401A41EE231A27EEA70A05EE3E
:10099000A50A05EE050A01EEA10A07F093FB67EE32
:1009A000809A25EE808A65EE008A21EE809AC4ED59
:1009B000229A84ED238AC4ED248A84ED259A28EEB8
:1009C0000A0A29EE8A1A60EE09AA41EE68AAB7EE71
:1009D000000A0AEEEA0AB5EEC00AF1EE10FA04DBEC
:1009E000F1EEC00ACDED010A03E09FED270A8DED7F
:1009F000010A69EEA90A28EE8A0A04F16000B0EE45
:100A000060BA48EE480A20EE090A01EE080A48EEEC
:100A1000E80A49EE090A05F09BFC04F15C00DDEDF3
:100A2000010AB0EE6A0A05F093FCF0EE4B0A28EEDC
:100A3000280A48EE080A04F1580009EE890A48EE2F
:100A4000E80A20EE0A0A49EE490A05F081FCD4EDD5
:100A5000180A9FED0E0A60EE800AC4ED180AD4ED64
:100A6000170A9FED0B1A60EE810AC4ED170AD4ED48
:100A7000160A20EE800A84ED160A02B0BDEC088B3F
:100A800010BD0000D809002000000000DF2E6542E4
:100A9000DF2E65C2FEE7000000B58BB001A800F0B4
:100AA00024F901A9054800F053FD0221034800F094
:100AB000CBFC024801F09BF80BB000BD000E0020FB
:100AC000014800F057BE0000000E002070B5174C22
:100AD00040F2FF1525600025A560E5600826266127
:100AE000134C060A26706070080AA070E170100AA4
:100AF00020716271180AA071E3710020215C09B9AC
:100B0000401CC0B208280FD0401CC0B20828F5D342
:100B1000074B074A0C3B0549064800F0A7FC04496F
:100B20000C39CD600D6170BD002070BD68130020D0
:100B300014010020000E002070B5174C4FF4007512
:100B400025600025A560E56008262661134C060A8D
:100B500026706070080AA070E170100A207162713E
:100B6000180AA071E3710020215C09B9401CC0B2D1
:100B700008280FD0401CC0B20828F5D3074B0649FF
:100B80001B1F1A1D064800F071FC0449091F4D6027
:100B90008D6070BD002070BD681300200C01002026
:100BA000000E002070B5A0F500700B4C01384FF01E
:100BB00000050AD0012807D1D4F86C35082204F5C5
:100BC0003370984784F8E25270BDD4F8A0320822FE
:100BD00001489847A57570BD5C01002000B58BB039
:100BE00001A800F082F801A9054800F0B1FC02213B
:100BF000034800F029FC024800F0F9FF0BB000BDEB
:100C0000280E0020014800F0B5BD0000280E00208D
:100C100070B5174C40F2FF1525600025A560E56012
:100C200008262661134C060A26706070080AA07018
:100C3000E170100A20716271180AA071E37100203E
:100C4000215C09B9401CC0B208280FD0401CC0B2BA
:100C50000828F5D3074B074A343B0549064800F0FE
:100C600005FC044934394D638D6370BD002070BDAF
:100C7000681300203C010020280E002070B5174C9E
:100C80004FF4007525600025A560E5600826266103
:100C9000134C060A26706070080AA070E170100AF2
:100CA00020716271180AA071E3710020215C09B9FA
:100CB000401CC0B208280FD0401CC0B20828F5D391
:100CC000074B074A2C3B0549064800F0CFFB044977
:100CD0002C39CD620D6370BD002070BD68130020FB
:100CE00034010020280E002070470021016041607F
:100CF0008160C1600161416181610122C261026262
:100D0000416270474178007841EA0020704741799C
:100D1000007941EA002000B27047C178807841EA4A
:100D2000002000B27047807970474179007941EA2C
:100D3000002000B27047000010B5124A01689142CD
:100D40000DD1114B00211C46A3F11C0200F089FCBF
:100D50000D4821461C380068FFF724FF10BD0B4AE0
:100D60009142FBD1084B002124331C46A3F11C0205
:100D700000F077FC0448214608300068FFF7B4FF14
:100D800010BD000000640040C41300200068004053
:100D9000014800F0B9BF0000E8100020014800F051
:100DA000B3BF000048110020014800F0ADBF0000B3
:100DB00088100020014800F0A7BF0000A811002003
:100DC000014800F0A1BF0000C80F0020014800F05A
:100DD0009BBF000008120020014800F095BF0000F2
:100DE000281000202DE9F04F099E00248568802DF1
:100DF00018D0A24DC563A24D456490F83450012D22
:100E000015D0012580F8345090F83550012D10D0C0
:100E1000002180F834100224002180F8341020468C
:100E2000BDE8F08F4FF4807141650120F8E70220A2
:100E3000F6E7022580F835500025456505682F68DE
:100E400047F480272F6005682B6103685E60836824
:100E5000402B25D0036899600168CA608A4D8A4E8C
:100E6000884FDFF820E2EA14DFF81CC2DFF81482B2
:100E7000DFF81492DFF80CA201687836303793025D
:100E80000CF1300CA8F1180809F190090AF1480A90
:100E90004FF0006B71453BD9A94206D1202233E0C7
:100EA00003689A600268D160D8E7764D483DA94250
:100EB00001D1202228E0744D6035A94201D12022C1
:100EC00022E0704D1835A94201D120221CE06E4D60
:100ED0001835A94218D06B4D303DA94214D0B1420B
:100EE00012D0B94210D0614501D11A460CE04145FB
:100EF00001D11A4608E0494501D11A4604E051459E
:100F000001D11A4600E05A465E494C390A60AFE00A
:100F1000DFF874E10EF1A80E714536D9A94201D16E
:100F200020222EE0574D483DA94201D1202228E041
:100F3000554D6035A94201D1202222E0514D18358E
:100F4000A94201D120221CE04F4D1835A94218D0EA
:100F50004C4D303DA94214D0B14212D0B94210D00C
:100F6000614501D11A460CE0414501D11A4608E01D
:100F7000494501D11A4604E0514501D11A4600E025
:100F80005A46404950390A6072E0DFF8FCE00EF141
:100F9000480E714536D9A94201D120222EE0394DA3
:100FA000483DA94201D1202228E0374D6035A942B1
:100FB00001D1202222E0334D1835A94201D120224F
:100FC0001CE0314D1835A94218D02E4D303DA942B4
:100FD00014D0B14212D0B94210D0614501D11A46A5
:100FE0000CE0414501D11A4608E0494501D11A46B5
:100FF00004E0514501D11A4600E05A462249103911
:10100000CA6035E0A94201D120222EE01D4D483DA5
:10101000A94201D1202228E01B4D6035A94201D10F
:10102000202222E0174D1835A94201D120221CE0D0
:10103000154D1835A94218D0124D303DA94214D093
:10104000B14212D0B94210D0614501D11A460CE02C
:10105000414501D11A4608E0494501D11A4604E04C
:10106000514501D11A4600E05A46074910398A60B5
:1010700001680A6842F001020A60CDE6E9710008E1
:101080000172000858640240106002400168CAB250
:10109000103A1823B2FBF3F2064B9B5CC3656FF367
:1010A0000901032A02D9091D816500E08165806D6F
:1010B0007047000020E2000810B5014600208A6A4F
:1010C0008B694FF0C074002B0ED0B3F5005F1AD0BF
:1010D00062B3012A2AD0022A28D0032A03D1C96A7E
:1010E000C90100D5012010BD1AB1012A06D0022A7B
:1010F000F9D1C96AC901F6D5012010BDC96AA1425A
:10110000FBD1012010BD52B1012A0AD0022A06D01B
:10111000032AF7D1C96AA142F4D1012010BD0120F0
:1011200010BDC96AC901FBD5012010BD012010BD49
:1011300070B5002490F83450012D0CD0012580F8B2
:10114000345090F835600025012E06D080F83450D8
:101150000224204670BD022070BD022680F8356052
:10116000456505682E6826F480262E6005686B604C
:101170008368402B09D0036899600168CA600068E1
:10118000016841F001010160E3E703689A600268C9
:10119000D160F4E701680A68D20604D5C968C906B7
:1011A00001D509F0D7B87047F0EE401AB0EE600AEA
:1011B00071EEC00AF5EEC00AF1EE10FA01DC70EE35
:1011C000610AF4EEC10AF1EE10FA01D3B0EE610A41
:1011D000704770472DE9F04114488068804700242B
:1011E000134F144E4FF00108B320604307EB800506
:1011F0002846D5F894128847C4EBC40006EBC0011A
:10120000D5F89C2205F12C00904708EB4400C0EB78
:10121000C00006EB8001D5F89C2205F170009047D4
:10122000641CE4B2022CDFD3BDE8F0811C0900206D
:101230005C010020500900200EB590ED180AD0ED99
:101240001B0A30EE600A8DED000A90ED170AD0ED12
:101250001A0A30EE600A8DED010A90ED160AD0ED03
:10126000190A30EE600A8DED020A00219FED122A64
:101270006B4603EB8102F0EE420A92ED000A06F0A3
:1012800090FC82ED000A491CC9B20329F1D3DDEDBF
:10129000000A9FED0A0A60EE800AC0ED1C0ADDED2F
:1012A000010A60EE800AC0ED1D0ADDED020A20EEA3
:1012B000800A80ED1E0A0EBD0000B44300007A448F
:1012C00010B502F095FB0E48D0F8141188470A209B
:1012D00000F06CFEFFF7E0FBFFF780FC03F076FC0C
:1012E00003F09EFC03F0D4FC012002F0B3FB0220CB
:1012F00002F0B0FBBDE81040032002F0ABBB0000E1
:10130000E809002072B6FEE710B504462DED0E8BFD
:10131000A068D0ED04AAD0ED009AD0ED018A90ED3E
:10132000028A90ED039A206990ED00BA90ED01AA2F
:10133000606990ED00DA3AEEA90A30EE680A70EEC4
:1013400048BAB0EE6B0A04F04FFDF2EE0CCA2AEE7A
:101350002CAA60EE0ADA3AEEE90A30EE280A30EEFC
:10136000480AB0EE40CA04F03FFD7AEEE8EA4AEEE1
:1013700040DA3EEE880A30EE490AF0EE40AA04F068
:1013800033FD2BEE2CEA4EEE40DA3EEEC80A30EE8C
:10139000090AF0EE40CA04F027FDFAEE0C0A79EED5
:1013A000E89A2BEE20BA5BEE00DA39EE880A70EE8E
:1013B000498AB0EE680A03F045FEF0EE40EA39EEE5
:1013C000C80A30EE098AB0EE480A03F03BFE3EEE52
:1013D000C00ADFED1C9A20EE290A8DEE809AB0EE4D
:1013E0006B0A03F02FFE60EE0ABAB0EE4C0A03F06F
:1013F00029FE4AEE40BAB0EE6A0A03F023FE4EEE32
:1014000040BAB0EE6C0A03F01DFE5BEE00BAB0EE1F
:10141000680A2BEE8DAA03F015FEF0EE408AB0EEBE
:10142000480A03F00FFE38EEC00A60EE290A8AEE81
:10143000200A206980ED029A206980ED030ABDEC44
:101440000E8B10BD0000444390F82020012A07D0E5
:10145000022A05D0416A41F480214162012070478F
:10146000006842690A43426100207047F0B590F875
:1014700020500468A468012D07D0022D05D0416AD0
:1014800041F4802141620120F0BD04F0806504F048
:101490000066354301D1E50053D5C4F3016401254D
:1014A000A5401D608B684FF4C0759BB1CE6805EBFD
:1014B000041733434E6843EAC6030668F3514FF4FA
:1014C000C273076803EB04130E69FE50097D0129FE
:1014D00009D00DE00E88CB6805EB041743EA4653AC
:1014E0000668F351EBE70168CE5846F48076CE509B
:1014F0001179D379567941EA036193791B0443EA60
:10150000062319434FF4C676036806EB0416995177
:101510001178D37841EA0361937852781B0443EA47
:10152000022211434FF4C473026803EB0413D15039
:10153000006805EB0411425842F0010242500020BD
:10154000F0BD416A41F4001141620120F0BD00008C
:1015500010B590F82020012A07D0022A05D0416A50
:1015600041F480214162012010BD3C4800F500702B
:10157000026842F001020260026822F47C520260BA
:1015800002684B6A42EA032202600A7D02F01F03EE
:1015900001229A40C3699343C361A0F50070CB69EF
:1015A000B3B9D0F80C329343C0F80C328C894B6835
:1015B00064F31F434C6900EBC404C4F840320C8947
:1015C0000B6864F31F434C6900EBC404C4F8443255
:1015D000CB69012B16D1D0F80C321343C0F80C3272
:1015E0000C884B6864F31F434C6900EBC404C4F8D7
:1015F00040320C89CB6864F31F434C6900EBC40490
:10160000C4F844328B697BB1D0F804321343C0F87C
:1016100004320B6973B1D0F814321343C0F814329A
:10162000096A01290CD010E0D0F804329343C0F8C5
:101630000432EEE7D0F814329343C0F81432EFE7E7
:10164000D0F81C121143C0F81C12D0F8001221F07F
:101650000101C0F80012002010BD0000006400402D
:10166000704770B590F82040012C07D0022C05D0AF
:10167000416A41F480214162012070BD21B10468BA
:101680002469A4072AD003E00468E468A4071FD0F3
:101690004FF4D874056804EB01142D5905F00405C6
:1016A00095600DB305682D59ED08556005682C59F6
:1016B00004F00204D4604FF4DA74056804EB0114FA
:1016C0002E5906F00F06082E13D30825156114E0D5
:1016D000416A41F400114162012070BD416A41F448
:1016E00000114162012070BD05682D596D0D156016
:1016F000DCE72D5905F00F05156105682D59C5F377
:101700000725956105682C59240C54614FF4DC724F
:10171000046802EB0112A4581C700468A458240A3F
:101720005C700468A458240C9C700468A258120EC3
:10173000DA704FF4DE72046802EB0112A4581C71D7
:101740000468A458240A5C710468A458240C9C7191
:101750000468A258120EDA7131B10068016941F0D3
:1017600020010161002070BD0068C16841F02001C6
:10177000C160F7E72DE9F05F054600242868466957
:10178000D0F804908768D0F80CA0D0F810B0D0F84A
:101790001880F10748D0F90714D001218160B807FB
:1017A00003D5284600F050FA0CE0780702D54FF434
:1017B000006407E0380702D54FF4805402E0284661
:1017C00000F041FAF80516D529684FF4807088605A
:1017D000B80503D5284600F039FA0CE0780502D5A3
:1017E00044F4005407E0380502D544F4804402E094
:1017F000284600F02AFAF80316D529684FF48030FD
:101800008860B80303D5284600F022FA0CE078037C
:1018100002D544F4004407E0380302D544F4803490
:1018200002E0284600F013FA300707D55FEACA60E5
:1018300004D544F4007429681020C86070074FF084
:10184000080707D55FEA0A7004D52868C7602846EC
:1018500000F0B8F9B00706D52868C068800702D044
:10186000284600F0B1F9700607D55FEACB6004D5D1
:1018700044F48064296810200861B00607D55FEA47
:101880000B7004D528680761284600F0ADF9F00612
:1018900006D528680069800702D0284600F0A5F91F
:1018A000B00308D55FEAC96005D5296810204860F3
:1018B000284600F09BF9F00307D55FEA097004D5CC
:1018C00028684760284600F0C4F9300446D55FEA2E
:1018D000497040D5F00504D55FEAC87001D044F0E6
:1018E0000104B00504D55FEA887001D544F0020414
:1018F000700504D55FEA487001D544F00404300552
:1019000029D518F0700F26D008F07000402815D0A7
:1019100006DC102809D020280AD0302816D10AE089
:1019200050280ED0602811D10EE044F008040DE0DC
:1019300044F010040AE044F0200407E044F04004BE
:1019400004E044F0800401E044F480742868816974
:1019500021F070018161296804204860002C05D0C5
:10196000686A204368622846FFF77AFEBDE8F09F68
:1019700070B50446002C03D094F8200010B104E0A8
:10198000012070BD204600F09DF82068016841F0FC
:101990000101016000F00CFC054605260CE000F09A
:1019A00007FC401B0A2807D9606A40F400306062D7
:1019B00084F82060012070BD20684068C007EED028
:1019C0002068016821F00201016000F0F1FB05468A
:1019D0000CE000F0EDFB401B0A2807D9606A40F4D8
:1019E0000030606284F82060012070BD206840688B
:1019F0008007EED4207E01283FD02068016821F0C6
:101A000080010160607E01283DD02068016821F0DE
:101A100040010160A07E01283BD02068016821F0D0
:101A200020010160E07E012839D02068016841F082
:101A300010010160207F012837D02068016821F063
:101A400008010160607F012835D02068016821F01D
:101A500004010160D4E902010843D4E904121143EE
:101A600008436168491E08432168C861002060621C
:101A7000012084F82000002070BD2068016841F03A
:101A800080010160BEE72068016841F0400101600B
:101A9000C0E72068016841F020010160C2E72068CA
:101AA000016821F010010160C4E72068016841F07D
:101AB00008010160C6E72068016841F00401016087
:101AC000C8E700002DE9F04186B00446142101A8C2
:101AD000FEF76FFD364B374ADFF8D0801868216873
:101AE000344C03260227401C103200254FF0090C0D
:101AF000414527D11860012807D1106840F00070D7
:101B00001060106800F000700090206840F008003D
:101B10002060206800F0080000900196029703956D
:101B20000496CDF814C001A9234800F051FA002210
:101B30000521142000F0ECFB142000F0DBFB06B0C4
:101B4000BDE8F081DFF874804145F8D1116841F0BB
:101B500080611160116801F08061009118600128B6
:101B600007D1106840F000701060106800F000703D
:101B70000090206840F002002060206800F0020021
:101B8000009060200190029703950496CDF814C050
:101B900001A90B4800F01CFA00220521402000F0AA
:101BA000B7FB402000F0A6FBC9E70000006400403E
:101BB0000C00002030380240000C02400068004059
:101BC0000004024070470000054A0168914201D1BB
:101BD000FFF7B2B8034A914201D1FFF7ADB87047A1
:101BE000006400400068004070477047704770B55F
:101BF000044694F82000012805D0606A40F40020D3
:101C00006062012070BD022084F820002068016815
:101C100021F00101016000F0CBFA05460DE000F073
:101C2000C7FA401B0A2808D9606A40F40030606295
:101C3000052084F82000012070BD20684068C0079E
:101C4000EDD1606270BD7047704770477047704754
:101C5000704770472DE9F0410446A76D00F0A8FADF
:101C6000054694F835000026022806D080206065DD
:101C700084F834600120BDE8F0812068016821F01B
:101C8000160101602068416921F080014161206CEA
:101C900008B9A06C20B12068016821F0080101603A
:101CA0002068016821F0010101600BE000F080FA7A
:101CB000401B052806D920203434206203206070A0
:101CC0002670D8E720680068C007EFD134343F2081
:101CD00094F828108840B8600120607026700020B9
:101CE000C9E790F83510022903D080214165012011
:101CF0007047052180F835100068016821F0010166
:101D000001600020704700002DE9F84304464FF0C1
:101D10000009CDF800906F484FF416510068B0FBF1
:101D2000F1F7A56D2E6894F85C00082202FA00F124
:101D3000314210D02068016849070CD5016821F0B4
:101D40000401016094F85C0002FA00F1A960606D82
:101D500040F00100606594F85C104FF0010808FA4B
:101D600001F0304208D021684969090604D5A8600D
:101D7000606D40F00200606594F85C1004208840BB
:101D8000304208D021680968890704D5A860606DD1
:101D900040F00400606594F85C10102088403042E8
:101DA00020D02168096809071CD5A860206801684F
:101DB00049030CD50068000304D4216C91B120467E
:101DC00088470FE0A16C69B1204688470AE00168A6
:101DD000C90503D4016821F008010160216C09B133
:101DE0002046884794F85C102020884030424CD030
:101DF00021680968C90648D5A86094F83500052807
:101E00000BD020680168490330D50068000328D44E
:101E1000616C51B32046884737E02068016821F0A3
:101E2000160101602068416921F080014161206C48
:101E300008B9A06C20B12068016821F00801016098
:101E400094F85C103F208840A86084F8358084F8BE
:101E50003490216D00293BD001B02046BDE8F0430D
:101E60000847E16B09B1204688470EE00168C905C3
:101E700007D4016821F01001016084F8358084F8EE
:101E80003490E16B09B120468847606D00281FD06F
:101E9000606DC00714D0052084F835002068016803
:101EA00021F0010101600098401C0090B84203D865
:101EB00020680068C007F6D184F8358084F8349033
:101EC000E16C002904D001B02046BDE8F04308478A
:101ED000BDE8F883340B00202DE9F041044600F002
:101EE00067F905465CB1022084F83500002684F8C5
:101EF00034602068016821F0010101600DE00120DB
:101F0000BDE8F08100F054F9401B052805D92020D8
:101F10006065032084F83500F2E720680068C00798
:101F2000F0D121680A6820480240D4E9010318432F
:101F3000D4E903352B43184363691843A369184355
:101F4000E3691843236A18431043626A042A03D1E1
:101F5000D4E90B231A43104308602068406920F03D
:101F60000700656A29460543012704290DD1A06AA7
:101F70000543E06A48B12046FFF79EF828B14020AB
:101F8000606584F835700120BAE720684561204615
:101F9000FFF77CF894F85C203F21914081606665F2
:101FA00084F835700020ABE73F8010F070B5044630
:101FB00000F0FEF80546601C02D004480078044496
:101FC00000F0F6F8401BA042FAD370BDA00B002031
:101FD0002DE9F84F0022DFF89C914FF0010803270C
:101FE0004FF00F0C09F1040AA9F1040B08FA02F5ED
:101FF0000B682B40AB426ED10C7904F00304012C2A
:1020000001D0022C15D18668540007FA04FE26EA96
:102010000E06D1F80CE00EFA04FE4EEA060EC0F8E9
:1020200008E04468AC430D79C5F30015954025439D
:1020300045600C79E443A40708D0C568540007FA4A
:1020400004F6B5438E68A6402E43C6600C7904F0B2
:102050000304022C11D1D40800EB8406356A54071E
:10206000E40E0CFA04FE25EA0E05D1F810E00EFA93
:1020700004FE4EEA050EC6F820E00568540007FA93
:1020800004F6B5430E7906F00306A6402E4306601B
:102090004C6814F4403F67D0374C256845F48045C0
:1020A0002560246804F480440094344C22F0030535
:1020B0002E19D6F8085894074FEA147E0CFA0EF43D
:1020C000A5432F4CA04201D1002424E02D4CA04276
:1020D00002D101241FE047E02B4CA04201D1022491
:1020E00019E02A4CA04201D1032414E0284CA0425C
:1020F00001D104240FE0274CA04201D105240AE0BD
:10210000254CA04201D1062405E0244CA04201D177
:10211000072400E0082404FA0EF42C43C6F808480B
:10212000D9F800409C434D68ED0200D51C43C9F826
:102130000040DAF800409C434D68AD0200D51C43D6
:10214000CAF80040DBF800409C434D68AD0300D561
:102150001C43CBF80040074D083D2C689C434E685B
:10216000F60300D51C432C60521C102AFFF43EAF2E
:10217000BDE8F88F083C014044380240003001407F
:10218000000002400004024000080240000C02402F
:10219000001002400014024000180240001C0240DF
:1021A000002A01D0816170470904816170470000F5
:1021B0000148806870470000A00B002009480168B2
:1021C000094A1278114401604FF08041496A006861
:1021D00000EB4002C2EBC01001EBC00003490860F5
:1021E00070470000A80B0020A00B0020C0090020B1
:1021F00010B50B48016841F400710160016841F4B9
:1022000080610160016841F480710160032000F089
:102210009FF80F2000F006F800F050F8002010BDE5
:10222000003C024030B587B0054600241F480168D5
:1022300041F001010160006800F00100009001A977
:1022400002A800F03DF90598B0B100F05DF940003A
:102250001749B0FBF1F1491E16484FF08042026069
:1022600040F2E732C260416004618460846100F042
:102270008AFE04461CB115E000F046F9E8E70D4877
:1022800000F0A8FE04466CB91C2000F033F8102DB5
:1022900007D2002229461C2000F03AF806480560C3
:1022A00000E0012407B0204630BD00004038024065
:1022B00040420F0068120020A40B002082B00C489E
:1022C000016841F480410160006800F480400190A1
:1022D0000748001F016841F080510160006800F06C
:1022E0008050019000220F21901E02B000F010B823
:1022F00044380240002809DB00F01F020121914010
:102300004009800000F1E020C0F800117047000093
:10231000F0B40D460D4B1B68C3F30223C3F1070451
:10232000042C00D90424191D072901D2002300E040
:10233000DB1E012606FA04F1491E294099409E4001
:10234000761E16403143F0BC02F044BD0CED00E0B7
:1023500000F00701054A10684FF6FF03184040EAF5
:102360000120034908431060704700000CED00E0B5
:102370000000FA052DE9F04704460D46002C13D065
:10238000DFF82891D9F80000EFB200F00700A8426A
:102390000CD289F80070D9F8000000F00700A842BC
:1023A00004D00120BDE8F0870120FBE72068404E03
:1023B000810712D5400703D5306840F4E050306003
:1023C0002078000703D5306840F460403060306802
:1023D000A16820F0F000084330602078C00731D0B9
:1023E000334960680839012808D002280BD0032837
:1023F00009D0096889070BD40120D3E7096889034C
:1024000006D40120CEE70968890101D40120C9E77B
:10241000316821F0030101433160FFF7C9FE8046B6
:1024200041F2883A07E0FFF7C3FEA0EB08005045F1
:1024300001D90320B6E73068616800F00C00B0EB0A
:10244000810FF0D1D9F8000000F00700A84209D9A7
:1024500089F80070D9F8000000F00700A84201D008
:1024600001209FE72078400705D53068E16820F417
:10247000E050084330602078000706D530682169B5
:1024800020F4604040EAC100306000F05DF831683F
:10249000084AC1F30311515CC84007490860074866
:1024A0000068FFF7BFFE00207CE70000003C024010
:1024B0000838024008E20008340B0020A40B00207A
:1024C0000F2202600B4A136803F003034360136892
:1024D00003F0F0038360136803F4E053C3601268F1
:1024E00002F46042D20802610348006800F007006D
:1024F0000860704708380240003C0240014800680C
:1025000070470000340B002000B5FFF7F7FF0449C7
:102510000968044AC1F38221515CC84000BD000033
:102520000838024018E2000800B5FFF7E7FF044949
:102530000968044AC1F34231515CC84000BD000043
:102540000838024018E2000810B51748006810F07B
:102550000C01164816D0164B042912D0082911D1A7
:10256000114C241F216801F03F02216849020AD55D
:102570002068C0F38810A0FB03010023FDF74EFF85
:1025800009E0184610BD21680023C1F38811A1FBA2
:102590000001FDF743FF2168C1F30141491C4900D7
:1025A000B0FBF1F010BD0000083802400024F40038
:1025B00040787D012DE9F84F0446002C13D0207897
:1025C000DFF8A083C007A8F1040556D008F1040085
:1025D0000168C1F3810101290CD00068C0F38100BA
:1025E000022803D00DE00120BDE8F88FD8F80000E4
:1025F000400206D5286880033FD5606870BB012083
:10260000F2E76068B0F5803F10D0B0F5A02F12D08F
:10261000286820F480302860286820F48020286012
:102620006068E0B1FFF7C4FD064614E0286840F496
:1026300080302860F4E7286840F48020286028680B
:1026400040F480302860EBE7FFF7B2FD801B642880
:1026500001D90320C8E728688003F5D50DE0FFF70E
:10266000A7FD064606E0FFF7A3FD801B642801D9FD
:102670000320B9E728688003F5D42078BA4F800793
:102680004FF0000948D5B748001D016811F00C0F44
:1026900008D00068C0F38100022813D1D8F80000E8
:1026A00040020FD42868800704D5E068012801D0D3
:1026B000012099E72868216920F0F80040EAC1006C
:1026C000286029E0E068B8B101203860FFF770FDAC
:1026D000064606E0FFF76CFD801B022801D90320A7
:1026E00082E728688007F5D52868216920F0F8007E
:1026F00040EAC10028600FE0C7F80090FFF758FDDE
:10270000064606E0FFF754FD801B022801D903208E
:102710006AE728688007F5D42078000729D5DFF814
:1027200044A2924861690AF1700A89B101210160ED
:10273000FFF73EFD064606E0FFF73AFD801B022844
:1027400001D9032050E7DAF800008007F4D510E043
:10275000C0F80090FFF72CFD064606E0FFF728FDC5
:10276000801B022801D903203EE7DAF80000800729
:10277000F4D42078400778D54FF0000A79483C30EF
:102780000068C0000BD477483C30016841F08051AC
:102790000160006800F0805000904FF0010ADFF8FF
:1027A000D0B1DBF80000C00514D4DBF8000040F421
:1027B0008070CBF80000FFF7FBFC064606E0FFF751
:1027C000F7FC801B022801D903200DE7DBF800008D
:1027D000C005F4D5634EA0686C3601280FD00528DB
:1027E00012D0306820F001003060306820F0040022
:1027F0003060A068F8B1FFF7DBFC834617E0306873
:1028000040F001003060F4E7306840F004003060D0
:10281000306840F001003060EBE7FFF7C9FCA0EB47
:102820000B0141F28830814201D90320DCE6306897
:102830008007F2D510E0FFF7BBFC834609E0FFF705
:10284000B7FCA0EB0B0141F28830814201D9032093
:10285000CAE630688007F2D4BAF1010F05D14148C9
:102860003C30016821F080510160A069C0B33D494E
:10287000091D09684FF0FF36C1F38101022946D0D6
:10288000022805D0C7F86090FFF792FC04463AE0B2
:10289000C7F86090FFF78CFC814607E0FFF788FCE3
:1028A000A0EB0900022801D903209DE628688001D9
:1028B000F4D4D4E907010843616AA26A890106EBEE
:1028C000520241EA0241084394F82C1040EA0160A8
:1028D000C8F8000001203866FFF76AFC044607E0EC
:1028E0003DE0FFF765FC001B022801D903207BE6D1
:1028F00028688001F5D532E0FFF75AFC001B02285A
:1029000001D9032070E628688001F5D427E001286A
:1029100023D0D8F80000E26900F4800191421AD176
:10292000226A00F03F01914215D147F6C071626AF8
:102930000140B1EB821F0ED1A26A00F4403106EBD8
:102940005202B1EB024F06D194F82C1000F07060E7
:10295000B0EB016F03D0012046E6012044E60020E1
:1029600042E600000438024000004742800E474221
:102970000070004070B50446002C09D0606A002544
:1029800040B125616561A56294F8510040B10CE049
:10299000012070BD6068B0F5827FF4D0E561F2E798
:1029A00084F85050204600F045F8022084F8510089
:1029B0002068016821F040010160A088218900F4AD
:1029C000827001F404410843A18901F400610843C5
:1029D000217C01F002010843217D01F0010108433F
:1029E000218B01F400710843217F01F03801084375
:1029F00094F8201001F080010843218D01F400516A
:102A0000084321680860A069042101EA104094F895
:102A1000241001F010010843216848602068C16952
:102A200021F40061C1616565012084F85100002036
:102A300070BD000010B586B00446142101A8FDF752
:102A4000B8FD14492068884221D10021124802684B
:102A500042F480420260006800F4804000900E481A
:102A60001038026842F002020260006800F00200C2
:102A700000904FF4604001900220029003910320E7
:102A800004900520059001A90448FFF7A1FA06B0BB
:102A900010BD0000003800404038024000040240F1
:102AA0002DE9F84F04468A4691461D46002694F8C3
:102AB0005100012801D0022699E060684FF0040B14
:102AC000B0F5827F01D1A06820B394F850000128AE
:102AD0002BD04FF0010884F85080FFF769FB0746C0
:102AE000BAF1000F23D0B9F1000F20D084F851B013
:102AF00000206065C4F838A0A4F83C90A4F83E908B
:102B00002063A086E08620646064A068B0F5004F72
:102B10000FD018E084F851B04B465246514620463B
:102B2000009500F033F9BDE8F88F0220FBE701269D
:102B30005DE02068016821F04001016020680168C3
:102B400021F48041016020680168490603D40168CE
:102B500041F040010160E068B0B133E02068816875
:102B6000C90709D0007BA16B0870A06B401CA06353
:102B7000E08F401EE08707E0FFF71AFBC01BA8426A
:102B800001D3681C04D11DB1E08F0028E6D11CE000
:102B9000032684F851802AE020688168C90709D09B
:102BA000C068A16B0880A06B801CA063E08F401EF2
:102BB000E08707E0FFF7FCFAC01BA84201D3681CBE
:102BC0000FD175B1E08F0028E6D13A46294620465C
:102BD00001F0B0FC08B120206065606D28B10126CD
:102BE00005E0032684F8518001E084F8518000203C
:102BF00084F85000304696E72DE9F84F04468B469E
:102C000092461D46002694F8500001280DD04FF042
:102C1000010884F85080FFF7CBFA074694F851007A
:102C2000B146012804D00226ACE00220BDE8F88FAE
:102C3000BBF1000F1CD05FEA0A0019D0032084F812
:102C40005100C4F85490C4F830B0A4F834A0A4F8EB
:102C500036A0C4F83890A4F83C90A4F83E90C4F88C
:102C60004490C4F84090A068B0F5004F02D00BE04B
:102C7000012687E02068016821F04001016020689A
:102C8000016841F48041016020680168490603D46D
:102C9000016841F040010160E068B0F5006F05D0C7
:102CA000606888B3BAF1010F2FD04FE0606810B1AF
:102CB000BAF1010F20D1206B21680088C860206B19
:102CC000801C2063E08E401EE08615E0206881684D
:102CD000890709D5216B0988C160206B801C20639E
:102CE000E08E401EE08607E0FFF762FAC01BA842B4
:102CF00001D3681C04D11DB1E08E0028E6D128E084
:102D0000032684F851803DE0FFE7206B21680078BE
:102D10000873206B401C2063E08E401EE08615E0A7
:102D200020688168890709D5216B09780173206BB8
:102D3000401C2063E08E401EE08607E0FFF738FA73
:102D4000C01BA84201D3681C0ED16DB1E08E0028D3
:102D5000E6D13A462946204601F032FC08B120204F
:102D60006065A06820B107E0032684F8518009E07F
:102D70002068C16880680090606D08B1012601E09C
:102D800084F8518084F8509030464FE72DE9FF4F8A
:102D900081B004460E9E8B4698460125002794F884
:102DA000500001280ED0AA4684F850A0FFF700FA80
:102DB000814694F85100616801280DD0B1F5827FF9
:102DC00008D103E0022005B0BDE8F08FA16809B981
:102DD000042801D00227CFE0BBF1000F2DD00398CB
:102DE00058B35FEA080028D094F85100042802D0B4
:102DF000052084F85100002060650399A163A4F8C0
:102E00003E80A4F83C80C4F830B0A4F83680A4F822
:102E100034802064606420680168490603D4016836
:102E200041F040010160E068B0F5006F07D06068D4
:102E3000F0B3B8F1010F49D07EE001279CE0606853
:102E400010B1B8F1010F3AD1206B21680088C86039
:102E5000206B801C2063E08E401EE0862FE02068FF
:102E6000816889070DD5E18E59B1012D09D1216BFA
:102E70000988C160206B801C2063E08E401EE086C4
:102E8000002520688168C9070BD0E18F49B1C0686F
:102E9000A16B0880A06B801CA063E08F401EE087C0
:102EA0000125FFF785F9A0EB0900B04207D300E048
:102EB0000CE0701C03D0032784F851A05CE0E08E86
:102EC0000028CCD1E08F0028C9D13BE0206B2168DD
:102ED00000780873206B401C2063E08E401EE08663
:102EE0002AE02068816889070DD5E18E59B1012D4E
:102EF00009D1216B09780173206B401C2063E08E9F
:102F0000401EE086002520688168C9070BD0E18F4C
:102F100049B1C068A16B0870A06B401CA063E08F32
:102F2000401EE0870125FFF743F9A0EB0900B042FE
:102F300001D3701C10D17EB1E08E0028D1D1E08F7A
:102F40000028CED14A463146204601F039FB38B13F
:102F50000127202060650FE0032784F851A00BE0D3
:102F6000A06818B92068C16880680090606D08B1D9
:102F7000012701E084F851A0002084F85000384671
:102F800021E77047704710B50446002C03D094F831
:102F90003D0010B107E0012010BD002084F83C0086
:102FA000204600F015F8022084F83D00211D20681D
:102FB00001F038FC01203D3460726070A070E07058
:102FC00020716071A071E07120722070002010BD2E
:102FD0007047000090F83D10012901D00120704792
:102FE000022180F83D100168CA6842F00102CA60FF
:102FF00000681449884214D0B0F1804F11D01249B2
:1030000088420ED0114988420BD01149884208D01D
:103010001049884205D01049884202D00F498842A1
:1030200009D1816801F00701062908D0016841F043
:103030000101016003E0016841F00101016000202D
:1030400070470000000001400004004000080040FC
:10305000000C004000040140004001400018004006
:1030600070472DE9F04104462068C56806694FF0B5
:103070000007B10714D5A90712D5F91E0161012077
:10308000207720688069800703D02046FFF7E8FF9B
:1030900005E0204600F081F8204600F07FF8277711
:1030A000700717D5680715D521686FF0040008610F
:1030B000022020772068806910F4407F03D02046EA
:1030C000FFF7CEFF05E0204600F067F8204600F04D
:1030D00065F82777300716D5280714D521686FF0D3
:1030E00008000861042020772068C069800703D0A9
:1030F0002046FFF7B5FF05E0204600F04EF82046D9
:1031000000F04CF82777F00617D5E80615D52168AA
:103110006FF010000861082020772068C06910F463
:10312000407F03D02046FFF79BFF05E0204600F0DC
:1031300034F8204600F032F82777F00708D0E80787
:1031400006D021686FF001000861204600F027F8E2
:10315000300608D5280606D521686FF08000086182
:103160002046FFF70EFF700608D5680606D52168D1
:103170006FF040000861204600F018F8B0060AD54C
:10318000A80608D521686FF0200008612046BDE838
:10319000F041FFF7F7BEBDE8F08170477047006867
:1031A000B0F1804F01D1FFF709B870477047704701
:1031B00070470000F8B5044622681068D16853696A
:1031C00000F00F06002E08D1850606D58D0604D521
:1031D0002046BDE8F84001F0CFBB0025002E66D0A8
:1031E00003F0010601F49077374360D0C20705D0A1
:1031F000CA0503D5626C42F001026264420705D53C
:10320000DA0703D0626C42F002026264820705D5DD
:10321000DA0703D0626C42F004026264020707D549
:1032200001F02002324303D0626C42F00802626473
:10323000626C002A31D0800604D5880602D520466B
:1032400001F09AFB20684069C0F38010616C0907A7
:1032500000D438B3204601F05BFB2068406940068B
:103260001CD52068143050E8001F21F0400140E8D0
:103270000012002AF5D1E06B60B159490165E06B9D
:10328000FEF72FFD002808D0E06B016D01B0BDE80E
:10329000F04008472046FFF78BFFF8BD2046FFF7B8
:1032A00087FFF8BD2046FFF783FF6564F8BD236BF9
:1032B000012B7DD1C3067BD5CB067FD51068506826
:1032C000009050694FF0200340064FF0020644D5AD
:1032D000E16B0868406880B20028E7D0A28D824286
:1032E000E4D9E085C869B0F5807F2DD020680C3026
:1032F00050E8001F21F4807140E80012002AF5D147
:103300002068143050E8001F21F0010140E800124D
:10331000002AF5D12068143050E8001F21F0400148
:1033200040E80012002AF5D184F842302563206875
:103330000C3050E8001F21F0100140E80012002A74
:10334000F5D1E06BFEF786FC6663A08DE18D401A37
:1033500081B22046FFF72BFFF8BDA08DE18D401A0A
:1033600081B2E08D0028F7D00029F5D020680C301C
:1033700050E8002F22F4907240E80027002FF5D18A
:103380002068143050E8002F22F0010240E80027A6
:10339000002FF5D184F84230256320680C3050E8C6
:1033A000002F22F0100240E80023002BF5D100E0AE
:1033B00004E066632046FFF7FAFEF8BD020606D574
:1033C0000A0604D52046BDE8F84001F0C3BB40061C
:1033D000F3D54806F1D52046BDE8F84001F0BFBA64
:1033E0000149000870B50446002C04D094F841004F
:1033F000002510B106E0012070BD84F84050204641
:1034000000F024F8242084F841002068C16821F4E9
:103410000051C160204601F013FB2068016921F4CE
:10342000904101612068416921F02A0141612068D1
:10343000C16841F40051C1606564202084F84100F6
:1034400084F842006563002070BD00002DE9F04F54
:1034500087B00446142102A8FDF7ABF8E348DFF873
:1034600088E314380221D4F800B0DFF880C30322C7
:103470000723002506150F044FF480784FF0400A0B
:103480004FF00069F34570D1DCF800B04BF0100B41
:10349000CCF800B0DCF800C00CF0100CCDF804C083
:1034A000D0F800C04CF0010CC0F800C0006800F07B
:1034B0000100019050020290039104950592069339
:1034C00002A9CB48FEF784FDDFF82CB3C948CBF83E
:1034D0000000CBF80490CBF80850CBF80C50CBF898
:1034E0001060CBF81450CBF81850CBF81C80CBF8F8
:1034F0002070CBF824505846FEF7EEFC08B1FDF7DB
:1035000001FFC4F83CB0CBF83840DFF8EC82B94892
:1035100008F160087830C8F80000C8F80490C8F8CE
:1035200008A0C8F80C50C8F81060C8F81450C8F8C3
:103530001850C8F81C50C8F82070C8F824504046ED
:10354000FEF7CAFC08B1FDF7DDFEC4F83880C8F804
:103550003840002205212520FEF7DAFE2520FEF75F
:10356000C9FE07B0BDE8F08FFFE7DFF890E2F34552
:103570004FD1DFF878C2ACF1040CDCF800A04AF4BB
:10358000003ACCF800A0DCF800C00CF4003CCDF808
:1035900004C0D0F800C04CF0010CC0F800C00068B6
:1035A00000F0010001900C20029003910495059217
:1035B000069302A98E48FEF70BFDDFF83CA2904867
:1035C0000AF1C00ACAF80000CAF80490CAF8085004
:1035D000CAF80C50CAF81060CAF81450CAF818504B
:1035E000CAF81C80CAF82070CAF824505046FEF76A
:1035F00073FC08B1FDF786FEC4F83CA0CAF8384059
:10360000002205212620FEF783FE2620FEF772FE0B
:10361000A7E7DFF8F0E1F34574D1DFF8D0C1ACF1F2
:10362000040CDCF800B04BF4802BCCF800B0DCF8D4
:1036300000C00CF4802CCDF804C0D0F800C04CF0D1
:10364000020CC0F800C0006800F0020001904FF4C6
:1036500040600290039104950592069302A96A487E
:10366000FEF7B6FC6648DFF8A4B16038CBF800007E
:10367000CBF80490CBF80850CBF80C50CBF8106086
:10368000CBF81450CBF81850CBF81C80CBF8207036
:10369000CBF824505846FEF71FFC08B1FDF732FE68
:1036A000C4F83CB0CBF83840DFF86081544808F1EA
:1036B00060083038C8F80000C8F80490C8F808A0BE
:1036C000C8F80C50C8F81060C8F81450C8F8185062
:1036D000C8F81C50C8F82070C8F824504046FEF7BF
:1036E000FBFB08B1FDF70EFEC4F83880C8F838407F
:1036F000002205212720FEF70BFE2720FEF7FAFD0A
:103700002FE7FFE7424B9B45FAD1DCF8003043F04E
:103710002003CCF80030DCF8003003F020030193E4
:10372000036843F004030360006800F004000190A4
:10373000C02002900391049505920820069002A9EA
:103740003448FEF745FCDFF8C4902A4809F1C00967
:103750001838C9F800004FF0206BC9F804B0C9F858
:103760000850C9F80C50C9F81060C9F81450C9F8CD
:103770001850C9F81C80C9F82070C9F82450484670
:10378000FEF7AAFB08B1FDF7BDFDC4F83C90C9F8EF
:1037900038401848DFF880806030C8F80000C8F86A
:1037A00004B0C8F808A0C8F80C50C8F81060C8F8F1
:1037B0001450C8F81850C8F81C50C8F82070C8F841
:1037C00024504046FEF788FB08B1FDF79BFDC4F886
:1037D0003880C8F83840002205214720FEF798FDC0
:1037E0004720FEF787FDBCE6001001404438024048
:1037F0000000024040640240C80F00200044004026
:10380000886002400048004000040240E8100020A8
:103810000014014000080240081200207047704761
:103820000A20FEF7C3FB00231A4619461846FDF787
:103830004DF900231A4619461846FDF77DF9002375
:103840001A4619461846FDF7E3F900231A461946A9
:103850001846FDF713FA0A20FEF7A8FB012080F3B3
:103860001388BFF34F8F05480168054A01F4E061F2
:1038700011430160BFF34F8F00BFFDE70CED00E087
:103880000400FA05B5EEC01AF1EE411AF1EE10FA95
:1038900002DDB0EE412A01E0B0EE612A12EE100A1C
:1038A000B0F17E5F0CDDB5EEC01AF1EE10FA01DC6E
:1038B000B0EE611AB2EE042AC1EE021AB0EE611A3D
:1038C000F7EE001A71EEC11A21EE800A00EE810AAD
:1038D000704710B5044694ED361AB5EEC01AF1EEF5
:1038E00010FA1BD0D4ED0A0A94ED040AFFF7CAFFC0
:1038F00084ED040A94ED361AD4ED0B0A94ED050A12
:10390000FFF7C0FF84ED050A94ED361AD4ED0C0ADA
:1039100094ED060AFFF7B6FF84ED060A94ED371A18
:10392000B5EEC01AF1EE10FA1BD0D4ED0D0A94EDED
:10393000070AFFF7A7FF84ED070A94ED371AD4EDC5
:103940000E0A94ED080AFFF79DFF84ED080A94ED36
:10395000371AD4ED0F0A94ED090AFFF793FF84EDAF
:10396000090A94ED381AB5EEC01AF1EE10FA1BD020
:10397000D4ED1B0A94ED180AFFF784FF84ED180AB2
:1039800094ED381AD4ED1A0A94ED170AFFF77AFF6E
:1039900084ED170A94ED381AD4ED190A94ED160A3D
:1039A000FFF770FF84ED160A94ED391AB5EEC01AD0
:1039B000F1EE10FA1BD0D4ED1F0A94ED1C0AFFF7AC
:1039C00061FF84ED1C0A94ED391AD4ED200A94EDC0
:1039D0001D0AFFF757FF84ED1D0A94ED391AD4ED47
:1039E000210A94ED1E0AFFF74DFF84ED1E0A10BD5B
:1039F00070B586B0142101A8FCF7DBFD0025134843
:103A0000016841F002010160006800F002000090CE
:103A100001220F4E140321463046FEF7C1FB0194EC
:103A2000012202920392049501A93046FEF7D0FAD2
:103A30000A20FEF7BBFA012221463046FEF7B0FB12
:103A40000A20FEF7B3FA06B070BD0000303802401D
:103A5000000402400321B0FBF1F201FB12010A480D
:103A600000290BD0012905D002290BD10122042104
:103A7000FEF796BB01220221FEF792BB012208212C
:103A8000FEF78EBB704700000008024010B50446E8
:103A9000606990ED010AD0ED000A80ED030A6069CB
:103AA000C0ED040A60690C3006F0A0FB606990ED7F
:103AB0000C0A206980ED040AA06890ED050A60698F
:103AC000D0ED020AC0ED150A606980ED160A606942
:103AD000543006F08BFB606990ED1E0A206980ED82
:103AE000090A10BD10B504462DED048BA068D0ED79
:103AF000008A90ED039AE0689FED170A80ED000AB6
:103B0000E06880ED010AB0EE680A02F035FDB2EE21
:103B10000C8AE06820EE080A80ED020AB0EE680A1E
:103B200002F06EFD20EE080AE06880ED030AB0EEB8
:103B3000490A02F021FD20EE080AE06880ED060A3D
:103B4000B0EE490A02F05CFD20EE080AE06880ED64
:103B5000070ABDEC048B10BD0000000010B5044640
:103B60002DED028BA06890ED018AB0EE480A02F0BC
:103B700003FDE068DFED208AD0ED020A40EE280A5E
:103B8000C0ED040AB0EE480A02F03AFDE06890ED9C
:103B9000038A00EE288A80ED058AE06890ED040A29
:103BA000D0ED018A20EE000A08EE080A02F021FAA0
:103BB000606980ED000AB4EEE88AF1EE10FA04D2F2
:103BC0006069B1EE400A80ED000AA06890ED000A3D
:103BD000D0ED030A30EE200AF6EE000A20EE200AAD
:103BE00080ED040ADFED050AA06830EEC00A80ED22
:103BF000050ABDEC028B10BD04568D41DB0FC93F99
:103C000010B510480E490160032141600021816018
:103C1000C1604FF4002202614FF44012426101760C
:103C2000012242768176C17601774177FDF7A0FEC9
:103C3000002803D0BDE81040FDF764BB10BD0000B4
:103C400000640040000E002010B510480E490160CD
:103C50000321416000218160C1604FF400220261B4
:103C60004FF4401242610176012242768176C1769C
:103C700001774177FDF77CFE002803D0BDE81040B6
:103C8000FDF740BB10BD000000680040280E00207A
:103C900008B52548016841F480010160016801F41C
:103CA00080010091016841F400110160006800F496
:103CB00000100090002205210C20FEF729FB0C20AB
:103CC000FEF718FB002205210E20FEF721FB0E2037
:103CD000FEF710FB002205211020FEF719FB102033
:103CE000FEF708FB002205213920FEF711FB3920E1
:103CF000FEF700FB002205213A20FEF709FB3A20DF
:103D0000FEF7F8FA002205214520FEF701FB4520C9
:103D1000FEF7F0FA002205214620FEF7F9FABDE889
:103D200008404620FEF7E6BA3038024010B596B09B
:103D30001C2211490FA8FCF7E8FB00210FA804F092
:103D40007EFD0E4C20601C220B491C3108A8FCF79C
:103D5000DCFB002108A804F072FD60601C2206490B
:103D6000383101A8FCF7D1FB002101A804F067FD60
:103D7000A06016B010BD000038B900080000002097
:103D800030B587B0142102A8FCF713FC00242648A4
:103D9000016841F080010160016801F0800101913A
:103DA000016841F004010160016801F00401019122
:103DB000016841F001010160016801F00101019118
:103DC000016841F002010160016801F00201019106
:103DD000016841F008010160006800F008000190EE
:103DE000124D00220E212846FEF7DAF90E2002902D
:103DF000012003900494059402A92846FEF7E8F8F0
:103E00004FF4004002900394049402A90848FEF77E
:103E1000DFF84FF4E05002900394049402A928467E
:103E2000FEF7D6F807B030BD303802400008024037
:103E30000000024010B510480E4901604FF4827135
:103E4000416000218160C160016141614FF40072F5
:103E500082611022C2610162416281620A21C162F3
:103E6000FEF788FD002803D0BDE81040FDF74ABAF0
:103E700010BD000000380040500E002010B50C4866
:103E80000A4901604FF4E121416000218160C16075
:103E900001610C2242618161C161FFF7A3FA002830
:103EA00003D0BDE81040FDF72DBA10BD0010014051
:103EB000A80E002010B50D480B4901600C49416067
:103EC00000218160C1604FF4806202610C22426176
:103ED0008161C161FFF786FA002803D0BDE8104078
:103EE000FDF710BA10BD000000440040F00E0020A5
:103EF000A086010010B50C480A4901604FF4E12189
:103F0000416000218160C16001610C2242618161D8
:103F1000C161FFF767FA002803D0BDE81040FDF744
:103F2000F1B910BD00480040380F002010B50C4812
:103F30000A4901604FF4E121416000218160C160C4
:103F400001610C2242618161C161FFF74BFA0028D7
:103F500003D0BDE81040FDF7D5B910BD00140140F5
:103F6000800F0020FEE700002DE9F0412DED028BCF
:103F7000DFF8BC814046D8F8381088476D480025E6
:103F8000012701686C4E6D4C087A012821D06068C9
:103F9000827852B3022020700868B0F9060000EE63
:103FA000100AF8EEC00A9FED661AD8F8140080EEE9
:103FB000810AD0ED010A30EE200A80ED010A10EEF0
:103FC000101A604AD8F81400914254DDB3EE060A84
:103FD00058E02770A0684580A068058060688570FB
:103FE00060680570606845708CE0257000789FED12
:103FF000568A58B9D6F8B012B0EE480A4E488847EB
:10400000BDEEC00AA16810EE100A48806068DFF8B3
:104010003C81407858B9D6F87C15B0EE480A404645
:104020008847BDEEC00AA16810EE100A0880782209
:10403000D6F8C432B3EE0E0A01213F48984720B1AA
:10404000A06845806068077035617822D6F89035A1
:10405000B3EE0E0A01214046984728B1A0680580BA
:1040600060684770C6F8DC526068017891B34178A7
:1040700081B387703DE010EE101A354A914201DAA3
:10408000B2EE0C0A80ED010A00F06CF898ED000A1F
:10409000304A10EE101A9FED301A3048DFED300A2A
:1040A000914202DDB0EE410A05E010EE101A8142A5
:1040B00001D9B0EE600AA368BDEEC00A10EE101A76
:1040C000598098ED010A10EE101A914203DDB0EE0E
:1040D000410A06E00DE010EE101A814201D9B0EE5F
:1040E000600AA168B1EE400ABDEEC00A10EE100AE7
:1040F0000880A06800231A46B0F90010B0F9020049
:10410000FCF71AFDB6F9040000EE100AA068B8EE3C
:10411000C00A80ED010AB6F9D00200EE100AA068CC
:10412000B8EEC00A80ED020ABDEC028BBDE8F0815A
:10413000BC0000201C0900205C01002010000020B1
:1041400000E880470000B0410000C8C228040020F9
:10415000000060410080BB450080BB450080BBC5BE
:104160000080BBC512499FED131A144891ED040A53
:104170008268F8EEC00A80EE810AF0EE000A20EEB6
:10418000202A9FED0D0AF0EE401A42EE401AC2EDD1
:10419000001AD1EDB71A8168F8EEE11A81EE812A92
:1041A00062EE200A20EE800A81ED030AC16B084707
:1041B0005C01002000009048DB0F4940BC0000205B
:1041C000FEE7000010B52DED088BC06890ED021AD7
:1041D00090ED030AD0ED061AD0ED070A71EEC18A00
:1041E0009FED351A28EE81AA30EEC00A20EE018A32
:1041F00010EE100A07F0ACFA9FED30BB41EC100B4B
:10420000B0EE4B1AF0EE6B1A00F0C6FFB0EE409A1B
:10421000F0EE609A18EE900A07F09AFA41EC100B53
:10422000B0EE4B1AF0EE6B1A00F0B6FFB0EE401A8B
:10423000F0EE601A53EC192B51EC110B06F02AFD2D
:1042400041EC100B01F098FE51EC100B06F0F0FC65
:1042500000EE100A9FED1B1AF0EE410A40EE000A34
:1042600070EEC18A2AEE0A0A08EE080A08EEE80A89
:1042700010EE100A07F06CFA41EC100B01F07CFE16
:10428000B0EE409AF0EE609A18EE100A07F060FA6D
:1042900053EC192B06F0FEFC06F0CAFC00EE100AE7
:1042A0007AEE280A00F0A6FDF0EE000A20EE200AC1
:1042B000BDEC088B10BD000004560D42000000004C
:1042C00000000040BB0F9C43806890ED000AD0EDD9
:1042D000010A90ED031A30EE010A30EE600A7047D1
:1042E00000F1780290ED093AD0ED082A90ED072A06
:1042F000D0ED251A90ED241AD0ED230A90ED220A74
:10430000111F7030AFF30080F0EE005A20EE254A06
:1043100060EEA53A20EE000A64EE014AB0EE645A5F
:1043200003EEA15A25EE036A24EE215AF0EE456A07
:1043300043EEC16A02EEE66AF0EE406A40EEA06A21
:1043400041EE416A41EEE16A02EE266A80ED006AC2
:1043500003EE815A00EEE00A24EE204A25EE026ABE
:1043600021EE255AF0EE445AF0EE400A45EE615A2D
:1043700041EE010A03EE656A41EEE10A02EEA06A2F
:1043800081ED006A05EE214A43EEE14A01EE410A61
:1043900064EE220A01EEA10A42EE640A43EE000A2C
:1043A000C2ED000A7047F0EE005A20EE254A60EE9A
:1043B000A53A20EE000A64EE214AB0EE645A03EEFC
:1043C000815A25EE226A24EE015AF0EE456A43EE48
:1043D000E16A03EE666AF0EE406A40EEA06A41EEE2
:1043E000416A41EEE16A02EE266A80ED006A24EE3F
:1043F000204A61EE255A00EEE00A43EEC14AB0EED3
:10440000446A05EEA16AF0EE400A41EE010A26EE8A
:10441000036A02EE646A41EEE10A02EEA06A81EDEF
:10442000006A03EEA15A05EEE14A01EE410A65EE8B
:10443000020A01EEA10A42EEC40A43EE000AC2EDEE
:10444000000A704710B52DED088BB0EE40BAF0EEC3
:1044500060AA816891ED040A91ED018AD1ED028A8A
:10446000D1ED039A406990ED00AA30EE480AB0EE13
:10447000409A01F0B9FCFAEE0C0A6BEE200A20EE2D
:1044800020BA38EEE90AF0EE409A01F0ADFC2BEECE
:1044900000BA38EE680AB0EE408A01F0A5FCCBEE17
:1044A000008AB0EE490A00F0CDFDF2EE0C0A6AEE89
:1044B000A00A20EE209AB0EE690A01F095FC29EEE0
:1044C000009AB0EE480A01F08FFC20EE0A0AC9EE0D
:1044D000000A38EEE00ABDEC088B10BD00B50346BB
:1044E00003F11802111F93ED063AD3ED052A93ED5F
:1044F000042AD3ED291A93ED281AD3ED270A93ED58
:10450000260A081FFFF74FFF03F1240293ED093A33
:10451000D3ED082A93ED072AD3ED291A93ED281A33
:10452000D3ED270A93ED260A111F081F5DF804EB4F
:10453000FFF739BFF8B504464FF4827560684FF451
:104540008063A8420AD1A068B0F5004F01D098421C
:1045500004D12068066826F0400606606068A8421C
:104560001ED1A06898420DD00B46009200228021F7
:10457000204600F063F808B3606D40F020006065ED
:104580000320F8BD0B46009200220121204600F0D6
:1045900055F898B1606D40F0200060650320F8BDCB
:1045A0000B46009200220121204600F047F828B176
:1045B000606D40F0200060650320F8BD0020F8BD6C
:1045C0007CB504460E46154633460122022120469C
:1045D000009500F033F828B1606D40F02000606570
:1045E00003207CBD134814490068B0FBF1F04FF480
:1045F0007A71484301906068B0F5827F0DD13346EF
:10460000002280212046009500F018F878B1606DF6
:1046100040F02000606503207CBD019838B101980E
:10462000401E019020688068C0430006F5D5002038
:104630007CBD0000340B002000366E012DE9F843EC
:1046400004460F4691461E46089DFDF7B1FD401BEE
:10465000351AFDF7ADFD804626480068C0F3CB3023
:10466000684300903AE0701C38D0FDF7A1FDA0EB44
:104670000800A84203D215B1009858B32BE0206877
:10468000416821F0E00141606068B0F5827F0BD1A4
:10469000A068B0F5004F02D0B0F5806F04D120685B
:1046A000016821F040010160A06AB0F5005F09D106
:1046B0002068016821F4005101602068016841F41C
:1046C00000510160012050346070002020700320F0
:1046D000BDE8F88300250098401E0090206880689F
:1046E00037EA000004D000204845BCD10020EFE7A5
:1046F0000120F9E7340B0020FFF736FC012004F01D
:1047000091F8F9E70A4D0024B320604305EB8000DF
:10471000D0F898128847641CE4B2022CF4D3054800
:10472000006881698847012004F07CF8EBE700000D
:104730005C0100201C090020012004F073F8FBE755
:1047400010B5502080F31188BFF34F8FBFF36F8FE8
:1047500006F094F918B104494FF080500860002029
:1047600080F3118810BD000004ED00E030B593B077
:10477000302107A8FBF71DFF142102A8FBF719FF42
:1047800000251F48016841F080510160006800F079
:10479000805001901B48016841F48041016000682D
:1047A00000F480400190092007904FF48030089079
:1047B00001200C9002240D9480050E9019200F907A
:1047C0004FF4A870109011940420129007A8FDF7E0
:1047D000F1FE08B1FCF796FD0F20029003940495BA
:1047E0004FF4A05005904FF480500690052102A888
:1047F000FDF7C0FD002801D0FCF784FD13B030BDEB
:1048000040380240007000400248016841F47001E5
:104810000160704788ED00E00148FEF722BC00000F
:10482000681200202DE9F04102682A4D2A4E2B4FD4
:10483000DFF8ACC02B4B4FF08048A84209D0404570
:1048400007D0B04205D0B84203D0604501D09842AD
:1048500003D122F070044A682243A8421BD040458D
:1048600019D0B04217D0B84215D0604513D0984245
:1048700011D01D4CA0420ED01C4CA0420BD01C4CA1
:10488000A04208D01B4CA04205D01B4CA04202D035
:104890001A4CA04203D122F44074CA6822434C69E6
:1048A00022F08002224302608A68C2620A68826241
:1048B000A84201D0984201D10969016301214161F7
:1048C0000169C90703D0016921F001010161BDE857
:1048D000F08100000000014000040040000800409A
:1048E000000C004000040140004001400044014031
:1048F0000048014000180040001C0040002000401B
:1049000010B5806B0021C185C184FEF751FC10BD3C
:1049100001680C3151E8002F22F4907241E8002325
:10492000002BF5D10168143151E8002F22F001026B
:1049300041E80023002BF5D1016B012909D1016861
:104940000C3151E8002F22F0100241E80023002B27
:10495000F5D1202180F8421000210163704710B585
:104960000168CA6822F04002CA60202180F8411024
:10497000FEF755FF002010BD08B590F8421022291F
:1049800001D0022008BD82684FF480539A4201D1C1
:10499000016921B1816A9A421DD052B10BE0816A4E
:1049A00002685268C2F308020A80816A891C816227
:1049B00009E002697AB10268526802F07F020A7067
:1049C000816A491C8162C18D491E0904090CC18597
:1049D00005D0002008BD026852680A70F0E701683F
:1049E000CA6822F02002CA600168CA6822F4807294
:1049F000CA6001684A6922F001024A61202180F8F8
:104A0000421000214163026B012A03D0FEF706FF2A
:104A1000002008BD016301680C3151E8002F22F02D
:104A2000100241E80023002BF5D101680A68D20684
:104A300002D50A6849680091818DFEF7B8FBE7E767
:104A40002DE9F041044620680169E26821F44051F3
:104A500011430161A1682069E26901436069104363
:104A600001432068C26849F20C639A430A43C2605A
:104A700020684169A26921F44071114341613349C1
:104A80002068884202D03249884202D1FDF74CFDAD
:104A900001E0FDF739FDE16900231927642532267D
:104AA000B1F5004F28D061688B0F8A00A0FB070189
:104AB000FBF7B4FC0146B0FBF5F07A42504301EB42
:104AC000800006EB0010B0FBF5F000F0F002B1FB47
:104AD000F5F002EB0012B1FBF5F07B42584301EB1D
:104AE000800006EB0010B0FBF5F0216800F00F002D
:104AF00010448860BDE8F08161684A18A0FB070196
:104B00005B41FBF78BFC0146B0FBF5F00201B1FB0A
:104B1000F5F06FF01803584301EB800006EBC0007E
:104B2000B0FBF5F000F0F80002EB4002B1FBF5F04D
:104B3000584301EB800006EBC000B0FBF5F02168A4
:104B400000F0070010448860D4E700000010014026
:104B50000014014090F84110212901D00220704733
:104B60008168B1F5805F01D1016961B1016A4A1CB8
:104B70000262026809785160C18C491E0904090C5F
:104B8000C1840AD013E0016A02680988C1F30801F0
:104B90005160016A891C0162EEE70168CA6822F06F
:104BA0008002CA600068C16841F04001C160002015
:104BB0007047000010B50448FCF7ECFABDE810405F
:104BC0000148FEF7F7BA0000A80E002082B00B4A99
:104BD0001068016841680191C16841F01001C1602D
:104BE0001068416941F0400141611168D06B091DB5
:104BF0006423034A02B0FCF79BBA0000A80E002011
:104C0000F01300207047000010B50448FCF7C2FA0A
:104C1000BDE810400148FEF7CDBA0000F00E0020BC
:104C200008B50C4A1068016841680091C16841F0FC
:104C30001001C1601068416941F0400141611220DA
:104C400000901168044BD06B091DA3F11802FCF70A
:104C5000C9F808BDF00E0020D014002010B5054C96
:104C6000014620462269904720466169BDE8104010
:104C7000084700001407002010B50448FCF78AFA22
:104C8000BDE810400148FEF795BA0000380F00203B
:104C900082B00B4A1068016841680191C16841F017
:104CA0001001C1601068416941F040014161116823
:104CB000D06B091D6423034A02B0FCF739BA000027
:104CC000380F0020541400207047000010B504482D
:104CD000FCF760FABDE810400148FEF76BBA00002F
:104CE000800F0020FEE710B52DED088BB0EE40BA26
:104CF000F0EE60AA816891ED040AD1ED009A91ED81
:104D0000018AD1ED028A406990ED00AA30EE680A6E
:104D1000B0EE409A01F068F8FAEE0C0A6BEE200A49
:104D200020EE20BA39EEC80AF0EE409A01F05CF8A5
:104D30002BEE00BA38EE680AB0EE408A01F054F863
:104D4000CBEE008AB0EE490A00F07CF9F2EE0C0AD4
:104D50006AEEA00A20EE209AB0EE690A01F044F84B
:104D600029EE009AB0EE480A01F03EF820EE0A0A59
:104D7000C9EE000A38EEE00ABDEC088B10BD03B4A2
:104D800001984100009850EAC12018BF04204A0D44
:104D900018BF40F0010040F2FF72B2EB515F08BF54
:104DA00040F00200012808BF052002B07047410012
:104DB000080218BF04200A0E18BF40F001004FF08F
:104DC0007F4232EA010108BF40F00200012808BF1B
:104DD000052070470907090E002804DB00F1E020D8
:104DE00080F80014704700F00F0000F1E02080F818
:104DF000141D704710EE100A10B510EE901A4FF007
:104E0000684202EB40032DED028BB3F1654F3CBFCE
:104E100002EB4102B2F1654F7CD200BFC0F3C75331
:104E2000C1F3C7529A1A1B2A09DD10F0004F14BFB4
:104E30009FED6E0A9FED6E0ABDEC028B10BD12F164
:104E40001A0F1BDA11F0004F09D010F0004F0CBF01
:104E50009FED680A9FED680ABDEC028B10BD80EEE5
:104E6000208A18EE100AFFF7A2FF042808BF01F0FD
:104E7000BDF9B0EE480ABDEC028B10BD4200B2EBAA
:104E8000410F37D910F0004F19BFDFED5C1A9FEDCD
:104E90005C1ADFED5C1A9FED5C1AB0EE602A0A46E0
:104EA000F1EE400A80F00041B0EE420A10460A1AC4
:104EB0005200B2F1807F34D2484010F0004FDFED55
:104EC000532A9FED533A1DBFBEEE002A71EEE21A3F
:104ED00031EE431AB6EE002A04BF71EEA21A31EE8B
:104EE000031AF0EE402A42EE602A40EE020A82EEF9
:104EF000A02A18E011F0004F04BF9FED461AF0EE13
:104F0000411AD4D010F0004F1CBFDFED431A9FEDC3
:104F1000431A00E026E004BFDFED411A9FED411A7D
:104F2000C5E780EE202A22EE020ADFED3F0ADFED20
:104F30003F2ABDEC028B40EE202ADFED3D0A40EE19
:104F4000220ADFED3C2A40EE202ADFED3B0A40EE4C
:104F5000220A22EE000A00EE201A31EE020A30EE9A
:104F6000210A10BD4FF07F42B2EB400F28BFB2EBD9
:104F7000410F05D2BDEC028BBDE8104001F02BB90A
:104F800040EA01035B0008BF41F0FF410BD0B2EBE8
:104F9000400F08BFB2EB410F08D120F0804000EE77
:104FA000100A21F0804100EE901A37E7B2EB400F73
:104FB00012BF5FEA410240F0FF4001F000413FF4C0
:104FC0002DAF4A0092EA40033FF528AF002AACBF5C
:104FD0009FED1A1A9FED1A1A20EE010A60EE810A5F
:104FE00010EE100A10EE901A18E70000DB0FC9BF90
:104FF000DB0FC93FDB0F4940DB0F49C00000C9BFD1
:1050000022AAFDB90000C93F22AAFD390060ED3E89
:10501000C30ACE3700000000000049C022AA7DBAB2
:105020000000494022AA7D3A2DAD65BD8FB8D53D1F
:105030000FB511BE61C84C3EA8AAAABE0000804FA1
:105040000000802F10EE101A08B5444A6846B2EBF3
:10505000410F28D94FF0E640B0EB410F94BF00203C
:105060004FF0FF3000900098002861DB60EE000AEE
:1050700010F0010F45D010F0020FDFED391A9FED4F
:10508000391A00EEE11ADFED381A40EE811A21EEEE
:10509000A01AF0EE400A40EE010A08BFF1EE600AE5
:1050A000B0EE600A08BD314B21F0004293423CD97A
:1050B00011F0004FDFED2E0A20EE201ADFED2D0A51
:1050C00019BF31EE601A71EE200A31EE201A71EE2E
:1050D000600ABDEEE01A11EE100A9FED271A00F0EB
:1050E000030000EEC10A9FED251A009000EEC10AF0
:1050F0009FED231A00EEC10A9FED221A00EEC10AAD
:10510000B1E79FED211A9FED210A10F0020F00EE8A
:10511000810A9FED1F1A00EE801AB7EE000A00EE1A
:10512000810A18BFB1EE400A08BD01F067F89AE79E
:1051300010EE100A4000B0F17F4F3CBFB7EE000AFE
:1051400008BD07D14FF00100FBF7B5FABDE80840F4
:1051500001F044B8BDE8084001F03AB8B61F927EAD
:10516000336D4C39DA82083CA0AA2ABE490E494662
:1051700083F9223F0000004B0000C93F00A0FD3929
:105180000020A2331A61342CB93AB2BACA9F2A3D20
:10519000DDFFFFBE000000002DE9F04D2DED040BFA
:1051A0002DED0E8B96B0DDE92550279CDDF890A003
:1051B00025F0004624F00048BAF1000F14BF012189
:1051C000002101EB4502FC4953184A1093422AD3AF
:1051D000002814BF0123002303EB44030B44F749C9
:1051E0008B4220D358EA00019FEDF59B76D0DFF883
:1051F000D8B35D4503D1BAF1000F05D188E0BAF10B
:10520000000F08BF002100D0012101EB450111F57D
:10521000001F08D8002814BF0121002101EB440120
:1052200011F5001F0BD99DED261B9DED240B16B02B
:10523000BDEC0E8B04B0BDE8F04D00F08DBF002733
:10524000002DBCBFE149884521DAE1498845A8BF66
:1052500002271CDAC3451ADCDE4901EB2851142968
:1052600008DDC1F1340220FA02F101FA02F28242B1
:105270000DD108E058B9C1F1140228FA02F101FA7F
:1052800002F2424503D101F00101C1F1020756EAE1
:105290000A0124D1002C22DA002D18BF022F01D0E0
:1052A000012F0AD00220FBF706FA16B0BDEC0E8BD8
:1052B00004B0BDE8F04D00F037BF0220FBF7FBF96A
:1052C00000F032FF51EC100B05F0A6FC41EC100B86
:1052D00016B0BDEC0E8B04B0BDE8F08D18E09FED6C
:1052E000BEAB9FEDBF8B002871D1B848804522D15D
:1052F00005F1804010F5801008BFBAF1000F07D00B
:10530000B3450ADC002CA8BF9DED260BE0DA0DE0CA
:10531000B0EE490AF0EE690ADAE7002C06DA9DEDF4
:10532000260B51EC100B05F077FC6FE0AE4878448B
:1053300090ED000BCCE7D8454DD1002C48DA2EB1CA
:1053400086423AD1BAF1000F42D126E0BAF1000FFD
:1053500013D00220FBF7AFF900F01AFF8DED020B1E
:105360009DED240B8DED000B10EE900A039961F377
:105370001E0003909DED020BAAE78DED02AB9DEDA3
:10538000240B1AEE901A10EE900A8DED000B61F3CB
:105390001E0003909DED020B9AE78DED028B9DEDB3
:1053A000240B18EE901A10EE900A8DED000B61F3AD
:1053B0001E0003909DED020B8AE709DA9DED240B98
:1053C00051EC190B53EC102B05F020FD1EE020E0F2
:1053D0009DED240B7CE786421BDAB4F1804F0DD0A3
:1053E000A4F10050B0F1FF5013D1002D11DB9DED61
:1053F000240B51EC100B04F075FF07E09DED240B1E
:1054000053EC102B51EC100B00F0C2BC41EC100B14
:105410005EE79DED240B51EC100B01F093FFBAF108
:10542000000FCDE90E0142D19FED710B46B3A6F1FD
:10543000E040B0F17F600CD05E4538D1002D00DA3D
:10544000A7B3022F0CBF01204FF0FF3005F036FE4E
:10545000DCE7002D01DD002C0DDA002D01DD002C34
:105460001FDB002D16DA002C14DB012F08BF9FED87
:10547000620B3FF42DAFB0EE4A0AF0EE6A0A27E75E
:10548000022F18BF002D0CD0012F0AD1002DFFF6DE
:105490001FAF06E0002DB8BF002C08DA012F3FF443
:1054A00017AFB0EE480AF0EE680A11E71BE00120E2
:1054B00000EBE57050EA070115D0791EB0EE498A7D
:1054C000F0EE698A084308BF9FED4D8B4E480025DA
:1054D000804570DD4D494E48884514DDB0420DDBF6
:1054E000002C19DB2FE00120FBF7E5F816B0BDEC2E
:1054F0000E8B04B0BDE8F04D00F03ABEB34502DCBF
:10550000002C09DC1FE0864202DA002C1BDA03E0E3
:105510005E452BDD002C16DD0220FBF7CCF800F0F9
:1055200037FE8DED020B53EC1A2B51EC180B05F0E6
:1055300019FECDE900010399019861F31E00039063
:105540009DED020BC4E60220FBF7B5F800F030FE3B
:1055500010EE901A18EE900A8DED020B8DED008B77
:1055600061F31E0003909DED020BB1E69DED0E0B65
:1055700053EC192B51EC100B06F000F89FED260BA5
:10558000CDE9080153EC102B9DED080B51EC100BED
:1055900005F0E8FD9FED221B53EC112B05F016FFE3
:1055A0009DED081B53EC112B05F0DCFD9FED1E1B40
:1055B00053EC112B3CE08CE0FFFF1F00FFFF0F00BE
:1055C000000000000000F03F0000F03F0000F07F0E
:1055D0000000404301FCFFFF000000000000F07FDE
:1055E00000000000000000007E8F000000000000AE
:1055F0000000000000000080000000000000F0FF3C
:10560000000000000000F0BF0000E0410000F04397
:10561000FFFFEF3F00000000000000000000D03F4F
:10562000555555555555D53F000000000000E03F49
:1056300005F0CCFE9DED080B41EC1A0B53EC102B42
:1056400051EC100B05F08EFD53EC1A2B05F08AFD82
:1056500041EC1A0B9FEDFE0B53EC102B9DED080B4C
:1056600051EC100B05F07EFD41EC1B0B9FEDFA0B8E
:1056700051EC1A0B53EC102B05F074FD41EC1A0B96
:105680009FEDF70B53EC102B9DED080B51EC100B1D
:1056900005F068FD53EC1A2B05F070FF41EC1A0B76
:1056A00051EC1B0B53EC1A2B05F0F4FA0690CDE9E4
:1056B00006519DED060B53EC1B2B51EC100B05F026
:1056C0005DFF53EC1A2B05F081FE41EC100B00F04E
:1056D000A1B90020B6F5801F0EDA9FEDE30B53EC65
:1056E000102B9DED0E0B51EC100B05F03BFDCDE9A1
:1056F0000E016FF034000E4600EB2650A0F2FF378B
:10570000C6F31300DA4940F07F6646F040568842FF
:10571000D8BF002408DDD7498142C8BF012403DC7B
:105720000024A6F580167F1CD348784400EBC40003
:105730000F9690ED00CB9DED0E0B53EC1C2B51EC16
:10574000100B05F01BFF9DED0E0B41EC1B0B53ECFA
:105750001C2B51EC100B05F09DFA41EC100B51EC99
:10576000190B53EC102B05F051FB41EC1D0B51ECC8
:105770001B0B53EC1D2B05F0F5FC41EC1A0BBF483D
:105780008DED10AB7844109590ED000B4FF000506C
:1057900040EA660000EB84408DED080B00F5002028
:1057A00009909DED080B53EC1C2B51EC100B05F0F0
:1057B000E5FE9DED0E1B53EC112B05F007FE41ECB1
:1057C000100B53EC102B9DED100B51EC100B05F052
:1057D000C9FC9DED080B41EC1C0B53EC102B9DED0F
:1057E000100B51EC100B05F0BDFC53EC1B2B05F01E
:1057F000EDFD53EC1C2B05F0C1FE53EC1D2B05F009
:10580000B1FC41EC1C0B53EC1A2B51EC1A0B05F0BC
:10581000A9FC41EC1B0B9A480621B0EE4B0AF0EEB6
:105820006B0A784400F002FCB0EE401AF0EE601A09
:10583000B0EE41DAF0EE61DA53EC1B2B51EC1B0BAE
:1058400005F090FC53EC1D2B05F08CFC9DED100B2E
:1058500041EC1B0B53EC1A2B51EC100B05F01AFA10
:1058600053EC1C2B05F07EFC53EC1B2B05F012FABD
:105870009DED100B41EC1B0B53EC102B51EC100B5E
:1058800005F070FC41EC1D0B9FED7FEB53EC1E2BE4
:1058900005F000FA53EC1B2B05F0FCF90890CDE95C
:1058A00008519DED080B53EC1E2B51EC100B05F02D
:1058B00065FE53EC1D2B05F061FE53EC1B2B05F030
:1058C00085FD9DED080B41EC1D0B53EC102B9DED60
:1058D000100B51EC100B05F045FC41EC1B0B53EC8D
:1058E0001A2B51EC1D0B05F03DFC9DED080B41EC16
:1058F0001A0B53EC102B51EC1C0B05F033FC53EC42
:105900001A2B05F0C7F941EC1A0B51EC1B0B53ECA9
:105910001A2B05F0BFF90C90CDE90C519DED0C0B45
:1059200053EC1B2B51EC100B05F028FE53EC1A2BFB
:1059300005F04CFD41EC1B0B9FED550B53EC102B70
:105940009DED0C0B51EC100B05F00CFC41EC1A0B0F
:105950009FED510B51EC1B0B53EC102B05F002FC8F
:1059600041EC1B0B9FED4E0B53EC102B9DED0C0BE4
:1059700051EC100B05F0F6FB53EC1B2B05F08AF9EC
:1059800041EC100B4848784400EBC40090ED001B3C
:1059900051EC100B53EC112B05F07CF941EC1B0B77
:1059A000384605F08BFBCDE9080153EC1B2B51EC7D
:1059B0001A0B05F06FF941EC100B3C48784400EBF2
:1059C000C40090ED00CB51EC100B53EC1C2B05F0F8
:1059D00061F99DED081B53EC112B05F05BF9069066
:1059E000CDE906519DED080B53EC102B9DED060BF8
:1059F00051EC100B05F0C2FD53EC1C2B05F0BEFD65
:105A000053EC1A2B05F0BAFD53EC1B2B05F0DEFC12
:105A100041EC100B9DED261B53EC102B8DED001B64
:105A200000959DED260B51EC100B05F09BFB9DEDB9
:105A3000000B41EC1A0B53EC102B9DED260B51EC97
:105A4000100B05F09BFD9DED061B53EC112B2FE079
:105A5000000000604715F73FFE822B654715F73FB2
:105A600044DF5DF80BAE543E0000000000004043F0
:105A70008E9803007AB60B00FA8A0000288B00008B
:105A8000328A000000000000000000000000084012
:105A9000000000E009C7EE3FFD033ADC09C7EE3F16
:105AA000F5015B14E02F3EBEBE8800007888000040
:105AB00005F058FB53EC1A2B05F0ECF89DED060BA6
:105AC00041EC1A0B53EC102B9DED000B51EC100B1D
:105AD00005F048FBCDE90C019DED0C0B51EC1A0BC8
