:020000040800F2
:1000000078730020290300085F500008413A000877
:100010005D5000086D090008BD7600080000000072
:10002000000000000000000000000000690200085D
:10003000250D000800000000C5020008D95700087F
:100040004303000843030008430300084303000878
:100050004303000843030008430300084303000868
:100060004303000843030008430300084303000858
:100070004303000843030008430300084303000848
:100080004303000843030008430300084303000838
:1000900099090008430300084303000843030008CC
:1000A0004303000843030008430300084303000818
:1000B000B158000843030008430300084303000845
:1000C00043030008430300084303000843030008F8
:1000D00043030008430300084303000843030008E8
:1000E00043030008430300084303000843030008D8
:1000F00043030008430300084303000843030008C8
:1001000043030008430300084303000843030008B7
:1001100043030008430300084303000843030008A7
:10012000910C000843030008430300089D0C0008DD
:100130004303000843030008430300084303000887
:10014000710A0008430300084303000861500008D7
:100150004303000843030008430300084303000867
:100160004303000843030008430300084303000857
:100170004303000843030008430300080000000095
:10018000430300084303000800F002F800F05CF8A5
:100190000AA090E8000C82448344AAF10107DA45E2
:1001A00001D100F051F8AFF2090EBAE80F0013F0D8
:1001B000010F18BFFB1A43F00103184704AE0000FB
:1001C00024AE00000A444FF0000C10F8013B13F07D
:1001D000070408BF10F8014B1D1108BF10F8015BA0
:1001E000641E05D010F8016B641E01F8016BF9D193
:1001F00013F0080F1EBF10F8014BAD1C0C1B09D1EA
:100200006D1E58BF01F801CBFAD505E014F8016B5B
:1002100001F8016B6D1EF9D59142D6D370470000ED
:100220000023002400250026103A28BF78C1FBD8FF
:10023000520728BF30C148BF0B6070471FB50AF096
:10024000ECF91FBD10B510BD00F096F91146FFF78F
:10025000F5FF08F0D5FB00F0B4F903B4FFF7F2FFA7
:1002600003BC00F0B7F900002C4B19680868B0E82F
:10027000F04F80F30988BFF36F8F4FF0000080F3D9
:10028000118870470000000008480068006880F38B
:1002900008884FF0000080F3148862B661B6BFF39F
:1002A0004F8FBFF36F8F00DF00BF00BF08ED00E08E
:1002B000DFF80C00016841F470010160704700BF75
:1002C00088ED00E0EFF30980BFF36F8F134B1A68DE
:1002D0001EF0100F08BF20ED108A20E9F04F1060CB
:1002E00009B44FF0500080F31188BFF34F8FBFF374
:1002F0006F8F09F07FFC4FF0000080F3118809BC7C
:1003000019680868B0E8F04F1EF0100F08BFB0EC95
:10031000108A80F30988BFF36F8F70472000002098
:10032000EFF30580704700000948804709480047FF
:10033000FEE7FEE7FEE7FEE7FEE7FEE7FEE7FEE795
:10034000FEE7FEE704480549054A064B70470000F2
:10035000A158000889010008786D002078730020FA
:10036000786F0020786F002053EA020C00F069805B
:100370002DE9F04B4FF00006002B1FBFB3FA83F5B9
:1003800003FA05F424FA05F65E4012BF1643B2FAEA
:1003900082F502FA05F4C5F120051EBF22FA05FC1C
:1003A00044EA0C04203556EA044C4FEA144418BFC2
:1003B000641C4FF000084FF00009904271EB030CF1
:1003C00039D3002919BFB1FA81F701FA07F6B0FA5B
:1003D00080F700FA07F6C7F120071EBF20FA07FCD6
:1003E00046EA0C062037B6FBF4FCA7EB0507103FE6
:1003F00007F01F0BCBF120060CFA0BFB2CFA06F6CC
:1004000044BFB3460026202FA4BF5E464FF0000B2A
:100410005BEA060C08BF4FF0010B19EB0B09ABFBB5
:10042000027C48EB0608C01B06FB02CC0BFB03CC8E
:1004300071EB0C01C1E70B46024641464846BDE858
:10044000F08B13B54FF000004FF00001AFF30080C8
:10045000BDE81C40704710B5203AC0F00B80B1E8F1
:100460001850203AA0E81850B1E81850A0E81850E9
:10047000BFF4F5AF5FEA027C24BFB1E81850A0E8F2
:10048000185044BF18C918C0BDE810405FEA827C0C
:1004900024BF51F8043B40F8043B08BF7047D20723
:1004A00028BF31F8023B48BF11F8012B28BF20F8C4
:1004B000023B48BF00F8012B70474FF000020429AF
:1004C000C0F0128010F0030C00F01B80CCF1040C83
:1004D000BCF1020F18BF00F8012BA8BF20F8022BB7
:1004E000A1EB0C0100F00DB85FEAC17C24BF00F85D
:1004F000012B00F8012B48BF00F8012B70474FF08B
:10050000000200B5134694469646203922BFA0E863
:100510000C50A0E80C50B1F12001BFF4F7AF09076F
:1005200028BFA0E80C5048BF0CC05DF804EB890060
:1005300028BF40F8042B08BF704748BF20F8022BA3
:1005400011F0804F18BF00F8012B704770477047BB
:10055000704710B500F008F8006810BD10B50446EB
:1005600000F002F8046010BD00487047146D0020D0
:1005700000487047146D00207546FFF7F9FFAE463E
:1005800005006946534620F00700854618B020B59F
:10059000FFF7D8FEBDE820404FF000064FF00007FF
:1005A0004FF000084FF0000B21F00701AC46ACE81B
:1005B000C009ACE8C009ACE8C009ACE8C0098D4688
:1005C000704710B50446AFF300802046BDE81040E8
:1005D000FFF743BE01491820ABBEFEE7260002002C
:1005E0007047000001221021014801F086BC000084
:1005F0000000024000221021014801F07EBC0000F2
:10060000000002407047000001221146014801F03D
:1006100074BC00000004024000220121014801F0E6
:100620006CBC000000040240704770B504464FF4F3
:100630007A7502E0284600F005F8641EA4B2F9D2EB
:1006400070BD000070B5054607F04CFE4FEA00048F
:1006500007F048FE001BA842FAD370BD10B5FFF7A3
:10066000D1FFFFF7E1FF07F047FD044607F0CCFD9F
:10067000204310BD2DE9FC410746002016460D46DB
:1006800000900190FFF7B6FF922000F0BDF806221F
:100690006946122000F09AF8FFF7A4FF9DF80100C8
:1006A0009DF80010000200B2084300EE100A464C0C
:1006B000B8EEC00AD4ED000A20EE200A85ED000A4B
:1006C0009DF803009DF80210000200B2084300EEFE
:1006D000100AD4ED000AB8EEC00A20EE200A85ED1B
:1006E000010A9DF805009DF80410000200B20843BD
:1006F00000EE100AB8EEC00A20EE200A85ED020ACC
:10070000FFF78AFF08226946002000F05FF8FFF734
:100710007BFF9DF800000F2830D19DF803009DF865
:100720000210000200B2084300EE100AD4ED010AE4
:10073000B8EEC00A20EE200A87ED000A9DF80500F9
:100740009DF80410000200B2084300EE100AD4ED38
:10075000010AB8EEC00A20EE200A87ED010A9DF8D2
:1007600007009DF80610000200B2084300EE100AD0
:10077000B8EEC00A20EE200A87ED020AFFF73AFF22
:10078000A22000F041F802226946222000F01EF863
:10079000FFF728FF9DF800009DF80110C00040EA17
:1007A0005110B0F5806F01DBA0F5006000EE100A7B
:1007B000B4EE001AF8EEC00AB3EE070A00EE810AA2
:1007C00086ED000ABDE8FC814409002070B514469E
:1007D0000D4640F0800000F017F806E0552000F0CC
:1007E00013F8641E05F8010BE4B2002CF6D170BDBD
:1007F00010B50C4640F0800000F006F8552000F0DF
:1008000003F8207010BD000001B582B04FF47A707B
:100810000090012301AA02A9024802F005FD9DF8FB
:1008200004000EBD800D002010B50C46FFF7ECFF54
:100830002046BDE81040FFF7E7BF000070B5064650
:100840002DED088B14460D46B0EE628AB0EE429A4A
:10085000F0EE618AF0EE609A10EE100A09F06CFE7C
:100860009FED3FBB53EC1B2B09F068FD09F0DCFB4F
:100870000AEE100A19EE900A09F05EFE53EC1B2BEB
:1008800009F05CFD09F0D0FB09EE900AB0EE4A0ACF
:1008900007F098FBDFED34AA40EE2A8AB0EE690A31
:1008A00007F090FBB0EE40BAB0EE4A0A07F02CF920
:1008B0002BEE000A00EE6A9AB0EE690A07F024F9FE
:1008C000B0EE40BAB0EE4A0A07F01EF92BEE000A6D
:1008D00000EE6A8AB0EE4A0A07F016F960EE28AA1E
:1008E000B0EE4A0A07F06EFB48EE00AAB0EE690AC5
:1008F000C6ED00AA07F008F960EE09AAB0EE690A91
:1009000007F060FB48EE40AAB0EE4A0AC5ED00AA27
:1009100007F0FAF820EE088AB0EE690A07F0F4F85A
:1009200028EE008AB0EE4A0A07F04CFB60EE288AF7
:10093000B0EE690A07F0E8F808EEC08AB0EE690A7E
:1009400007F040FB60EE098AB0EE4A0A07F0DCF8D7
:1009500008EE808A84ED008ABDEC088B70BD000033
:10096000514CDE0033DF913F0AE81C41FEE70000F6
:1009700000B58BB0684600F082F86946054800F083
:1009800021FD0221034800F0A3FC024801F038F8E1
:100990000BB000BD300D0020014800F014BE000077
:1009A000300D002070B5174C40F2FF150826256069
:1009B0000025A560C4E90356134C060A2670607032
:1009C000080AA070E170100A20716271180AA07103
:1009D000E3710020215C09B9401CC0B208280FD087
:1009E000401CC0B20828F5D3074B06491B1F1A1D2F
:1009F000064800F07FFC0449091F4D608D6070BD02
:100A0000002070BDA84C002020080020300D0020E0
:100A100070B500250A4C01280BD0A0F500700538F0
:100A200006D1D4F8AC3208222046984784F82250E8
:100A300070BD044807F0B8FC84F8FA5270BD00009D
:100A4000F8000020D003002000B58BB0684600F00D
:100A500016F86946054800F0B5FC0221034800F08D
:100A600037FC024800F0CCFF0BB000BD580D002051
:100A7000014800F0A8BD0000580D0020704700217B
:100A8000016041608160C160016101224161C0E992
:100A90000612C0E90821704710B5124A0168914258
:100AA0000DD1114B00211C46A3F11C0200F011FDD9
:100AB0000D4821461C380068FFF7AAFF10BD0B4AFD
:100AC0009142FBD1084B002124331C46A3F11C02A8
:100AD00000F0FFFC0448214608300068FFF7CEFF15
:100AE00010BD000000640040484C00200068004039
:100AF00010B50B4C036888B0A34202D0094CA34246
:100B00000BD100910021029103910821049106ABC1
:100B1000694600F0EFFB002800D0012008B010BDAE
:100B200000640040006800400020704700207047CB
:100B300010B500220449054805F004FA04490348A9
:100B400005F0F3F9002010BD105E002034510020A4
:100B50001056002070B505460146084805F0E5F935
:100B6000064805F0BBF9064C29462046E268904746
:100B7000216920468847002070BD000034510020C4
:100B8000D006002000207047094A10B5D2F8BC22D8
:100B9000D2F814220AB1012010BD0A4601460448C9
:100BA00005F0D0F9BDE81040014805F045BA000055
:100BB000345100204188491C8AB2428081888A428F
:100BC00002D94180012103E00178012901D10021EE
:100BD00001707047064941620649C1620649816257
:100BE0000121017000214180642181807047000053
:100BF0000D0C0008FD0B0008B50B000819B10A68C0
:100C000042614968816100214180704770B51B4D88
:100C100004462DED028B6E429FED198A90ED020A7B
:100C200029463046B0EE481AF1EE000A07F024FCDF
:100C3000A08294ED030A29463046B9EE001AF0EE80
:100C4000480A07F019FCE08294ED040A2946304670
:100C5000B0EE481ADFED0B0A07F00EFC20830A48BD
:100C6000616902460160A169416040F21111BDEC69
:100C7000028B0648BDE87040FFF73ABF0083FFFFD4
:100C800000000000DB0FC940E8060020300D002006
:100C9000014800F0E9BE0000D80D0020014800F036
:100CA000E3BE0000380E002001681823CAB2103AD3
:100CB000B2FBF3F2054B6FF30901032A9B5CC3659A
:100CC00000D9091D816508467047000084A6000808
:100CD00010B5014600208B698A6A4FF0C07453B189
:100CE000B3F5005F15D072B1012A0CD0022A0AD0E8
:100CF000032A09D104E01AB1012A06D0022A03D13D
:100D0000C96AC90100D5012010BDC96AA142FAD043
:100D100010BD002AF7D0012AF2D0022AF3D0032A0C
:100D2000F3D010BD70470000154810B581688847A2
:100D3000144C2046D4F8A01204F528748847D4F83F
:100D4000D812114888471048A26810498038904747
:100D50000E490D481C31A268C43890470B49D4F89D
:100D6000E02238310A489047084909485431D4F8FC
:100D7000E022443890470748016ABDE81040084720
:100D8000D0060020F8000020D003002088000020BA
:100D900028060020F0060020044810B501698847A5
:100DA000FFF7E6FDBDE81040FFF74EBEC409002086
:100DB00072B6FEE710B504464068DFED2F0AD0E9B1
:100DC0000012806891ED000AE16830EEC00A4968BF
:100DD000DFED2A0A81ED000A92ED000AE16830EEAB
:100DE000C00A496881ED010A016891ED0D0AE168C8
:100DF000496881ED020A016891ED0E0AE1684968CF
:100E000081ED030A016891ED090AE168496881ED05
:100E1000040A016891ED0A0AE168496881ED050A52
:100E2000016891ED0E0AE168496881ED070A0068E2
:100E300090ED0D0AE068406880ED060A204600F05B
:100E40008FF9204600F014F920690078002811D1AC
:100E5000207801280ED003202070A1680868401C6B
:100E60000860A168B0F5FA7F04D900200860216904
:100E70000120087010BD000000D04F4590B4B23E74
:100E800070B504462DED028B00789FED628A012833
:100E90004FD0022856D0032851D1606805682046FB
:100EA00000F05EF9E068D5F8C032022201684068BF
:100EB00091ED001AD0ED020A90ED000A05F5E871F7
:100EC00005F5C6709847E06880ED020A60684568DD
:100ED000204600F0CDF8E068D5F8C0320422016861
:100EE000406891ED011AD0ED030A90ED010A05F575
:100EF000E87105F5C6709847E06880ED030AE06880
:100F0000416891ED010AB5EEC00AF1EE10FA01DC7C
:100F1000B1EE400A10EE102A3F4882426BDC91EDA0
:100F2000000AB5EEC00AF1EE10FA49DDF0EE400A13
:100F300048E0E06880ED028AE06880ED038ABDEC5D
:100F4000028B70BD60680568204600F009F9E06812
:100F5000D5F8C03203220168406891ED021AD0ED45
:100F6000060A90ED040A05F5167105F50570984717
:100F7000E06880ED020A60684568204600F078F875
:100F8000E068D5F8C03203220168406891ED031A89
:100F9000D0ED070A90ED050A05F5167105F5057007
:100FA0009847E06880ED030AE0684168006891EDC9
:100FB000010A80ED010AE068006880ED008ABEE762
:100FC000F1EE400A10EE901A81420EDD9FED131AE9
:100FD00070EE410AF5EEC00AF1EE10FA01DC71EE96
:100FE000400A10EE901A814205DC21690120087048
:100FF000A16800200860E0684168006891ED040A7B
:1010000080ED020AE0684168006891ED050A80ED14
:10101000030A94E7000000006F12033C00008045C3
:1010200010B5044640680068D0F8A412884760688C
:101030004068D0F8A41288476068816801F11C00FC
:101040008969BDE810400847026900219FED070A41
:101050001170C268126882ED000AC268126882EDDF
:10106000010A8268116080684160704700000000DA
:1010700010B5C0684FF0FF349FED2C1A41682C4B1F
:1010800091ED010A15E000BFB5EEC00AF1EE10FACD
:1010900001DD012207E0B5EEC00AF1EE10FA01D23F
:1010A000224600E0002200EE902AF8EEE00A00EE70
:1010B000C10AB5EEC00AF1EE10FA02DDF0EE400A08
:1010C00001E0F1EE400A10EE902A9A42DCDC81ED5C
:1010D000010A0268174C184B92ED010A10EE101A23
:1010E000A14202DD9FED150A05E010EE101A9942AB
:1010F00001D99FED130A9FED131A82ED010A0068D2
:10110000DFED110A90ED030AB4EEC10AF1EE10FA18
:1011100001DDB0EE410AB4EEE00AF1EE10FA01D2C0
:10112000B0EE600A80ED030A10BD0000DB0FC9407D
:10113000DB0F494060E8563E206657BE60E8563EE9
:10114000206657BE5A098941441473C110B504463C
:10115000FFF730FE2046BDE81040FFF791BE0000CB
:1011600010B5C068436893ED040ADFED570A57498C
:101170004FF0FF3215E000BFB5EEC00AF1EE10FAF5
:1011800001DD012407E0B5EEC00AF1EE10FA01D24C
:10119000144600E0002401EE104AB8EEC11A01EE38
:1011A000600AB5EEC00AF1EE10FA02DDB0EE401AA8
:1011B00001E0B1EE401A11EE104A8C42DCDC83ED06
:1011C000040A036893ED020A15E000BFB5EEC00AF9
:1011D000F1EE10FA01DD012407E0B5EEC00AF1EEF0
:1011E00010FA01D2144600E0002401EE104AB8EED5
:1011F000C11A01EE600AB5EEC00AF1EE10FA02DD86
:10120000B0EE401A01E0B1EE401A11EE104A8C42E5
:10121000DCDC83ED020A41684FF08B4391ED000A5C
:1012200016E000BFB5EEC00AF1EE10FA01DD0124B0
:1012300007E0B5EEC00AF1EE10FA01D2144600E064
:101240000024640300EE904AF8EEE00A30EE600AF3
:10125000B5EEC00AF1EE10FA02DDF0EE400A01E050
:10126000F1EE400A10EE904A9C42DBDC81ED000A70
:10127000006890ED000A15E0B5EEC00AF1EE10FA34
:1012800001DD012107E0B5EEC00AF1EE10FA01D24E
:10129000114600E00021490300EE901AF8EEE00A42
:1012A00030EE600AB5EEC00AF1EE10FA02DDF0EEA3
:1012B000400A01E0F1EE400A10EE901A9942DBDCA0
:1012C00080ED000A10BD00000000B443000034436C
:1012D00090F82020012A07D0022A05D0416A41F463
:1012E0008021416201207047006842690A434261DF
:1012F00000207047F0B590F820500468A468012DD4
:1013000005D0022D03D0416A41F4802157E014F04A
:10131000406F01D1E5004FD5C4F301640125A5401C
:101320001D608D684FF4C0739DB1CE6835434E6823
:1013300045EAC605066803EB0417F5514FF4C2757C
:10134000076805EB04150E697E51097D012905D05A
:1013500009E00E88CD6845EA4655EBE701684E592D
:1013600046F480764E511179D579567941EA056176
:1013700095792D0445EA062529434FF4C67605687C
:1013800006EB0416A9511178D57841EA05619578E4
:1013900052782D0445EA022211434FF4C4750268C5
:1013A00005EB04155151006803EB0411425842F05B
:1013B000010242500020F0BD416A41F40011416237
:1013C0000120F0BD10B590F82020012A07D0022A94
:1013D00005D0416A41F480214162012010BD3B48A3
:1013E000D0F8002242F00102C0F80022D0F800221A
:1013F00022F47C52C0F80022D0F800224B6A42EA64
:101400000322C0F800220A7D02F01F0301229A4045
:10141000D0F81C329343C0F81C32CB69B3B9D0F872
:101420000C329343C0F80C328C894B6864F31F4331
:101430004C6900EBC404C4F840320C890B6864F3B7
:101440001F434C6900EBC404C4F84432CB69012B40
:1014500016D1D0F80C321343C0F80C320C884B680C
:1014600064F31F434C6900EBC404C4F840320C8998
:10147000CB6864F31F434C6900EBC404C4F84432E6
:101480008B69002BD0F804320ED01343C0F804321D
:101490000B69002BD0F8143208D01343C0F8143273
:1014A000096A012904D008E09343EFE79343F5E785
:1014B000D0F81C121143C0F81C12D0F8001221F011
:1014C0000101C0F80012002010BD000000640040BF
:1014D000704770B590F82040012C05D0022C03D045
:1014E000416A41F4802128E0046809B32469A40713
:1014F00020D04FF4D874056804EB01142D5915F071
:101500000405956005682D591AD0ED0855600568E9
:101510002C5904F00204D4604FF4DA74056804EB2B
:1015200001142E5906F00F06082E0CD308250DE0E5
:10153000E468DCE7416A41F400114162012070BDBA
:101540006D0D1560E3E72D5905F00F051561056870
:101550002D59C5F30725956105682C59240C546154
:101560004FF4DC72046802EB0112A4581C7004688A
:10157000A458240A5C700468A458240C9C70046865
:10158000A258120EDA704FF4DE72046802EB0112F8
:10159000A4581C710468A458240A5C710468A458F7
:1015A000240C9C710468A258120EDA71006829B1EB
:1015B000016941F020010161002070BDC16841F066
:1015C0002001C160F8E72DE9F05F054600680024BE
:1015D0004669D0F804908768D0F80CB0D0F810A015
:1015E000D0F81880F10748D0F90714D001218160A4
:1015F000B80703D5284600F030FA0CE0780702D58A
:101600004FF4006407E0380702D54FF4805402E03D
:10161000284600F021FAF80516D529684FF48070A5
:101620008860B80503D5284600F019FA0CE0780563
:1016300002D544F4005407E0380502D544F4804450
:1016400002E0284600F00AFAF80316D529684FF49C
:1016500080308860B80303D5284600F002FA0CE019
:10166000780302D544F4004407E0380302D544F47B
:10167000803402E0284600F0F3F9300707D55FEA2E
:10168000CB6004D52968102044F40074C86070074A
:101690004FF0080707D55FEA0B7004D52868C760CC
:1016A000284600F099F9B00706D52868C068800779
:1016B00002D0284600F092F9700607D55FEACA60AA
:1016C00004D52968102044F480640861B00607D569
:1016D0005FEA0A7004D528680761284600F08CF993
:1016E000F00606D528680069800702D0284600F079
:1016F00084F9B00308D55FEAC96005D529681020D0
:101700004860284600F07AF9F00307D55FEA0970CF
:1017100004D528684760284600F0A4F9300446D56F
:101720005FEA497040D5F00504D55FEAC87001D082
:1017300044F00104B00504D55FEA887001D544F097
:101740000204700504D55FEA487001D544F0040432
:10175000300529D518F0700F26D008F07000402809
:1017600015D006DC102809D020280AD0302816D140
:101770000AE050280ED0602811D10EE044F0080491
:101780000DE044F010040AE044F0200407E044F0C7
:10179000400404E044F0800401E044F480742868CC
:1017A000816921F070018161296804204860002C62
:1017B00005D0686A204368622846FFF789FEBDE8C5
:1017C000F09F70B5040003D094F8200010B104E03D
:1017D000012070BD204600F081F82068016841F0CA
:1017E0000101016000F08EFB0546052604E000F0D3
:1017F00089FB401B0A2811D820684068C007F6D032
:101800002068016821F00201016000F07BFB0546C1
:101810000BE000F077FB401B0A2806D9606A40F411
:101820000030606284F82060D2E72068406880075A
:10183000EFD4207E0128206801683DD021F080018E
:101840000160607E01282068016838D021F04001E5
:101850000160A07E01282068016833D021F02001BA
:101860000160E07E0128206801682ED041F010015F
:101870000160207F01282068016829D021F008013B
:101880000160607F01282068016824D021F00401F4
:101890000160D4E902010843D4E90412114308436A
:1018A0006168491E08432168C86100206062012008
:1018B00084F82000002070BD41F08001C0E741F0B5
:1018C0004001C5E741F02001CAE721F01001CFE750
:1018D00041F00801D4E741F00401D9E7F0B587B041
:1018E000044614216846FEF70AFE364B3648DFF8F8
:1018F000D0E01968D4F800C0334A0325022609272E
:1019000010300024491CF44522D11960012907D167
:10191000016841F000710160006800F000700590FE
:10192000106840F0080010601068CDE9005600F023
:101930000800CDE9047069462448CDE9024500F06D
:10194000DFF900220521142000F08CFB142032E086
:10195000DFF87CE0F44530D1D0F800C04CF0806C6A
:10196000C0F800C0D0F800C001290CF0806CCDF8A0
:1019700014C0196007D1016841F00071016000686E
:1019800000F000700590106840F0020010601068D0
:1019900002AB00F0020005906020CDE9000683E86C
:1019A000B00069460B4800F0ABF900220521402049
:1019B00000F058FB402000F047FB07B0F0BD0000EE
:1019C000006400400C00002030380240000C02404F
:1019D000006800400004024070470000044A0168AB
:1019E000914202D0034A914201D1FFF755B87047A6
:1019F0000064004000680040704770477047000076
:101A000070B5044690F82000012804D0606A40F4C4
:101A10000020606218E0022084F82000206801683D
:101A200021F00101016000F06DFA05460EE000BFF3
:101A300000F068FA401B0A2808D9606A40F40030B8
:101A40006062052084F82000012070BD2068406895
:101A5000C007EDD1606270BD704770477047704736
:101A600070477047704700002DE9F84304464FF077
:101A70000009CDF8009063484FF41651A56D006839
:101A8000B0FBF1F72E6894F85C10082000FA01F121
:101A900031420FD021680A6852070BD50A6822F03C
:101AA00004020A6094F85C108840A860606D40F001
:101AB0000100606594F85C104FF0010808FA01F02D
:101AC000304208D021684969090604D5A860606DD4
:101AD00040F00200606594F85C10042088403042B9
:101AE00008D021680968890704D5A860606D40F0B6
:101AF0000400606594F85C1010208840304218D0D3
:101B000021680968090714D5A8602068016849039D
:101B100004D50068000308D5A16C07E00168C90579
:101B200003D4016821F008010160216C09B120464D
:101B3000884794F85C1020208840304231D02168DA
:101B40000968C9062DD5A86094F8350005282068D5
:101B5000016806D0490347D5006800031DD4616CB5
:101B60001CE021F0160101602068416921F080012C
:101B70004161206C08B9A06C20B12068016821F097
:101B80000801016094F85C103F208840A86084F848
:101B9000358084F83490216D1FE0E16B09B1204657
:101BA0008847606D00282BD0606DC00714D00520D9
:101BB00084F835002068016821F001010160009877
:101BC000401C0090B84203D820680068C007F6D1D6
:101BD00084F8358084F83490E16C002910D001B08D
:101BE0002046BDE8F04308470168C905D5D401681F
:101BF00021F01001016084F8358084F83490CCE73E
:101C0000BDE8F8831C0000202DE9F041044600F0F7
:101C100079F906465CB1022084F83500002584F885
:101C200034502068016821F0010101600DE00120BD
:101C3000BDE8F08100F066F9801B052805D9202059
:101C40006065032084F83500F2E720680068C0076B
:101C5000F0D12268116820480140D4E901031843FB
:101C6000D4E903363343184363691843A36918431F
:101C7000E3691843236A18430843616A042903D1BE
:101C8000D4E90B1319430843106020684069666A61
:101C900020F0070130460E43012704280CD1A06A2A
:101CA0000643E06A40B12046FFF712F820B1402019
:101CB000606584F83570BAE7206846612046FEF713
:101CC000F3FF94F85C203F2191408160656584F8C2
:101CD00035700020ACE700003F8010F070B504467E
:101CE00000F010F90546601C02D004480078044456
:101CF00000F008F9401BA042FAD370BD100000208C
:101D00002DE9F84FDFF8BCA10022012503264FF092
:101D10000F090AF1040BAAF1040E00BF0B6805FAC3
:101D200002F42340A34270D10F7907F00307012F7B
:101D300001D0022F16D187684FEA420806FA08FC44
:101D400027EA0C07D1F80CC00CFA08FC4CEA070C87
:101D5000C0F808C04768A7430C79C4F30014944046
:101D60003C4344600C79E443A4070AD0C4684FEABA
:101D7000420C06FA0CF7BC438F6807FA0CF72743AE
:101D8000C7600C7904F00304022C12D1D40800EBD4
:101D9000840CDCF820405707FF0E09FA07F824EA04
:101DA0000804D1F8108008FA07F848EA0408CCF8CB
:101DB000208004684FEA420C06FA0CF7BC430F7906
:101DC00007F0030707FA0CF7274307604C6814F481
:101DD000403F70D03C4C276847F480472760246818
:101DE00022F0030704F480440094384C07EB040C01
:101DF000DCF8084897074FEA177809FA08F7BC4358
:101E0000334FB84202D1002724E054E0314FB842AA
:101E100001D101271EE0304FB84201D1022719E05D
:101E20002E4FB84201D1032714E02D4FB84201D103
:101E300004270FE02B4FB84201D105270AE02A4FB3
:101E4000B84201D1062705E0284FB84201D1072743
:101E500000E0082707FA08F72743CCF80878DAF8F3
:101E600000405746D1F804C09C435FEACC2C00D513
:101E70001C433C60DBF800405F46D1F804C09C4343
:101E80005FEA8C2C00D51C433C60DEF800407746AE
:101E9000D1F804C09C435FEA8C3C00D51C433C60F5
:101EA000084F083F3C68D1F804C09C435FEACC3C33
:101EB00000D51C433C60521C102AFFF42FAFBDE834
:101EC000F88F0000083C01404438024000300140D7
:101ED000000002400004024000080240000C0240E2
:101EE000001002400014024000180240001C024092
:101EF0000069084000D0012070470AB18161704735
:101F00000904FBE7014880687047000010000020CA
:101F100009480168094A1278114401604FF0804174
:101F2000496A006800EB4002C2EBC01001EBC00040
:101F300003490860704700001800002010000020CE
:101F4000200700200B4810B5016841F400710160C2
:101F5000016841F480610160016841F480710160B1
:101F6000032000F09FF80F2000F006F800F050F872
:101F7000002010BD003C024030B50546204887B027
:101F80000024016841F001010160006806A900F029
:101F90000100009001A800F04DFE0498B0B100F0DF
:101FA0006FFE400017494FF08042B0FBF1F1164838
:101FB000491E026040F2E732C0E90324C0E901147F
:101FC000846101F073FA040003D015E000F058FEBC
:101FD000E8E70D4801F0ACFA04000DD11C2000F038
:101FE00033F8102D07D2002229461C2000F03AF8C1
:101FF0000648056000E0012407B0204630BD00001F
:102000004038024040420F00E00E00201400002043
:102010000C4882B0016841F480410160006800F41E
:10202000804000900748001F016841F08051016026
:102030000068002200F0805000900F21901E02B036
:1020400000F010B844380240002809DB00F01F02FD
:10205000012191404009800000F1E020C0F800110A
:1020600070470000F0B40E4B1B680C46C3F302230C
:10207000C3F10705042D00D90425191D072901D234
:10208000002300E0DB1E012606FA05F1491E21406F
:1020900099409E40761E16403143F0BC05F062BB6D
:1020A0000CED00E0064900F0070208684FF6FF0358
:1020B000184040EA0220034A1043086070470000BD
:1020C0000CED00E00000FA05704700684162002056
:1020D0007047F0B50368586A39B19C6A4FF482764C
:1020E00000EB144400204D1E0AE040EA02409862D2
:1020F0000FE006EB8007DF59401C04EB1744C0B229
:10210000A842F6D344EA02404FF4807202EB810108
:1021100058500020F0BDD0F8E00404F026BA01EBDE
:10212000C10200EB8202D0F8E004126A04F077B931
:1021300001EBC10200EB8202D0F8E004D2F8602289
:1021400004F0C9B9D0F8E00404F011BA0A0601F0AD
:102150000F0101EBC10100EB810101D5143101E058
:1021600001F51571006805F0F7B870B504460B0667
:1021700001F00F0000EBC00104EB81014FF0010200
:102180004FF0000502D54A75143103E081F855522D
:1021900001F51571087094F89404012808D084F8AA
:1021A0009424206804F0F2FD84F89454002070BD5B
:1021B000022070BD70B5044601F00F0022799042F4
:1021C00001D9012070BD0B0601F00F0101EBC10127
:1021D00004EB81014FF001024FF0000502D54A7572
:1021E000143103E081F8555201F515718D700870B6
:1021F00094F89404012808D084F89424206804F00A
:1022000037FF84F89454002070BD022070BD01F0A7
:102210000F0101EBC10100EB8100D0F868027047AB
:102220002DE9F04104460F0601F00F0000EBC0015C
:1022300004EB81014FF001064FF0000502D54E7509
:10224000143103E081F8555201F51571C2F30A0209
:1022500008708A600B714A7802B14883022B00D162
:102260004D7194F89404012809D084F8946420688E
:1022700004F0DAFC284684F89454BDE8F08102208A
:10228000FBE710B501F00F0404EBC40100EB810182
:10229000C1E998230023C1F8683281F8553281F8EA
:1022A0005442837901F51571012B00D1CA618279FD
:1022B000006804F035FF002010BD70B504460D46DF
:1022C00001F00F002179884201D9012070BD290653
:1022D0004FF000064FF0010206D500EBC00104EB01
:1022E00081014A75143107E005EBC50104EB81015A
:1022F00081F8556201F515718A70087094F894049C
:10230000012807D084F89424206804F0DDFE280713
:1023100002D007E0022070BDA17904F29C4220683F
:1023200004F07AFE84F89464002070BD10B501F0CA
:102330000F0404EBC40100EB8101C1E90823002371
:102340008B6201234B7501F8144F8379012B00D167
:10235000CA618279006804F0E3FE002010BD00002D
:102360002DE9FC5F05680446284605F091F8002831
:102370007DD1206805F0B8F8002878D0D5F8080895
:10238000C0F30D20C4F8D404206805F0ADF8800730
:1023900004D52068416901F002014161206805F01F
:1023A000A3F8C10604F29C40009034D520688169EE
:1023B00021F0100181612F6A07F00F0000EBC000CF
:1023C00004EB8006C7F3434006F51576022802D0D9
:1023D000062811D01AE047F6F070074216D0C7F36E
:1023E0000A1217462846F16805F082F8F06838446A
:1023F000F0607069384408E008222846009905F02A
:1024000077F87069C7F30A11084470612068816920
:1024100041F010018161206805F066F800034FF07B
:10242000080B4FF0000A4FF001097CD50026206808
:1024300005F039F8074674E0F80770D0F1B220686B
:1024400005F04AF88046C00707D005EB4611C1F8F1
:10245000089B3146204602F009FE5FEA087024D549
:1024600005EB4611C1F808BB2068016C00E023E2CF
:1024700000EB46100191D0F8082BFB4B994205D98F
:10248000110403D54FF40041C0F8081B204600F0AA
:10249000F6FAF5490198884207D9A079012804D1B4
:1024A00020680121009A04F0B7FD5FEAC86004D5F6
:1024B00005EB46111020C1F8080B5FEA88701DD5A6
:1024C0006869000605D5D5F8040840F48061C5F8B0
:1024D000041806EBC60004EB800090F8571200F5D4
:1024E0001570012905D180F803A0F1B2204600F053
:1024F000E9F905EB46110220C1F8080B5FEA886094
:1025000004D505EB46102021C0F8081B5FEA88407F
:1025100005D505EB46104FF40051C0F8081B7F08A5
:10252000761C002F88D1206804F0DEFF40036ED5B2
:10253000206804F0B1FF0746002666E0F80762D085
:10254000F1B2206804F0B6FF8046C00723D006F041
:102550000F01D5F8342809FA01F18A43C5F8342867
:1025600005EB4611C1F80899A07901280FD106EBB7
:10257000C60004EB8000D0E907211144016236B99E
:10258000606A20B920680121009A04F045FDF1B28B
:102590002046FFF7C4FD5FEA087003D505EB46113E
:1025A000C1F808B95FEAC86004D505EB46111020F0
:1025B000C1F808095FEA486004D505EB46104021E0
:1025C000C0F808195FEA887016D53146284604F02D
:1025D00034FF06EBC60004EB8000C17D14300129F6
:1025E00005D180F803A0F1B2204600F067F905EBB1
:1025F00046110220C1F808095FEA086003D5314698
:10260000204602F099FD7F08761C002F96D12068A5
:1026100004F06AFF002811DAD5F8040820F001015F
:10262000C5F8041894F8CC0401282BD0204600F0FB
:102630000BFA2068416901F000414161206804F013
:1026400053FF00050BD5D5F80808C00702D0204677
:1026500000F03EFA2068416901F4006141612068A0
:1026600004F042FFC00467D5D5F8040820F001004B
:10267000C5F804081021206804F0DFFE00214FF6A1
:102680007F3220E084F8CCA400212046FFF71CFD17
:10269000CFE700BF05EB4110C0F80829D0F800399A
:1026A00023F40013C0F80039C0F8082BD0F8003B21
:1026B00023F40013C0F8003BD0F8003B43F0006364
:1026C000C0F8003B491C20798842E3D8D5F81C08A3
:1026D00040F00111C5F81C18E07B002828460DD0F9
:1026E000D0F8840840F00B01C5F88418D5F84408E8
:1026F00040F00B012846C5F844180DE0D0F8140846
:1027000042F22B010843C5F81408D5F8100840F030
:102710000B012846C5F81018D0F8000820F4FE6117
:10272000C5F80018A1792068009A04F075FC2068AB
:10273000416901F480514161206804F0D5FE8004B4
:1027400015D5206804F0B0FA206804F094FEE0711A
:1027500000F090FA0146E279206804F027FF204655
:1027600000F05CF92068416901F400514161206882
:1027700004F0BAFE000707D5204600F069F920688A
:10278000416901F008014161206804F0ADFE0006D6
:1027900016D5A86920F08001A96101260DE000BFCF
:1027A00006EBC60004EB800090F85702012803D125
:1027B000F1B22046FFF7CAFC761C2079B042EFD870
:1027C000206804F091FEC0021FD501264F4614E098
:1027D00005EB4610D0F8000906EBC60104EB8101B9
:1027E0000A7E012A08D1002806DACF75F0B240F03F
:1027F00080012046FFF7AAFC761C2079B042E7D87A
:102800002068416901F480114161206804F06CFE88
:10281000800234D501204A4629E000BF05EB401173
:10282000D1F8001B00EBC00304EB830393F858625C
:10283000012E1BD1002919DA94F8D464C1F30041A8
:1028400006F001068E4211D183F85722A96941F0A2
:102850008003AB616969090608D4D5F8040840F41F
:102860000070C5F8040805E00A30544F401C217977
:102870008142D3D82068416901F400114161206888
:1028800004F032FE400007D52046FFF744FC2068E4
:10289000416901F080414161206804F025FE400754
:1028A0000AD520684568680702D52046FFF74AFC2C
:1028B0002068416829434160BDE8FC9FD0F8E004EE
:1028C00003F0A7BED0F8E00403F0B7BEF8B50400EB
:1028D00005D094F895042668002510B106E0012083
:1028E000F8BD84F89454204600F056F8032084F88C
:1028F0009504B6F1A04F00D1A571206804F086FBC5
:10290000207C8DF8000094E80F0004F0DBF902262B
:10291000B8BB0021206804F00AFE90BB002001270C
:102920000DE000BF00EBC00104EB81014F7508759D
:10293000C8850D76CD610D62401CC0B24D62217913
:102940008142EFD8002011E000EBC00104EB8101CF
:1029500081F8555281F8540281F85852C1F85C52FE
:10296000C1F86052401CC0B2C1F864522179814262
:10297000EAD8207C8DF8000094E80F0004F088FA73
:1029800010B184F89564AAE7657484F8957420689A
:1029900004F070FA0020F8BD10B586B0044614218A
:1029A0006846FDF7ACFD2068B0F1A04F2FD1194863
:1029B0000021026842F001020260006800F001009C
:1029C00005904FF4C05000900220CDE90101032092
:1029D00003900A20049069460F48FFF791F90D48CB
:1029E000001D016841F0800101600A48143001684F
:1029F00041F4804101600068002200F480400590AD
:102A000005214320FFF72EFB4320FFF71DFB06B0F7
:102A100010BD0000303802400000024070B504468E
:102A2000C079012570B1022801D0FEF7C1F929460D
:102A3000D4F8E00403F070FED4F8E004BDE8704080
:102A400003F024BE0025F2E7D0F8E00403F04DBE09
:102A5000D0F8E00403F053BE10B5044690F8940497
:102A600001280AD0012084F894046174206804F0DD
:102A70008CFD002084F8940410BD022010BDD0F815
:102A8000E02400F29C41104603F052BE10B504460B
:102A9000006894F89414012909D0012184F8941451
:102AA000C168490609D5617B012902D005E00220F1
:102AB00010BD816B41F480318163206804F09BFC80
:102AC000206804F0C9F9002084F8940410BD0000C7
:102AD00010B50446D0F8E00403F06CFE2068D0F88E
:102AE000001E41F00101C0F8001EE07A002804D069
:102AF0000248016841F00601016010BD10ED00E0E0
:102B00002DE9F0470E46050065D0DFF81481D8F8AE
:102B10000000F7B200F00700B04207D288F800705A
:102B2000D8F8000000F00700B04254D128683D4CAE
:102B3000810712D5400703D5206840F4E05020609B
:102B40002878000703D5206840F4604020602068A2
:102B5000A96820F0F000084320602878C0072DD035
:102B6000304968680839012812D0022813D0032898
:102B700011D00968890700292DDA216821F00301A5
:102B800001432160FFF7BEF9814641F2883A0EE029
:102B900009688903EFE709688901ECE7FFF7B2F9F3
:102BA000A0EB0901514502D90320BDE8F087206858
:102BB000696800F00C00B0EB810FEFD1D8F800107D
:102BC000404601F00701B14207D90770006800F0E4
:102BD0000700B04201D00120E7E72878400705D57B
:102BE0002068E96820F4E050084320602878000756
:102BF00006D52068296920F4604040EAC1002060C1
:102C000000F04EF82168084AC1F30311515CC84036
:102C10000649086006480068FFF7AEF90020C4E7DF
:102C2000003C0240083802408CA600081C0000202E
:102C3000140000200F2202600C4A136803F0030303
:102C40004360136803F0F0038360136803F4E053F8
:102C5000C36012684FF4E05303EAD20202610448F1
:102C6000006800F007000860704700000838024064
:102C7000003C024001480068704700001C00002032
:102C80000448054900680968044AC1F38221515C7F
:102C9000C84070471C000020083802409CA600086D
:102CA000154810B5006810F00C02144813D01449F0
:102CB000042A0FD0082A0ED10F4C241F2268236843
:102CC00002F03F025B0207D52068C0F38810A0FB2A
:102CD000010106E0084610BD2168C1F38811A1FB7F
:102CE00000010023FDF740FB2168C1F30141491CAD
:102CF0004900B0FBF1F010BD083802400024F40098
:102D0000001BB7002DE9F84F04006ED02078DFF8E3
:102D10004C93C007A9F104054AD009F104000168E9
:102D2000C1F38101012908D00068C0F381000228A5
:102D30000AD1D9F80000400206D52868800337D5AB
:102D400060680028E1D033E06068B0F5803F10D0C3
:102D5000B0F5A02F286810D020F4803028602868B3
:102D600020F4802028606068A8B1FFF7CBF8064601
:102D70000DE0286840F48030F4E740F480202860BB
:102D8000F7E700BFFFF7BEF8801B642873D82868F8
:102D90008003F7D50CE0FFF7B5F8064605E000BF65
:102DA000FFF7B0F8801B6428F0D828688003F7D4B8
:102DB0002078DFF8AC8280074FF0000A3ED5A748A4
:102DC000001D016811F00C0F08D00068C0F38100ED
:102DD00002280BD1D9F80000400207D428688007E8
:102DE00016D5E068012800D112E033E1E068B8B1FF
:102DF0000120C8F80000FFF785F8064605E000BF8F
:102E0000FFF780F8801B0228C0D828688007F7D514
:102E10002868216920F0F80040EAC10028600DE030
:102E2000C8F800A0FFF76EF8064604E0FFF76AF85E
:102E3000801B02281FD828688007F7D42078000755
:102E400022D5864F87486169703771B101210160D1
:102E5000FFF758F8064604E0FFF754F8801B0228F5
:102E600009D838688007F7D50EE0C0F800A0FFF752
:102E700049F8064605E082E0FFF744F8801B022887
:102E80007DD838688007F7D42078400768D5DFF808
:102E9000CCB100270BF13C0BDBF80000C0000BD4D9
:102EA000DBF8001041F08051CBF80010DBF8000097
:102EB000012700F0805000906B4E3068C00510D4A0
:102EC000306840F480703060FFF71CF8009005E037
:102ED000FFF718F80099401A022850D83068C0054A
:102EE000F6D55E4EA0686C3601280FD005283068F4
:102EF00010D020F001003060306820F00400306015
:102F0000A068B8B1FEF7FEFF00900FE0306840F017
:102F10000100F4E740F004003060F7E7FEF7F2FF4D
:102F20000099411A41F28830814266D830688007A2
:102F3000F4D50EE0FEF7E6FF009007E0FEF7E2FFB3
:102F40000099411A41F28830814256D83068800792
:102F5000F4D42FB1DBF8001021F08051CBF8001031
:102F6000A069C8B33D49091D0968C1F3810102295F
:102F70004AD00228504607D0C8F8600000E03CE084
:102F8000FEF7C0FF04463BE04746C8F86000FEF786
:102F9000B9FF064605E000BFFEF7B4FF801B02281C
:102FA0002BD828688001F7D4D4E907010843A16A27
:102FB0002E4A490802EB0141626A41EA8211084344
:102FC00094F82C1040EA0161C9F80010012038661D
:102FD000FEF798FF044606E03EE000BFFEF792FFD2
:102FE000001B022809D828688001F7D534E000BF0B
:102FF000FEF788FF001B022802D90320BDE8F88FE6
:1030000028688001F4D427E00128F7D0D9F800001F
:10301000E26900F4800191421CD1226A00F03F0174
:10302000914217D147F6C071626A0140B1EB821F2D
:1030300010D1A26A4FF0FF3300F4403103EB52028B
:10304000B1EB024F06D194F82C1000F07060B0EB99
:10305000016F01D00120D1E70020CFE70438024002
:1030600000004742800E4742007000400000FFFF12
:1030700070B5040009D0606A002540B12561656122
:10308000A56294F8510040B10CE0012070BD606869
:10309000B0F5827FF4D0E561F2E784F85050204625
:1030A00000F044F8022084F851002068016821F003
:1030B00040010160A088218900F4827001F404417C
:1030C0000843A18901F400610843217C01F0020159
:1030D0000843217D01F001010843218B01F40071B7
:1030E0000843217F01F03801084394F8201001F0D3
:1030F00080010843218D01F40051084321680860D4
:10310000A069042101EA104094F8241001F0100194
:103110000843216848602068C16921F40061C161E9
:103120006565012084F85100002070BD2DE9F04153
:1031300086B0064614216846FDF7E1F93449306847
:10314000884262D133480024016841F48051016013
:10315000006800F4805005902E481438016841F052
:1031600002010160016801F002010591016841F06E
:10317000010101600068022500F00100059018209F
:10318000CDE9000502AA03274FF0050882E8900167
:1031900069462148FEF7B4FD8020CDE9000502AA6A
:1031A000694682E890011D48FEF7AAFD1D4D1C48A6
:1031B0007F062860C5E901744FF48068C5E90348BB
:1031C0006C61AC61EC612C6228466C62FEF71CFD00
:1031D00008B1FDF7EDFDF564AE63124D10486035A2
:1031E0004830E5E802074020A5E811010D4845F800
:1031F00014496030AC61EC612C626C62FEF704FD36
:1032000008B1FDF7D5FDB564AE6306B0BDE8F08149
:1032100000300140443802400004024000000240F7
:1032200010640240D80D00202DE9FF4F81B01D46EB
:10323000934604464FF001090E9EFEF763FE0746D3
:1032400094F851006168012806D0B1F5827F3CD125
:10325000A168C9BB042838D10298002871D0BBF1FD
:10326000000FFBD0002DF9D094F8500001282CD08D
:103270004FF0010A84F850A094F85100042802D0BD
:10328000052084F851004FF00008C4F85480C4F8B9
:1032900038B0E587A58702992163E586A586C4F83D
:1032A0004080C4F8448020680168490603D401685E
:1032B00041F040010160E068B0F5006F606808D03F
:1032C000F0B3012D49D081E0FFE7022005B0BDE851
:1032D000F08F08B1012D39D1206B21680088C860BA
:1032E000206B801C2063E08E401EE0862EE020686C
:1032F000816889070FD5E18E69B1B9F1010F0AD153
:10330000216B0988C160206B801C2063E08E401E09
:10331000E0864FF0000920688168C9070CD0E18F72
:1033200051B1C068A16B0880A06B801CA063E08FC6
:10333000401EE0874FF00109FEF7E4FDC01B01E0ED
:103340000BE067E0B04201D3701C50D1E08E002842
:10335000CDD1E08F0028CAD13EE0206B21680078F3
:103360000873206B401C2063E08E401EE0862DE039
:103370002068816889070FD5E18E69B1B9F1010F25
:103380000AD1216B09780173206B401C2063E08E09
:10339000401EE0864FF0000920688168C9070CD004
:1033A000E18F51B1C068A16B0870A06B401CA06395
:1033B000E08F401EE0874FF00109FEF7A3FDC01B20
:1033C000B04202D3701C01D011E086B1E08E00281B
:1033D000CED1E08F0028CBD13A463146204602F0CC
:1033E000E9F850B12020606584F8508012E084F83C
:1033F00051A084F85080032068E7A06818B92068BD
:10340000C1688068009084F851A084F85080606D95
:103410000028F1D0012059E77047704770B590F847
:103420003C20012A32D0012480F83C40022280F85E
:103430003D2003685A689D6822F070060A6832438E
:103440005A60134B02689A4214D0B2F1804F11D0E7
:10345000104B9A420ED0104B9A420BD00F4B9A420F
:1034600008D00F4B9A4205D00E4B9A4202D00E4B19
:103470009A4204D1496825F080031943916080F88D
:103480003D40002180F83C10084670BD022070BD10
:10349000000001400004004000080040000C004013
:1034A00000040140004001400018004010B5040035
:1034B00003D094F83D0010B107E0012010BD0020BA
:1034C00084F83C00204600F01FF8022084F83D00FC
:1034D000211D206802F0F2F9012084F8460084F8EA
:1034E0003E0084F83F0084F8400084F8410084F8EE
:1034F000420084F8430084F8440084F8450084F8CE
:103500003D00002010BD000008B500680649884253
:1035100008D10648016841F004010160006800F02C
:103520000400009008BD0000000800404038024040
:1035300090F83D10012901D001207047022180F848
:103540003D100168CA6842F00102CA600068114972
:10355000884214D0B0F1804F11D00F4988420ED06C
:103560000E4988420BD00E49884208D00D49884246
:1035700005D00D49884202D00C49884204D18168A7
:1035800001F00701062903D0016841F00101016043
:103590000020704700000140000400400008004087
:1035A000000C0040000401400040014000180040B1
:1035B00070B5044690F83C000025012817D001267C
:1035C00084F83C60022084F83D002068826822F084
:1035D000770222F47F4282600868502838D00DDCE0
:1035E00020284FD005DC90B3102811D14AE00220EA
:1035F00070BD302846D040280AD13BE060282FD04B
:1036000070280DD0B0F5805F03D0B0F5005F12D008
:10361000012584F83D60002084F83C00284670BDF8
:10362000CB68D1E90121206802F0B0F920688168F7
:1036300041F0770109E0CB68D1E90121206802F06F
:10364000A5F92068816841F480418160E1E719E0D3
:10365000CA684968206802F06DFA5021206806E0C7
:10366000CA684968206802F076FA6021206802F092
:1036700097F9CEE7CA684968206802F05BFA4021F2
:103680002068F4E7226801461046F0E770472DE90C
:10369000F04104460068C66805694FF00007A907B5
:1036A00013D5B10711D5F91E0161012020772068DB
:1036B00080698007204602D0FFF7E8FF04E000F0B1
:1036C000A9F8204600F03BF92777680716D5700760
:1036D00014D521686FF0040008610220207720686B
:1036E000806910F4407F204602D0FFF7CFFF04E04E
:1036F00000F090F8204600F022F92777280715D52A
:10370000300713D521686FF0080008610420207786
:103710002068C0698007204602D0FFF7B7FF04E0A9
:1037200000F078F8204600F00AF92777E80616D569
:10373000F00614D521686FF010000861082020778A
:103740002068C06910F4407F204602D0FFF79EFF3A
:1037500004E000F05FF8204600F0F1F82777E80772
:1037600008D0F00706D021686FF0010008612046FC
:1037700000F0E6F8280608D5300606D521686FF077
:10378000800008612046FFF747FE680608D57006EE
:1037900006D521686FF040000861204600F0D7F898
:1037A000A8060AD5B00608D521686FF02000086188
:1037B0002046BDE8F041FFF730BEBDE8F0810000D3
:1037C00010B586B0044614216846FCF798FE0E49F1
:1037D0002068884215D10D480021026842F0080295
:1037E0000260006800F0080005904FF480400090EF
:1037F0000220CDE901010390049069460448FEF7D8
:103800007FFA06B010BD00000008004030380240CA
:10381000000C0240704770B5044690F83C0000264A
:103820000D4601280FD0012084F83C006AB1042A1B
:103830001DD0082A2FD00C2A3FD00126002084F862
:103840003C00304670BD022070BD206802F0B0F828
:103850002068816941F0080181612068816921F057
:1038600004018161206881692A69114311E020689F
:1038700002F0CEF82068816941F40061816120681E
:10388000816921F480618161206881692A6941EA46
:1038900002218161D2E7206802F0F0F82068C16956
:1038A00041F00801C1612068C16921F00401C161D2
:1038B0002068C1692A69114311E0206802F012F9F9
:1038C0002068C16941F40061C1612068C16921F4C7
:1038D0008061C1612068C1692A6941EA0221C16130
:1038E000ACE710B5040003D094F83D0010B107E038
:1038F000012010BD002084F83C00204600F01EF896
:10390000022084F83D00211D206801F0D7FF01202E
:1039100084F8460084F83E0084F83F0084F84000B4
:1039200084F8410084F8420084F8430084F844009D
:1039300084F8450084F83D00002010BD70477047B2
:103940000068B0F1804F01D1FEF7E2BA70477047CE
:1039500010B5044600202074A07B61688200D4F872
:10396000F400FCF778FDA07B81006068FCF7C7FDE0
:10397000A07B810011FB00F1D4F81801FCF7BFFD1A
:10398000207BA17B800010FB01F1D4F80C01FCF737
:10399000B6FD00202CE000BFD4F8F41001EB80024B
:1039A00092ED000AB5EEC00AF1EE10FA1ED0227CAC
:1039B00001EB820181ED000A227C616A8854A169D1
:1039C000227B01EB8001237C91ED000A6169095C97
:1039D00012FB03116FF0030202EB8101D4F80C21FA
:1039E000114481ED000A217C491C2174401CC0B2A5
:1039F000A17B8142D0D8002010E0636AE2691B5CA1
:103A000002EB830292ED000A10FB0101D4F81821A9
:103A1000401C02EB8101C0B281ED000A217C814291
:103A2000EBD8C8B224F8780F14F86C0C60802081B1
:103A30006181218361832084618424F8301C10BD5E
:103A4000FEE7000070B50446474D54F8EC0F012224
:103A5000014690ED000A85ED040A04F077FA54F867
:103A6000140BF6EE000A90ED002A85ED042A90ED85
:103A7000011A85ED051AD0ED021AC5ED061AD0ED32
:103A8000032A3A48C5ED072A216890ED6F0A20EE17
:103A9000010A20EE200A81ED040A90ED6F0A2168E8
:103AA00020EE210A20EE200A81ED050A90ED6F0A32
:103AB000216820EE023ABEEE000A23EE003A81EDC4
:103AC0000A3A90ED6F3A216823EE223A23EE203A2B
:103AD00081ED0B3A90ED6F3A216863EE222A62EE97
:103AE000802AC1ED102AD0ED6F2A216822EE822AA9
:103AF00022EE002A81ED112A90ED6F2A216862EEF4
:103B0000211A61EEA00AC1ED160AD0ED6F0A54F831
:103B1000081960EE810A20EE800A81ED170A2168FB
:103B2000D0ED740A91ED1C0A80EE201A81ED1C1A6A
:103B30002168D0ED740A91ED230A80EE201A9FEDE2
:103B40000D0A81ED231A54F8F8090949026F8A42D7
:103B500001DD80ED1C0AD4F8F800D0F88C208A42F0
:103B600001DD80ED230A70BD5C080020C04C002000
:103B700000401C4600401C4670B5284C06460125F6
:103B8000257004F5D87080EC030A00209FED240A0C
:103B900084ED730A84F83801C4E95000C4E9520086
:103BA00011EE900AB0F17E5F01DDF7EE001AC4ED70
:103BB000741A032300220621201D00F031FD194B49
:103BC00001221146A3F1080003F0F5FF5FF00000A9
:103BD00006EB800191ED000AD4F8EC1001EB8001B6
:103BE000401C81ED000A0428F2DB0F4844F8D00F96
:103BF0000E4860600E48A0600E48E06004F8A25CC9
:103C000004F8A15C90220C49606BFCF724FCE06A8C
:103C1000BDE8704090220949FCF71DBCC04C002053
:103C200077CC2B32884E0020413C0008453A0008F2
:103C3000753C0008F5400008A4A60008B408002060
:103C400010B50446902254F8F81F0848FCF703FC0E
:103C500048220748616AFCF7FEFB05486169482273
:103C6000BDE810404830FCF7F6BB0000B408002067
:103C7000A04E002070B50446B0EE000A54F8EC0FD8
:103C80002A4DD0ED000A60EE800AC5ED080AD0ED9D
:103C9000010A60EE800AC5ED090AD0ED020A60EE65
:103CA000800AC5ED0A0AD0ED030A20EE800A85EDF0
:103CB0000B0A14F8DE0C14F8E01C800010FB01F174
:103CC000206AFCF71CFC95ED0A2A206AF1EE421AE4
:103CD000C0ED001A206A95ED0B0A80ED010AD5EDC2
:103CE000080A206AB1EE601A80ED021A206A95ED8A
:103CF000091A80ED031A206A80ED061A206AC0EDC9
:103D0000070A206A80ED080A206A80ED092A206AE5
:103D1000C0ED0C0A206AF1EE410AC0ED0D0A206ADE
:103D2000C0ED0E1A206A80ED0F0A70BD5C080020FD
:103D300070B5E54CE54D90222DED048BB0EE619A07
:103D4000B0EE628A84ED6F3AD4ED581AF0EE428AF2
:103D5000DF4970EE611AC4ED5B1A94ED590A70EEFA
:103D6000C00AC4ED5C0A94ED5A0A31EE401AB6EE70
:103D7000000A61EE801A60EE800A21EE000A84EDEE
:103D80005D1A61EE831A60EE830A20EE030AC5ED28
:103D9000001AC5ED010A85ED020AD4F8040104F504
:103DA0008274FCF758FBD5ED000A2068F1EE602A1A
:103DB000C0ED012A95ED010A2068B1EE402A80EDA0
:103DC000022A95ED021A2068F1EE411AC0ED031A9D
:103DD0002068C0ED060A206880ED081A206880ED92
:103DE000092A206880ED0C0A2068C0ED0D1A2068B1
:103DF000C0ED0F0A206880ED121A206880ED130ACA
:103E000029EE090A206808EEA80AC0ED142A84EDFC
:103E10001D9AC4ED1E8AAF4884ED1F8A08EE080A79
:103E2000DFEDAD8AA4F58274B5EEC00AF1EE10FAAA
:103E300004DBF1EEC00AC0ED000A01E0C0ED008A2B
:103E4000D4ED660AB7EE008A5FF0000088EE200A23
:103E500085ED030A04EB8001D1ED5E0AA16801EB58
:103E6000800160EE800A401CC0B2C1ED000A032848
:103E7000F0D394ED5B0AD4ED5C0A964820EE000A7C
:103E8000001F00EEA00AD4ED5D0A00EEA00AB5EE18
:103E9000C00AF1EE10FA04DBF1EEC00AC0ED000A30
:103EA00001E0C0ED008AD4F89401B0F17C5F09DA3A
:103EB0008A49D4F89801884204DD8949884201DAA8
:103EC000012000E0002084F8390194ED6C0AD4ED63
:103ED0006F0AD4F8180120EE200A80ED000A94ED54
:103EE0006C0AD4ED6F0AD4F8180120EE200A80ED98
:103EF000070A94ED6C0AD4ED6F0AD4F8180120EE8D
:103F0000200A80ED0E0A94ED6C0AD4ED6F0AD4F805
:103F1000180120EE200A80ED150A94ED6D0AD4ED0B
:103F20006F0AD4F8180120EE200A80ED1C0A94EDE7
:103F30006D0AD4ED6F0AD4F8180120EE200A80ED46
:103F4000230AD4F81C0194ED6E0A80ED000AD4F81F
:103F50001C0194ED6E0A80ED040AD4F81C0194ED66
:103F60006E0A80ED080A201D00F0DEFD6068B0EEEC
:103F7000009A90ED001A84ED541A90ED010A61EE5A
:103F8000012A84ED550AD0ED021AC4ED561A90EDBF
:103F9000032A40EE002A84ED572A21EE021AD0EDC2
:103FA000040AC4ED580AD0ED050A00EE211AC4ED4A
:103FB000590AF0EE480A474852EE890AC4ED5A8A77
:103FC00021EE090A103003F091FC94ED541A94ED9F
:103FD000570AF0EE480A61EE011A3E48083040EEFA
:103FE000001A51EE890AD4ED551A21EE211AD4EDAA
:103FF000561A01EE801A21EE090A03F077FC94EDBF
:10400000550AD4ED570A94ED561A20EE200AD4ED45
:10401000540A00EEC10AF8EE000A20EE200A00EE73
:10402000408AB5EEC08AF1EE10FA02DBF1EEC80A62
:1040300001E0F0EE680A27480C3003F057FC94EDDD
:104040006A0ADFED280A284920EE200A84ED6A0A70
:1040500094ED681A21EE201A84ED681A94ED691A1D
:1040600061EE200AC4ED690AD4ED760A70EE600AAA
:1040700010EE900A884203DDB4F8D401401E07E038
:1040800010EE900A1949884204D9B4F8D401401CB2
:10409000A4F8D401B4F9D401DFED151A00EE900AAA
:1040A000B8EEE01AF0EE400A41EE210AC4ED6B0AC8
:1040B00084ED760AF4E95201401C41F10001C4E9A3
:1040C0000001BDEC048B70BDC04C00205C080020DA
:1040D000A4A60008584E002000000000CDCC1441DA
:1040E000CDCC2441E12E654200003443000034C3AE
:1040F0000000B4432DE9FC5F00F1800104467830F4
:104100000546009103F008FF84F8C800B4F8780071
:10411000A4F8A800B4F85A00A4F8AA0004F1A80270
:1041200004F1580191462846019103F0A5FE84F858
:10413000C800B4F8A800A4F8B000B4F88200A4F84D
:10414000B20004F1B00290464846009903F094FE94
:1041500084F8C800B4F89000A4F8A000B4F8920065
:10416000A4F8A20004F1A002154604F19001404613
:1041700003F00CFD84F8C80041462846B03403F033
:104180001FFD2076E16BB9480125D1ED001AB0EE94
:10419000002AC0ED0C1AD1ED010A0026C0ED0D0A6F
:1041A00091ED020AB24F80ED0E0A91ED031A80EDF7
:1041B0000F1A60EE812A34F8380C2081658141EEB7
:1041C000C02AE06F62EE822AC0ED002A61EEA02ACA
:1041D00061EEA11AE06F40EE012A40EEE01A22EEF5
:1041E000822A40EE401A80ED012AE06FB4F1B0045B
:1041F00041EE011AC0ED021AD4F82C0100EB860042
:1042000090ED000AB0EEC00A03F0BCFA07EB86009E
:10421000761CF6B280ED610A032EEDD3B4F84800A7
:10422000A4F8C00004F1C00204F1B801A4F8C2501F
:1042300093468A4604F1480003F058FE84F8C8000B
:10424000B4F8C000A4F8A80024F8AA5F4A4659466A
:10425000404603F011FEA077E581E08A20825146B6
:10426000584603F059FEA077824A4946504603F06B
:1042700003FEA07797ED730AB6EE001AD7ED720A27
:1042800020EE011AAA3CF4EEC10AF1EE10FA01D2B6
:1042900087F83851F4EEC00A0020F1EE10FA2FDD55
:1042A00097F8381161B397F8391139B1D7E950133C
:1042B0004A1C43F10001C7E9502102E00021C7E98F
:1042C0005011D7E9502332260021B21A994102D267
:1042D00087F8380132E014F80C0F8200D4E9370176
:1042E0007434FCF7B8F814F8740C810011FB00F278
:1042F000D4E91E01FCF7AFF804F8545CBDE8FC9F5C
:104300009FED5D1A20EE011AF4EEC10AF1EE10FAEB
:104310000DDD97F8381151B170EE600A9FED571A14
:1043200020EE010A80EE801A87ED671A03E0B7EEEF
:10433000000A87ED670A0021C7E9501184F82C00B4
:10434000B4F85800A4F8A800B4F88200A4F8AA00B1
:10435000DDE900104A466C3403F08EFD04F85C0F72
:10436000A4F1300241464846C83C009203F084FD67
:1043700084F8C80000200DE0D4F81C11D7ED670ABE
:1043800001EB8001401C91ED000AC0B220EE200A32
:1043900081ED000AB4F89810B4F89A205143814294
:1043A000EADC04209FED360A002107EB800600EBD3
:1043B000400300BF96ED5D1AD4F81C2103EB010CFD
:1043C000C1EE000A02EB8C02491C92ED001AC9B240
:1043D000032960EE810AC2ED000AEBD3401CC0B293
:1043E0000628E1D334F8980F524620846584594654
:1043F000009803F041FD84F8300097F83801983CAC
:1044000050B39FED201ADFED200A0420D4F8BC1031
:1044100097ED6F0A01EB800120EE010AD1ED001A41
:10442000F4EEC01AF1EE10FA01DD81ED000AD4F8C5
:10443000BC1097ED6F0A01EB800120EE200AD1ED50
:10444000001AF4EEC01AF1EE10FA01D281ED000A62
:10445000401CC0B20628D9D304F13002514604F101
:10446000380003F093FB84F8C80047E75C0800209D
:10447000C04C0020804E0020CDCCCC3D6666663F0F
:10448000DA0FC93F0AD7233C0AD723BC30B504460C
:104490002DED048B8BB00020039004900546059011
:1044A0004E4A694608A8FCF7E5F89DED030ADDEDE4
:1044B000000A012030EE200A8DED030A9DED040A6A
:1044C000DDED010A30EE200A8DED040A9DED050AAE
:1044D000DDED020A30EE200A8DED050A03F04CFFF7
:1044E0006D1CEDB2642DDBD300219FED3D0A03A8C6
:1044F0006A4600BF00EB8103D3ED000A02EB8103A3
:10450000491C80EE801AC9B2032983ED001AF1D349
:104510009DED010ADDED020A20EE000A00EEA00A80
:10452000B5EEC00AF1EE10FA02DBF1EEC00A01E0CE
:10453000DFED2C0A9DED000A06A8B1EE400A03F05B
:10454000D5F9DDED020A9DED010A07A803F0CEF9C9
:10455000DDED060AB6EE000A60EE808ADDED070AA0
:1045600020EE808AB0EE680A03F0CEFAB0EE409AF0
:10457000B0EE480A03F0C8FA29EE000A84ED000AFA
:10458000B0EE680A03F01EFDB0EE409AB0EE480AA5
:1045900003F0BAFA29EE000A84ED010AB0EE680AC7
:1045A00003F0B2FAB0EE409AB0EE480A03F00AFD0A
:1045B00029EE000A84ED020AB0EE680A03F002FD5B
:1045C000F0EE408AB0EE480A03F0FCFC28EE800AC8
:1045D00084ED030A0BB0BDEC048B30BDB4090020A0
:1045E0000000C84200000000F0B500230A24302576
:1045F00037261F4611E000BFB4EB107F02D905EB50
:10460000107C01E006EB107C01F813C001EB430CB9
:1046100000015B1C8CF80170DBB29342ECD3F0BD5F
:104620002DE9F05F0173427383734FF0000B1E4658
:10463000044680F810B017468946304604F094FFCF
:1046400031466061FBF739FFB000824604F08CFF11
:104650005146A061FBF753FF504604F085FF5146D9
:10466000E061FBF74CFF4FEA8900804604F07CFFD5
:1046700041462062FBF743FF304604F075FF3146A8
:104680006062FBF71AFF404604F06EFF414620606F
:10469000FBF735FF504604F067FF51466060FBF7BB
:1046A0002EFFBD00284604F05FFF2946A060FBF7FF
:1046B00026FF404604F058FF4146C4F8E800FBF7E7
:1046C0001EFF217B012204F13000D4F8E83003F012
:1046D00072FA404604F048FF4146C4F8EC00FBF78C
:1046E0000EFF217B012204F13800D4F8EC3003F0F6
:1046F00062FA7FB1284604F037FF2946C4F8F0007B
:10470000FBF7FDFE617B012204F14000D4F8F0309C
:1047100003F051FA504604F027FF5146C4F8F40064
:10472000FBF7EDFEA17B012204F14800D4F8F43040
:1047300003F041FA18FB09F5284604F015FF294655
:10474000C4F8F800FBF7DBFE217B04F150000A46B9
:10475000D4F8F83003F02FFA284604F005FF294674
:10476000C4F8FC00FBF7CBFE217B04F158000A469D
:10477000D4F8FC3003F01FFA284604F0F5FEC4F824
:1047800000012846883404F0EFFEE0672946A06F58
:10479000FBF7B5FE2946E06FFBF7B1FE54F8783F12
:1047A000A4F1A00014F8F41CA4F580740A4603F0E8
:1047B00002FA217B04F168000A46D4F8043103F0C0
:1047C000FAF98FB118FB07F7384604F0CDFE3946E9
:1047D000C4F80801FBF793FE627B217B04F17000B3
:1047E000D4F8083103F0E7F91AFB09F0814604F028
:1047F000BBFE18FB06F7C4F80C013846943404F0ED
:10480000B3FEE0674946A06FFBF779FE3946E06FDB
:10481000FBF775FE14F8882C14F8861CA4F11C0014
:10482000A36F943C03F0C7F9A27B217B04F18000C5
:10483000D4F8103103F0BFF9284604F095FE29465C
:10484000C4F81401FBF75BFE217B04F188000A46E3
:10485000D4F8143103F0AFF91AFB06F5284604F03A
:1048600083FE2946C4F81801FBF749FEA17B04F139
:1048700090000A46D4F8183103F09DF9384604F048
:1048800073FE3946C4F81C01FBF739FEA27B217B7D
:1048900004F19800D4F81C3103F08DF9207B8100DD
:1048A00011FB00F004F060FEC4F82001207B8100C1
:1048B00011FB00F004F058FEC4F82401207B8100B5
:1048C00011FB00F004F050FEC4F82801207B8000AA
:1048D00004F04AFEC4F82C01207B800004F044FE62
:1048E000C4F83001217B04F1A0000A46D4F820313D
:1048F00003F061F9217B04F1A8000A46D4F82431C1
:1049000003F059F9217B04F1B0000A46D4F82831AC
:1049100003F051F9217B012204F1B800D4F82C31C5
:1049200003F049F9217B012204F1C000D4F83031B1
:1049300003F041F904F828BF84F801B084F802B00C
:1049400084F803B084F804B0BDE8F09F10B50446C5
:10495000C07B18B12046FEF7FBFF0BE0A07B61682F
:104960008200D4F8F400FBF776FDA07B810060683C
:10497000FBF7C5FD607BA1688200D4F8F000BDE8BC
:104980001040FBF768BD2DE9F041044690F82C007B
:1049900000282BD1B4F89800A4F8A800B4F87A1035
:1049A000A4F8AA10A4F8B000B4F85A00A4F8B20011
:1049B00004F1A802174604F1780104F1980003F00D
:1049C0005BFA84F8C80004F1B00204F158011646FD
:1049D0000D46384603F050FA84F8C80004F150023E
:1049E0003146284603F082FA84F8C800BDE8F08119
:1049F0002DE9F041044690F8290000282CD104F15B
:104A0000680104F160000F46054603F085FA84F85A
:104A1000C80004F15802164604F15001284603F07C
:104A20002BFA84F8C800B4F85800A4F8A800B4F829
:104A30006A00A4F8AA0004F1A802154639463046D7
:104A400003F01AFA84F8C800324604F188012846B7
:104A500003F09CF884F8C800BDE8F0812DE9F04728
:104A6000044690F82A0000285CD104F1800104F18A
:104A700078008946054603F04FFA84F8C800B4F878
:104A80007800A4F8A800B4F85A00A4F8AA0004F129
:104A9000A80204F1580190460F46284603F0ECF9AD
:104AA00084F8C800B4F8A800A4F8B000B4F88200F4
:104AB000A4F8B20004F1B00215464946404603F09E
:104AC000DBF984F8C800B4F89000A4F8A000B4F8AA
:104AD0009200A4F8A20004F1A002164604F190018D
:104AE000284603F053F884F8C80029463046AA3413
:104AF00003F066F8A07734F8520C24F8020C34F86E
:104B0000280C208042464946384603F0B5F904F89F
:104B10001E0FA4F1300229464046C83C03F0ACF910
:104B200084F8C800BDE8F08710B50446FFF70EFF13
:104B3000D4F8CC1009B120468847204600F063F82D
:104B4000D4F8D01009B1204688472046FFF750FF1F
:104B5000D4F8D41009B120468847207CB8B9E07B4E
:104B6000A8B1207B8200D4E93A01FBF774FC207BDA
:104B7000810011FB00F2D4E93E01FBF76CFC00BFA1
:104B8000D4F8E01009B12046884700202AE02046EA
:104B9000FFF764FFD4F8D81009B1204688472046B3
:104BA00000F06BF8D4F8DC1009B1204688472046A5
:104BB000FFF7E9FEE4E700BF10FB0101D4F8F8209D
:104BC00002EB8101226AD1ED000A02EB800292ED34
:104BD000000AF4EEC00AF1EE10FA01D281ED000AEB
:104BE000401CC0B2217B8142E6D80806820DD4F871
:104BF000E8102068FBF72FFCD4F8E41009B1204638
:104C00008847206810BD2DE9F041044690F828003F
:104C100000282AD1627B04F1300104F1600004F124
:104C2000380522B3227BA4F8B820012604F1B8028B
:104C3000A4F8BA60174603F01FF984F8C800207B77
:104C4000A4F8C000A4F8C26004F1C002164604F142
:104C5000400104F1700003F00FF904F8C80F2A4670
:104C60003146384602F092FF2070BDE8F0812A46B6
:104C700003F002F984F8C800F7E72DE9F041044693
:104C800090F82B00002838D1B4F87800A4F8B800C8
:104C9000012504F1B80204F13801A4F8BA50904695
:104CA0000F4604F1780003F0E7F884F8C800B4F880
:104CB0004800A4F8C00004F1C002A4F8C25016468F
:104CC000414604F1480003F011F984F8C800B4F833
:104CD0009800A4F8B800A4F8BA504246314604F14E
:104CE000980003F0C9F884F8C80004F13002414686
:104CF000384602F04BFF84F8C800BDE8F08170EE42
:104D0000C00A00EE810A7047104810B50E490160D4
:104D10000321416000214FF410228160C0E9031299
:104D20004FF4001242610176012242768276C1760A
:104D300001774277FCF745FD002803D0BDE810401D
:104D4000FCF736B810BD000000640040300D0020B4
:104D5000104810B50E4901600321416000214FF455
:104D600010228160C0E903124FF400124261017603
:104D7000012242768276C17601774277FCF721FDE7
:104D8000002803D0BDE81040FCF712B810BD0000A9
:104D900000680040580D00200D4808B5016841F436
:104DA000800101600068002200F48000009005216D
:104DB0003820FDF757F93820FDF746F90022052184
:104DC0003B20FDF74FF9BDE808403B20FDF73CB91B
:104DD0003038024010B596B01C2211496846FBF7E6
:104DE0003AFB0021684604F0EFF90E4C0C491C22F6
:104DF00020601C3107A8FBF72EFB002107A804F058
:104E0000E3F9074960601C2238310EA8FBF723FB49
:104E100000210EA804F0D8F9A06016B010BD000063
:104E200030A60008000000202DE9F04186B01421D2
:104E30006846FBF764FB37480025016841F0020132
:104E40000160016801F002010591016841F0010172
:104E50000160016801F001010591016841F008015C
:104E60000160016801F008010591016841F08001CD
:104E70000160016801F080010591016841F00401C1
:104E800001600068244E00F004004FF48074059027
:104E9000002221463046FDF730F8204F0122102134
:104EA0003846FDF72AF8DFF878800122114640469F
:104EB000FDF723F800940124CDE901456946304609
:104EC0000395FCF71DFFCDE900456946384602947D
:104ED000FCF716FF1020CDE900040225694638468C
:104EE000CDE90245FCF70CFF302000904FF488100C
:104EF000CDE9010469463046FCF702FF009469469B
:104F000040460194CDE90245FCF7FAFE06B0BDE843
:104F1000F0810000303802400008024000000240EA
:104F200000040240104810B50E4901604FF4827130
:104F30004160002102228160C0E903120122426126
:104F4000520282611822C0E90721416281620A216E
:104F5000C162FEF78DF8002803D0BDE81040FBF7D2
:104F600027BF10BD00300140800D002010B58EB06D
:104F700000240794089409940A940B941C21684611
:104F80000C94FBF7BCFA1F481D49C0E9001440F21D
:104F9000E731C0E90241802104618161FEF786FAB0
:104FA00008B1FBF705FF4FF48050079007A915489B
:104FB000FEF7FEFA08B1FBF7FBFE1248FEF791FC84
:104FC00008B1FBF7F5FE0B940BA90E480C94FEF705
:104FD00025FA08B1FBF7ECFE602000904FF4FA7060
:104FE000CDE901040822694606480494FEF713FC43
:104FF00008B1FBF7DDFE0348FEF7E2FB0EB010BD83
:1050000000080040980E002010B500220F491048FB
:1050100001F0E0F908B1FBF7CBFE0E490C4801F0B6
:10502000F5FB08B1FBF7C4FE0B49094800F072FF1D
:1050300008B1FBF7BDFE064801F06CFC002803D068
:10504000BDE81040FBF7B4BE10BD0000E809002029
:1050500034510020A40A0020380A0020FEE7FEE7B1
:105060000148FDF77DB90000306800202DE9F041CE
:1050700003680D4604461E6C03EB4511D1F8080B7E
:1050800094F806E04FF400474FF0200C04F29C42E5
:10509000BEF1010F09D0DFF898E0764539D102045E
:1050A00032D500BFC1F8087B3FE0224B5FEA007EAB
:1050B00004D59E4239D90004F4D436E05FEA806E0C
:1050C00002D5C1F808CB30E010F0280F2DD19E4258
:1050D00001D90004E6D405EBC50004EB8000D1F84B
:1050E000101BD0F87432C1F31201591AC0F86812BB
:1050F00000F51570ADB903691BB1C2681144C160F8
:105100000FE0012120680AE080060AD5C1F808CB2B
:1051100007E035B9D4F8640218B90021184601F047
:105120007BFFE9B22046FDF703F80020BDE8F081DF
:105130000A31544F0A30544F2DE9F84F0E4601EB17
:10514000C60100EB810481460568D4E909101434D6
:10515000884202D90120BDE8F88F081AA16881426F
:1051600000D20846C01C870805EB46181BE000BFAC
:10517000A0EB010AA068504500D282460AF1030064
:10518000870899F8060000901FFA8AF3F2B22846C1
:10519000E16802F07FFAE16801EB0A00E060616912
:1051A00001EB0A006061D8F8180980B2B84205D353
:1051B000D4E90401814201D20028D9D1D4E9040103
:1051C000884208D806F00F0101208840D5F834182D
:1051D0008143C5F834180020BDE7000030B51249FE
:1051E00010480A68037811493BB953685B78012B72
:1051F00003D18B7E43F002038B768B7E9C070BD50D
:10520000448840F6B835641CA4B24480AC4205D949
:1052100023F002038B7601E0002141805168497838
:10522000017030BD6C070020D0060020F006002081
:105230002DE9F04106462DED028B4FF00108017A71
:105240004FF47A729FED568ADFED568A564C00274E
:105250005648574D062910D2DFE801F003132E4BB4
:10526000648A4168491C4160914202D9476086F8CE
:105270000880A07E20F00500A076BDEC028BBDE882
:10528000F081B07A012803D1707A08B90220307217
:10529000287928B9304600F08FF8304600F02AF916
:1052A000286800688770A07E20F0020040F00500AA
:1052B000A07684ED028A56E042683B49521C426067
:1052C000897E642A03D841F00200A07605E0476099
:1052D00021F00200A07603203072287928B93046E8
:1052E00000F06AF8304600F005F928680068877019
:1052F00033E04168491C4160914202D34760042079
:105300003072287928B9304600F056F8304600F05F
:10531000F1F8286800688770A07E20F0020040F055
:1053200005001DE04168234A491C4160914202D3B7
:10533000476005203072287928B9304600F03CF8E3
:10534000304600F0D7F8304600F050F83046FFF70E
:1053500045FF2968096881F80280A07E40F00500B9
:10536000A076C4ED028A84ED038A84ED048A84E782
:10537000304600F021F8287910B9304600F0BAF82C
:105380002968096881F80280A07E20F00100A076DB
:105390003046BDEC028BBDE8F041FFF71FBF0000B7
:1053A0000000000066660640F00600206C07002042
:1053B000D0060020C027090040684FF47A710068C9
:1053C0000182426813780022012B0AD0002B07D1FA
:1053D000C3895B1C9BB2C3818B4201D9C18102731B
:1053E0007047C28101210173704700002749C868D6
:1053F000426892ED041A92ED000A254A13681B7B5D
:1054000013B11279012A3FD110EE102A214BF7EE89
:10541000000A1A44204B9A4203D200BF31EE200A00
:1054200029E010EE102A1D4BF2EE041A1A441C4B10
:105430009A420AD29FED1B2ADFED1B2A30EE022A88
:1054400082EE220A40EE210AE8E710EE102A174BFE
:105450001A44174B9A420AD29FED162ADFED162AFC
:1054600030EE022A82EE220A40EE610AD6E7B2EE60
:10547000060A31EE000A006880ED020AC868B8EE3C
:10548000000A006880ED030A704700004007002012
:10549000D0060020FF9FF93AFF7F3E00FF3F703BA0
:1054A000FF9F76000060064500007A44FF1FBB3A6C
:1054B000FF3F380000E044450000614410B5044659
:1054C0000068416988470020207210BD10B504466D
:1054D000022021680870607AA07201210448FCF75C
:1054E00007FD60722046BDE81040FFF7A1BE000036
:1054F000000002402DE9F04105462A482A4E2B4C77
:10550000006806F140074168097801290AD0007B4C
:10551000012838D09FED260A86ED010A87ED010AA1
:10552000BDE8F081B0F9081000EE101AB8EEC00A1C
:1055300086ED010AB0F90A0000EE100A1A48B8EE2A
:10554000C00A87ED010A04F093F81748403004F0D0
:105550008FF896ED080A85ED030AD7ED080AC5ED28
:10556000040AE06841680068D1ED040A30EE800A60
:1055700080ED020AE068D5ED040A416891ED050A64
:1055800030EE200A0AE0E0684168006891ED040A04
:1055900080ED020AE068416891ED050A006880ED3F
:1055A000030ABDE7D0060020740700204007002052
:1055B00000000000F8B515460E460B460092044662
:1055C0000122022100F02CF8A0B913481349006809
:1055D000B0FBF1F04FF47A71484300906068B0F589
:1055E000827F0DD13346002280212046009500F0B5
:1055F00017F870B1606D40F0200060650320F8BDC1
:10560000009830B1401E009020688068C0430006BA
:10561000F6D50020F8BD00001C00002000366E0109
:105620002DE9F8431E46914688460446089DFCF73E
:1056300069FC401B351AFCF765FC074626480068E4
:10564000C0F3CB3068430AE0701C09D0FCF75AFC69
:10565000C01BA8420FD275B10098B8B3401E00908D
:105660002068816838EA010033D000214945EBD138
:105670000020BDE8F8832068416821F0E001416026
:105680006068B0F5827F0BD1A068B0F5004F02D002
:10569000B0F5806F04D12068016821F040010160FD
:1056A000A06AB0F5005F09D12068016821F40051BB
:1056B00001602068016841F400510160012084F814
:1056C0005100002084F850000320D2E7FFE70025B6
:1056D000C6E70121CAE700001C00002001784078DD
:1056E00041EA002070470000224F234C234E244DF6
:1056F000DFF890802DED028B796A1E48884720885C
:10570000401C80B22080C82803D90020208004F0EB
:10571000CFFAB16919488847F16800231A4691ED1C
:10572000020A91ED038A1946BDEEC00A10EE100A76
:1057300000B2FBF737F995F8FB0238B195F8EC1297
:10574000012907D0112002F0F1FD0AE0112002F03A
:105750006DFE06E0012804D1B0EE480A112003F0E6
:1057600085F9D8F8241007488847012003F020FD68
:10577000C2E70000F40700202808002040070020AE
:10578000F8000020F00600200B4C0C4E0C4F04F5E6
:105790003675D4F8A41208488847D4F87C152846F2
:1057A0008847716905488847B96A054888470120D4
:1057B00003F0FEFCEDE70000F8000020D00600201A
:1057C000F0060020034C034861698847012003F07C
:1057D000EFFCF8E7C409002010B5502080F31188D1
:1057E000BFF34F8FBFF36F8F04F056FB18B104491E
:1057F0004FF080500860002080F3118810BD000039
:1058000004ED00E030B593B030216846FAF777FE3A
:1058100014210CA8FAF773FE1F480025016841F017
:1058200080510160006800F0805011901B480168B1
:1058300041F4804101600068022400F4804011902E
:10584000092000904FF4803001900120CDE905043B
:105850008005079006200890A820CDE909040720BC
:105860000B906846FDF74EFA08B172B6FEE70CA938
:105870000F2081E831004FF4A0500F904FF480507A
:10588000109005210CA8FDF73BF9002801D072B655
:10589000FEE713B030BD0000403802400070004009
:1058A0000248016841F470010160704788ED00E032
:1058B0000148FDF7ECBE0000E00E0020F0B50268E4
:1058C000274B284D284E294F294C4FF0804C9842A9
:1058D00009D0604507D0A84205D0B04203D0B842F5
:1058E00001D0A04204D122F0700E4A6842EA0E02B2
:1058F00098421BD0604519D0A84217D0B04215D0AD
:10590000B84213D0A04211D01A4DA8420ED01A4D61
:10591000A8420BD0194DA84208D0194DA84205D075
:10592000184DA84202D0184DA84203D122F4407568
:10593000CA682A434D6922F080022A438D68C562F5
:105940000D688562984201D0A04201D109690163C6
:10595000016841F004010160012141610260F0BD74
:10596000000001400004004000080040000C00401E
:105970000004014000400140004401400048014053
:1059800000180040001C00400020004010B5846852
:1059900042EA032224F47F440A432243826010BD7A
:1059A000826822F070020A4342F00701816070476A
:1059B000F0B5036A026A22F0010202624268846959
:1059C000124E24F073050C682C4323F002058B68FB
:1059D0002B430D4DA84201D0B04205D123F008075A
:1059E000CB683B4323F00403A84201D0B04205D169
:1059F0004D6922F4407215438A692A4342608461EA
:105A0000496841630362F0BD0000014000040140A9
:105A1000F0B5026A036A23F01003036243688469E5
:105A20000D6824F4E64444EA05248D6822F020023F
:105A300042EA05120F4D104EA84201D0B04206D1E5
:105A4000CF6822F0800242EA071222F04002A84208
:105A500001D0B04207D14D6923F4406343EA850386
:105A60008D6943EA8503436084614968816302620A
:105A7000F0BD00000000014000040140F0B5026AE2
:105A8000036A23F4807303624368C46922F40072DA
:105A900024F073050C68124E2C438D6842EA0522EF
:105AA0000E4DA84201D0B04206D1CF6822F4006268
:105AB00042EA072222F48062A84201D0B04207D114
:105AC0004D6923F4405343EA05138D6943EA0513F6
:105AD0004360C4614968C1630262F0BD00000140D7
