:020000040800F2
:100000003871002029030008C56D0008594C00080C
:10001000A96000088F0B0008518B00080000000049
:10002000000000000000000000000000690200085D
:100030003D1E000800000000C502000859830008AA
:100040004303000843030008430300084303000878
:100050004303000843030008430300084303000868
:100060004303000843030008092100084303000874
:10007000D1190008430300084303000843030008A4
:10008000DD190008E91900084303000843030008CC
:10009000B90B000843030008430300080F210008C0
:1000A0004303000843030008430300084303000818
:1000B0003184000843030008430300084303000899
:1000C00043030008430300084303000843030008F8
:1000D00043030008218A00088D8A0008E18A00088D
:1000E00043030008430300084303000843030008D8
:1000F00043030008430300084303000843030008C8
:1001000043030008430300084303000843030008B7
:1001100043030008430300084303000843030008A7
:10012000F519000843030008011A00080D1A000819
:100130004303000843030008430300084303000887
:100140009D0D000843030008430300084303000813
:100150004303000843030008191A0008430300087A
:100160004303000843030008430300084303000857
:100170004303000843030008430300080000000095
:10018000430300084303000800F002F800F05CF8A5
:100190000AA090E8000C82448344AAF10107DA45E2
:1001A00001D100F051F8AFF2090EBAE80F0013F0D8
:1001B000010F18BFFB1A43F00103184734E8000091
:1001C00054E800000A444FF0000C10F8013B13F013
:1001D000070408BF10F8014B1D1108BF10F8015BA0
:1001E000641E05D010F8016B641E01F8016BF9D193
:1001F00013F0080F1EBF10F8014BAD1C0C1B09D1EA
:100200006D1E58BF01F801CBFAD505E014F8016B5B
:1002100001F8016B6D1EF9D59142D6D370470000ED
:100220000023002400250026103A28BF78C1FBD8FF
:10023000520728BF30C148BF0B6070471FB50DF093
:10024000A0FC1FBD10B510BD00F0DCF91146FFF792
:10025000F5FF0BF037F800F0FAF903B4FFF7F2FFFF
:1002600003BC00F0FDF900002C4B19680868B0E8E9
:10027000F04F80F30988BFF36F8F4FF0000080F3D9
:10028000118870470000000008480068006880F38B
:1002900008884FF0000080F3148862B661B6BFF39F
:1002A0004F8FBFF36F8F00DF00BF00BF08ED00E08E
:1002B000DFF80C00016841F470010160704700BF75
:1002C00088ED00E0EFF30980BFF36F8F134B1A68DE
:1002D0001EF0100F08BF20ED108A20E9F04F1060CB
:1002E00009B44FF0500080F31188BFF34F8FBFF374
:1002F0006F8F0CF049FB4FF0000080F3118809BCB0
:1003000019680868B0E8F04F1EF0100F08BFB0EC95
:10031000108A80F30988BFF36F8F70474C23002049
:10032000EFF30580704700000948804709480047FF
:10033000FEE7FEE7FEE7FEE7FEE7FEE7FEE7FEE795
:10034000FEE7FEE704480549054A064B70470000F2
:100350002184000889010008386B002038710020D2
:10036000386D0020386D002053EA020C00F06980DF
:100370002DE9F04B4FF00006002B1FBFB3FA83F5B9
:1003800003FA05F424FA05F65E4012BF1643B2FAEA
:1003900082F502FA05F4C5F120051EBF22FA05FC1C
:1003A00044EA0C04203556EA044C4FEA144418BFC2
:1003B000641C4FF000084FF00009904271EB030CF1
:1003C00039D3002919BFB1FA81F701FA07F6B0FA5B
:1003D00080F700FA07F6C7F120071EBF20FA07FCD6
:1003E00046EA0C062037B6FBF4FCA7EB0507103FE6
:1003F00007F01F0BCBF120060CFA0BFB2CFA06F6CC
:1004000044BFB3460026202FA4BF5E464FF0000B2A
:100410005BEA060C08BF4FF0010B19EB0B09ABFBB5
:10042000027C48EB0608C01B06FB02CC0BFB03CC8E
:1004300071EB0C01C1E70B46024641464846BDE858
:10044000F08B13B54FF000004FF00001AFF30080C8
:10045000BDE81C407047032A40F2308010F0030CC6
:1004600000F0158011F8013BBCF1020F624498BF07
:1004700011F801CB00F8013B38BF11F8013BA2F1A4
:10048000040298BF00F801CB38BF00F8013B11F01F
:10049000030300F02580083AC0F0088051F8043BBF
:1004A000083A51F804CBA0E80810F5E7121D5CBF2C
:1004B00051F8043B40F8043BAFF30080D20724BF5F
:1004C00011F8013B11F801CB48BF11F8012B24BFF3
:1004D00000F8013B00F801CB48BF00F8012B704742
:1004E00010B5203AC0F00B80B1E81850203AA0E8CF
:1004F0001850B1E81850A0E81850BFF4F5AF5FEA03
:10050000027C24BFB1E81850A0E8185044BF18C9B5
:1005100018C0BDE810405FEA827C24BF51F8043B5C
:1005200040F8043B08BF7047D20728BF31F8023BB0
:1005300048BF11F8012B28BF20F8023B48BF00F844
:10054000012B70474FF000020429C0F0128010F018
:10055000030C00F01B80CCF1040CBCF1020F18BF9F
:1005600000F8012BA8BF20F8022BA1EB0C0100F032
:100570000DB85FEAC17C24BF00F8012B00F8012B05
:1005800048BF00F8012B70474FF0000200B513463A
:1005900094469646203922BFA0E80C50A0E80C50A3
:1005A000B1F12001BFF4F7AF090728BFA0E80C5054
:1005B00048BF0CC05DF804EB890028BF40F8042B4D
:1005C00008BF704748BF20F8022B11F0804F18BFBA
:1005D00000F8012B704770477047704710B500F066
:1005E00009F8006810BD10B5044600F003F8046077
:1005F00010BD000000487047D86A002000487047CE
:10060000D86A00207546FFF7F9FFAE460500694637
:10061000534620F00700854618B020B5FFF792FE3C
:10062000BDE820404FF000064FF000074FF00008F3
:100630004FF0000B21F00701AC46ACE8C009ACE874
:10064000C009ACE8C009ACE8C0098D46704710B5D8
:100650000446AFF300802046BDE81040FFF7FDBD23
:1006600001491820ABBEFEE72600020070470000DB
:1006700010B504462DED088B82B094ED326AD4EDAE
:10068000336A94ED340AF6EE000A60EE203A94EDF7
:10069000213AD4ED222A94ED232AD4ED241A94EDA4
:1006A000037A94ED044AD4ED054A94ED069AD4ED0C
:1006B000078A94ED088A27EE040A20EE240AB5EE94
:1006C000C00AF1EE10FA7DD023EE030A02EEA20A70
:1006D00002EE020A01EEA10A0AF06CFD23EE003AD6
:1006E00062EE802A22EE002A61EE801A27EE070AC7
:1006F00004EE040A04EEA40A0AF05CFD27EE007A78
:1007000064EE009A24EE801A22EEA10AB0EE00AA4E
:1007100003EE420A20EE0A5A23EE220A02EE210AD2
:1007200020EE0A0A63EE030A42EEE20A42EE420AB1
:1007300041EEA10A29EEA04A01EE404A21EE051A37
:1007400007EE601A67EE004A49EEC54A624890ED2E
:10075000020A04EE260A80ED020AD0ED030A41EEF9
:10076000260AC0ED030A90ED045A04EEA65A80ED65
:10077000045A06EE049A39EE000A46EE018A78EE33
:10078000A00A06EE248A38EE051AB1EE624AF0EEAF
:10079000437A24EE004A02EE604A01EEC14A44EE7A
:1007A000237A23EE004AF0EE625A02EE014A01EE8D
:1007B000E04A44EE235A23EE204A02EEC14A01EEFB
:1007C000804A00E083E0B0EE425A04EE235A23EE62
:1007D000011A02EEA01A02EE401A41EE231A27EE89
:1007E000A70A05EEA50A05EE050A01EEA10A0AF020
:1007F000E1FC67EE809A25EE808A65EE008A21EEA4
:10080000809AC4ED219A84ED228AC4ED238A84ED76
:10081000249A28EE0A0A29EE8A1A60EE09AA41EE05
:1008200068AAB7EE000A0AEEEA0AB5EEC00AF1EECF
:1008300010FA04DBF1EEC00ACDED010A03E09FEDF2
:10084000270A8DED010A69EEA90A28EE8A0A04F149
:100850005C00B0EE60BA48EE480A20EE090A01EEEC
:10086000080A48EEE80A49EE090A09F08DFD04F18C
:100870005800DDED010AB0EE6A0A09F085FDF0EEE0
:100880004B0A28EE280A48EE080A04F1540009EE43
:10089000890A48EEE80A20EE0A0A49EE490A09F0F8
:1008A00073FDD4ED170A9FED0E0A60EE800AC4EDC9
:1008B000170AD4ED160A9FED0B1A60EE810AC4EDFB
:1008C000160AD4ED150A20EE800A84ED150A02B04E
:1008D000BDEC088B10BD00009C2200200000000031
:1008E000DF2E6542DF2E65C230B505460C46002D71
:1008F0000CD0022C0AD90648A11E4288284601F0D5
:10090000CDFC291901F8020D000A487030BD000025
:100910001000002030B505460C46002D0AD0022CF0
:1009200008D9601E81B2FF22284601F0CFFC2919A8
:1009300001F8010C30BD000001221021014802F035
:10094000A0BE00000000024000221021014802F079
:1009500098BE0000000002407047000001221146CE
:10096000014802F08EBE0000000402400022012176
:10097000014802F086BE000000040240704770B5D6
:1009800004464FF47A7502E0284600F004F8641E2D
:10099000A4B2F9D270BD70B5054609F083FF0446D4
:1009A00009F080FF001BA842FAD370BD10B5FFF715
:1009B000D3FFFFF7E3FF09F081FE044609F004FFCF
:1009C000204310BD2DE9FC4104460D46164600208B
:1009D00000900190FFF7B8FF922000F0BFF80622C8
:1009E0006946122000F09CF8FFF7A6FF9DF8010071
:1009F0009DF80010000200B2084300EE100A474FB5
:100A0000B8EEC00AD7ED000A20EE200A85ED000AF4
:100A10009DF803009DF80210000200B2084300EEAA
:100A2000100AF8EEC00A97ED000A60EE800AC5EDE4
:100A3000010A9DF805009DF80410000200B2084369
:100A400000EE900AF8EEE00A20EE800A85ED020A38
:100A5000FFF78CFF08226946002000F061F8FFF7DD
:100A60007DFF9DF800000F2830D19DF803009DF810
:100A70000210000200B2084300EE100AD7ED010A8E
:100A8000B8EEC00A20EE200A84ED000A9DF80500A9
:100A90009DF80410000200B2084300EE100AF8EEC0
:100AA000C00A97ED010A60EE800AC4ED010A9DF8C4
:100AB00007009DF80610000200B2084300EE900AFD
:100AC000F8EEE00A20EE800A84ED020AFFF73CFF10
:100AD000A22000F043F802226946222000F020F80C
:100AE000FFF72AFF9DF800009DF80110C00040EAC2
:100AF0005110B0F5806F02DBA0F5006000B200EE8F
:100B0000100AB4EE001AF8EEC00AB3EE070A00EEBF
:100B1000810A86ED000ABDE8FC810000B0220020B9
:100B200070B50D46144640F0800000F017F806E05E
:100B3000552000F013F805F8010B641EE4B2002CF8
:100B4000F6D170BD10B50C4640F0800000F006F8FC
:100B5000552000F003F8207010BD000001B582B0F0
:100B60004FF47A700090012301AA02A9024803F011
:100B700089FA9DF804000EBD7026002010B50C46C1
:100B8000FFF7ECFF2046BDE81040FFF7E7BFFEE7A8
:100B900000B58BB001A800F0B5F901A9054801F036
:100BA000FBFE0221034801F073FE024802F043FA03
:100BB0000BB000BDC0230020014801F0FFBF0000C2
:100BC000C023002070B5174C40F2FF1525600025AA
:100BD000A560E56008262661134C060A2670607041
:100BE000080AA070E170100A20716271180AA071E1
:100BF000E3710020215C09B9401CC0B208280FD065
:100C0000401CC0B20828F5D3074B074A0C3B0549E6
:100C1000064801F04FFE04490C39CD600D6170BDEE
:100C2000002070BD442C0020EC220020C0230020B6
:100C300070B5174C4FF4007525600025A560E56080
:100C400008262661134C060A26706070080AA070F8
:100C5000E170100A20716271180AA071E37100201E
:100C6000215C09B9401CC0B208280FD0401CC0B29A
:100C70000828F5D3074B06491B1F1A1D064801F02B
:100C800019FE0449091F4D608D6070BD002070BDC4
:100C9000442C0020E4220020C023002070B5314AFB
:100CA00040F20315A0F203149368A8424CD010DC64
:100CB00003283BD0A5284ED0A0F58072013A3CD045
:100CC000012A1BD1BDE8704080B20A460146254882
:100CD00018470026244DFE2C11D0FF2C16D0B4F559
:100CE000807F1BD0A4F58074013C07D1D5F8043B6C
:100CF000082205F66400984785F87A6870BDD5F833
:100D0000A032082218489847AE7570BDD5F86C35EA
:100D100008221648984785F8E26270BDD5F8383841
:100D200008221348984785F8AE6570BDBDE870404D
:100D300080B20A4601460B481847BDE8704080B2B1
:100D40000A46014607481847BDE8704080B20A4687
:100D5000014604481847BDE8704080B20A46014683
:100D6000004818472C0500203C05002008080020FA
:100D7000D40A002000B58BB001A800F0C3F801A987
:100D8000054801F009FE0221034801F081FD0248F7
:100D900002F051F90BB000BDE8230020014801F03A
:100DA0000DBF0000E823002070B5174C40F2FF157E
:100DB00025600025A560E56008262661134C060A1B
:100DC00026706070080AA070E170100A20716271CC
:100DD000180AA071E3710020215C09B9401CC0B25F
:100DE00008280FD0401CC0B20828F5D3074B074A8B
:100DF000343B0549064801F05DFD044934394D6333
:100E00008D6370BD002070BD442C00201423002091
:100E1000E823002070B5174C4FF4007525600025BD
:100E2000A560E56008262661134C060A26706070EE
:100E3000080AA070E170100A20716271180AA0718E
:100E4000E3710020215C09B9401CC0B208280FD012
:100E5000401CC0B20828F5D3074B074A2C3B054974
:100E6000064801F027FD04492C39CD620D6370BDA1
:100E7000002070BD442C00200C230020E82300201B
:100E800070B51A4EA0F20120002506F58054062800
:100E90000BD2DFE800F00B03130A231BD4F834361F
:100EA00008221348984784F8AA5370BDD4F86833D1
:100EB00008221048984784F8DE5070BDD4F80039F5
:100EC00008220D48984784F8765670BDD4F89C30B7
:100ED00008220A48984786F8125E70BDD6F8D03DC1
:100EE00008220748984786F8465B70BD3C050020FD
:100EF000D0180020041600209C1B0020381300206E
:100F00006C1000200021016041608160C1600161BE
:100F1000416181610122C261026241627047417890
:100F2000007841EA002070474179007941EA0020C9
:100F300000B27047C178807841EA002000B2704763
:100F4000807970474179007941EA002000B270470A
:100F500010B5124A016891420DD1114B00211C4677
:100F6000A3F11C0201F0A1FD0D4821461C380068C8
:100F7000FFF794FE10BD0B4A9142FBD1084B0021B4
:100F800024331C46A3F11C0201F08FFD04482146C6
:100F900008300068FFF774FF10BD000000640040D7
:100FA000C42C00200068004010B588B00C4C0368C9
:100FB000A34205D00B4CA34202D0012008B010BDC3
:100FC00002910021049105910821069101AB02A92B
:100FD00001F070FC08B10120F0E70020EEE700000E
:100FE000006400400068004010B504466068006876
:100FF000D0F89812884760684068D0F898128847FF
:1010000060688068D0F8981288476068C068D0F837
:101010009812BDE81040084781689FED0A0B81EDEA
:10102000000B816881ED020B816881ED040B826801
:101030000021118582685185826891858068C1850B
:1010400070470000000000000000000070B53B4C3D
:101050002468B4F8154000EE904AF8EE600A9FED5F
:10106000381AF4EEC00AF1EE10FA01DDF0EE400A93
:10107000C0EE801AF4EEC00AF1EE10FA02D221EEB0
:10108000A10A01E0B7EE000A01D220EE011AB0F980
:101090000040002C01DD264600E06642B1F9005018
:1010A000002D00DC6D422E44B2F90050002D00DC12
:1010B0006D422E44B3F90050002D00DC6D423544E2
:1010C00000EE105AF8EEC00A81EE200AF4EEC10AD2
:1010D000F1EE10FA31DB00EE904AF8EEE00A60EE35
:1010E000800AFDEEE00A10EE904A0480B1F900009B
:1010F00000EE900AF8EEE00A60EE800AFDEEE00AEB
:1011000010EE900A0880B2F9000000EE900AF8EEA6
:10111000E00A60EE800AFDEEE00A10EE900A108010
:10112000B3F9000000EE900AF8EEE00A20EE800A23
:10113000BDEEC00A10EE100A188070BD2C0500200C
:1011400000803B472DE9F04104466068016845682E
:101150008668C7682278A068002A44D0B0F92000C9
:10116000D1F8B02200EE100A0846B8EEC00A904747
:10117000BDEEC00AA16810EE100A0885A068D5F877
:10118000B012B0F9220000EE100A2846B8EEC00AEC
:101190008847BDEEC00AA16810EE100A4885A06815
:1011A000D6F8B012B0F9240000EE100A3046B8EEBE
:1011B000C00A8847BDEEC00AA16810EE100A8885F3
:1011C000A068D7F8B012B0F9260000EE100A384631
:1011D000B8EEC00A8847BDEEC00AA16810EE100A3A
:1011E000C885BDE8F08100210185A0684185A0681F
:1011F0008185A068C185F4E770B504462DED088BA4
:10120000E7480068408900EE100AB8EE400ADFEDBA
:10121000E50AE54D20EE200A85ED0C0AE348E44995
:1012200000780978084221D0E248E349D0ED000A6D
:1012300010EE900A884206DDDFEDE00A30EE200A6B
:1012400085ED050A14E010EE900ADD4988420ADDBA
:10125000B2EE041A70EEC10A9FEDDA1A00EE810AAE
:1012600085ED050A04E085ED050A01E085ED050A36
:101270000021204609F0EAFBB0EE408A0121204619
:1012800009F0E4FBF0EE408A0221204609F0DEFB83
:10129000B0EE409A0321204609F0D8FBDFEDCA1AD0
:1012A0006BEE210A9FEDC91A48EE010A2AEEA18AC7
:1012B00008EE818A6AEE218A49EE018A29EEA19A16
:1012C00000EE019A30EE880A30EE280A30EE091A54
:1012D000D5ED051AB4EEE11AF1EE10FA0AD295ED49
:1012E000060A85ED0B0AB7EE000A85ED060ABDEC8D
:1012F000088B70BD95ED062A85ED0B2A81EE810ADB
:1013000085ED060AB5EEC00AB14EF1EE10FA7CDDAD
:101310009FEDB01A22EE011ADFEDAF1A00EE211A8E
:1013200085ED061AF5EEC00AF1EE10FA42DD60EE28
:10133000819A94ED261B51EC110B0BF0A9FD94ED55
:101340001E1B0AEE100A51EC110B0BF0A1FD94EDDF
:10135000161B0AEE900A51EC110B0BF099FD94ED5F
:101360000E3B0BEE100A51EC130B0BF091FD01EE4E
:10137000100AB068F0EE4A2AB0EE6A2AB0F92800E6
:10138000F0EE4B1A00EE100A7068F0EE690AB8EE43
:10139000C03A0068B0F9020000EE100AB8EEC00AC8
:1013A00009F092FA85ED070ABDEEC00AB16810EEA9
:1013B000100A0885B5EEC08AF1EE10FA46DD95ED0B
:1013C000060A28EE008A94ED281B51EC110B0BF055
:1013D0005FFD94ED201B09EE900A51EC110B0BF010
:1013E00057FD94ED181B0AEE100A51EC110B0BF08F
:1013F0004FFD94ED103B0AEE900A51EC130B0BF0ED
:1014000047FD01EE100AB06800E0B5E0B0F92A002F
:10141000F0EE692A00EE100A7068B0EE4A2AB8EEC3
:10142000C03A4068F0EE6A1AF0EE480AB0F90200DD
:1014300000EE100AB8EEC00A09F046FA85ED080A77
:10144000BDEEC00AB16810EE100A4885F5EEC08AFC
:10145000F1EE10FA44DD95ED060A28EE808A94ED4F
:101460002A1B51EC110B0BF013FD94ED221B08EE1F
:10147000900A51EC110B0BF00BFD94ED1A1B09EEC9
:10148000900A51EC110B0BF003FD94ED123B0AEEA8
:10149000100A51EC130B0BF0FBFC01EE100AB068C4
:1014A000F0EE682AB0EE692AB0F92C00F0EE4A1A84
:1014B00000EE100A7068F0EE480AB8EEC03A806894
:1014C000B0F9020000EE100AB8EEC00A09F0FCF90B
:1014D00085ED090ABDEEC00AB16810EE100A8885D4
:1014E000B5EEC09AF1EE10FA7FF701AF95ED060A5E
:1014F00029EE008A94ED2C1B51EC110B0BF0C8FC6B
:1015000094ED241B08EE900A51EC110B0BF0C0FC7B
:1015100094ED1C1B09EE100A51EC110B0BF0B8FCFA
:1015200094ED143B09EE900A51EC130B0BF0B0FC58
:1015300001EE100AB068F0EE682AB0EE492AB0F960
:101540002E00F0EE691A00EE100A7068F0EE480AFC
:10155000B8EEC03AC068B0F9020000EE100AB8EE6A
:10156000C00A09F0B1F985ED0A0ABDEEC00AB168FA
:1015700010EE100AC885BAE69FED180A85ED060A36
:1015800085ED070A85ED080A85ED090A85ED0A0A49
:10159000B0680021018541858185C185A7E60000ED
:1015A0002C0500203333733FD0000020352300206A
:1015B00021020020402300200000704100003E4333
:1015C00000002041000018429A99193FCDCCCC3E32
:1015D000AC010020CDCC4C3FCDCC4C3E00000000F7
:1015E000704700002DE9F04104462DED0A8BE068BC
:1015F00090ED02AAA56895ED000B51EC100B0BF0D5
:1016000047FC0AEE900A95ED020B51EC100B0BF023
:101610003FFC0BEE100A95ED040B51EC100B0BF098
:1016200037FC00EE100A20780027CD4E012811D19A
:101630007AEE8B0A30EE808A7BEE6A0A70EE808A40
:101640007AEECB0A30EE809AF1EE6A0A70EECB0A9F
:1016500070EE809A286BB0F90010494200EE101A23
:10166000B8EEC01AB0F90210494200EE101AF8EEB6
:10167000C01AB0F90410494200EE101AB8EEC00AC0
:10168000B0F90610494200EE901AF8EEE00A31EE89
:10169000612A32EE002A72EE602AB5EE002A62EE6E
:1016A000822AC0ED022A31EE211AA06871EE401A9A
:1016B000006B71EEE01A61EE821AC0ED031A31EE92
:1016C000000AA06830EE200A006B20EE020A80EDCE
:1016D000040AA068006B8568C0680CF0ABF941ECA7
:1016E000100B9FEDA0CBB0EE4C1AF0EE6C1A07F089
:1016F0003BFBB0EE40BAF0EE60BA28460CF09AF927
:1017000041EC100BB0EE4C1AF0EE6C1A07F02CFB0B
:1017100053EC1B2B51EC100B0BF0ECFB41EC100BC2
:1017200008F0AEF951EC100B0BF0B2FBA1680546C6
:10173000096B4861A06890ED060B9FED8C1B51EC86
:10174000100B53EC112B0CF08BF841EC1B0B2846C3
:101750000CF070F953EC1B2B0BF03AFE02D2012077
:10176000307016E0A56895ED060B9FED821B51ECDD
:10177000100B53EC112B0CF073F841EC1B0B286B86
:1017800040690CF057F953EC1B2B0BF05BFF00D2B8
:101790003770307801287DD0778060680068B0F9B4
:1017A000040000EE100AA068B8EEC00A006B80EDDD
:1017B000060A1AEE100A0CF03DF941EC1B0B18EE6C
:1017C000100A0CF037F941EC100B07F09DFA53ECBE
:1017D0001B2B51EC100B0BF035FF3ED31AEE100A09
:1017E0000CF028F941EC1B0B18EE900A0CF022F9D2
:1017F00041EC100B07F088FA53EC1B2B51EC100B4B
:101800000BF020FF29D31AEE100A0CF013F941EC6B
:101810001B0B19EE100A0CF00DF941EC100B07F040
:1018200073FA53EC1B2B51EC100B0BF00BFF14D382
:101830001AEE100A0CF0FEF841EC1B0B19EE900AA0
:101840000CF0F8F841EC100B07F05EFA53EC1B2B90
:1018500051EC100B0BF0F6FE53D219EE900A0CF07F
:10186000E9F841EC100B07F04FFA51EC100B0BF0BC
:101870000FFB0AEE900A19EE100A0CF0DBF841ECAF
:10188000100B07F041FA51EC100B0BF001FB00EECE
:10189000100A00E059E0F0EE6A0A07F03FFAF0EEB5
:1018A00040AA18EE900A0CF0C5F841EC100B07F0B6
:1018B0002BFA51EC100B0BF0EBFA00EE100AF0EEE5
:1018C0006A0A07F02BFAF0EE40AA18EE100A0CF0A4
:1018D000B1F841EC100B07F017FA51EC100B0BF0BC
:1018E000D7FA00EE100AF0EE6A0A07F017FACAEE0D
:1018F000000A28EE208A68EEA08A29EE209A69EE76
:10190000A09AB1EE480AA168BDEEC00A10EE100A16
:101910000884B1EE680AA168BDEEC00A10EE100A94
:101920004884B1EE490AA168BDEEC00A10EE100A63
:101930008884B1EE690AA168BDEEC00A10EE100AF3
:10194000C884BDEC0A8BBDE8F0817088401C80B271
:101950007080C8287FF621AF377077801DE70000C0
:10196000C80100200000000000000040000000004E
:101970000040AF400000000000709740416882685E
:101980000968126B49881180416882684968126B46
:1019900049885180416882688968126B49889180C2
:1019A00041688068C968006B4988C180704710B57C
:1019B00004462046FFF7E2FF2046FFF713FE2046CD
:1019C000FFF7C0FB2046BDE81040FFF709BE00004E
:1019D000014801F0BDBB0000282A0020014801F0A9
:1019E000B7BB000068290020014801F0B1BB00002E
:1019F000C8290020014801F0ABBB0000C826002028
:101A0000014801F0A5BB0000A8280020014801F012
:101A10009FBB000028270020014801F099BB00006F
:101A2000082900202DE9F04F099E00248568802DAB
:101A300018D0A24DC563A24D456490F83450012DD5
:101A400015D0012580F8345090F83550012D10D074
:101A5000002180F834100224002180F83410204640
:101A6000BDE8F08F4FF4807141650120F8E7022056
:101A7000F6E7022580F835500025456505682F6892
:101A800047F480272F6005682B6103685E608368D8
:101A9000402B25D0036899600168CA608A4D8A4E40
:101AA000884FDFF820E2EA14DFF81CC2DFF8148266
:101AB000DFF81492DFF80CA2016878363037930211
:101AC0000CF1300CA8F1180809F190090AF1480A44
:101AD0004FF0006B71453BD9A94206D1202233E07B
:101AE00003689A600268D160D8E7764D483DA94204
:101AF00001D1202228E0744D6035A94201D1202275
:101B000022E0704D1835A94201D120221CE06E4D13
:101B10001835A94218D06B4D303DA94214D0B142BE
:101B200012D0B94210D0614501D11A460CE04145AE
:101B300001D11A4608E0494501D11A4604E0514551
:101B400001D11A4600E05A465E494C390A60AFE0BE
:101B5000DFF874E10EF1A80E714536D9A94201D122
:101B600020222EE0574D483DA94201D1202228E0F5
:101B7000554D6035A94201D1202222E0514D183542
:101B8000A94201D120221CE04F4D1835A94218D09E
:101B90004C4D303DA94214D0B14212D0B94210D0C0
:101BA000614501D11A460CE0414501D11A4608E0D1
:101BB000494501D11A4604E0514501D11A4600E0D9
:101BC0005A46404950390A6072E0DFF8FCE00EF1F5
:101BD000480E714536D9A94201D120222EE0394D57
:101BE000483DA94201D1202228E0374D6035A94265
:101BF00001D1202222E0334D1835A94201D1202203
:101C00001CE0314D1835A94218D02E4D303DA94267
:101C100014D0B14212D0B94210D0614501D11A4658
:101C20000CE0414501D11A4608E0494501D11A4668
:101C300004E0514501D11A4600E05A4622491039C4
:101C4000CA6035E0A94201D120222EE01D4D483D59
:101C5000A94201D1202228E01B4D6035A94201D1C3
:101C6000202222E0174D1835A94201D120221CE084
:101C7000154D1835A94218D0124D303DA94214D047
:101C8000B14212D0B94210D0614501D11A460CE0E0
:101C9000414501D11A4608E0494501D11A4604E000
:101CA000514501D11A4600E05A46074910398A6069
:101CB00001680A6842F001020A60CDE611AD000831
:101CC00029AD000858640240106002400168CAB2A1
:101CD000103A1823B2FBF3F2064B9B5CC3656FF31B
:101CE0000901032A02D9091D816500E08165806D23
:101CF0007047000020E8000810B5014600208A6AFD
:101D00008B694FF0C074002B0ED0B3F5005F1AD072
:101D100062B3012A2AD0022A28D0032A03D1C96A31
:101D2000C90100D5012010BD1AB1012A06D0022A2E
:101D3000F9D1C96AC901F6D5012010BDC96AA1420D
:101D4000FBD1012010BD52B1012A0AD0022A06D0CF
:101D5000032AF7D1C96AA142F4D1012010BD0120A4
:101D600010BDC96AC901FBD5012010BD012010BDFD
:101D700030B50468256825F4802525600468636013
:101D80008368402B04D0036899600068C26030BD4E
:101D900003689A600068C16030BD70B5002490F897
:101DA0003450012D0CD0012580F8345090F8356066
:101DB0000025012E06D080F834500224204670BD44
:101DC000022070BD022680F83560456505682E68E2
:101DD00026F480262E6005686B608368402B09D04E
:101DE000036899600168CA600068016841F00101F8
:101DF0000160E3E703689A600268D160F4E7016874
:101E00000A68D20604D5C968C90601D50AF01EBC05
:101E10007047F0EE401AB0EE600A71EEC00AF5EEBF
:101E2000C00AF1EE10FA01DC70EE610AF4EEC10AAC
:101E3000F1EE10FA01D3B0EE610A7047704700006E
:101E400070B55348806880475248C1688847524DF2
:101E50002846D5F894128847D5F8601505F53370F3
:101E60008847D5F82C1805F5B3608847D5F8F81AD7
:101E700005F664008847D5F8C41D05F5336088472A
:101E8000464CA4F5257021688847D4F8981504F5C8
:101E900041708847D4F8CC1204F138008847D4F850
:101EA000641804F5BA608847D5F89C223C4905F1CE
:101EB0002C0090473A49D5F868251C31A4F6985073
:101EC00090473749D5F834283831A4F6CC209047CC
:101ED0003349D5F8002B5431A4F5006090473049C0
:101EE000D5F8CC2D7031A4F5677090472C49D5F802
:101EF000CC2D8C31A4F5787090472949A268A8317F
:101F0000A4F1D00090472649A268C431A4F58A7094
:101F100090472349D5F8CC2DE031A4F54570904782
:101F20001F49D5F8CC2DFC31A4F556709047A26816
:101F30001C49A4F1480090471A49A2681C31A4F139
:101F40008C0090471749D4F8A025383104F54C701F
:101F500090471449D4F8D422383104F164009047F2
:101F60001049D4F86C28543104F2FC5090470D49C4
:101F7000D4F86C28703104F20C70904704F5D960E5
:101F8000D4F86C28BDE8704006498C311047000039
:101F900090200020542100203C050020CC1500207A
:101FA0003C0300205404002010B50446206800685B
:101FB000616891ED030AD0F8A412B8EEC00A884710
:101FC000BDEEC00A616810EE100A088510BD000061
:101FD00070B5044620680568B5F9020000EE100AE5
:101FE0006068B8EEC00AD0ED020A30EE600AB5EEC5
:101FF000C00AF1EE10FA01DCB1EE400A206810EEE2
:10200000102A0E4B0068E16854309A4204DD5C31BE
:102010001C22FEF765FA03E040311C22FEF760FA4D
:102020006068D5F8B01290ED020A28468847BDEEE8
:10203000C00A616810EE100A088570BD00004844AF
:102040000EB590ED170AD0ED1A0A30EE600A8DED4C
:10205000000A90ED160AD0ED190A30EE600A8DEDF7
:10206000010A90ED150AD0ED180A30EE600A8DEDE8
:10207000020A00219FED122A6B4603EB8102F0EE6B
:10208000420A92ED000A08F0A6FE82ED000A491C01
:10209000C9B20329F1D3DDED000A9FED0A0A60EE13
:1020A000800AC0ED1B0ADDED010A60EE800AC0ED7A
:1020B0001C0ADDED020A20EE800A80ED1D0A0EBD2D
:1020C0000000B44300007A4410B50E48D0F8101157
:1020D00088470A2001F0C6F9FEF75AFDFEF74AFECE
:1020E00006F0AAFC06F0DEFC06F006FD012003F077
:1020F0008DFD022003F08AFDBDE81040032003F0AF
:1021000085BD000070210020102001F0BFB9202003
:1021100001F0BCB972B6FEE710B5016800234A6849
:10212000546B254A94420CD98968496B914208D96D
:1021300081688A79012A04D18B7141694A89521CCC
:102140004A8101684A6892ED0D0AB5EEC00AF1EEC7
:1021500010FA01DCB1EE400A10EE104A174A944220
:1021600019DA896891ED0D0AB5EEC00AF1EE10FAA0
:1021700001DCB1EE400A10EE101A91420BDA41690F
:102180004A7A521CD2B24A721E2A04D982680121AC
:10219000917141694B720168DFED090A4069096874
:1021A00091ED040AB8EEC00A80EE201ABCEEC10A16
:1021B00010EE101A818110BD000048C30000484392
:1021C0000024104770B5044620684568866860683A
:1021D00090ED040AD0ED000A30EE600A80ED070AA7
:1021E000606890ED050AD0ED010A30EE600A80EDDE
:1021F000080A6068D0ED070AF5EEC00AF1EE10FAA1
:1022000001DCF1EE600A10EE901A234881420ADCEC
:10221000B5EEC00AF1EE10FA01DCB1EE400A10EEA4
:10222000101A81420EDDE1681C22243105F15400B0
:10223000FEF756F9E1681C22243106F15400FEF73E
:102240004FF90DE0E1681C22083105F15400FEF75A
:1022500047F9E1681C22083106F15400FEF740F905
:102260006068D5F8B01290ED000A28468847BDEEA8
:10227000C00A616810EE100A88846068D6F8B0124F
:1022800090ED010A30468847BDEEC00A616810EE45
:10229000100AC88470BD00000000484210B5034613
:1022A0001046002B01D0084C0AE04FF6FF7010BD1D
:1022B00013F8012B4240D2B234F8122082EA1020E7
:1022C000491E4A1CF4D110BDDCDD000810B5054CD8
:1022D00003E010F8013B5340E25C491E89B2F8D29A
:1022E000104610BDDCDC000810B5044660680268CA
:1022F00043688068E168496891ED050A81ED080A44
:102300006169D1ED000AB2F9001000EE101AE1681F
:10231000B8EEC00A496830EEC00A81ED000AB3F990
:102320000010DFED290A00EE101AE168B8EEC00ACD
:10233000496830EEC00A81ED010AE16890ED1D0A9E
:10234000496881ED020AE16890ED1C0A496881ED57
:10235000030AE16890ED150A496881ED040AE16815
:1023600090ED160A496881ED050AE16890ED1C0AB6
:10237000496881ED070AE16890ED1D0A496881ED21
:10238000060A90ED1D0AE068406880ED060A2046C6
:1023900000F08CF9204600F0B3F82069007800289E
:1023A00011D1207801280ED003202070A168086880
:1023B000401C0860A168B0F5FA7F04D900200860CD
:1023C00021690120087010BD0090934570B5044646
:1023D00000252078012823D0022826D0032823D1E5
:1023E000204600F036FA204600F033F9E0684068F5
:1023F00090ED010AB5EEC00AF1EE10FA01DCB1EE83
:10240000400A10EE102A27498A423CDC90ED000A6F
:10241000B5EEC00AF1EE10FA1BDDF0EE400A1AE04C
:10242000E0680581E068458170BD204600F0F2F962
:10243000204600F0EFF8E0684168006891ED010A7D
:1024400080ED010AE0689FED180A006880ED000A3F
:1024500070BDF1EE400A10EE900A88420EDD9FED4D
:10246000131A70EE410AF5EEC00AF1EE10FA01DC23
:1024700071EE400A10EE900A884204DC21690120C6
:102480000870A0680560E0684168006891ED040A82
:1024900080ED020AE0684168006891ED050A80ED70
:1024A000030A70BD0000A04100000000000080454C
:1024B00010B5044660680068D0F8981288476068D4
:1024C0004068D0F89812884760688068D0F8181182
:1024D000BDE8104008470000026900211170C26881
:1024E0009FED060A126882ED000AC268126882ED4A
:1024F000010A826811608068416070470000000036
:10250000C0684168D1ED050A91ED010AB0EE402A9C
:1025100091ED081ADFED341A61EE211A9FED331A9E
:1025200040EE811ADFED322A9FED321A4FF08B43D5
:1025300013E0B5EEC00AF1EE10FA02DDF7EE000A84
:1025400009E0B5EEC00AF1EE10FA02D2FFEE000A81
:1025500001E0F0EE620A00EEC10AB5EEC00AF1EE4B
:1025600010FA02DDF0EE400A01E0F1EE400A10EE52
:10257000902A9A42DDDC81ED010A016891ED010AA1
:102580001D4B10EE102A9A4201DD9FED1C0A1C4BD8
:1025900010EE102A9A4201D99FED1A0A81ED010A24
:1025A000006890ED030ADFED180A82EE201ADFEDD5
:1025B000170A71EEA00A71EE200AF4EEC00AF1EEDD
:1025C00010FA01D2B0EE600ADFED110A71EEA00A36
:1025D00071EE200AF4EEC00AF1EE10FA01DDB0EE61
:1025E000600A80ED030A7047CDCC4C3FCDCC4C3E09
:1025F00000000000000000460080094400800944FB
:102600000000BCC30000BCC33D0AB641EC5184418C
:10261000AE47C1C170B50546686844682846FFF7F3
:102620006FFFE868D4F8B43203220168406891ED86
:10263000031AD0ED070A90ED050A04F5137104F5AD
:1026400002709847BDEEC00AE96810EE100A488192
:1026500070BD70B50546686844682846FFF750FFAE
:10266000E868D4F8B43201220168406891ED011A9B
:10267000D0ED030A90ED010A04F5E27104F5C07093
:102680009847BDEEC00AE96810EE100A488170BD97
:10269000704710B504462046FFF726FE2046FFF798
:1026A00095FE2046BDE81040FFF7F2BFC0684368C2
:1026B00093ED040A9FED531A5349DFED541A13E0CA
:1026C000B5EEC00AF1EE10FA02DDF7EE000A09E0FD
:1026D000B5EEC00AF1EE10FA02D2FFEE000A01E0F8
:1026E000F0EE610A00EEC10AB5EEC00AF1EE10FA92
:1026F00002DDF0EE400A01E0F1EE400A10EE902A11
:102700008A42DDDC83ED040A036893ED020A13E0DC
:10271000B5EEC00AF1EE10FA02DDF7EE000A09E0AC
:10272000B5EEC00AF1EE10FA02D2FFEE000A01E0A7
:10273000F0EE610A00EEC10AB5EEC00AF1EE10FA41
:1027400002DDF0EE400A01E0F1EE400A10EE902AC0
:102750008A42DDDC83ED020A436893ED000A9FEDB7
:102760002C1A4FF08B4213E0B5EEC00AF1EE10FACE
:1027700002DDF7EE000A09E0B5EEC00AF1EE10FA4C
:1027800002D2FFEE000A01E0F0EE610A00EEC10A9B
:10279000B5EEC00AF1EE10FA02DDF0EE400A01E0FB
:1027A000F1EE400A10EE901A9142DDDC83ED000A52
:1027B000016891ED000A13E0B5EEC00AF1EE10FADF
:1027C00002DDF7EE000A09E0B5EEC00AF1EE10FAFC
:1027D00002D2FFEE000A01E0F0EE610A00EEC10A4B
:1027E000B5EEC00AF1EE10FA02DDF0EE400A01E0AB
:1027F000F1EE400A10EE900A9042DDDC81ED000A15
:10280000704700000000B4430000344300000000A3
:102810000000004670B50546686804682846FFF762
:1028200045FFE868D4F8B43203220168406891EDAE
:10283000021AD0ED060A90ED040A04F5137104F5AE
:1028400002709847BDEEC00AE96810EE100A0881D0
:1028500070BD70B50546686804682846FFF726FF16
:10286000E868D4F8B43202220168406891ED001A99
:10287000D0ED020A90ED000A04F5E27104F5C07093
:102880009847BDEEC00AE96810EE100A088170BDD5
:1028900090F82020012A07D0022A05D0416A41F48D
:1028A0008021416201207047006842690A43426109
:1028B00000207047F0B590F820500468A468012DFE
:1028C00007D0022D05D0416A41F4802141620120E8
:1028D000F0BD04F0806504F00066354301D1E500E9
:1028E00053D5C4F301640125A5401D608B684FF4E6
:1028F000C0759BB1CE6805EB041733434E6843EABD
:10290000C6030668F3514FF4C273076803EB041360
:102910000E69FE50097D012909D00DE00E88CB68B3
:1029200005EB041743EA46530668F351EBE70168E9
:10293000CE5846F48076CE501179D379567941EA53
:10294000036193791B0443EA062319434FF4C676C7
:10295000036806EB041699511178D37841EA0361B4
:10296000937852781B0443EA022211434FF4C47354
:10297000026803EB0413D150006805EB04114258C0
:1029800042F0010242500020F0BD416A41F40011C2
:1029900041620120F0BD000010B590F82020012A0E
:1029A00007D0022A05D0416A41F48021416201200A
:1029B00010BD3C4800F50070026842F00102026060
:1029C000026822F47C52026002684B6A42EA0322E7
:1029D00002600A7D02F01F0301229A40C3699343FB
:1029E000C361A0F50070CB69B3B9D0F80C32934342
:1029F000C0F80C328C894B6864F31F434C6900EBC0
:102A0000C404C4F840320C890B6864F31F434C695A
:102A100000EBC404C4F84432CB69012B16D1D0F8C2
:102A20000C321343C0F80C320C884B6864F31F431C
:102A30004C6900EBC404C4F840320C89CB6864F3E1
:102A40001F434C6900EBC404C4F844328B697BB16A
:102A5000D0F804321343C0F804320B6973B1D0F8D4
:102A600014321343C0F81432096A01290CD010E063
:102A7000D0F804329343C0F80432EEE7D0F81432B1
:102A80009343C0F81432EFE7D0F81C121143C0F89A
:102A90001C12D0F8001221F00101C0F80012002031
:102AA00010BD000000640040704770B590F82040F1
:102AB000012C07D0022C05D0416A41F480214162EB
:102AC000012070BD21B104682469A4072AD003E065
:102AD0000468E468A4071FD04FF4D874056804EBB9
:102AE00001142D5905F0040595600DB305682D59A5
:102AF000ED08556005682C5904F00204D4604FF4C9
:102B0000DA74056804EB01142E5906F00F06082E3E
:102B100013D30825156114E0416A41F400114162A4
:102B2000012070BD416A41F400114162012070BD75
:102B300005682D596D0D1560DCE72D5905F00F0561
:102B4000156105682D59C5F30725956105682C5950
:102B5000240C54614FF4DC72046802EB0112A45897
:102B60001C700468A458240A5C700468A458240CDF
:102B70009C700468A258120EDA704FF4DE7204687A
:102B800002EB0112A4581C710468A458240A5C7159
:102B90000468A458240C9C710468A258120EDA71BF
:102BA00031B10068016941F020010161002070BD70
:102BB0000068C16841F02001C160F7E72DE9F05FCE
:102BC0000546002428684669D0F804908768D0F844
:102BD0000CA0D0F810B0D0F81880F10748D0F90751
:102BE00014D001218160B80703D5284600F050FABF
:102BF0000CE0780702D54FF4006407E0380702D5EF
:102C00004FF4805402E0284600F041FAF80516D54A
:102C100029684FF480708860B80503D5284600F015
:102C200039FA0CE0780502D544F4005407E0380581
:102C300002D544F4804402E0284600F02AFAF80362
:102C400016D529684FF480308860B80303D528462C
:102C500000F022FA0CE0780302D544F4004407E0C7
:102C6000380302D544F4803402E0284600F013FA19
:102C7000300707D55FEACA6004D544F400742968B8
:102C80001020C86070074FF0080707D55FEA0A7088
:102C900004D52868C760284600F0B8F9B00706D503
:102CA0002868C068800702D0284600F0B1F9700695
:102CB00007D55FEACB6004D544F48064296810200E
:102CC0000861B00607D55FEA0B7004D52868076174
:102CD000284600F0ADF9F00606D52868006980079F
:102CE00002D0284600F0A5F9B00308D55FEAC96014
:102CF00005D5296810204860284600F09BF9F003AC
:102D000007D55FEA097004D528684760284600F0B7
:102D1000C4F9300446D55FEA497040D5F00504D5C2
:102D20005FEAC87001D044F00104B00504D55FEA41
:102D3000887001D544F00204700504D55FEA48703C
:102D400001D544F00404300529D518F0700F26D0C1
:102D500008F07000402815D006DC102809D0202883
:102D60000AD0302816D10AE050280ED0602811D1A0
:102D70000EE044F008040DE044F010040AE044F0D2
:102D8000200407E044F0400404E044F0800401E043
:102D900044F480742868816921F070018161296898
:102DA00004204860002C05D0686A204368622846E9
:102DB000FFF77AFEBDE8F09F70B50446002C03D003
:102DC00094F8200010B104E0012070BD204600F00E
:102DD0009DF82068016841F00101016000F058FC95
:102DE000054605260CE000F053FC401B0A2807D9D5
:102DF000606A40F40030606284F82060012070BD99
:102E000020684068C007EED02068016821F0020108
:102E1000016000F03DFC05460CE000F039FC401B71
:102E20000A2807D9606A40F40030606284F82060A4
:102E3000012070BD206840688007EED4207E012804
:102E40003FD02068016821F080010160607E012888
:102E50003DD02068016821F040010160A07E01287A
:102E60003BD02068016821F020010160E07E01284C
:102E700039D02068016841F010010160207F0128ED
:102E800037D02068016821F008010160607F0128C7
:102E900035D02068016821F004010160D4E9020105
:102EA0000843D4E90412114308436168491E0843EA
:102EB0002168C86100206062012084F820000020A1
:102EC00070BD2068016841F080010160BEE72068A4
:102ED000016841F040010160C0E72068016841F0ED
:102EE00020010160C2E72068016821F01001016043
:102EF000C4E72068016841F008010160C6E7206866
:102F0000016841F004010160C8E700002DE9F041CB
:102F100086B00446142101A8FDF736FB364B374A2C
:102F2000DFF8D08018682168344C03260227401C43
:102F3000103200254FF0090C414527D118600128B7
:102F400007D1106840F000701060106800F0007049
:102F50000090206840F008002060206800F0080021
:102F600000900196029703950496CDF814C001A92C
:102F7000234800F097FA00220521142000F06CFC91
:102F8000142000F05BFC06B0BDE8F081DFF874802F
:102F90004145F8D1116841F080611160116801F07C
:102FA000806100911860012807D1106840F000701E
:102FB0001060106800F000700090206840F002007F
:102FC0002060206800F002000090602001900297CD
:102FD00003950496CDF814C001A90B4800F062FADD
:102FE00000220521402000F037FC402000F026FCA4
:102FF000C9E70000006400400000002030380240B3
:10300000000C0240006800400004024070470000CD
:10301000054A0168914201D1FDF79ABF034A9142E6
:1030200001D1FDF795BF7047006400400068004083
:1030300070477047704770B5044694F82000012827
:1030400005D0606A40F400206062012070BD02205B
:1030500084F820002068016821F00101016000F07F
:1030600017FB05460DE000F013FB401B0A2808D9AA
:10307000606A40F400306062052084F8200001207E
:1030800070BD20684068C007EDD1606270BD7047B8
:103090007047704770477047704770472DE9F0419F
:1030A0000446A76D00F0F4FA054694F835000026B2
:1030B000022806D08020606584F834600120BDE8D5
:1030C000F0812068016821F01601016020684169E3
:1030D00021F080014161206C08B9A06C20B120680A
:1030E000016821F0080101602068016821F00101F8
:1030F00001600BE000F0CCFA401B052806D9202027
:1031000034342062032060702670D8E7206800689D
:10311000C007EFD134343F2094F828108840B860BD
:103120000120607026700020C9E790F83510022950
:1031300003D08021416501207047052180F83510BA
:103140000068016821F00101016000207047000063
:103150002DE9F84304464FF00009CDF800906F4880
:103160004FF416510068B0FBF1F7A56D2E6894F886
:103170005C00082202FA00F1314210D02068016898
:1031800049070CD5016821F00401016094F85C0046
:1031900002FA00F1A960606D40F00100606594F8EA
:1031A0005C104FF0010808FA01F0304208D02168A5
:1031B0004969090604D5A860606D40F002006065A9
:1031C00094F85C1004208840304208D021680968D7
:1031D000890704D5A860606D40F00400606594F82C
:1031E0005C1010208840304220D02168096809070F
:1031F0001CD5A8602068016849030CD5006800034D
:1032000004D4216C91B1204688470FE0A16C69B1CC
:10321000204688470AE00168C90503D4016821F007
:1032200008010160216C09B12046884794F85C10C0
:103230002020884030424CD021680968C90648D512
:10324000A86094F8350005280BD020680168490370
:1032500030D50068000328D4616C51B320468847FC
:1032600037E02068016821F016010160206841699B
:1032700021F080014161206C08B9A06C20B1206868
:10328000016821F00801016094F85C103F2088403B
:10329000A86084F8358084F83490216D00293BD0F3
:1032A00001B02046BDE8F0430847E16B09B1204674
:1032B00088470EE00168C90507D4016821F01001B4
:1032C000016084F8358084F83490E16B09B12046C0
:1032D0008847606D00281FD0606DC00714D005209E
:1032E00084F835002068016821F001010160009830
:1032F000401C0090B84203D820680068C007F6D18F
:1033000084F8358084F83490E16C002904D001B051
:103310002046BDE8F0430847BDE8F8834823002075
:103320002DE9F041044600F0B3F905465CB10220F6
:1033300084F83500002684F834602068016821F0A4
:10334000010101600DE00120BDE8F08100F0A0F96D
:10335000401B052805D920206065032084F835002E
:10336000F2E720680068C007F0D121680A682048A9
:103370000240D4E901031843D4E903352B43184331
:1033800063691843A3691843E3691843236A184320
:103390001043626A042A03D1D4E90B231A43104371
:1033A00008602068406920F00700656A29460543E7
:1033B000012704290DD1A06A0543E06A48B12046DF
:1033C000FEF79AFC28B14020606584F83570012032
:1033D000BAE7206845612046FEF778FC94F85C2047
:1033E0003F2191408160666584F835700020ABE72D
:1033F0003F8010F02DE9F04104460025A66D94F8B9
:10340000340001280DD0012084F8340094F8357080
:103410000020012F07D084F8340002252846BDE89B
:10342000F0810220FBE7022784F8357060652046B2
:10343000FEF79EFC94F85C103F208840B060206846
:10344000016841F016010160206C20B1206801681C
:1034500041F0080101602068016841F0010101604C
:10346000DCE7000070B5044600F012F90546601C68
:1034700002D004480078044400F00AF9401BA0423E
:10348000FAD370BDB42300207047000010B5044982
:103490000A68024202D00860FFF7F6FF10BD000084
:1034A000143C01402DE9F84F0022DFF89C914FF0C9
:1034B000010803274FF00F0C09F1040AA9F1040BCE
:1034C00008FA02F50B682B40AB426ED10C7904F080
:1034D0000304012C01D0022C15D18668540007FA90
:1034E00004FE26EA0E06D1F80CE00EFA04FE4EEABF
:1034F000060EC0F808E04468AC430D79C5F300152A
:103500009540254345600C79E443A40708D0C5687D
:10351000540007FA04F6B5438E68A6402E43C660F1
:103520000C7904F00304022C11D1D40800EB8406BA
:10353000356A5407E40E0CFA04FE25EA0E05D1F8AC
:1035400010E00EFA04FE4EEA050EC6F820E005680B
:10355000540007FA04F6B5430E7906F00306A640B8
:103560002E4306604C6814F4403F67D0374C256802
:1035700045F480452560246804F480440094344C6C
:1035800022F003052E19D6F8085894074FEA147E46
:103590000CFA0EF4A5432F4CA04201D1002424E0E4
:1035A0002D4CA04202D101241FE047E02B4CA04249
:1035B00001D1022419E02A4CA04201D1032414E0D5
:1035C000284CA04201D104240FE0274CA04201D195
:1035D00005240AE0254CA04201D1062405E0244C34
:1035E000A04201D1072400E0082404FA0EF42C4381
:1035F000C6F80848D9F800409C434D68ED0200D554
:103600001C43C9F80040DAF800409C434D68AD0205
:1036100000D51C43CAF80040DBF800409C434D68CD
:10362000AD0300D51C43CBF80040074D083D2C6886
:103630009C434E68F60300D51C432C60521C102A94
:10364000FFF43EAFBDE8F88F083C0140443802402B
:103650000030014000000240000402400008024027
:10366000000C02400010024000140240001802400A
:10367000001C02400069084201D001207047002070
:103680007047002A01D08161704709048161704749
:103690000148806870470000B423002070B50446DC
:1036A000002C11D021684CF6CC400860216845F20E
:1036B00055500860D4E9001048602168A06888600F
:1036C000FFF7E6FF05460CE0012070BDFFF7E0FFC5
:1036D000401B312805D92068C068800701D003202D
:1036E00070BD2068C0688007F0D121684AF6AA2022
:1036F0000860002070BD00684AF6AA210160002021
:103700007047000009480168094A127811440160B5
:103710004FF08041496A006800EB4002C2EBC010E4
:1037200001EBC0000349086070470000BC23002083
:10373000B42300204423002010B50B48016841F455
:1037400000710160016841F480610160016841F429
:1037500080710160032000F09FF80F2000F006F850
:1037600000F050F8002010BD003C024030B587B09A
:10377000054600241F48016841F00101016000680E
:1037800000F00100009001A902A800F03DF90598A1
:10379000B0B100F05DF940001749B0FBF1F1491EEE
:1037A00016484FF08042026040F2E732C26041604A
:1037B00004618460846100F062FD04461CB115E080
:1037C00000F046F9E8E70D4800F092FD04466CB9B8
:1037D0001C2000F033F8102D07D2002229461C20AF
:1037E00000F03AF80648056000E0012407B02046E2
:1037F00030BD00004038024040420F00882A0020BF
:10380000B823002082B00C48016841F48041016077
:10381000006800F4804001900748001F016841F0F3
:1038200080510160006800F08050019000220F215B
:10383000901E02B000F010B844380240002809DBA6
:1038400000F01F02012191404009800000F1E020BA
:10385000C0F8001170470000F0B40D460D4B1B6816
:10386000C3F30223C3F10704042C00D90424191D57
:10387000072901D2002300E0DB1E012606FA04F12D
:10388000491E294099409E40761E16403143F0BCA7
:1038900005F0B4B90CED00E000F00701054A10682E
:1038A0004FF6FF03184040EA012003490843106027
:1038B000704700000CED00E00000FA052DE9F0472C
:1038C00004460D46002C13D0DFF82891D9F80000EB
:1038D000EFB200F00700A8420CD289F80070D9F8C6
:1038E000000000F00700A84204D00120BDE8F087E6
:1038F0000120FBE72068404E810712D5400703D521
:10390000306840F4E05030602078000703D530681C
:1039100040F4604030603068A16820F0F000084357
:1039200030602078C00731D03349606808390128F9
:1039300008D002280BD0032809D0096889070BD4C6
:103940000120D3E70968890306D40120CEE709687E
:10395000890101D40120C9E7316821F00301014345
:103960003160FFF795FE804641F2883A07E0FFF7A5
:103970008FFEA0EB0800504501D90320B6E7306860
:10398000616800F00C00B0EB810FF0D1D9F80000B5
:1039900000F00700A84209D989F80070D9F80000A2
:1039A00000F00700A84201D001209FE720784007DF
:1039B00005D53068E16820F4E05008433060207895
:1039C000000706D53068216920F4604040EAC10054
:1039D000306000F05DF83168084AC1F30311515CB2
:1039E000C8400749086007480068FFF7BFFE00208D
:1039F0007CE70000003C02400838024008E800086C
:103A000048230020B82300200F2202600B4A1368CD
:103A100003F003034360136803F0F003836013684B
:103A200003F4E053C360126802F46042D2080261FA
:103A30000348006800F0070008607047083802403B
:103A4000003C024001480068704700004823002005
:103A500000B5FFF7F7FF04490968044AC1F3822162
:103A6000515CC84000BD00000838024018E800085A
:103A700000B5FFF7E7FF04490968044AC1F3423182
:103A8000515CC84000BD00000838024018E800083A
:103A900010B51748006810F00C01164816D0164BE8
:103AA000042912D0082911D1114C241F216801F0DA
:103AB0003F02216849020AD52068C0F38810A0FBA4
:103AC00003010023FCF750FC09E0184610BD2168F3
:103AD0000023C1F38811A1FB0001FCF745FC21681C
:103AE000C1F30141491C4900B0FBF1F010BD0000D9
:103AF000083802400024F400001BB7002DE9F84FFD
:103B00000446002C13D02078DFF8A083C007A8F16A
:103B1000040556D008F104000168C1F381010129B0
:103B20000CD00068C0F38100022803D00DE0012012
:103B3000BDE8F88FD8F80000400206D52868800359
:103B40003FD5606870BB0120F2E76068B0F5803F48
:103B500010D0B0F5A02F12D0286820F48030286053
:103B6000286820F4802028606068E0B1FFF790FDAD
:103B7000064614E0286840F480302860F4E728689E
:103B800040F480202860286840F480302860EBE70B
:103B9000FFF77EFD801B642801D90320C8E7286851
:103BA0008003F5D50DE0FFF773FD064606E0FFF74D
:103BB0006FFD801B642801D90320B9E728688003C2
:103BC000F5D42078BA4F80074FF0000948D5B748A0
:103BD000001D016811F00C0F08D00068C0F38100CF
:103BE000022813D1D8F8000040020FD428688007BB
:103BF00004D5E068012801D0012099E728682169EF
:103C000020F0F80040EAC100286029E0E068B8B17F
:103C100001203860FFF73CFD064606E0FFF738FD5F
:103C2000801B022801D9032082E728688007F5D588
:103C30002868216920F0F80040EAC10028600FE000
:103C4000C7F80090FFF724FD064606E0FFF720FDC9
:103C5000801B022801D903206AE728688007F5D471
:103C60002078000729D5DFF844A2924861690AF15B
:103C7000700A89B101210160FFF70AFD064606E0DE
:103C8000FFF706FD801B022801D9032050E7DAF870
:103C900000008007F4D510E0C0F80090FFF7F8FCB2
:103CA000064606E0FFF7F4FC801B022801D903203A
:103CB0003EE7DAF800008007F4D42078400778D592
:103CC0004FF0000A79483C300068C0000BD47748B8
:103CD0003C30016841F080510160006800F0805084
:103CE00000904FF0010ADFF8D0B1DBF80000C0050A
:103CF00014D4DBF8000040F48070CBF80000FFF72C
:103D0000C7FC064606E0FFF7C3FC801B022801D96A
:103D100003200DE7DBF80000C005F4D5634EA06872
:103D20006C3601280FD0052812D0306820F0010031
:103D30003060306820F004003060A068F8B1FFF710
:103D4000A7FC834617E0306840F001003060F4E7DC
:103D5000306840F004003060306840F001003060AE
:103D6000EBE7FFF795FCA0EB0B0141F288308142B5
:103D700001D90320DCE630688007F2D510E0FFF7B8
:103D800087FC834609E0FFF783FCA0EB0B0141F2BF
:103D90008830814201D90320CAE630688007F2D416
:103DA000BAF1010F05D141483C30016821F0805142
:103DB0000160A069C0B33D49091D09684FF0FF3695
:103DC000C1F38101022946D0022805D0C7F86090CE
:103DD000FFF75EFC04463AE0C7F86090FFF758FC36
:103DE000814607E0FFF754FCA0EB0900022801D947
:103DF00003209DE628688001F4D4D4E90701084334
:103E0000616AA26A890106EB520241EA0241084353
:103E100094F82C1040EA0160C8F8000001203866D0
:103E2000FFF736FC044607E03DE0FFF731FC001BDE
:103E3000022801D903207BE628688001F5D532E00D
:103E4000FFF726FC001B022801D9032070E6286832
:103E50008001F5D427E0012823D0D8F80000E269DA
:103E600000F4800191421AD1226A00F03F01914290
:103E700015D147F6C071626A0140B1EB821F0ED1C5
:103E8000A26A00F4403106EB5202B1EB024F06D1B8
:103E900094F82C1000F07060B0EB016F03D001209B
:103EA00046E6012044E6002042E6000004380240D5
:103EB00000004742800E47420070004070B5044643
:103EC000002C09D0606A002540B125616561A562BA
:103ED00094F8510040B10CE0012070BD6068B0F56D
:103EE000827FF4D0E561F2E784F85050204600F07C
:103EF00045F8022084F851002068016821F0400153
:103F00000160A088218900F4827001F40441084313
:103F1000A18901F400610843217C01F002010843FA
:103F2000217D01F001010843218B01F40071084358
:103F3000217F01F03801084394F8201001F080013E
:103F40000843218D01F40051084321680860A069ED
:103F5000042101EA104094F8241001F010010843F4
:103F6000216848602068C16921F40061C16165650C
:103F7000012084F85100002070BD00002DE9F041BF
:103F800086B00546142101A8FCF7FEFA37492868D7
:103F9000884268D100263648016841F480510160AA
:103FA000006800F48050009031481438016841F0F6
:103FB00002010160016801F002010091016841F015
:103FC00001010160006800F00100009018200190DC
:103FD0000227029703964FF00308CDF810800524BE
:103FE000059401A92348FFF75DFA8020019002970C
:103FF0000396CDF81080059401A91F48FFF752FAE7
:104000001F4C1E4820604FF0C068C4F80480A660B2
:10401000E660071527616661A661E6614FF44030EE
:10402000206266622046FFF77BF908B1FEF772F85E
:10403000EC64A5631148124C483060342060C4F829
:1040400004804020A060E66027616661A661E661A9
:10405000C002206266622046FFF762F908B1FEF7EF
:1040600059F8AC64A56306B0BDE8F08100300140AA
:104070004438024000040240000002401064024044
:10408000C82600202DE9FF4F81B004460E9E8B46C6
:1040900098460125002794F8500001280ED0AA4622
:1040A00084F850A0FFF7F4FA814694F85100616853
:1040B00001280DD0B1F5827F08D103E0022005B0C0
:1040C000BDE8F08FA16809B9042801D00227CFE02C
:1040D000BBF1000F2DD0039858B35FEA080028D039
:1040E00094F85100042802D0052084F851000020E3
:1040F00060650399A163A4F83E80A4F83C80C4F8ED
:1041000030B0A4F83680A4F834802064606420685D
:104110000168490603D4016841F040010160E0688C
:10412000B0F5006F07D06068F0B3B8F1010F49D067
:104130007EE001279CE0606810B1B8F1010F3AD130
:10414000206B21680088C860206B801C2063E08E93
:10415000401EE0862FE02068816889070DD5E18E3A
:1041600059B1012D09D1216B0988C160206B801CD8
:104170002063E08E401EE086002520688168C90724
:104180000BD0E18F49B1C068A16B0880A06B801C87
:10419000A063E08F401EE0870125FFF779FAA0EBCE
:1041A0000900B04207D300E00CE0701C03D00327E5
:1041B00084F851A05CE0E08E0028CCD1E08F00288C
:1041C000C9D13BE0206B216800780873206B401C4C
:1041D0002063E08E401EE0862AE02068816889071F
:1041E0000DD5E18E59B1012D09D1216B09780173EB
:1041F000206B401C2063E08E401EE0860025206876
:104200008168C9070BD0E18F49B1C068A16B087004
:10421000A06B401CA063E08F401EE0870125FFF7E4
:1042200037FAA0EB0900B04201D3701C10D17EB167
:10423000E08E0028D1D1E08F0028CED14A46314609
:10424000204603F0CFF938B10127202060650FE048
:10425000032784F851A00BE0A06818B92068C16852
:1042600080680090606D08B1012701E084F851A0DA
:10427000002084F85000384621E77047704710B599
:104280000446002C03D094F83D0010B107E0012053
:1042900010BD002084F83C00204600F015F80220F4
:1042A00084F83D00211D206804F0C8F801203D3449
:1042B00060726070A070E07020716071A071E07138
:1042C00020722070002010BD08B5006806498842A1
:1042D00008D10648016841F400310160006800F42B
:1042E0000030009008BD0000004401404438024006
:1042F00090F83D10012901D001207047022180F87B
:104300003D100168CA6842F00102CA6000681449A1
:10431000884214D0B0F1804F11D0124988420ED09B
:10432000114988420BD01149884208D0104988426F
:1043300005D01049884202D00F49884209D18168CE
:1043400001F00701062908D0016841F00101016070
:1043500003E0016841F001010160002070470000A6
:10436000000001400004004000080040000C004034
:1043700000040140004001400018004070472DE952
:10438000F04104462068C56806694FF00007B10790
:1043900014D5A90712D5F91E0161012020772068E4
:1043A0008069800703D02046FFF7E8FF05E020463C
:1043B00000F0ACF8204600F03CF92777700717D5DD
:1043C000680715D521686FF0040008610220207786
:1043D0002068806910F4407F03D02046FFF7CEFFAD
:1043E00005E0204600F092F8204600F022F92777F9
:1043F000300716D5280714D521686FF0080008612A
:10440000042020772068C069800703D02046FFF78A
:10441000B5FF05E0204600F079F8204600F009F9E4
:104420002777F00617D5E80615D521686FF010003C
:104430000861082020772068C06910F4407F03D00D
:104440002046FFF79BFF05E0204600F05FF820467E
:1044500000F0EFF82777F00708D0E80706D02168CA
:104460006FF001000861204600F0E4F8300608D53E
:10447000280606D521686FF0800008612046FFF706
:10448000FCFE700608D5680606D521686FF040006E
:104490000861204600F0D5F8B0060AD5A80608D570
:1044A00021686FF0200008612046BDE8F041FFF769
:1044B000E5BEBDE8F081000010B586B004461421C9
:1044C00001A8FCF761F80E492068884215D10D4813
:1044D000016841F020010160006800F020000090B8
:1044E00040200190022002900121039104900320BA
:1044F000059001A90448FEF7D5FF06B010BD0000E5
:10450000004401403038024000140240704770B54A
:1045100004460D46002694F83C0001280FD00120E7
:1045200084F83C006AB1042A1FD0082A32D00C2A31
:1045300044D00126002084F83C00304670BD0220A3
:1045400070BD2946206803F0E7FF2068816941F0CB
:10455000080181612068816921F00401816120687E
:1045600081692A6911438161E4E72946206804F0E2
:1045700007F82068816941F40061816120688169E0
:1045800021F480618161206881692A6941EA022100
:104590008161CFE72946206804F02CF82068C169C2
:1045A00041F00801C1612068C16921F00401C161C5
:1045B0002068C1692A691143C161BBE729462068A7
:1045C00004F050F82068C16941F40061C1612068BD
:1045D000C16921F48061C1612068C1692A6941EA29
:1045E0000221C161A6E710B50446002C03D094F85F
:1045F0003D0010B107E0012010BD002084F83C0010
:10460000204600F015F8022084F83D00211D2068A6
:1046100003F014FF01203D3460726070A070E07000
:1046200020716071A071E07120722070002010BDB7
:10463000704770470068B0F1804F01D1FFF762B852
:104640007047704770477047F8B504462268106895
:10465000D168536900F00F06002E08D1850606D5F3
:104660008D0604D52046BDE8F84004F0BAB8002510
:10467000002E66D003F0010601F49077374360D036
:10468000C20705D0CA0503D5626C42F0010262641C
:10469000420705D5DA0703D0626C42F00202626479
:1046A000820705D5DA0703D0626C42F00402626427
:1046B000020707D501F02002324303D0626C42F0BA
:1046C00008026264626C002A31D0800604D5880634
:1046D00002D5204604F085F820684069C0F38010B8
:1046E000616C090700D438B3204604F038F820681C
:1046F000406940061CD52068143050E8001F21F0A6
:10470000400140E80012002AF5D1E06B60B1594940
:104710000165E06BFEF709FD002808D0E06B016D34
:1047200001B0BDE8F04008472046FFF78CFFF8BD18
:104730002046FFF788FFF8BD2046FFF784FF656439
:10474000F8BD236B012B7DD1C3067BD5CB067FD56E
:1047500010685068009050694FF0200340064FF0F9
:10476000020644D5E16B0868406880B20028E7D0B3
:10477000A28D8242E4D9E085C869B0F5807F2DD052
:1047800020680C3050E8001F21F4807140E80012CE
:10479000002AF5D12068143050E8001F21F00101F3
:1047A00040E80012002AF5D12068143050E8001FBC
:1047B00021F0400140E80012002AF5D184F842308F
:1047C000256320680C3050E8001F21F0100140E8FC
:1047D0000012002AF5D1E06BFEF760FC6663A08D45
:1047E000E18D401A81B22046FFF72CFFF8BDA08D65
:1047F000E18D401A81B2E08D0028F7D00029F5D074
:1048000020680C3050E8002F22F4907240E8002716
:10481000002FF5D12068143050E8002F22F001025B
:1048200040E80027002FF5D184F842302563206846
:104830000C3050E8002F22F0100240E80023002B3B
:10484000F5D100E004E066632046FFF7FBFEF8BD0B
:10485000020606D50A0604D52046BDE8F84004F055
:10486000AFB84006F3D54806F1D52046BDE8F8407C
:1048700003F09CBFB986000870B50446002C04D034
:1048800094F84100002510B106E0012070BD84F8C5
:104890004050204600F024F8242084F8410020688D
:1048A000C16821F40051C160204603F0FFFF206879
:1048B000016921F4904101612068416921F02A01D8
:1048C00041612068C16841F40051C16065642020E5
:1048D00084F8410084F842006563002070BD000048
:1048E0002DE9F04F87B00446142102A8FBF74CFED7
:1048F000AD48AC4A0221236800258E0607154FF00B
:10490000030A4FF0070B4FF4807893427ED1A64AFA
:104910001432136843F010031360126802F010029F
:104920000192026842F002020260026802F0020292
:104930000192026842F001020260006800F001008A
:10494000019080200290894603910495CDF814A02F
:10495000CDF818B002A99548FEF7A4FDB014029056
:10496000CDF80C900495CDF814A0CDF818B002A99C
:104970008F48FEF797FDDFF840928E48C9F8000097
:10498000C9F80460C9F80850C9F80C50C9F810708B
:10499000C9F81450C9F81850C9F81C804FF44030B9
:1049A000C9F82000C9F824504846FEF7B9FC08B100
:1049B000FDF7B0FBC4F83C90C9F83840DFF8F88147
:1049C0007C4808F160087830C8F80000C8F8046036
:1049D0004020C8F80800C8F80C50C8F81070C8F893
:1049E0001450C8F81850C8F81C50C8F82050C8F81F
:1049F00024504046FEF794FC08B1FDF78BFBC4F849
:104A00003880C8F838400022052100E008E0252061
:104A1000FEF722FF2520FEF711FF07B0BDE8F08F5B
:104A2000614ADFF898C110324FF4003963456AD10A
:104A3000136843F400331360126802F400320192E9
:104A4000026842F008020260006800F0080001906D
:104A50006020029003910495CDF814A0CDF818B011
:104A600002A95748FEF71EFDDFF84CA155480AF190
:104A7000C00ACAF80000CAF80460CAF80850CAF8A8
:104A80000C50CAF81070CAF81450CAF81850CAF876
:104A90001C80CAF82090CAF824505046FEF740FC0B
:104AA00008B1FDF737FBC4F83CA0CAF838404548C8
:104AB000DFF814811830C8F80000C8F804604020FE
:104AC000C8F80800C8F80C50C8F81070C8F814509E
:104AD000C8F81850C8F81C50C8F82050C8F824501E
:104AE0004046FEF71DFC08B1FDF714FBC4F8388002
:104AF000C8F83840002205212620FEF7ADFE26200A
:104B0000FEF79CFE89E7DFF8C4C0634585D11368D2
:104B100043F480231360126802F480220192026839
:104B200042F004020260006800F0040001904FF4BB
:104B30004060029003910495CDF814A0CDF818B010
:104B400002A92348FEF7AEFCDFF87CA01D480AF15D
:104B5000600A6038CAF80000CAF80460CAF8085051
:104B6000CAF80C50CAF81070CAF81450CAF8185095
:104B7000CAF81C80CAF82090CAF824505046FEF7A4
:104B8000CFFB08B1FDF7C6FAC4F83CA0CAF838401C
:104B9000002205212720FEF75FFE2720FEF74EFEAC
:104BA0003BE70000001001403038024000040240A2
:104BB0000000024040640240A82800200044004059
:104BC000000C024088600240C829002000480040D4
:104BD000000802407047000037B5044694F84100D1
:104BE000202801D002203EBD019959B352B3216261
:104BF000A284E28400206064212384F84130A56B04
:104C0000114BEB63A56B114B2B64A56B104BEB6445
:104C1000A36B186520681346001DA56B0246284645
:104C2000FEF7E8FB21686FF0400008602068143050
:104C300050E8001F41F0800140E80012002AF5D141
:104C400000203EBD01203EBD1387000855870008A7
:104C5000C9860008704770470A20FEF703FC00234E
:104C60001A4619461846FBF7ADFF00231A461946A7
:104C70001846FBF7DDFF00231A4619461846FCF7D5
:104C800093F800231A4619461846FCF7C3F80A2081
:104C9000FEF7E8FB012080F31388BFF34F8F054830
:104CA0000168054A01F4E06111430160BFF34F8FD1
:104CB00000BFFDE70CED00E00400FA05B5EEC01AF8
:104CC000F1EE411AF1EE10FA02DDB0EE412A01E0F8
:104CD000B0EE612A12EE100AB0F17E5F0CDDB5EE87
:104CE000C01AF1EE10FA01DCB0EE611AB2EE042A3D
:104CF000C1EE021AB0EE611AF7EE001A71EEC11A97
:104D000021EE800A00EE810A704710B5044694ED4A
:104D1000351AB5EEC01AF1EE10FA1BD0D4ED090A1F
:104D200094ED030AFFF7CAFF84ED030A94ED351AE8
:104D3000D4ED0A0A94ED040AFFF7C0FF84ED040ADB
:104D400094ED351AD4ED0B0A94ED050AFFF7B6FF82
:104D500084ED050A94ED361AB5EEC01AF1EE10FA9C
:104D60001BD0D4ED0C0A94ED060AFFF7A7FF84EDE3
:104D7000060A94ED361AD4ED0D0A94ED070AFFF7F2
:104D80009DFF84ED070A94ED361AD4ED0E0A94EDDA
:104D9000080AFFF793FF84ED080A94ED371AB5EE81
:104DA000C01AF1EE10FA1BD0D4ED1A0A94ED170ACE
:104DB000FFF784FF84ED170A94ED371AD4ED190A32
:104DC00094ED160AFFF77AFF84ED160A94ED371A70
:104DD000D4ED180A94ED150AFFF770FF84ED150A5B
:104DE00094ED381AB5EEC01AF1EE10FA1BD0D4EDDE
:104DF0001E0A94ED1B0AFFF761FF84ED1B0A94ED78
:104E0000381AD4ED1F0A94ED1C0AFFF757FF84ED02
:104E10001C0A94ED381AD4ED200A94ED1D0AFFF710
:104E20004DFF84ED1D0A10BD2DE9F041D0F818802A
:104E3000446AC569C6680169476908460A6A9047B5
:104E4000796A38468847B16930468847D8F8000003
:104E500081698847A169204688472846E968BDE8F6
:104E6000F041084770B50446A068A369A269867836
:104E7000002112680125012E127A00D0AAB1BAB120
:104E80006570217081706268117341700170C17228
:104E90000172C171017181716068C17160680172D4
:104EA000606841726068817270BD6170857070BDAC
:104EB000D86880472046BDE8704001F084BF10B537
:104EC00004462046FFF7CEFFA1688978012907D163
:104ED000204601F099FF2046BDE8104001F0E6B8F9
:104EE00010BD70B50446656A6669204601F000FC95
:104EF000B0680078012802D1204600F015F8287A21
:104F000010B9204601F09CFD204601F02BFF204601
:104F100001F0EAF9204601F0A7FE204601F0D0FAA0
:104F2000BDE8704002F014BBF0B54169C3699FED64
:104F3000AA1AB0EE410ADFEDA91A4A68F3EE0E0A8A
:104F4000C2ED0B0A4A6892ED0C2A1C68D4ED080ADF
:104F5000C2ED0C0A1C790022002C37D04C6884ED7D
:104F60000C1A002400251E684F683689BE861E680C
:104F70004F68B6F81760FE861E684F68F6883E8751
:104F80004F68BE8EB7F836C0A6EB0C06FE634F68BE
:104F9000642E00DD0124142E00DC01251B799FED19
:104FA000900A012B78D0012C77D0002C0DD1002D48
:104FB00074D0012D09D1CB6883ED011A0B691A70E9
:104FC00009698A70806801218171F0BDF4EE420A9E
:104FD000F1EE10FAC5D09FED832AF4EEC20AF1EE8D
:104FE00010FABEDD1C684D69248DEC814C68D4ED4F
:104FF0000C0A9FED7D2A7D4CF4EEC20AF1EE10FA08
:1050000004DD62702270BBEE040AA4E09FED782AF2
:10501000F4EEC20AF1EE10FA04DD62702270BAEE0C
:10502000020A98E09FED732ADFED732AF4EEE20A9C
:10503000F1EE10FA04DD62702270B9EE040A8AE023
:10504000DFED6E2A694DF4EEC20A2D786D1CF1EE8B
:1050500010FA6DB204DD62702570B8EE080A7AE0CD
:105060009FED672AF4EEE20AF1EE10FA06DD6270B7
:105070002570012D6FDDB8EE000A6CE0DFED612ACE
:10508000F4EEC20AF1EE10FA09DD62702570022D0D
:1050900061DDBFEE000A5EE065E072E077E09FED63
:1050A0005A2AF4EEC20AF1EE10FA04D262702270AB
:1050B000B3EE040A4FE09FED552AF4EEC20AF1EE7A
:1050C00010FA04D262702270B2EE080A43E09FED3B
:1050D000502AF4EEC20AF1EE10FA04D26270227085
:1050E000B2EE020A37E09FED4B2AF4EEC20AF1EE6F
:1050F00010FA04D262702270B1EE040A2BE09FED28
:10510000462A3A4DF4EEC20A6D786D1CF1EE10FAA3
:105110006DB204D265702270B0EE080A1BE09FEDFC
:105120003F2AF4EEC20AF1EE10FA06D26570227040
:10513000012D10DDB0EE000A0DE0F4EEE20AF1EE12
:1051400010FA06D265702270022D04DDB7EE000A57
:1051500001E062702270CC68D4ED000A40EE210AB2
:10516000C4ED000AFDE680688271C86880ED010A1E
:105170004B68282098864868C2864868818EC1633B
:10518000F0BDC96881ED010A80688271F0BD3B8F76
:10519000B2EE041A00EE103ACB68F8EE400A80EE48
:1051A000810AF0EE040A30EE200ADFED1D0A20EE3F
:1051B000200A83ED1F0A10EE103A1A4CC968A34268
:1051C00002DA81ED010A03E09FED170A81ED010A81
:1051D00080688271F0BD00000000000052B81E40DF
:1051E00000A0B94500CDCC3D0000EE4118030020E1
:1051F0000000EA419A99E7416766E841CDCCE64173
:105200000000E6413333E5410000DE419A99DF4179
:105210003333E141CDCCE2419A99E3416766E44101
:105220000000874300407645004076451CB510EEEF
:10523000100A08F0FFFBCDE90001DDE9000108B12B
:10524000012000E00020014321F000400349081A3A
:10525000C00F002800D001201CBD00000000F07F1E
:1052600041698069406890F89401012805D1087669
:105270000A690020107009694870704730B50269EA
:105280008169496891F8A430012B12D191F8B85086
:10529000002102240323012D0CD0456829704568A4
:1052A000E971456869724568A97285682971147049
:1052B000437030BD137044704068017030BD816927
:1052C000496891F86511012901D14068C1727047A0
:1052D0008169496891F8D510012905D141780329E0
:1052E00002D140680121017170470000816949685D
:1052F00091F80511012908D14068017819B90349CD
:105300000A78521C0A700121017070471A030020AC
:105310000F4A10F0030114D0012908D002290BD044
:10532000032913D14FF400410A48FEF7A3B94FF403
:1053300080511046FEF79EB94FF480611046FEF78B
:1053400099B94FF400611046FEF794B97047000018
:10535000000802400000024010B58169426A012342
:10536000496891F8C441012C09D091F81D11022916
:1053700004D14168CB7140690221017610BD91F8DA
:105380001C01012804D0116800200968487610BD6E
:1053900010680068437610BD10B58169496891F8BE
:1053A0004821012A2BD191F86021012A27D191F8B7
:1053B0007811012923D1012444700A20FEF752F804
:1053C00000231A4619461846FBF7FCFB00231A4631
:1053D00019461846FBF72CFC00231A4619461846B6
:1053E000FBF7E2FC00231A4619461846FBF712FDAC
:1053F0000A20FEF737F884F3138803F00FFC10BD82
:1054000030B5416983689A79002A0FD182690124F5
:10541000526892F8C051012D09D092F8AD310022A6
:10542000022B0DD009694A708068C27130BD406896
:105430004078012802D00869447030BDDC7130BD6D
:10544000087E012808D0886800780128F7D108690B
:1054500004700869427030BD0220087630BD0169D1
:105460004278032A0DD109690978012909D1816996
:105470000122496891F8C41121B1012901D1406884
:105480004270704741684B7A012B0BD08B7A012B0D
:1054900008D0C979012905D082680021D1714068FE
:1054A000417070478168CA71406842707047816975
:1054B000496891F8BD10012905D14178032902D12D
:1054C00040680121C17070478169496891F8EC100A
:1054D000002904D0012901D140684171704740681A
:1054E00000214171704781694068496891F88C10CA
:1054F000012902D000210173704701210173704717
:1055000010B58169012449680A78012A0FD0002367
:10551000022A47D0032A09D191F92B10022938D049
:10552000032903D14068417A81B3437210BD91F9D8
:105530002B10022924D00329F8D144700A20FDF74A
:1055400091FF00231A4619461846FBF73BFB002340
:105550001A4619461846FBF76BFB00231A461946F4
:105560001846FBF721FC00231A4619461846FBF79C
:1055700051FC0A20FDF776FF84F3138803F04EFBFD
:105580004068C17919B10021C17110BD08E0012145
:10559000FAE74068817A09B18372F6E78472F4E72A
:1055A0004472F2E791F92B10022907D00329ECD1BC
:1055B0004068417B012909D04473E6E78068C17ADD
:1055C000012901D0C472E0E7C372DEE74373DCE770
:1055D00010B504462046FFF76AFF2046FFF778FE25
:1055E000204600F026F82046FFF780FE2046FFF711
:1055F000B3FE204600F033F8204600F023F82046A2
:10560000FFF75DFE2046FFF75FFF2046FFF728FE0D
:105610002046FFF7F5FE2046FFF721FF2046FFF763
:105620002DFE2046FFF75FFF2046BDE81040FFF744
:10563000B3BE8169496891F87D11012901D14068A3
:10564000817070478169496891F84D11022905D12F
:105650004268012191724069022101767047816997
:10566000496891F835210121022A04D1426851721A
:10567000436902221A768269526892F84821012A07
:1056800003D0406800210172704740680172704782
:1056900070B504462DED028B0025607E002824D0D5
:1056A0009FED8D0A012825D0022820D1A068C1785D
:1056B00049B3457060694168491C41609FED870AA4
:1056C000606880ED020A2046FCF782FC6069416850
:1056D000B1F5C87F02D34560A068C5702046BDEC17
:1056E000028BBDE8704000F003B960680585BDEC31
:1056F000028B70BD2068006880ED0F0A206800688A
:1057000080ED110AF3E721698A789FED758A0126F9
:10571000012A0DD04A78012A6CD00978012975D068
:105720004570606880ED020A2046FCF751FCD5E721
:105730009FED6C0A606880ED020A2046FCF748FC89
:10574000A068407828B9206861680068008AA1F8DC
:1057500042006168F2EE040A226831F8400F00EE60
:10576000100A49881268B8EE400A20EE080A80EE56
:10577000201A00EE101AB8EE400A31EE001A92ED2F
:10578000040AF8EEC01A31EEC11AB5EEC01AF1EEF5
:1057900010FA12DD01EE100AB8EEC00AB8EE411A96
:1057A00021EE081AC1EE201A00EE901AF8EE600AF7
:1057B00071EEA00A30EE600A11E001EE100AB8EEB8
:1057C000C00AB8EE411A61EE081A81EEA01A00EE86
:1057D000901AF8EE600A71EE200A30EEC00A4249D3
:1057E00010EE100A8842A2DAA06846706068A0F83D
:1057F000405073E74570E06890ED010A606880ED05
:10580000020A2046FCF7E4FB68E7FFE74178B9B9F4
:105810004079E8B36069007A90B12168096891ED38
:10582000040AF8EEC00A00EE100A6068B8EE400AFA
:1058300040EE080ABDEEE00A80ED030AA06846705B
:1058400020689FED2A1A006890ED040A6068F8EE5F
:10585000C01AD0ED030AB8EEE02A32EE012AF4EEC7
:10586000C21AF1EE10FA33D8F8EEE00AB8EEC00A28
:1058700070EEC10AB4EEE00AF1EE10FA28DB2069FE
:105880000570A068457060690572A068407900E005
:1058900001E080B119E02068006890ED040A6068BA
:1058A000B8EEC00A30EE080ABDEEC00A80ED030A69
:1058B000A0684670C4E76069C18901826069408A56
:1058C000081A022801DBA068C6716069C18941829B
:1058D0002046FCF769FB01E70000000000803BC5A3
:1058E0000024104700F0D2450000C8420000C84222
:1058F00070B5044620680068216901250A78012AEC
:1059000011D04A78012A02D0897801290AD1C82207
:10591000D0F8C4329FED0A0A01219847002801D02F
:10592000A068C57070BDC822D0F8C4329FED050ACA
:10593000022198470028F5D0A068C57070BD00000E
:105940000000FA440000BE4270B504460025207EE7
:105950009FED190A002816D001281FD002281CD15B
:10596000E06890ED000A606880ED000AE06890ED64
:10597000000A6068B1EE400A80ED010A2046BDE8E9
:105980007040FCF71FBC606885846068C5846068EF
:1059900080ED000A606880ED010A70BD606880EDEE
:1059A000000A606880ED010A2046FCF70BFC2069C4
:1059B00045702069057070BD0000000010B50446F8
:1059C00020684068D0F89812884720688068D0F82E
:1059D0009812884720680068D0F89812BDE81040F7
:1059E0000847000002680021126811610122427616
:1059F00042681185426891844268D184426911727B
:105A00004269116042695160026911700269517006
:105A10008268D1708268917082681170826851705A
:105A2000C168B2EE040A81ED020AC168B4EE000A50
:105A300081ED030AC1689FED340A81ED040AC16853
:105A400081ED050AC168DFED310AC1ED060AC168C2
:105A50009FED2F1A81ED071AC1689FED2E2A81ED67
:105A6000082AC168B3EE041A81ED091AC168F6EE7E
:105A7000001AC1ED0A1AC168C1ED0B1AC16881EDA7
:105A80000C0AC168C1ED0D0AC168C1ED0E0AC168FA
:105A900081ED0F2AC16881ED101AC168F5EE001A78
:105AA000C1ED111AC16881ED120AC16881ED130AB6
:105AB000C168C1ED140AC168DFED170AC1ED150A0E
:105AC000C168DFED160AC1ED160AC168DFED141AD0
:105AD000C1ED171AC168F7EE001AC1ED181AC168B6
