:020000040800F2
:10000000B071002031030008116F0008A14D0008F5
:10001000B96100086B0B00084D8900080000000062
:100020000000000000000000000000007102000855
:10003000191E000800000000CD020008DD82000843
:100040004B0300084B0300084B0300084B03000858
:100050004B0300084B0300084B0300084B03000848
:100060004B0300084B0300084B0300084B03000838
:10007000AD1900084B030008B91900084B0300082C
:10008000C51900084B0300084B0300084B03000888
:10009000950B00084B0300084B0300084B030008B6
:1000A0004B0300084B0300084B0300084B030008F8
:1000B000B58300084B0300084B0300084B030008FE
:1000C0004B0300084B0300084B0300084B030008D8
:1000D0004B0300080588000859880008C9880008F3
:1000E0004B0300084B0300084B0300084B030008B8
:1000F0004B0300084B0300084B0300084B030008A8
:100100004B0300084B0300084B0300084B03000897
:100110004B0300084B0300084B0300084B03000887
:100120004B030008D1190008DD1900084B03000833
:100130004B0300084B0300084B0300084B03000867
:10014000790D00084B0300084B0300084B0300081F
:100150004B030008E9190008F51900083589000863
:100160004B0300084B0300084B0300084B03000837
:100170004B0300084B0300084B030008000000007D
:100180004B0300084B03000800F002F800F060F891
:100190000AA090E8000C82448344AAF10107DA45E2
:1001A00001D100F055F8AFF2090EBAE80F0013F0D4
:1001B000010F18BFFB1A43F001031847242A01005E
:1001C000442A01000A444FF0000C10F8013B13F0E0
:1001D000070408BF10F8014B1D1108BF10F8015BA0
:1001E000641E05D010F8016B641E01F8016BF9D193
:1001F00013F0080F1EBF10F8014BAD1C0C1B09D1EA
:100200006D1E58BF01F801CBFAD505E014F8016B5B
:1002100001F8016B6D1EF9D59142D6D370470000ED
:100220000023002400250026103A28BF78C1FBD8FF
:10023000520728BF30C148BF0B6070471FB50FF091
:100240006EFD9DE8030000F03FFA1FBD10B510BD24
:1002500000F0A6FA1146FFF7F1FF0CF0BBF800F032
:10026000C4FA03B4FFF7F2FF03BC00F0F5FA000094
:100270002C4B19680868B0E8F04F80F30988BFF389
:100280006F8F4FF0000080F311887047000000006E
:1002900008480068006880F308884FF0000080F389
:1002A000148862B661B6BFF34F8FBFF36F8F00DF64
:1002B00000BF00BF08ED00E0DFF80C00016841F46A
:1002C00070010160704700BF88ED00E0EFF3098026
:1002D000BFF36F8F134B1A681EF0100F08BF20ED8D
:1002E000108A20E9F04F106009B44FF0500080F3FD
:1002F0001188BFF34F8FBFF36F8F0EF045FB4FF0A8
:10030000000080F3118809BC19680868B0E8F04F54
:100310001EF0100F08BFB0EC108A80F30988BFF3FD
:100320006F8F704710230020EFF3058070470000A7
:100330000948804709480047FEE7FEE7FEE7FEE779
:10034000FEE7FEE7FEE7FEE7FEE7FEE704480549B5
:10035000054A064B70470000A58300088901000884
:10036000B06B0020B0710020B06D0020B06D002097
:1003700070B5064600F08CF9056806F10B0020F018
:100380000704B4429CBF002070BD2B466A68BAB116
:100390001068A04210D304F1080188423CBF5068A5
:1003A000586007D35168101941601168091B01603A
:1003B00058601460101D70BD13465268002AE7D1C2
:1003C0002146284600F06CF90028DED170BD70B5DA
:1003D0000446051F00F05CF90068002C14BF446857
:1003E00070BD002C18BFAC423CBF20466468F8D3F7
:1003F00001680A18AA4218BF456003D12A68054659
:100400001144016028684119A1421CBF6C6070BD95
:100410006168696021680844286070BD53EA020C75
:1004200000F069802DE9F04B4FF00006002B1FBF54
:10043000B3FA83F503FA05F424FA05F65E4012BF19
:100440001643B2FA82F502FA05F4C5F120051EBF83
:1004500022FA05FC44EA0C04203556EA044C4FEA23
:10046000144418BF641C4FF000084FF0000990427C
:1004700071EB030C39D3002919BFB1FA81F701FAE6
:1004800007F6B0FA80F700FA07F6C7F120071EBF9B
:1004900020FA07FC46EA0C062037B6FBF4FCA7EB73
:1004A0000507103F07F01F0BCBF120060CFA0BFBE2
:1004B0002CFA06F644BFB3460026202FA4BF5E46A2
:1004C0004FF0000B5BEA060C08BF4FF0010B19EB75
:1004D0000B09ABFB027C48EB0608C01B06FB02CCF9
:1004E0000BFB03CC71EB0C01C1E70B460246414606
:1004F0004846BDE8F08B13B54FF000004FF0000107
:10050000AFF30080BDE81C407047032A40F2308002
:1005100010F0030C00F0158011F8013BBCF1020F44
:10052000624498BF11F801CB00F8013B38BF11F8C5
:10053000013BA2F1040298BF00F801CB38BF00F8DC
:10054000013B11F0030300F02580083AC0F0088059
:1005500051F8043B083A51F804CBA0E80810F5E73D
:10056000121D5CBF51F8043B40F8043BAFF3008020
:10057000D20724BF11F8013B11F801CB48BF11F895
:10058000012B24BF00F8013B00F801CB48BF00F865
:10059000012B704710B5203AC0F00B80B1E818501D
:1005A000203AA0E81850B1E81850A0E81850BFF45D
:1005B000F5AF5FEA027C24BFB1E81850A0E81850FC
:1005C00044BF18C918C0BDE810405FEA827C24BF50
:1005D00051F8043B40F8043B08BF7047D20728BFDE
:1005E00031F8023B48BF11F8012B28BF20F8023B2D
:1005F00048BF00F8012B70474FF000020429C0F0FB
:10060000128010F0030C00F01B80CCF1040CBCF144
:10061000020F18BF00F8012BA8BF20F8022BA1EB96
:100620000C0100F00DB85FEAC17C24BF00F8012B7B
:1006300000F8012B48BF00F8012B70474FF0000273
:1006400000B5134694469646203922BFA0E80C50C8
:10065000A0E80C50B1F12001BFF4F7AF090728BFA3
:10066000A0E80C5048BF0CC05DF804EB890028BF1F
:1006700040F8042B08BF704748BF20F8022B11F048
:10068000804F18BF00F8012B7047704770477047C4
:1006900000487047586B002070477047704770479C
:1006A00038B504460A4600206946AFF300800028AA
:1006B00008BF38BD02460099204600F04FF80120DF
:1006C00038BD012000F064B8F8B5AFF300800546EE
:1006D00000200C46102000BF0646A819A0420DD9E4
:1006E000324669460020AFF30080070008BF00F0E3
:1006F0004FF80098A04218BF0546C419FFF7C8FF7D
:1007000005600746F01D20F007004619284600F056
:100710000AF8B44208BFF8BDA21B31463868BDE8EC
:10072000F84000F01BB800210160C0E901107047DB
:100730001020704710B500F00DF8006810BD10B51E
:10074000044600F007F8046010BD00000048704740
:10075000506B002000487047506B002003464068F3
:100760008C46002818BF88423CBF03464068F8D337
:1007700018681844884207D00CF1030020F00700E5
:10078000001D411A521A0146081D0A60FFF71FBEDC
:1007900010B500F039F8BDE8104000F02FB87047F0
:1007A0007546FFF7D3FFAE4605006946534620F075
:1007B0000700854618B020B5FFF7C8FDBDE820400A
:1007C0004FF000064FF000074FF000084FF0000B0D
:1007D00021F00701AC46ACE8C009ACE8C009ACE8C0
:1007E000C009ACE8C0098D46704710B50446AFF3A8
:1007F00000802046BDE81040FFF733BD002801D03F
:1008000000F02AB87047000010B5012805D000217B
:1008100003A000F027F8012010BD09A1F8E70000AF
:1008200053494752544D454D3A204F7574206F66D9
:100830002068656170206D656D6F72790000000041
:100840003A2048656170206D656D6F727920636F25
:10085000727275707465640001491820ABBEFEE7C2
:100860002600020070B505460C460A2000E06D1C0B
:1008700000F011F835B128780028F8D102E0641CA6
:1008800000F009F814B120780028F8D1BDE87040D4
:100890000A20AFF3008008B569468DF800000320F8
:1008A000ABBE08BD10B504462DED088B82B094EDAB
:1008B000336AD4ED346A94ED350AF6EE000A60EE40
:1008C000203A94ED223AD4ED232A94ED242AD4ED53
:1008D000251A94ED047A94ED054AD4ED064A94ED78
:1008E000079AD4ED088A94ED098A27EE040A20EECF
:1008F000240AB5EEC00AF1EE10FA7DD023EE030A09
:1009000002EEA20A02EE020A01EEA10A0BF07EFC40
:1009100023EE003A62EE802A22EE002A61EE801A6F
:1009200027EE070A04EE040A04EEA40A0BF06EFC9C
:1009300027EE007A64EE009A24EE801A22EEA10AD5
:10094000B0EE00AA03EE420A20EE0A5A23EE220A73
:1009500002EE210A20EE0A0A63EE030A42EEE20AE0
:1009600042EE420A41EEA10A29EEA04A01EE404AB7
:1009700021EE051A07EE601A67EE004A49EEC54AF5
:10098000624890ED010A04EE260A80ED010AD0EDDE
:10099000020A41EE260AC0ED020A90ED035A04EE67
:1009A000A65A80ED035A06EE049A39EE000A46EE86
:1009B000018A78EEA00A06EE248A38EE051AB1EE16
:1009C000624AF0EE437A24EE004A02EE604A01EEFB
:1009D000C14A44EE237A23EE004AF0EE625A02EE58
:1009E000014A01EEE04A44EE235A23EE204A02EE89
:1009F000C14A01EE804A00E083E0B0EE425A04EEC4
:100A0000235A23EE011A02EEA01A02EE401A41EE1A
:100A1000231A27EEA70A05EEA50A05EE050A01EE40
:100A2000A10A0BF0F3FB67EE809A25EE808A65EE53
:100A3000008A21EE809AC4ED229A84ED238AC4EDC7
:100A4000248A84ED259A28EE0A0A29EE8A1A60EE95
:100A500009AA41EE68AAB7EE000A0AEEEA0AB5EE64
:100A6000C00AF1EE10FA04DBF1EEC00ACDED010A86
:100A700003E09FED270A8DED010A69EEA90A28EE31
:100A80008A0A04F16000B0EE60BA48EE480A20EE2F
:100A9000090A01EE080A48EEE80A49EE090A09F0D7
:100AA00073FB04F15C00DDED010AB0EE6A0A09F0A7
:100AB0006BFBF0EE4B0A28EE280A48EE080A04F118
:100AC000580009EE890A48EEE80A20EE0A0A49EEC3
:100AD000490A09F059FBD4ED180A9FED0E0A60EEA1
:100AE000800AC4ED180AD4ED170A9FED0B1A60EEC8
:100AF000810AC4ED170AD4ED160A20EE800A84EDAF
:100B0000160A02B0BDEC088B10BD0000B021002019
:100B100000000000DF2E6542DF2E65C230B50546BD
:100B20000C46002D0CD0022C0AD90648A11E428882
:100B3000284601F09DFB291901F8020D000A4870B2
:100B400030BD00001000002030B505460C46002DD9
:100B50000AD0022C08D9601E81B2FF22284601F07B
:100B60009FFB291901F8010C30BDFEE700B58BB0E1
:100B700001A800F0B5F901A9054801F0F7FE02212E
:100B8000034801F06FFE024802F03FFA0BB000BDCF
:100B9000D8250020014801F0FBBF0000D825002027
:100BA00070B5174C40F2FF1525600025A560E56083
:100BB00008262661134C060A26706070080AA07089
:100BC000E170100A20716271180AA071E3710020AF
:100BD000215C09B9401CC0B208280FD0401CC0B22B
:100BE0000828F5D3074B074A0C3B0549064801F096
:100BF0004BFE04490C39CD600D6170BD002070BD05
:100C0000A42B002010030020D825002070B5174C1D
:100C10004FF4007525600025A560E5600826266173
:100C2000134C060A26706070080AA070E170100A62
:100C300020716271180AA071E3710020215C09B96A
:100C4000401CC0B208280FD0401CC0B20828F5D301
:100C5000074B06491B1F1A1D064801F015FE0449E3
:100C6000091F4D608D6070BD002070BDA42B002059
:100C700008030020D825002070B5314A40F2031542
:100C8000A0F203149368A8424CD010DC03283BD098
:100C9000A5284ED0A0F58072013A3CD0012A1BD184
:100CA000BDE8704080B20A46014625481847002634
:100CB000244DFE2C11D0FF2C16D0B4F5807F1BD014
:100CC000A4F58074013C07D1D5F8043B082205F651
:100CD0006400984785F87A6870BDD5F8A03208227C
:100CE00018489847AE7570BDD5F86C35082216487F
:100CF000984785F8E26270BDD5F838380822134865
:100D0000984785F8AE6570BDBDE8704080B20A4670
:100D100001460B481847BDE8704080B20A460146BC
:100D200007481847BDE8704080B20A4601460448AB
:100D30001847BDE8704080B20A460146004818478F
:100D4000D81C00207C030020480600201409002045
:100D500000B58BB001A800F0C3F801A9054801F067
:100D600005FE0221034801F07DFD024802F04DF925
:100D70000BB000BD00260020014801F009BF0000B3
:100D80000026002070B5174C40F2FF1525600025A5
:100D9000A560E56008262661134C060A267060707F
:100DA000080AA070E170100A20716271180AA0711F
:100DB000E3710020215C09B9401CC0B208280FD0A3
:100DC000401CC0B20828F5D3074B074A343B0549FD
:100DD000064801F059FD044934394D638D6370BDF7
:100DE000002070BDA42B0020380300200026002026
:100DF00070B5174C4FF4007525600025A560E560BF
:100E000008262661134C060A26706070080AA07036
:100E1000E170100A20716271180AA071E37100205C
:100E2000215C09B9401CC0B208280FD0401CC0B2D8
:100E30000828F5D3074B074A2C3B0549064801F023
:100E400023FD04492C39CD620D6370BD002070BDB7
:100E5000A42B0020300300200026002070B51A4E7D
:100E6000A0F20120002506F5805406280BD2DFE809
:100E700000F00B03130A231BD4F83436082213485E
:100E8000984784F8AA5370BDD4F8683308221048F4
:100E9000984784F8DE5070BDD4F8003908220D4818
:100EA000984784F8765670BDD4F89C3008220A48DA
:100EB000984786F8125E70BDD6F8D03D08220748E4
:100EC000984786F8465B70BD7C0300201017002011
:100ED00044140020DC19002078110020AC0E002002
:100EE0000021016041608160C160016141618161F7
:100EF0000122C2610262416270474178007841EA92
:100F0000002070474179007941EA002000B2704723
:100F1000C178807841EA002000B27047807970473C
:100F20004179007941EA002000B2704710B5124AB9
:100F3000016891420DD1114B00211C46A3F11C0206
:100F400001F09DFD0D4821461C380068FFF794FE16
:100F500010BD0B4A9142FBD1084B002124331C46A3
:100F6000A3F11C0201F08BFD044821460830006803
:100F7000FFF774FF10BD000000640040D02C00207B
:100F80000068004010B588B00C4C0368A34205D03F
:100F90000B4CA34202D0012008B010BD02910021E9
:100FA000049105910821069101AB02A901F06CFCA6
:100FB00008B10120F0E70020EEE7000000640040E7
:100FC0000068004010B5044660680068D0F89812C8
:100FD000884760684068D0F89812884760688068E1
:100FE000D0F8981288476068C068D0F89812BDE8B9
:100FF0001040084781689FED0A0B81ED000B816866
:1010000081ED020B816881ED040B8268002111855E
:1010100082685185826891858068C185704700002B
:10102000000000000000000070B53B4C2468B4F8DC
:10103000154000EE904AF8EE600A9FED381AF4EE83
:10104000C00AF1EE10FA01DDF0EE400AC0EE801A9F
:10105000F4EEC00AF1EE10FA02D221EEA10A01E08C
:10106000B7EE000A01D220EE011AB0F90040002CC0
:1010700001DD264600E06642B1F90050002D00DC9B
:101080006D422E44B2F90050002D00DC6D422E441A
:10109000B3F90050002D00DC6D42354400EE105ACB
:1010A000F8EEC00A81EE200AF4EEC10AF1EE10FA61
:1010B00031DB00EE904AF8EEE00A60EE800AFDEEC9
:1010C000E00A10EE904A0480B1F9000000EE900AA8
:1010D000F8EEE00A60EE800AFDEEE00A10EE900AFB
:1010E0000880B2F9000000EE900AF8EEE00A60EE27
:1010F000800AFDEEE00A10EE900A1080B3F90000BD
:1011000000EE900AF8EEE00A20EE800ABDEEC00A7A
:1011100010EE100A188070BDD81C002000803B47DC
:101120002DE9F04104466068016845688668C76833
:101130002278A068002A44D0B0F92000D1F8B0226B
:1011400000EE100A0846B8EEC00A9047BDEEC00A8D
:10115000A16810EE100A0885A068D5F8B012B0F9A1
:10116000220000EE100A2846B8EEC00A8847BDEEFD
:10117000C00AA16810EE100A4885A068D6F8B0121F
:10118000B0F9240000EE100A3046B8EEC00A8847D5
:10119000BDEEC00AA16810EE100A8885A068D7F8D5
:1011A000B012B0F9260000EE100A3846B8EEC00AB8
:1011B0008847BDEEC00AA16810EE100AC885BDE8D8
:1011C000F08100210185A0684185A0688185A06823
:1011D000C185F4E770B504462DED088BE74800683B
:1011E000408900EE100AB8EE400ADFEDE50AE54D51
:1011F00020EE200A85ED0C0AE348E44900780978DE
:10120000084221D0E248E349D0ED000A10EE900AEE
:10121000884206DDDFEDE00A30EE200A85ED050AA2
:1012200014E010EE900ADD4988420ADDB2EE041A9D
:1012300070EEC10A9FEDDA1A00EE810A85ED050A0B
:1012400004E085ED050A01E085ED050A0021204650
:1012500009F0CCFEB0EE408A0121204609F0C6FE1E
:10126000F0EE408A0221204609F0C0FEB0EE409A1E
:101270000321204609F0BAFEDFEDCA1A6BEE210AFF
:101280009FEDC91A48EE010A2AEEA18A08EE818A6A
:101290006AEE218A49EE018A29EEA19A00EE019AAE
:1012A00030EE880A30EE280A30EE091AD5ED051A1C
:1012B000B4EEE11AF1EE10FA0AD295ED060A85EDC8
:1012C0000B0AB7EE000A85ED060ABDEC088B70BD6F
:1012D00095ED062A85ED0B2A81EE810A85ED060A39
:1012E000B5EEC00AB14EF1EE10FA7CDD9FEDB01AFA
:1012F00022EE011ADFEDAF1A00EE211A85ED061A73
:10130000F5EEC00AF1EE10FA42DD60EE819A94ED3E
:10131000261B51EC110B0DF089FE94ED1E1B0AEEFD
:10132000100A51EC110B0DF081FE94ED161B0AEE24
:10133000900A51EC110B0DF079FE94ED0E3B0BEE83
:10134000100A51EC130B0DF071FE01EE100AB0689B
:10135000F0EE4A2AB0EE6A2AB0F92800F0EE4B1AF5
:1013600000EE100A7068F0EE690AB8EEC03A006844
:10137000B0F9020000EE100AB8EEC00A09F074FDE0
:1013800085ED070ABDEEC00AB16810EE100A0885A7
:10139000B5EEC08AF1EE10FA46DD95ED060A28EEAC
:1013A000008A94ED281B51EC110B0DF03FFE94EDDB
:1013B000201B09EE900A51EC110B0DF037FE94ED55
:1013C000181B0AEE100A51EC110B0DF02FFE94EDD4
:1013D000103B0AEE900A51EC130B0DF027FE01EEC4
:1013E000100AB06800E0B5E0B0F92A00F0EE692A12
:1013F00000EE100A7068B0EE4A2AB8EEC03A4068B3
:10140000F0EE6A1AF0EE480AB0F9020000EE100A97
:10141000B8EEC00A09F028FD85ED080ABDEEC00A45
:10142000B16810EE100A4885F5EEC08AF1EE10FAA8
:1014300044DD95ED060A28EE808A94ED2A1B51ECD6
:10144000110B0DF0F3FD94ED221B08EE900A51EC08
:10145000110B0DF0EBFD94ED1A1B09EE900A51EC07
:10146000110B0DF0E3FD94ED123B0AEE100A51EC66
:10147000130B0DF0DBFD01EE100AB068F0EE682AE8
:10148000B0EE692AB0F92C00F0EE4A1A00EE100A0C
:101490007068F0EE480AB8EEC03A8068B0F9020011
:1014A00000EE100AB8EEC00A09F0DEFC85ED090A6C
:1014B000BDEEC00AB16810EE100A8885B5EEC09A7C
:1014C000F1EE10FA7FF701AF95ED060A29EE008ADA
:1014D00094ED2C1B51EC110B0DF0A8FD94ED241B89
:1014E00008EE900A51EC110B0DF0A0FD94ED1C1BC1
:1014F00009EE100A51EC110B0DF098FD94ED143B20
:1015000009EE900A51EC130B0DF090FD01EE100A5C
:10151000B068F0EE682AB0EE492AB0F92E00F0EE7D
:10152000691A00EE100A7068F0EE480AB8EEC03A88
:10153000C068B0F9020000EE100AB8EEC00A09F067
:1015400093FC85ED0A0ABDEEC00AB16810EE100AE0
:10155000C885BAE69FED180A85ED060A85ED070AEB
:1015600085ED080A85ED090A85ED0A0AB0680021B3
:10157000018541858185C185A7E60000D81C002032
:101580003333733FD000002059030020AB0200200A
:10159000600300200000704100003E430000204135
:1015A000000018429A99193FCDCCCC3E740100201E
:1015B000CDCC4C3FCDCC4C3E00000000704700002D
:1015C0002DE9F04104462DED0A8BE06890ED02AA6A
:1015D000A56895ED000B51EC100B0DF027FD0AEE00
:1015E000900A95ED020B51EC100B0DF01FFD0BEE68
:1015F000100A95ED040B51EC100B0DF017FD00EEE9
:10160000100A20780027CD4E012811D17AEE8B0ADE
:1016100030EE808A7BEE6A0A70EE808A7AEECB0A20
:1016200030EE809AF1EE6A0A70EECB0A70EE809A84
:10163000286BB0F90010494200EE101AB8EEC01A3B
:10164000B0F90210494200EE101AF8EEC01AB0F9D3
:101650000410494200EE101AB8EEC00AB0F90610A4
:10166000494200EE901AF8EEE00A31EE612A32EEBD
:10167000002A72EE602AB5EE002A62EE822AC0EDE0
:10168000022A31EE211AA06871EE401A006B71EE49
:10169000E01A61EE821AC0ED031A31EE000AA0686A
:1016A00030EE200A006B20EE020A80ED040AA068EA
:1016B000006B8568C0680EF08BFA41EC100B9FED53
:1016C000A0CBB0EE4C1AF0EE6C1A07F04DFAB0EE6B
:1016D00040BAF0EE60BA28460EF07AFA41EC100BF0
:1016E000B0EE4C1AF0EE6C1A07F03EFA53EC1B2BDE
:1016F00051EC100B0DF0CCFC41EC100B08F0C0F8D5
:1017000051EC100B0DF092FCA1680546096B486185
:10171000A06890ED060B9FED8C1B51EC100B53EC69
:10172000112B0EF06BF941EC1B0B28460EF050FA12
:1017300053EC1B2B0DF01AFF02D20120307016E083
:10174000A56895ED060B9FED821B51EC100B53EC39
:10175000112B0EF053F941EC1B0B286B40690EF076
:1017600037FA53EC1B2B0EF03BF800D23770307871
:1017700001287DD0778060680068B0F9040000EE31
:10178000100AA068B8EEC00A006B80ED060A1AEED7
:10179000100A0EF01DFA41EC1B0B18EE100A0EF0A9
:1017A00017FA41EC100B07F0AFF953EC1B2B51EC7F
:1017B000100B0EF015F83ED31AEE100A0EF008FAD0
:1017C00041EC1B0B18EE900A0EF002FA41EC100BE4
:1017D00007F09AF953EC1B2B51EC100B0EF000F8AC
:1017E00029D31AEE100A0EF0F3F941EC1B0B19EE97
:1017F000100A0EF0EDF941EC100B07F085F953ECEF
:101800001B2B51EC100B0DF0EBFF14D31AEE100A4A
:101810000EF0DEF941EC1B0B19EE900A0EF0D8F930
:1018200041EC100B07F070F953EC1B2B51EC100B33
:101830000DF0D6FF53D219EE900A0EF0C9F941EC23
:10184000100B07F061F951EC100B0DF0EFFB0AEEF5
:10185000900A19EE100A0EF0BBF941EC100B07F0DC
:1018600053F951EC100B0DF0E1FB00EE100A00E013
:1018700059E0F0EE6A0A07F051F9F0EE40AA18EECE
:10188000900A0EF0A5F941EC100B07F03DF951EC70
:10189000100B0DF0CBFB00EE100AF0EE6A0A07F019
:1018A0003DF9F0EE40AA18EE100A0EF091F941EC65
:1018B000100B07F029F951EC100B0DF0B7FB00EEFF
:1018C000100AF0EE6A0A07F029F9CAEE000A28EEBB
:1018D000208A68EEA08A29EE209A69EEA09AB1EEDD
:1018E000480AA168BDEEC00A10EE100A0884B1EEE5
:1018F000680AA168BDEEC00A10EE100A4884B1EE75
:10190000490AA168BDEEC00A10EE100A8884B1EE43
:10191000690AA168BDEEC00A10EE100AC884BDECC9
:101920000A8BBDE8F0817088401C80B27080C828A6
:101930007FF621AF377077801DE70000900100200F
:101940000000000000000040000000000040AF4028
:101950000000000000709740416882680968126BBF
:1019600049881180416882684968126B49885180B2
:10197000416882688968126B4988918041688068F3
:10198000C968006B4988C180704710B5044620467D
:10199000FFF7E2FF2046FFF713FE2046FFF7C0FBEC
:1019A0002046BDE81040FFF709BE0000014801F0E5
:1019B000B9BB0000CC280020014801F0B3BB0000F7
:1019C0002C290020014801F0ADBB00006C2800204C
:1019D000014801F0A7BB00008C290020014801F05C
:1019E000A1BB0000AC270020014801F09BBB000018
:1019F000EC290020014801F095BB00000C280020D4
:101A00002DE9F04F099E00248568802D18D0A24D45
:101A1000C563A24D456490F83450012D15D00125C1
:101A200080F8345090F83550012D10D0002180F806
:101A300034100224002180F834102046BDE8F08FD5
:101A40004FF4807141650120F8E70220F6E7022596
:101A500080F835500025456505682F6847F48027D4
:101A60002F6005682B6103685E608368402B25D07A
:101A7000036899600168CA608A4D8A4E884FDFF812
:101A800020E2EA14DFF81CC2DFF81482DFF81492B7
:101A9000DFF80CA201687836303793020CF1300C75
:101AA000A8F1180809F190090AF1480A4FF0006BF3
:101AB00071453BD9A94206D1202233E003689A60E0
:101AC0000268D160D8E7764D483DA94201D1202275
:101AD00028E0744D6035A94201D1202222E0704DEA
:101AE0001835A94201D120221CE06E4D1835A942BB
:101AF00018D06B4D303DA94214D0B14212D0B9423A
:101B000010D0614501D11A460CE0414501D11A4679
:101B100008E0494501D11A4604E0514501D11A4671
:101B200000E05A465E494C390A60AFE0DFF874E1E4
:101B30000EF1A80E714536D9A94201D120222EE01E
:101B4000574D483DA94201D1202228E0554D60352E
:101B5000A94201D1202222E0514D1835A94201D1DC
:101B600020221CE04F4D1835A94218D04C4D303D75
:101B7000A94214D0B14212D0B94210D0614501D16E
:101B80001A460CE0414501D11A4608E0494501D109
:101B90001A4604E0514501D11A4600E05A46404930
:101BA00050390A6072E0DFF8FCE00EF1480E714532
:101BB00036D9A94201D120222EE0394D483DA94213
:101BC00001D1202228E0374D6035A94201D12022E1
:101BD00022E0334D1835A94201D120221CE0314DBD
:101BE0001835A94218D02E4D303DA94214D0B1422B
:101BF00012D0B94210D0614501D11A460CE04145DE
:101C000001D11A4608E0494501D11A4604E0514580
:101C100001D11A4600E05A4622491039CA6035E01F
:101C2000A94201D120222EE01D4D483DA94201D1FB
:101C3000202228E01B4D6035A94201D1202222E05C
:101C4000174D1835A94201D120221CE0154D183539
:101C5000A94218D0124D303DA94214D0B14212D041
:101C6000B94210D0614501D11A460CE0414501D17D
:101C70001A4608E0494501D11A4604E0514501D110
:101C80001A4600E05A46074910398A6001680A6816
:101C900042F001020A60CDE641B4000859B40008E0
:101CA00058640240106002400168CAB2103A18231A
:101CB000B2FBF3F2064B9B5CC3656FF30901032A89
:101CC00002D9091D816500E08165806D70470000C3
:101CD0000C2A010810B5014600208A6A8B694FF072
:101CE000C074002B0ED0B3F5005F1AD062B3012A86
:101CF0002AD0022A28D0032A03D1C96AC90100D5F3
:101D0000012010BD1AB1012A06D0022AF9D1C96AF0
:101D1000C901F6D5012010BDC96AA142FBD101203D
:101D200010BD52B1012A0AD0022A06D0032AF7D1E7
:101D3000C96AA142F4D1012010BD012010BDC96AB9
:101D4000C901FBD5012010BD012010BD30B50468CC
:101D5000256825F480252560046863608368402B2E
:101D600004D0036899600068C26030BD03689A605F
:101D70000068C16030BD70B5002490F83450012D6A
:101D80000CD0012580F8345090F835600025012EE4
:101D900006D080F834500224204670BD022070BD69
:101DA000022680F83560456505682E6826F4802691
:101DB0002E6005686B608368402B09D003689960CA
:101DC0000168CA600068016841F001010160E3E751
:101DD00003689A600268D160F4E701680A68D20675
:101DE00004D5C968C90601D50CF010BC7047F0EEE7
:101DF000401AB0EE600A71EEC00AF5EEC00AF1EECC
:101E000010FA01DC70EE610AF4EEC10AF1EE10FA8C
:101E100001D3B0EE610A70477047000070B55348B7
:101E2000806880475248C1688847524D2846D5F897
:101E300094128847D5F8601505F533708847D5F8B2
:101E40002C1805F5B3608847D5F8F81A05F6640034
:101E50008847D5F8C41D05F533608847464CA4F57E
:101E6000257021688847D4F8981504F54170884793
:101E7000D4F8CC1204F138008847D4F8641804F57B
:101E8000BA608847D5F89C223C4905F12C00904760
:101E90003A49D5F868251C31A4F69850904737493F
:101EA000D5F834283831A4F6CC2090473349D5F8FA
:101EB000002B5431A4F5006090473049D5F8CC2D63
:101EC0007031A4F5677090472C49D5F8CC2D8C3132
:101ED000A4F5787090472949A268A831A4F1D000F0
:101EE00090472649A268C431A4F58A7090472349D7
:101EF000D5F8CC2DE031A4F5457090471F49D5F8B1
:101F0000CC2DFC31A4F556709047A2681C49A4F171
:101F1000480090471A49A2681C31A4F18C009047F0
:101F20001749D4F8A025383104F54C70904714496E
:101F3000D4F8D422383104F1640090471049D4F821
:101F40006C28543104F2FC5090470D49D4F86C28A9
:101F5000703104F20C70904704F5D960D4F86C2805
:101F6000BDE8704006498C3110470000A41F0020D6
:101F7000601D00207C0300200C140020D81F0020CE
:101F8000F020002010B5044620680068616891EDDB
:101F9000030AD0F8A412B8EEC00A8847BDEEC00A02
:101FA000616810EE100A088510BD000070B5044687
:101FB00020680568B5F9020000EE100A6068B8EE06
:101FC000C00AD0ED020A30EE600AB5EEC00AF1EEAA
:101FD00010FA01DCB1EE400A206810EE102A0E4B18
:101FE0000068E16854309A4204DD5C311C22FEF73F
:101FF000D1FA03E040311C22FEF7CCFA6068D5F834
:10200000B01290ED020A28468847BDEEC00A61680A
:1020100010EE100A088570BD000048440EB590ED22
:10202000180AD0ED1B0A30EE600A8DED000A90ED23
:10203000170AD0ED1A0A30EE600A8DED010A90ED14
:10204000160AD0ED190A30EE600A8DED020A002161
:102050009FED122A6B4603EB8102F0EE420A92EDED
:10206000000A09F042FE82ED000A491CC9B20329A8
:10207000F1D3DDED000A9FED0A0A60EE800AC0EDA3
:102080001C0ADDED010A60EE800AC0ED1D0ADDEDDF
:10209000020A20EE800A80ED1E0A0EBD0000B44345
:1020A00000007A4410B502F063FF0E48D0F8141116
:1020B00088470A2001F0C0F9FEF758FDFEF748FEF8
:1020C00006F0ACFB06F0D4FB06F00AFC012003F09E
:1020D00073FE022003F070FEBDE81040032003F001
:1020E0006BBE0000C021002072B6FEE710B501688B
:1020F00000234A68546B254A94420CD98968496B7D
:10210000914208D981688A79012A04D18B71416989
:102110004A89521C4A8101684A6892ED0D0AB5EE5F
:10212000C00AF1EE10FA01DCB1EE400A10EE104ADE
:10213000174A944219DA896891ED0D0AB5EEC00A82
:10214000F1EE10FA01DCB1EE400A10EE101A9142E5
:102150000BDA41694A7A521CD2B24A721E2A04D959
:1021600082680121917141694B720168DFED090AB2
:102170004069096891ED040AB8EEC00A80EE201AA1
:10218000BCEEC10A10EE101A818110BD000048C3D8
:10219000000048430024104770B504462068456895
:1021A0008668606890ED040AD0ED000A30EE600A9F
:1021B00080ED070A606890ED050AD0ED010A30EE67
:1021C000600A80ED080A6068D0ED070AF5EEC00AE3
:1021D000F1EE10FA01DCF1EE600A10EE901A2348DD
:1021E00081420ADCB5EEC00AF1EE10FA01DCB1EE74
:1021F000400A10EE101A81420EDDE1681C222431E3
:1022000005F15400FEF7C6F9E1681C22243106F1FD
:102210005400FEF7BFF90DE0E1681C22083105F11A
:102220005400FEF7B7F9E1681C22083106F15400AA
:10223000FEF7B0F96068D5F8B01290ED000A2846B4
:102240008847BDEEC00A616810EE100A8884606895
:10225000D6F8B01290ED010A30468847BDEEC00AAC
:10226000616810EE100AC88470BD0000000048428A
:1022700010B503461046002B01D0084C0AE04FF67B
:10228000FF7010BD13F8012B4240D2B234F8122077
:1022900082EA1020491E4A1CF4D110BD78FF0008C4
:1022A00010B5054C03E010F8013B5340E25C491EB9
:1022B00089B2F8D2104610BD78FE000810B5044669
:1022C0006068026843688068E168496891ED050AC2
:1022D00081ED080A6169D1ED000AB2F9001000EE43
:1022E000101AE168B8EEC00A496830EEC00A81ED04
:1022F000000AB3F90010DFED290A00EE101AE168B8
:10230000B8EEC00A496830EEC00A81ED010AE16802
:1023100090ED1E0A496881ED020AE16890ED1D0A00
:10232000496881ED030AE16890ED160A496881ED7C
:10233000040AE16890ED170A496881ED050AE16831
:1023400090ED1D0A496881ED070AE16890ED1E0ACB
:10235000496881ED060A90ED1E0AE068406880ED4C
:10236000060A204600F08CF9204600F0B3F82069F8
:102370000078002811D1207801280ED00320207089
:10238000A1680868401C0860A168B0F5FA7F04D90C
:102390000020086021690120087010BD009093455D
:1023A00070B5044600252078012823D0022826D0C5
:1023B000032823D1204600F036FA204600F033F9F6
:1023C000E068406890ED010AB5EEC00AF1EE10FA3F
:1023D00001DCB1EE400A10EE102A27498A423CDCAB
:1023E00090ED000AB5EEC00AF1EE10FA1BDDF0EE3A
:1023F000400A1AE0E0680581E068458170BD20462A
:1024000000F0F2F9204600F0EFF8E068416800685B
:1024100091ED010A80ED010AE0689FED180A00685D
:1024200080ED000A70BDF1EE400A10EE900A88427D
:102430000EDD9FED131A70EE410AF5EEC00AF1EEC3
:1024400010FA01DC71EE400A10EE900A884204DCBA
:10245000216901200870A0680560E0684168006893
:1024600091ED040A80ED020AE0684168006891ED90
:10247000050A80ED030A70BD0000A04100000000C5
:102480000000804510B5044660680068D0F89812D6
:10249000884760684068D0F898128847606880680C
:1024A000D0F81C11BDE81040084700000269002167
:1024B0001170C2689FED060A126882ED000AC268B8
:1024C000126882ED010A826811608068416070477D
:1024D00000000000C0684168D1ED050A91ED010AD5
:1024E000B0EE402A91ED081ADFED341A61EE211AA0
:1024F0009FED331A40EE811ADFED322A9FED321A3A
:102500004FF08B4313E0B5EEC00AF1EE10FA02DD96
:10251000F7EE000A09E0B5EEC00AF1EE10FA02D2B9
:10252000FFEE000A01E0F0EE620A00EEC10AB5EE2D
:10253000C00AF1EE10FA02DDF0EE400A01E0F1EE21
:10254000400A10EE902A9A42DDDC81ED010A016812
:1025500091ED010A1D4B10EE102A9A4201DD9FED0C
:102560001C0A1C4B10EE102A9A4201D99FED1A0A40
:1025700081ED010A006890ED030ADFED180A82EE92
:10258000201ADFED170A71EEA00A71EE200AF4EEB0
:10259000C00AF1EE10FA01D2B0EE600ADFED110AC6
:1025A00071EEA00A71EE200AF4EEC00AF1EE10FA04
:1025B00001DDB0EE600A80ED030A7047CDCC4C3FE0
:1025C000CDCC4C3E000000000000004600800944D5
:1025D000008009440000BCC30000BCC33D0AB641F2
:1025E000EC518441AE47C1C170B505466868446886
:1025F0002846FFF76FFFE868D4F8B4320322016879
:10260000406891ED031AD0ED070A90ED050A04F534
:10261000137104F502709847BDEEC00AE96810EE28
:10262000100A488170BD70B5054668684468284640
:10263000FFF750FFE868D4F8B4320122016840681F
:1026400091ED011AD0ED030A90ED010A04F5E27153
:1026500004F5C0709847BDEEC00AE96810EE100A94
:10266000488170BD704710B504462046FFF726FE2E
:102670002046FFF795FE2046BDE81040FFF7F2BF69
:10268000C068436893ED040A9FED531A5349DFED88
:10269000541A13E0B5EEC00AF1EE10FA02DDF7EEBF
:1026A000000A09E0B5EEC00AF1EE10FA02D2FFEE20
:1026B000000A01E0F0EE610A00EEC10AB5EEC00AC0
:1026C000F1EE10FA02DDF0EE400A01E0F1EE400A10
:1026D00010EE902A8A42DDDC83ED040A036893ED54
:1026E000020A13E0B5EEC00AF1EE10FA02DDF7EED1
:1026F000000A09E0B5EEC00AF1EE10FA02D2FFEED0
:10270000000A01E0F0EE610A00EEC10AB5EEC00A6F
:10271000F1EE10FA02DDF0EE400A01E0F1EE400ABF
:1027200010EE902A8A42DDDC83ED020A436893EDC5
:10273000000A9FED2C1A4FF08B4213E0B5EEC00A51
:10274000F1EE10FA02DDF7EE000A09E0B5EEC00A7C
:10275000F1EE10FA02D2FFEE000A01E0F0EE610A9B
:1027600000EEC10AB5EEC00AF1EE10FA02DDF0EE9D
:10277000400A01E0F1EE400A10EE901A9142DDDCD1
:1027800083ED000A016891ED000A13E0B5EEC00A7E
:10279000F1EE10FA02DDF7EE000A09E0B5EEC00A2C
:1027A000F1EE10FA02D2FFEE000A01E0F0EE610A4B
:1027B00000EEC10AB5EEC00AF1EE10FA02DDF0EE4D
:1027C000400A01E0F1EE400A10EE900A9042DDDC92
:1027D00081ED000A704700000000B443000034435C
:1027E000000000000000004670B5054668680468F7
:1027F0002846FFF745FFE868D4F8B43203220168A1
:10280000406891ED021AD0ED060A90ED040A04F535
:10281000137104F502709847BDEEC00AE96810EE26
:10282000100A088170BD70B50546686804682846BE
:10283000FFF726FFE868D4F8B43202220168406846
:1028400091ED001AD0ED020A90ED000A04F5E27154
:1028500004F5C0709847BDEEC00AE96810EE100A92
:10286000088170BD90F82020012A07D0022A05D0E7
:10287000416A41F480214162012070470068426949
:102880000A43426100207047F0B590F82050046878
:10289000A468012D07D0022D05D0416A41F48021A2
:1028A00041620120F0BD04F0806504F0006635430C
:1028B00001D1E50053D5C4F301640125A5401D6095
:1028C0008B684FF4C0759BB1CE6805EB041733439A
:1028D0004E6843EAC6030668F3514FF4C2730768B3
:1028E00003EB04130E69FE50097D012909D00DE0A8
:1028F0000E88CB6805EB041743EA46530668F3518C
:10290000EBE70168CE5846F48076CE501179D37942
:10291000567941EA036193791B0443EA062319437C
:102920004FF4C676036806EB041699511178D378F4
:1029300041EA0361937852781B0443EA022211436F
:102940004FF4C473026803EB0413D150006805EB25
:102950000411425842F0010242500020F0BD416A89
:1029600041F4001141620120F0BD000010B590F863
:102970002020012A07D0022A05D0416A41F4802193
:102980004162012010BD3C4800F50070026842F031
:1029900001020260026822F47C52026002684B6A03
:1029A00042EA032202600A7D02F01F0301229A40DC
:1029B000C3699343C361A0F50070CB69B3B9D0F884
:1029C0000C329343C0F80C328C894B6864F31F437C
:1029D0004C6900EBC404C4F840320C890B6864F302
:1029E0001F434C6900EBC404C4F84432CB69012B8B
:1029F00016D1D0F80C321343C0F80C320C884B6857
:102A000064F31F434C6900EBC404C4F840320C89E2
:102A1000CB6864F31F434C6900EBC404C4F8443230
:102A20008B697BB1D0F804321343C0F804320B69D0
:102A300073B1D0F814321343C0F81432096A012973
:102A40000CD010E0D0F804329343C0F80432EEE723
:102A5000D0F814329343C0F81432EFE7D0F81C12C8
:102A60001143C0F81C12D0F8001221F00101C0F887
:102A70000012002010BD000000640040704770B5D7
:102A800090F82040012C07D0022C05D0416A41F477
:102A900080214162012070BD21B104682469A4072E
:102AA0002AD003E00468E468A4071FD04FF4D87468
:102AB000056804EB01142D5905F0040595600DB36C
:102AC00005682D59ED08556005682C5904F002047D
:102AD000D4604FF4DA74056804EB01142E5906F043
:102AE0000F06082E13D30825156114E0416A41F43E
:102AF00000114162012070BD416A41F40011416240
:102B0000012070BD05682D596D0D1560DCE72D594C
:102B100005F00F05156105682D59C5F30725956169
:102B200005682C59240C54614FF4DC72046802EBE4
:102B30000112A4581C700468A458240A5C7004682C
:102B4000A458240C9C700468A258120EDA704FF43A
:102B5000DE72046802EB0112A4581C710468A458C8
:102B6000240A5C710468A458240C9C710468A2585F
:102B7000120EDA7131B10068016941F02001016182
:102B8000002070BD0068C16841F02001C160F7E716
:102B90002DE9F05F0546002428684669D0F80490C6
:102BA0008768D0F80CA0D0F810B0D0F81880F107E2
:102BB00048D0F90714D001218160B80703D5284611
:102BC00000F050FA0CE0780702D54FF4006407E0FB
:102BD000380702D54FF4805402E0284600F041FA4D
:102BE000F80516D529684FF480708860B80503D5BC
:102BF000284600F039FA0CE0780502D544F4005478
:102C000007E0380502D544F4804402E0284600F08D
:102C10002AFAF80316D529684FF480308860B80383
:102C200003D5284600F022FA0CE0780302D544F4DC
:102C3000004407E0380302D544F4803402E028461B
:102C400000F013FA300707D55FEACA6004D544F4F0
:102C5000007429681020C86070074FF0080707D576
:102C60005FEA0A7004D52868C760284600F0B8F902
:102C7000B00706D52868C068800702D0284600F053
:102C8000B1F9700607D55FEACB6004D544F48064DF
:102C9000296810200861B00607D55FEA0B7004D5DB
:102CA00028680761284600F0ADF9F00606D52868C7
:102CB0000069800702D0284600F0A5F9B00308D5C6
:102CC0005FEAC96005D5296810204860284600F0F1
:102CD0009BF9F00307D55FEA097004D528684760BF
:102CE000284600F0C4F9300446D55FEA497040D563
:102CF000F00504D55FEAC87001D044F00104B005C6
:102D000004D55FEA887001D544F00204700504D54B
:102D10005FEA487001D544F00404300529D518F065
:102D2000700F26D008F07000402815D006DC10285F
:102D300009D020280AD0302816D10AE050280ED019
:102D4000602811D10EE044F008040DE044F01004B6
:102D50000AE044F0200407E044F0400404E044F0BA
:102D6000800401E044F480742868816921F07001D6
:102D70008161296804204860002C05D0686A2043DE
:102D800068622846FFF77AFEBDE8F09F70B50446FA
:102D9000002C03D094F8200010B104E0012070BD95
:102DA000204600F09DF82068016841F001010160B3
:102DB00000F04AFC054605260CE000F045FC401BEF
:102DC0000A2807D9606A40F40030606284F8206005
:102DD000012070BD20684068C007EED020680168FF
:102DE00021F00201016000F02FFC05460CE000F02C
:102DF0002BFC401B0A2807D9606A40F4003060624F
:102E000084F82060012070BD206840688007EED4FF
:102E1000207E01283FD02068016821F080010160F8
:102E2000607E01283DD02068016821F040010160EA
:102E3000A07E01283BD02068016821F020010160BC
:102E4000E07E012839D02068016841F0100101605E
:102E5000207F012837D02068016821F00801016037
:102E6000607F012835D02068016821F004010160ED
:102E7000D4E902010843D4E904121143084361680C
:102E8000491E08432168C86100206062012084F85F
:102E90002000002070BD2068016841F080010160C1
:102EA000BEE72068016841F040010160C0E720688A
:102EB000016841F020010160C2E72068016821F04B
:102EC00010010160C4E72068016841F00801016059
:102ED000C6E72068016841F004010160C8E700000E
:102EE0002DE9F04186B00446142101A8FDF7A6FBA8
:102EF000364B374ADFF8D08018682168344C0326F7
:102F00000227401C103200254FF0090C414527D103
:102F10001860012807D1106840F000701060106838
:102F200000F000700090206840F0080020602068E9
:102F300000F0080000900196029703950496CDF8E2
:102F400014C001A9234800F089FA002205211420A9
:102F500000F05EFC142000F04DFC06B0BDE8F081EE
:102F6000DFF874804145F8D1116841F0806111604B
:102F7000116801F0806100911860012807D1106884
:102F800040F000701060106800F000700090206841
:102F900040F002002060206800F0020000906020F5
:102FA0000190029703950496CDF814C001A90B482F
:102FB00000F054FA00220521402000F029FC4020B6
:102FC00000F018FCC9E70000006400400C0000207D
:102FD00030380240000C024000680040000402400B
:102FE00070470000054A0168914201D1FDF79EBF7C
:102FF000034A914201D1FDF799BF70470064004038
:103000000068004070477047704770B5044694F8F8
:103010002000012805D0606A40F400206062012091
:1030200070BD022084F820002068016821F00101B1
:10303000016000F009FB05460DE000F005FB401BB8
:103040000A2808D9606A40F400306062052084F8DC
:103050002000012070BD20684068C007EDD160628B
:1030600070BD704770477047704770477047704732
:103070002DE9F0410446A76D00F0E6FA054694F804
:1030800035000026022806D08020606584F8346070
:103090000120BDE8F0812068016821F0160101607F
:1030A0002068416921F080014161206C08B9A06C61
:1030B00020B12068016821F00801016020680168E2
:1030C00021F0010101600BE000F0BEFA401B052871
:1030D00006D9202034342062032060702670D8E79F
:1030E00020680068C007EFD134343F2094F82810DE
:1030F0008840B8600120607026700020C9E790F811
:103100003510022903D08021416501207047052137
:1031100080F835100068016821F00101016000208D
:10312000704700002DE9F84304464FF00009CDF840
:1031300000906F484FF416510068B0FBF1F7A56D91
:103140002E6894F85C00082202FA00F1314210D097
:103150002068016849070CD5016821F0040101606D
:1031600094F85C0002FA00F1A960606D40F0010083
:10317000606594F85C104FF0010808FA01F03042E5
:1031800008D021684969090604D5A860606D40F03F
:103190000200606594F85C1004208840304208D03A
:1031A00021680968890704D5A860606D40F00400B3
:1031B000606594F85C1010208840304220D021686F
:1031C000096809071CD5A8602068016849030CD567
:1031D0000068000304D4216C91B1204688470FE0B9
:1031E000A16C69B1204688470AE00168C90503D48B
:1031F000016821F008010160216C09B1204688476F
:1032000094F85C102020884030424CD02168096836
:10321000C90648D5A86094F8350005280BD0206869
:103220000168490330D50068000328D4616C51B3AC
:103230002046884737E02068016821F016010160C8
:103240002068416921F080014161206C08B9A06CBF
:1032500020B12068016821F00801016094F85C1039
:103260003F208840A86084F8358084F83490216D30
:1032700000293BD001B02046BDE8F0430847E16B90
:1032800009B1204688470EE00168C90507D40168E6
:1032900021F01001016084F8358084F83490E16BEE
:1032A00009B120468847606D00281FD0606DC007B7
:1032B00014D0052084F835002068016821F0010150
:1032C00001600098401C0090B84203D82068006854
:1032D000C007F6D184F8358084F83490E16C002979
:1032E00004D001B02046BDE8F0430847BDE8F883AC
:1032F0000C2300202DE9F041044600F0A5F9054615
:103300005CB1022084F83500002684F8346020681F
:10331000016821F0010101600DE00120BDE8F081AC
:1033200000F092F9401B052805D920206065032094
:1033300084F83500F2E720680068C007F0D1216802
:103340000A6820480240D4E901031843D4E9033550
:103350002B43184363691843A3691843E36918436F
:10336000236A18431043626A042A03D1D4E90B2369
:103370001A43104308602068406920F00700656A1E
:1033800029460543012704290DD1A06A0543E06AB7
:1033900048B12046FEF79EFC28B14020606584F8C5
:1033A00035700120BAE7206845612046FEF77CFCB5
:1033B00094F85C203F2191408160666584F8357007
:1033C0000020ABE73F8010F02DE9F04104460025D6
:1033D000A66D94F8340001280DD0012084F8340043
:1033E00094F835700020012F07D084F834000225AE
:1033F0002846BDE8F0810220FBE7022784F83570FB
:1034000060652046FEF7A2FC94F85C103F208840DF
:10341000B0602068016841F016010160206C20B1A5
:103420002068016841F0080101602068016841F0EE
:1034300001010160DCE7000070B5044600F004F90A
:103440000546601C02D004480078044400F0FCF8F3
:10345000401BA042FAD370BD782300202DE9F84F1D
:103460000022DFF89C914FF0010803274FF00F0C6A
:1034700009F1040AA9F1040B08FA02F50B682B40C4
:10348000AB426ED10C7904F00304012C01D0022C64
:1034900015D18668540007FA04FE26EA0E06D1F814
:1034A0000CE00EFA04FE4EEA060EC0F808E044688E
:1034B000AC430D79C5F300159540254345600C7963
:1034C000E443A40708D0C568540007FA04F6B543DE
:1034D0008E68A6402E43C6600C7904F00304022CCB
:1034E00011D1D40800EB8406356A5407E40E0CFAB7
:1034F00004FE25EA0E05D1F810E00EFA04FE4EEAAD
:10350000050EC6F820E00568540007FA04F6B54336
:103510000E7906F00306A6402E4306604C6814F4AC
:10352000403F67D0374C256845F4804525602468C6
:1035300004F480440094344C22F003052E19D6F88C
:10354000085894074FEA147E0CFA0EF4A5432F4C4A
:10355000A04201D1002424E02D4CA04202D101243C
:103560001FE047E02B4CA04201D1022419E02A4C75
:10357000A04201D1032414E0284CA04201D104242C
:103580000FE0274CA04201D105240AE0254CA042BF
:1035900001D1062405E0244CA04201D1072400E01B
:1035A000082404FA0EF42C43C6F80848D9F8004061
:1035B0009C434D68ED0200D51C43C9F80040DAF881
:1035C00000409C434D68AD0200D51C43CAF8004042
:1035D000DBF800409C434D68AD0300D51C43CBF89D
:1035E0000040074D083D2C689C434E68F60300D50B
:1035F0001C432C60521C102AFFF43EAFBDE8F88F2C
:10360000083C0140443802400030014000000240C4
:103610000004024000080240000C0240001002407A
:103620000014024000180240001C024000690842D9
:1036300001D00120704700207047002A01D081612D
:103640007047090481617047014880687047000035
:103650007823002070B50446002C11D021684CF668
:10366000CC400860216845F255500860D4E900104C
:1036700048602168A0688860FFF7E6FF05460CE017
:10368000012070BDFFF7E0FF401B312805D92068FD
:10369000C068800701D0032070BD2068C068800723
:1036A000F0D121684AF6AA200860002070BD0068A9
:1036B0004AF6AA210160002070470000094801680D
:1036C000094A1278114401604FF08041496A00684C
:1036D00000EB4002C2EBC01001EBC00003490860E0
:1036E00070470000802300207823002098210020CC
:1036F00010B50B48016841F400710160016841F4A4
:1037000080610160016841F480710160032000F074
:103710009FF80F2000F006F800F050F8002010BDD0
:10372000003C024030B587B0054600241F480168C0
:1037300041F001010160006800F00100009001A962
:1037400002A800F03DF90598B0B100F05DF9400025
:103750001749B0FBF1F1491E16484FF08042026054
:1037600040F2E732C260416004618460846100F02D
:103770008AFE04461CB115E000F046F9E8E70D4862
:1037800000F0A8FE04466CB91C2000F033F8102DA0
:1037900007D2002229461C2000F03AF806480560AE
:1037A00000E0012407B0204630BD00004038024050
:1037B00040420F004C2A00207C23002082B00C489D
:1037C000016841F480410160006800F4804001908C
:1037D0000748001F016841F080510160006800F057
:1037E0008050019000220F21901E02B000F010B80E
:1037F00044380240002809DB00F01F0201219140FB
:103800004009800000F1E020C0F80011704700007E
:10381000F0B40D460D4B1B68C3F30223C3F107043C
:10382000042C00D90424191D072901D2002300E02B
:10383000DB1E012606FA04F1491E294099409E40EC
:10384000761E16403143F0BC05F0D6B80CED00E012
:1038500000F00701054A10684FF6FF03184040EAE0
:103860000120034908431060704700000CED00E0A0
:103870000000FA052DE9F04704460D46002C13D050
:10388000DFF82891D9F80000EFB200F00700A84255
:103890000CD289F80070D9F8000000F00700A842A7
:1038A00004D00120BDE8F0870120FBE72068404EEE
:1038B000810712D5400703D5306840F4E0503060EE
:1038C0002078000703D5306840F4604030603068ED
:1038D000A16820F0F000084330602078C00731D0A4
:1038E000334960680839012808D002280BD0032822
:1038F00009D0096889070BD40120D3E70968890337
:1039000006D40120CEE70968890101D40120C9E766
:10391000316821F0030101433160FFF795FE8046D5
:1039200041F2883A07E0FFF78FFEA0EB0800504510
:1039300001D90320B6E73068616800F00C00B0EBF5
:10394000810FF0D1D9F8000000F00700A84209D992
:1039500089F80070D9F8000000F00700A84201D0F3
:1039600001209FE72078400705D53068E16820F402
:10397000E050084330602078000706D530682169A0
:1039800020F4604040EAC100306000F05DF831682A
:10399000084AC1F30311515CC84007490860074851
:1039A0000068FFF7BFFE00207CE70000003C0240FB
:1039B00008380240F42901080C2300207C23002051
:1039C0000F2202600B4A136803F00303436013687D
:1039D00003F0F0038360136803F4E053C3601268DC
:1039E00002F46042D20802610348006800F0070058
:1039F0000860704708380240003C024001480068F7
:103A0000704700000C23002000B5FFF7F7FF0449C2
:103A10000968044AC1F38221515CC84000BD00001E
:103A200008380240042A010800B5FFF7E7FF0449FF
:103A30000968044AC1F34231515CC84000BD00002E
:103A400008380240042A010810B51748006810F031
:103A50000C01164816D0164B042912D0082911D192
:103A6000114C241F216801F03F02216849020AD548
:103A70002068C0F38810A0FB03010023FCF7CEFCF4
:103A800009E0184610BD21680023C1F38811A1FB8D
:103A90000001FCF7C3FC2168C1F30141491C490046
:103AA000B0FBF1F010BD0000083802400024F40023
:103AB00040787D012DE9F84F0446002C13D0207882
:103AC000DFF8A083C007A8F1040556D008F1040070
:103AD0000168C1F3810101290CD00068C0F38100A5
:103AE000022803D00DE00120BDE8F88FD8F80000CF
:103AF000400206D5286880033FD5606870BB01206E
:103B0000F2E76068B0F5803F10D0B0F5A02F12D07A
:103B1000286820F480302860286820F480202860FD
:103B20006068E0B1FFF790FD064614E0286840F4B5
:103B300080302860F4E7286840F4802028602868F6
:103B400040F480302860EBE7FFF77EFD801B64289F
:103B500001D90320C8E728688003F5D50DE0FFF7F9
:103B600073FD064606E0FFF76FFD801B642801D950
:103B70000320B9E728688003F5D42078BA4F80077E
:103B80004FF0000948D5B748001D016811F00C0F2F
:103B900008D00068C0F38100022813D1D8F80000D3
:103BA00040020FD42868800704D5E068012801D0BE
:103BB000012099E72868216920F0F80040EAC10057
:103BC000286029E0E068B8B101203860FFF73CFDCB
:103BD000064606E0FFF738FD801B022801D90320C6
:103BE00082E728688007F5D52868216920F0F80069
:103BF00040EAC10028600FE0C7F80090FFF724FDFD
:103C0000064606E0FFF720FD801B022801D90320AD
:103C10006AE728688007F5D42078000729D5DFF8FF
:103C200044A2924861690AF1700A89B101210160D8
:103C3000FFF70AFD064606E0FFF706FD801B022897
:103C400001D9032050E7DAF800008007F4D510E02E
:103C5000C0F80090FFF7F8FC064606E0FFF7F4FC1A
:103C6000801B022801D903203EE7DAF80000800714
:103C7000F4D42078400778D54FF0000A79483C30DA
:103C80000068C0000BD477483C30016841F0805197
:103C90000160006800F0805000904FF0010ADFF8EA
:103CA000D0B1DBF80000C00514D4DBF8000040F40C
:103CB0008070CBF80000FFF7C7FC064606E0FFF770
:103CC000C3FC801B022801D903200DE7DBF80000AC
:103CD000C005F4D5634EA0686C3601280FD00528C6
:103CE00012D0306820F001003060306820F004000D
:103CF0003060A068F8B1FFF7A7FC834617E0306892
:103D000040F001003060F4E7306840F004003060BB
:103D1000306840F001003060EBE7FFF795FCA0EB66
:103D20000B0141F28830814201D90320DCE6306882
:103D30008007F2D510E0FFF787FC834609E0FFF724
:103D400083FCA0EB0B0141F28830814201D90320B2
:103D5000CAE630688007F2D4BAF1010F05D14148B4
:103D60003C30016821F080510160A069C0B33D4939
:103D7000091D09684FF0FF36C1F38101022946D0C1
:103D8000022805D0C7F86090FFF75EFC04463AE0D1
:103D9000C7F86090FFF758FC814607E0FFF754FC36
:103DA000A0EB0900022801D903209DE628688001C4
:103DB000F4D4D4E907010843616AA26A890106EBD9
:103DC000520241EA0241084394F82C1040EA016093
:103DD000C8F8000001203866FFF736FC044607E00B
:103DE0003DE0FFF731FC001B022801D903207BE6F0
:103DF00028688001F5D532E0FFF726FC001B022879
:103E000001D9032070E628688001F5D427E0012855
:103E100023D0D8F80000E26900F4800191421AD161
:103E2000226A00F03F01914215D147F6C071626AE3
:103E30000140B1EB821F0ED1A26A00F4403106EBC3
:103E40005202B1EB024F06D194F82C1000F07060D2
:103E5000B0EB016F03D0012046E6012044E60020CC
:103E600042E600000438024000004742800E47420C
:103E70000070004070B50446002C09D0606A00252F
:103E800040B125616561A56294F8510040B10CE034
:103E9000012070BD6068B0F5827FF4D0E561F2E783
:103EA00084F85050204600F045F8022084F8510074
:103EB0002068016821F040010160A088218900F498
:103EC000827001F404410843A18901F400610843B0
:103ED000217C01F002010843217D01F0010108432A
:103EE000218B01F400710843217F01F03801084360
:103EF00094F8201001F080010843218D01F4005155
:103F0000084321680860A069042101EA104094F880
:103F1000241001F010010843216848602068C1693D
:103F200021F40061C1616565012084F85100002021
:103F300070BD000010B586B00446142101A8FCF73E
:103F40007DFB14492068884221D100211248026873
:103F500042F480420260006800F4804000900E4805
:103F60001038026842F002020260006800F00200AD
:103F700000904FF4604001900220029003910320D2
:103F800004900520059001A90448FFF767FA06B0E0
:103F900010BD0000003800404038024000040240DC
:103FA0002DE9F84F04468A4691461D46002694F8AE
:103FB0005100012801D0022699E060684FF0040BFF
:103FC000B0F5827F01D1A06820B394F85000012899
:103FD0002BD04FF0010884F85080FFF735FB0746DF
:103FE000BAF1000F23D0B9F1000F20D084F851B0FE
:103FF00000206065C4F838A0A4F83C90A4F83E9076
:104000002063A086E08620646064A068B0F5004F5D
:104010000FD018E084F851B04B4652465146204626
:10402000009500F033F9BDE8F88F0220FBE7012688
:104030005DE02068016821F04001016020680168AE
:1040400021F48041016020680168490603D40168B9
:1040500041F040010160E068B0B133E02068816860
:10406000C90709D0007BA16B0870A06B401CA0633E
:10407000E08F401EE08707E0FFF7E6FAC01BA8428A
:1040800001D3681C04D11DB1E08F0028E6D11CE0EB
:10409000032684F851802AE020688168C90709D086
:1040A000C068A16B0880A06B801CA063E08F401EDD
:1040B000E08707E0FFF7C8FAC01BA84201D3681CDD
:1040C0000FD175B1E08F0028E6D13A462946204647
:1040D00003F02EFB08B120206065606D28B1012639
:1040E00005E0032684F8518001E084F85180002027
:1040F00084F85000304696E72DE9F84F04468B4689
:1041000092461D46002694F8500001280DD04FF02D
:10411000010884F85080FFF797FA074694F8510099
:10412000B146012804D00226ACE00220BDE8F88F99
:10413000BBF1000F1CD05FEA0A0019D0032084F8FD
:104140005100C4F85490C4F830B0A4F834A0A4F8D6
:1041500036A0C4F83890A4F83C90A4F83E90C4F877
:104160004490C4F84090A068B0F5004F02D00BE036
:10417000012687E02068016821F040010160206885
:10418000016841F48041016020680168490603D458
:10419000016841F040010160E068B0F5006F05D0B2
:1041A000606888B3BAF1010F2FD04FE0606810B19A
:1041B000BAF1010F20D1206B21680088C860206B04
:1041C000801C2063E08E401EE08615E02068816838
:1041D000890709D5216B0988C160206B801C206389
:1041E000E08E401EE08607E0FFF72EFAC01BA842D3
:1041F00001D3681C04D11DB1E08E0028E6D128E06F
:10420000032684F851803DE0FFE7206B21680078A9
:104210000873206B401C2063E08E401EE08615E092
:1042200020688168890709D5216B09780173206BA3
:10423000401C2063E08E401EE08607E0FFF704FA92
:10424000C01BA84201D3681C0ED16DB1E08E0028BE
:10425000E6D13A462946204603F0B0FA08B12020BC
:104260006065A06820B107E0032684F8518009E06A
:104270002068C16880680090606D08B1012601E087
:1042800084F8518084F8509030464FE72DE9FF4F75
:1042900081B004460E9E8B4698460125002794F86F
:1042A000500001280ED0AA4684F850A0FFF7CCF9A0
:1042B000814694F85100616801280DD0B1F5827FE4
:1042C00008D103E0022005B0BDE8F08FA16809B96C
:1042D000042801D00227CFE0BBF1000F2DD00398B6
:1042E00058B35FEA080028D094F85100042802D09F
:1042F000052084F85100002060650399A163A4F8AB
:104300003E80A4F83C80C4F830B0A4F83680A4F80D
:1043100034802064606420680168490603D4016821
:1043200041F040010160E068B0F5006F07D06068BF
:10433000F0B3B8F1010F49D07EE001279CE060683E
:1043400010B1B8F1010F3AD1206B21680088C86024
:10435000206B801C2063E08E401EE0862FE02068EA
:10436000816889070DD5E18E59B1012D09D1216BE5
:104370000988C160206B801C2063E08E401EE086AF
:10438000002520688168C9070BD0E18F49B1C0685A
:10439000A16B0880A06B801CA063E08F401EE087AB
:1043A0000125FFF751F9A0EB0900B04207D300E067
:1043B0000CE0701C03D0032784F851A05CE0E08E71
:1043C0000028CCD1E08F0028C9D13BE0206B2168C8
:1043D00000780873206B401C2063E08E401EE0864E
:1043E0002AE02068816889070DD5E18E59B1012D39
:1043F00009D1216B09780173206B401C2063E08E8A
:10440000401EE086002520688168C9070BD0E18F37
:1044100049B1C068A16B0870A06B401CA063E08F1D
:10442000401EE0870125FFF70FF9A0EB0900B0421D
:1044300001D3701C10D17EB1E08E0028D1D1E08F65
:104440000028CED14A463146204603F0B7F938B1AC
:104450000127202060650FE0032784F851A00BE0BE
:10446000A06818B92068C16880680090606D08B1C4
:10447000012701E084F851A0002084F8500038465C
:1044800021E77047704710B50446002C03D094F81C
:104490003D0010B107E0012010BD002084F83C0071
:1044A000204600F015F8022084F83D00211D206808
:1044B00003F086FF01203D3460726070A070E070F0
:1044C00020716071A071E07120722070002010BD19
:1044D0007047000090F83D10012901D0012070477D
:1044E000022180F83D100168CA6842F00102CA60EA
:1044F00000681449884214D0B0F1804F11D012499D
:1045000088420ED0114988420BD01149884208D008
:104510001049884205D01049884202D00F4988428C
:1045200009D1816801F00701062908D0016841F02E
:104530000101016003E0016841F001010160002018
:1045400070470000000001400004004000080040E7
:10455000000C0040000401400040014000180040F1
:1045600070472DE9F04104462068C56806694FF0A0
:104570000007B10714D5A90712D5F91E0161012062
:10458000207720688069800703D02046FFF7E8FF86
:1045900005E0204600F081F8204600F07FF82777FC
:1045A000700717D5680715D521686FF004000861FA
:1045B000022020772068806910F4407F03D02046D5
:1045C000FFF7CEFF05E0204600F067F8204600F038
:1045D00065F82777300716D5280714D521686FF0BE
:1045E00008000861042020772068C069800703D094
:1045F0002046FFF7B5FF05E0204600F04EF82046C4
:1046000000F04CF82777F00617D5E80615D5216895
:104610006FF010000861082020772068C06910F44E
:10462000407F03D02046FFF79BFF05E0204600F0C7
:1046300034F8204600F032F82777F00708D0E80772
:1046400006D021686FF001000861204600F027F8CD
:10465000300608D5280606D521686FF0800008616D
:104660002046FFF70EFF700608D5680606D52168BC
:104670006FF040000861204600F018F8B0060AD537
:10468000A80608D521686FF0200008612046BDE823
:10469000F041FFF7F7BEBDE8F08170477047006852
:1046A000B0F1804F01D1FFF709B8704770477047EC
:1046B00070470000F8B5044622681068D168536955
:1046C00000F00F06002E08D1850606D58D0604D50C
:1046D0002046BDE8F84003F076BF0025002E66D0E6
:1046E00003F0010601F49077374360D0C20705D08C
:1046F000CA0503D5626C42F001026264420705D527
:10470000DA0703D0626C42F002026264820705D5C8
:10471000DA0703D0626C42F004026264020707D534
:1047200001F02002324303D0626C42F0080262645E
:10473000626C002A31D0800604D5880602D5204656
:1047400003F041FF20684069C0F38010616C0907E5
:1047500000D438B3204603F0F4FE206840694006D8
:104760001CD52068143050E8001F21F0400140E8BB
:104770000012002AF5D1E06B60B159490165E06B88
:10478000FEF7BDFC002808D0E06B016D01B0BDE86C
:10479000F04008472046FFF78BFFF8BD2046FFF7A3
:1047A00087FFF8BD2046FFF783FF6564F8BD236BE4
:1047B000012B7DD1C3067BD5CB067FD51068506811
:1047C000009050694FF0200340064FF0020644D598
:1047D000E16B0868406880B20028E7D0A28D824271
:1047E000E4D9E085C869B0F5807F2DD020680C3011
:1047F00050E8001F21F4807140E80012002AF5D132
:104800002068143050E8001F21F0010140E8001238
:10481000002AF5D12068143050E8001F21F0400133
:1048200040E80012002AF5D184F842302563206860
:104830000C3050E8001F21F0100140E80012002A5F
:10484000F5D1E06BFEF714FC6663A08DE18D401A94
:1048500081B22046FFF72BFFF8BDA08DE18D401AF5
:1048600081B2E08D0028F7D00029F5D020680C3007
:1048700050E8002F22F4907240E80027002FF5D175
:104880002068143050E8002F22F0010240E8002791
:10489000002FF5D184F84230256320680C3050E8B1
:1048A000002F22F0100240E80023002BF5D100E099
:1048B00004E066632046FFF7FAFEF8BD020606D55F
:1048C0000A0604D52046BDE8F84003F06BBF400659
:1048D000F3D54806F1D52046BDE8F84003F058BEB0
:1048E0009D84000870B50446002C04D094F8410063
:1048F000002510B106E0012070BD84F8405020462C
:1049000000F024F8242084F841002068C16821F4D4
:104910000051C160204603F0BBFE2068016921F40C
:10492000904101612068416921F02A0141612068BC
:10493000C16841F40051C1606564202084F84100E1
:1049400084F842006563002070BD00002DE9F04F3F
:1049500087B00446142102A8FBF770FEE348DFF895
:1049600088E314380221D4F800B0DFF880C30322B2
:104970000723002506150F044FF480784FF0400AF6
:104980004FF00069F34570D1DCF800B04BF0100B2C
:10499000CCF800B0DCF800C00CF0100CCDF804C06E
:1049A000D0F800C04CF0010CC0F800C0006800F066
:1049B0000100019050020290039104950592069324
:1049C00002A9CB48FEF74AFDDFF82CB3C948CBF863
:1049D0000000CBF80490CBF80850CBF80C50CBF883
:1049E0001060CBF81450CBF81850CBF81C80CBF8E3
:1049F0002070CBF824505846FEF77CFC08B1FDF738
:104A000073FBC4F83CB0CBF83840DFF8EC82B9480F
:104A100008F160087830C8F80000C8F80490C8F8B9
:104A200008A0C8F80C50C8F81060C8F81450C8F8AE
:104A30001850C8F81C50C8F82070C8F824504046D8
:104A4000FEF758FC08B1FDF74FFBC4F83880C8F8F2
:104A50003840002205212520FEF7DAFE2520FEF74A
:104A6000C9FE07B0BDE8F08FFFE7DFF890E2F3453D
:104A70004FD1DFF878C2ACF1040CDCF800A04AF4A6
:104A8000003ACCF800A0DCF800C00CF4003CCDF8F3
:104A900004C0D0F800C04CF0010CC0F800C00068A1
:104AA00000F0010001900C20029003910495059202
:104AB000069302A98E48FEF7D1FCDFF83CA290488D
:104AC0000AF1C00ACAF80000CAF80490CAF80850EF
:104AD000CAF80C50CAF81060CAF81450CAF8185036
:104AE000CAF81C80CAF82070CAF824505046FEF755
:104AF00001FC08B1FDF7F8FAC4F83CA0CAF8384048
:104B0000002205212620FEF783FE2620FEF772FEF6
:104B1000A7E7DFF8F0E1F34574D1DFF8D0C1ACF1DD
:104B2000040CDCF800B04BF4802BCCF800B0DCF8BF
:104B300000C00CF4802CCDF804C0D0F800C04CF0BC
:104B4000020CC0F800C0006800F0020001904FF4B1
:104B500040600290039104950592069302A96A4869
:104B6000FEF77CFC6648DFF8A4B16038CBF80000A3
:104B7000CBF80490CBF80850CBF80C50CBF8106071
:104B8000CBF81450CBF81850CBF81C80CBF8207021
:104B9000CBF824505846FEF7ADFB08B1FDF7A4FA58
:104BA000C4F83CB0CBF83840DFF86081544808F1D5
:104BB00060083038C8F80000C8F80490C8F808A0A9
:104BC000C8F80C50C8F81060C8F81450C8F818504D
:104BD000C8F81C50C8F82070C8F824504046FEF7AA
:104BE00089FB08B1FDF780FAC4F83880C8F838406E
:104BF000002205212720FEF70BFE2720FEF7FAFDF5
:104C00002FE7FFE7424B9B45FAD1DCF8003043F039
:104C10002003CCF80030DCF8003003F020030193CF
:104C2000036843F004030360006800F0040001908F
:104C3000C02002900391049505920820069002A9D5
:104C40003448FEF70BFCDFF8C4902A4809F1C0098C
:104C50001838C9F800004FF0206BC9F804B0C9F843
:104C60000850C9F80C50C9F81060C9F81450C9F8B8
:104C70001850C9F81C80C9F82070C9F8245048465B
:104C8000FEF738FB08B1FDF72FFAC4F83C90C9F8DD
:104C900038401848DFF880806030C8F80000C8F855
:104CA00004B0C8F808A0C8F80C50C8F81060C8F8DC
:104CB0001450C8F81850C8F81C50C8F82070C8F82C
:104CC00024504046FEF716FB08B1FDF70DFAC4F874
:104CD0003880C8F83840002205214720FEF798FDAB
:104CE0004720FEF787FDBCE6001001404438024033
:104CF0000000024040640240AC2700200044004015
:104D0000886002400048004000040240CC28002097
:104D10000014014000080240EC2900207047000008
:104D200037B5044694F84100202801D002203EBD4A
:104D3000019959B352B32162A284E28400206064D5
:104D4000212384F84130A56B114BEB63A56B114B0C
:104D50002B64A56B104BEB64A36B1865206813469E
:104D6000001DA56B02462846FEF72EFB21686FF05A
:104D7000400008602068143050E8001F41F08001B6
:104D800040E80012002AF5D100203EBD01203EBDC2
:104D9000F784000839850008AD8400087047704723
:104DA0000A20FEF749FB00231A4619461846FBF76E
:104DB000F7FE00231A4619461846FBF727FF002383
:104DC0001A4619461846FBF7DDFF00231A46194616
:104DD0001846FCF70DF80A20FEF72EFB012080F3A1
:104DE0001388BFF34F8F05480168054A01F4E0615D
:104DF00011430160BFF34F8F00BFFDE70CED00E0F2
:104E00000400FA05B5EEC01AF1EE411AF1EE10FAFF
:104E100002DDB0EE412A01E0B0EE612A12EE100A86
:104E2000B0F17E5F0CDDB5EEC01AF1EE10FA01DCD8
:104E3000B0EE611AB2EE042AC1EE021AB0EE611AA7
:104E4000F7EE001A71EEC11A21EE800A00EE810A17
:104E5000704710B5044694ED361AB5EEC01AF1EE5F
:104E600010FA1BD0D4ED0A0A94ED040AFFF7CAFF2A
:104E700084ED040A94ED361AD4ED0B0A94ED050A7C
:104E8000FFF7C0FF84ED050A94ED361AD4ED0C0A45
:104E900094ED060AFFF7B6FF84ED060A94ED371A83
:104EA000B5EEC01AF1EE10FA1BD0D4ED0D0A94ED58
:104EB000070AFFF7A7FF84ED070A94ED371AD4ED30
:104EC0000E0A94ED080AFFF79DFF84ED080A94EDA1
:104ED000371AD4ED0F0A94ED090AFFF793FF84ED1A
:104EE000090A94ED381AB5EEC01AF1EE10FA1BD08B
:104EF000D4ED1B0A94ED180AFFF784FF84ED180A1D
:104F000094ED381AD4ED1A0A94ED170AFFF77AFFD8
:104F100084ED170A94ED381AD4ED190A94ED160AA7
:104F2000FFF770FF84ED160A94ED391AB5EEC01A3A
:104F3000F1EE10FA1BD0D4ED1F0A94ED1C0AFFF716
:104F400061FF84ED1C0A94ED391AD4ED200A94ED2A
:104F50001D0AFFF757FF84ED1D0A94ED391AD4EDB1
:104F6000210A94ED1E0AFFF74DFF84ED1E0A10BDC5
:104F700070B586B0142101A8FBF760FB002513482B
:104F8000016841F002010160006800F00200009039
:104F900001220F4E140321463046FEF74EFB0194CA
:104FA000012202920392049501A93046FEF756FAB7
:104FB0000A20FEF741FA012221463046FEF73DFB6A
:104FC0000A20FEF739FA06B070BD00003038024002
:104FD000000402402DE9F041D0F81880446AC56908
:104FE000C6680169476908460A6A9047796A38467F
:104FF0008847B16930468847D8F8000081698847FA
:10500000A169204688472846E968BDE8F04108477D
:1050100070B50446A068A369A26986780021126869
:105020000125012E127A00D0AAB1BAB165702170A3
:1050300081706268117341700170C1720172C17137
:10504000017181716068C17160680172606841724C
:105050006068817270BD6170857070BDD86880476E
:105060002046BDE8704001F054BF10B5044620460C
:10507000FFF7CEFFA1688978012907D1204601F00A
:1050800069FF2046BDE8104001F098B810BD70B52A
:105090000446656A6669204601F0B2FBB068007894
:1050A000012802D1204600F015F8287A10B92046D0
:1050B00001F04EFD204601F0FBFE204601F09CF978
:1050C000204601F059FE204601F082FABDE870400A
:1050D00002F0E4BAF0B54169C3699FEDAA1AB0EED7
:1050E000410ADFEDA91A4A68F3EE0E0AC2ED0B0A77
:1050F0004A6892ED0C2A1C68D4ED080AC2ED0C0A2D
:105100001C790022002C37D04C6884ED0C1A002446
:1051100000251E684F683689BE861E684F68B6F83F
:105120001760FE861E684F68F6883E874F68BE8E01
:10513000B7F836C0A6EB0C06FE634F68642E00DDA0
:105140000124142E00DC01251B799FED900A012B10
:1051500078D0012C77D0002C0DD1002D74D0012DEA
:1051600009D1CB6883ED011A0B691A7009698A703D
:10517000806801218171F0BDF4EE420AF1EE10FA6F
:10518000C5D09FED832AF4EEC20AF1EE10FABEDD1F
:105190001C684D69248DEC814C68D4ED0C0A9FEDA0
:1051A0007D2A7D4CF4EEC20AF1EE10FA04DD627045
:1051B0002270BBEE040AA4E09FED782AF4EEC20A46
:1051C000F1EE10FA04DD62702270BAEE020A98E085
:1051D0009FED732ADFED732AF4EEE20AF1EE10FA86
:1051E00004DD62702270B9EE040A8AE0DFED6E2AF7
:1051F000694DF4EEC20A2D786D1CF1EE10FA6DB215
:1052000004DD62702570B8EE080A7AE09FED672A27
:10521000F4EEE20AF1EE10FA06DD62702570012D5F
:105220006FDDB8EE000A6CE0DFED612AF4EEC20A31
:10523000F1EE10FA09DD62702570022D61DDBFEE1E
:10524000000A5EE065E072E077E09FED5A2AF4EE36
:10525000C20AF1EE10FA04D262702270B3EE040AB0
:105260004FE09FED552AF4EEC20AF1EE10FA04D297
:1052700062702270B2EE080A43E09FED502AF4EE0D
:10528000C20AF1EE10FA04D262702270B2EE020A83
:1052900037E09FED4B2AF4EEC20AF1EE10FA04D289
:1052A00062702270B1EE040A2BE09FED462A3A4D5F
:1052B000F4EEC20A6D786D1CF1EE10FA6DB204D2F4
:1052C00065702270B0EE080A1BE09FED3F2AF4EEF5
:1052D000C20AF1EE10FA06D265702270012D10DDBF
:1052E000B0EE000A0DE0F4EEE20AF1EE10FA06D29A
:1052F00065702270022D04DDB7EE000A01E06270D5
:105300002270CC68D4ED000A40EE210AC4ED000AF8
:10531000FDE680688271C86880ED010A4B6828202C
:1053200098864868C2864868818EC163F0BDC968A6
:1053300081ED010A80688271F0BD3B8FB2EE041AE4
:1053400000EE103ACB68F8EE400A80EE810AF0EEEB
:10535000040A30EE200ADFED1D0A20EE200A83ED5C
:105360001F0A10EE103A1A4CC968A34202DA81ED06
:10537000010A03E09FED170A81ED010A806882713E
:10538000F0BD00000000000052B81E4000A0B9456A
:1053900000CDCC3D0000EE41E00200200000EA41DB
:1053A0009A99E7416766E841CDCCE6410000E641C5
:1053B0003333E5410000DE419A99DF413333E14167
:1053C000CDCCE2419A99E3416766E441000087430E
:1053D00000407645004076451CB510EE100A0AF0F4
:1053E000F7FBCDE90001DDE9000108B1012000E093
:1053F0000020014321F000400349081AC00F002893
:1054000000D001201CBD00000000F07F41698069D0
:10541000406890F89401012805D108760A690020B7
:10542000107009694870704730B502698169496830
:1054300091F8A430012B12D191F8B8500021022428
:105440000323012D0CD0456829704568E971456832
:1054500069724568A972856829711470437030BDFE
:10546000137044704068017030BD8169496891F8DB
:105470006511012901D14068C1727047816949688D
:1054800091F8D510012905D14178032902D140684E
:1054900001210171704700008169496891F8051187
:1054A000012908D14068017819B903490A78521CCA
:1054B0000A70012101707047E20200200F4A10F0CB
:1054C000030114D0012908D002290BD0032913D1DC
:1054D0004FF400410A48FEF7A9B84FF48051104636
:1054E000FEF7A4B84FF480611046FEF79FB84FF462
:1054F00000611046FEF79AB87047000000080240AD
:105500000000024010B58169426A0123496891F8A0
:10551000C441012C09D091F81D11022904D1416820
:10552000CB7140690221017610BD91F81C01012860
:1055300004D0116800200968487610BD1068006822
:10554000437610BD10B58169496891F84821012A58
:105550002BD191F86021012A27D191F878110129E6
:1055600023D1012444700A20FDF766FF00231A4668
:1055700019461846FBF714FB00231A46194618462D
:10558000FBF744FB00231A4619461846FBF7FAFBC3
:1055900000231A4619461846FBF72AFC0A20FDF795
:1055A0004BFF84F3138803F037FA10BD30B541691F
:1055B00083689A79002A0FD182690124526892F88F
:1055C000C051012D09D092F8AD310022022B0DD02F
:1055D00009694A708068C27130BD4068407801280E
:1055E00002D00869447030BDDC7130BD087E0128EE
:1055F00008D0886800780128F7D108690470086924
:10560000427030BD0220087630BD01694278032A1D
:105610000DD109690978012909D1816901224968F7
:1056200091F8C41121B1012901D14068427070473D
:1056300041684B7A012B0BD08B7A012B08D0C979AA
:10564000012905D082680021D171406841707047FE
:105650008168CA714068427070478169496891F8F1
:10566000BD10012905D14178032902D140680121EB
:10567000C17070478169496891F8EC10002904D025
:10568000012901D140684171704740680021417192
:10569000704781694068496891F88C10012902D0EF
:1056A00000210173704701210173704710B58169B2
:1056B000012449680A78012A0FD00023022A47D022
:1056C000032A09D191F92B10022938D0032903D1DB
:1056D0004068417A81B3437210BD91F92B100229C1
:1056E00024D00329F8D144700A20FDF7A5FE002339
:1056F0001A4619461846FBF753FA00231A4619466C
:105700001846FBF783FA00231A4619461846FBF79A
:1057100039FB00231A4619461846FBF769FB0A2095
:10572000FDF78AFE84F3138803F076F94068C179A7
:1057300019B10021C17110BD08E00121FAE74068EC
:10574000817A09B18372F6E78472F4E74472F2E772
:1057500091F92B10022907D00329ECD14068417B35
:10576000012909D04473E6E78068C17A012901D094
:10577000C472E0E7C372DEE74373DCE710B50446AA
:105780002046FFF76AFF2046FFF778FE204600F02C
:1057900026F82046FFF780FE2046FFF7B3FE20469E
:1057A00000F033F8204600F023F82046FFF75DFEB6
:1057B0002046FFF75FFF2046FFF728FE2046FFF751
:1057C000F5FE2046FFF721FF2046FFF72DFE20467D
:1057D000FFF75FFF2046BDE81040FFF7B3BE8169C9
:1057E000496891F87D11012901D1406881707047A5
:1057F0008169496891F84D11022905D1426801215A
:10580000917240690221017670478169496891F877
:1058100035210121022A04D14268517243690222D2
:105820001A768269526892F84821012A03D04068AA
:1058300000210172704740680172704770B50446DC
:105840002DED028B0025607E002824D09FED8D0A6F
:10585000012825D0022820D1A068C17849B345701D
:1058600060694168491C41609FED870A606880ED6E
:10587000020A2046FCF79AFB60694168B1F5C87FCF
:1058800002D34560A068C5702046BDEC028BBDE820
:10589000704000F003B960680585BDEC028B70BDF7
:1058A0002068006880ED0F0A2068006880ED110A0A
:1058B000F3E721698A789FED758A0126012A0DD0C8
:1058C0004A78012A6CD00978012975D04570606842
:1058D00080ED020A2046FCF769FBD5E79FED6C0AD4
:1058E000606880ED020A2046FCF760FBA068407803
:1058F00028B9206861680068008AA1F842006168E0
:10590000F2EE040A226831F8400F00EE100A4988CE
:105910001268B8EE400A20EE080A80EE201A00EE67
:10592000101AB8EE400A31EE001A92ED040AF8EEB1
:10593000C01A31EEC11AB5EEC01AF1EE10FA12DD3E
:1059400001EE100AB8EEC00AB8EE411A21EE081AAC
:10595000C1EE201A00EE901AF8EE600A71EEA00A6D
:1059600030EE600A11E001EE100AB8EEC00AB8EE9F
:10597000411A61EE081A81EEA01A00EE901AF8EEB4
:10598000600A71EE200A30EEC00A424910EE100A99
:105990008842A2DAA06846706068A0F8405073E7B9
:1059A0004570E06890ED010A606880ED020A2046CB
:1059B000FCF7FCFA68E7FFE74178B9B94079E8B34A
:1059C0006069007A90B12168096891ED040AF8EEE7
:1059D000C00A00EE100A6068B8EE400A40EE080AFD
:1059E000BDEEE00A80ED030AA068467020689FEDD6
:1059F0002A1A006890ED040A6068F8EEC01AD0ED2B
:105A0000030AB8EEE02A32EE012AF4EEC21AF1EEF1
:105A100010FA33D8F8EEE00AB8EEC00A70EEC10A08
:105A2000B4EEE00AF1EE10FA28DB20690570A068F8
:105A3000457060690572A068407900E001E080B1BE
:105A400019E02068006890ED040A6068B8EEC00AAA
:105A500030EE080ABDEEC00A80ED030AA068467069
:105A6000C4E76069C18901826069408A081A022816
:105A700001DBA068C6716069C18941822046FCF7DC
:105A800081FA01E70000000000803BC500241047B8
:105A900000F0D2450000C8420000C84270B504467C
:105AA00020680068216901250A78012A11D04A7806
:105AB000012A02D0897801290AD1C822D0F8C4323B
:105AC0009FED0A0A01219847002801D0A068C570FF
:105AD00070BDC822D0F8C4329FED050A0221984754
