:020000040800F2
:10000000784E0020610200085D370008852C00084A
:100010007534000887060008D93E0008000000007B
:10002000000000000000000000000000A101000826
:10003000D90A000800000000FD0100086D38000822
:100040007B0200087B0200087B0200087B0200089C
:100050007B0200087B0200087B0200087B0200088C
:100060007B0200087B0200087B0200087B0200087C
:100070007B0200087B0200087B0200087B0200086C
:10008000F5090008010A00087B0200087B0200084D
:10009000C50600087B0200087B0200080D0B000863
:1000A0007B0200087B0200087B0200087B0200083C
:1000B0007B0200087B0200087B0200087B0200082C
:1000C0007B0200087B0200087B0200087B0200081C
:1000D0007B0200087B020008E93D00087B02000863
:1000E0007B0200087B0200087B0200087B020008FC
:1000F000413900087B0200087B0200087B020008EF
:100100007B0200087B0200087B0200087B020008DB
:100110007B0200087B0200087B0200087B020008CB
:100120007B0200087B0200087B0200087B020008BB
:100130007B0200087B0200087B0200087B020008AB
:100140007B0200087B0200087B0200087B0200089B
:100150007B0200087B0200087B0200087B0200088B
:100160007B0200087B0200087B0200087B0200087B
:100170007B0200087B0200087B02000800000000F0
:100180007B0200087B020008DFF810D000F03EFA86
:1001900000480047973F0008AFF30080784E0020EA
:1001A0002C4B19680868B0E8F04F80F30988BFF35A
:1001B0006F8F4FF0000080F311887047000000003F
:1001C00008480068006880F308884FF0000080F35A
:1001D000148862B661B6BFF34F8FBFF36F8F00DF35
:1001E00000BF00BF08ED00E0DFF80C00016841F43B
:1001F00070010160704700BF88ED00E0EFF30980F7
:10020000BFF36F8F134B1A681EF0100F08BF20ED5D
:10021000108A20E9F04F106009B44FF0500080F3CD
:100220001188BFF34F8FBFF36F8F04F071FB4FF056
:10023000000080F3118809BC19680868B0E8F04F25
:100240001EF0100F08BFB0EC108A80F30988BFF3CE
:100250006F8F70471C000020EFF30580704700008F
:100260000648804706480047FEE7FEE7FEE7FEE750
:10027000FEE7FEE7FEE7FEE7FEE7FEE731390008AE
:10028000890100082DE9F05F0546002092469B4653
:1002900088460646814640241BE02846414647469C
:1002A000224600F0F4F853465A46C01A914110D342
:1002B00011461846224600F016F82D1A67EB010881
:1002C0004F4622460120002100F00DF817EB0009EF
:1002D0004E41201EA4F10104DFDC484631462A4687
:1002E0004346BDE8F09F202A04DB203A00FA02F1E1
:1002F000002070479140C2F1200320FA03F3194314
:100300009040704740EA01039B0703D009E008C909
:10031000121F08C0042AFAD203E011F8013B00F8CA
:10032000013B521EF9D27047D2B201E000F8012B16
:10033000491EFBD270470022F6E710B513460A4665
:1003400004461946FFF7F0FF204610BD2DE9FE4F89
:1003500081EA030404F0004421F0004100944FF0CE
:10036000000B23F0004350EA01045ED052EA03047C
:100370005BD0C3F30A54C1F30A552C44A4F2F334FE
:100380000194A0FB0254C1F3130141F48011C3F3A3
:10039000130343F4801301FB024400FB034E840A61
:1003A000970A44EA815447EA8357A4FB07680295F9
:1003B0008D0A05FB07854FEA932C04FB0C54270597
:1003C000029D4FEA065847EA1637B5EB08056EEB73
:1003D000070C870E920E47EA811742EA8312A7FBA9
:1003E0000201B6EB0B0164EB00042B0D43EA0C3366
:1003F0005E1844EB1C50DA465146E7FB0201C5F398
:1004000013044FEA0B3343EA14534FEA0432019CBE
:1004100043EA0603A4F10C040294009CCDE900B465
:1004200000F08BF803B0BDE8F08F00200146F9E73B
:1004300000F0004230F000400AD0C10D01F56071BB
:10044000C0F3160042EA0151C20840071143704749
:1004500000200146704701F0004330B421F0004114
:1004600050EA010206D00A0DA2F56072C1F3130131
:10047000002A02DC30BC00207047440F44EAC1046B
:10048000C100E01830BC00EBC25000F010B8202AC8
:1004900004DB203A21FA02F00021704721FA02F32E
:1004A000D040C2F12002914008431946704700290C
:1004B000A8BF7047401C490008BF20F001007047EA
:1004C00010B4B0FA80FC00FA0CF050EA010404BF4A
:1004D00010BC704749B1CCF1200421FA04F411FAA0
:1004E0000CF118BF012121430843A3EB0C01CB1DE4
:1004F0004FEA00614FEA102042BF002010BC704755
:1005000000EBC35010440029A4BF10BC7047401C2E
:10051000490008BF20F0010010BC704710B5141E40
:1005200073F1000408DA401C41F1000192185B41AC
:100530001A4301D120F0010010BD2DE9F04D924683
:100540009B4611B1B1FA81F202E0B0FA80F220329A
:100550009046FFF7C8FE04460F4640EA0A0041EA0B
:100560000B0153465A46084313D0114653EA010083
:1005700019D0C8F140025046FFF789FF05460E46E4
:10058000504659464246FFF7AEFE084305D00120CB
:1005900004E020463946BDE8F08D0020054346EAD8
:1005A000E0762C4337430A986305E40AA0EB080081
:1005B0000022FD0A44EA47540A3002D500200146D1
:1005C000E9E7010510196941DDE9084500196941AC
:1005D000BDE8F04DA2E7002801DBC0F10040002992
:1005E00001DBC1F10041814202D24FF0004004E042
:1005F0004FF0005001D14FF0C0404FEA2062EFF3BE
:10060000008162F31F6181F300887047064C074D3B
:1006100006E0E06840F0010394E8070098471034D2
:10062000AC42F6D3FFF7B4FD344D0008544D00083A
:1006300070B58C1810F8015B15F0070301D110F8A4
:10064000013B2A1106D110F8012B03E010F8016BD1
:1006500001F8016B5B1EF9D12B0705D40023521E54
:100660000DD401F8013BFAE710F8013BCB1A921CBC
:1006700003E013F8015B01F8015B521EF9D5A142BA
:10068000D8D3002070BDFEE700B58BB0002001215B
:1006900003900490CDE90810019002900090CDE9FC
:1006A000060105906946064800F048FA0221044810
:1006B00000F031FA024800F026FD0BB000BD00004A
:1006C00054060020014800F03ABB00005406002008
:1006D000A0F58070113802D10148026B10477047B5
:1006E000C803002070B50446002554F82500016EAB
:1006F00088476D1C042DF8DB0D48A0630D48E063AE
:100700000D4820649FED0D0A002084ED040A84ED5D
:10071000050A84ED060A014604EB800282ED070A11
:1007200004EB4002401C91850428F5DB70BD0000FD
:1007300005090008E907000841070008000000005B
:1007400070B50546002455F82400016F8847641CE5
:10075000042CF8DB70BD000030B5214A214C00218B
:1007600092ED000A04F1100300EB810292ED071AEA
:1007700004EB8102D2ED001A71EE610AB0EEE02ABC
:10078000B4EEC02AF1EE10FA10DDF5EEC00AF1EE7B
:1007900010FA02DDF0EE400A01E0F1EE400A03EB50
:1007A000810571EEA00AC5ED000A03E003EB8105A7
:1007B00085ED001A03EB8105491CD5ED000A0429DB
:1007C000C2ED000AD0DB002103EB810292ED000AAA
:1007D00000EB8102491C82ED070A0429F4DB30BDDD
:1007E000C8000020A447002070B504462DED048BFE
:1007F000002554F82500416E88476D1C042DF8DB58
:1008000094ED041AD4ED050A9FED3D8AB1EE410A3C
:1008100070EE601A94ED060A31EEC02A71EE601A8D
:1008200084ED072AB0EEC29A71EEC08A70EEC11A4A
:1008300071EE200AB4EEC89AC4ED088A71EEC01AAF
:1008400030EEC00AC4ED091AF1EE10FA84ED0A0A7E
:1008500014DCF0EEE80AF4EEC80AF1EE10FA0DDC52
:10086000F0EEE10AF4EEC80AF1EE10FA06DCF0EE62
:10087000C00AF4EEC80AF1EE10FA1FDDF0EEC00A6D
:10088000B0EEE10A03F039FBF0EE400AB0EEE80A00
:1008900003F033FBF0EE400AB0EE490A03F02DFB03
:1008A000C8EE000A002004EB8001401C91ED070A0D
:1008B000042820EE200A81ED070AF4DB2046FFF72A
:1008C0004BFF002504EB850090ED070A54F8250046
:1008D00080ED060A54F82500816E884754F82500FB
:1008E00004EB45016D1C90ED100A042DBDEEC00A0D
:1008F00010EE100A8885E5DBBDEC048B70BD0000AE
:1009000000007A4470B50546002405EB4400B0F9B8
:100910002C1055F82400C26E9047641C042CF4DBA4
:1009200070BD4188491C89B241808288914202D9B8
:100930004280012103E00178012901D100210170E9
:100940007047000006498162064901630649C16299
:1009500001210170002141806421818070470000E5
:10096000E50900086D0900082309000870B5044670
:100970002DED028B19B1086860614868A061174DC0
:100980009FED158A6E42B4F91400F0EE480AB1EEFC
:10099000000A2A46314603F0E3FA84ED020AB4F96C
:1009A0001600F9EE000AB0EE480A2A46314603F076
:1009B000D7FA84ED030AB4F91800F0EE480A9FED67
:1009C000080A2A46314603F0CBFA84ED040A0020D7
:1009D0006080BDEC028B70BD000000000083FFFF53
:1009E000DB0FC9400249C2690A60008C88807047E9
:1009F000C0030020014800F013BC0000AC09002037
:100A0000014800F00DBC00000C0A0020016818230A
:100A1000CAB2103AB2FBF3F2054B6FF30901032A95
:100A20009B5CC36500D9091D8165084670470000BD
:100A3000F84C000810B5014600208B698A6A4FF017
:100A4000C07453B1B3F5005F15D072B1012A0CD058
:100A5000022A0AD0032A09D104E01AB1012A06D0D9
:100A6000022A03D1C96AC90100D5012010BDC96A93
:100A7000A142FAD010BD002AF7D0012AF2D0022AF2
:100A8000F3D0032AF3D010BD38B501680A68D20646
:100A90001CD5CA68D20619D5044608684868009073
:100AA0000B48844212D1E06B0068016821F001011B
:100AB0000160084803F0E8F996210648FFF73BFC7F
:100AC000E06B0068016841F00101016038BD000081
:100AD00064090020E84700207047000070B5094D08
:100AE000002404EB4400C0EB441005EB8000016ED1
:100AF0008847641C042CF4DB0348416ABDE870405D
:100B000008470000F0010020C8030020802000F00A
:100B1000C3BC72B6FEE790F82020012A07D0022A53
:100B200005D0416A41F4802141620120704700688C
:100B300042690A43426100207047000010B590F8F6
:100B40002020012A07D0022A05D0416A41F48021E1
:100B50004162012010BD3B48D0F8002242F0010262
:100B6000C0F80022D0F8002222F47C52C0F8002203
:100B7000D0F800224B6A42EA0322C0F800220A7D24
:100B800002F01F0301229A40D0F81C329343C0F8B0
:100B90001C32CB69B3B9D0F80C329343C0F80C3295
:100BA0008C894B6864F31F434C6900EBC404C4F8A0
:100BB00040320C890B6864F31F434C6900EBC4049A
:100BC000C4F84432CB69012B16D1D0F80C32134350
:100BD000C0F80C320C884B6864F31F434C6900EB7F
:100BE000C404C4F840320C89CB6864F31F434C69D9
:100BF00000EBC404C4F844328B69002BD0F80432F3
:100C00000ED01343C0F804320B69002BD0F8143215
:100C100008D01343C0F81432096A012904D008E04F
:100C20009343EFE79343F5E7D0F81C121143C0F864
:100C30001C12D0F8001221F00101C0F800120020AF
:100C400010BD000000640040704770B590F820406F
:100C5000012C05D0022C03D0416A41F4802128E008
:100C6000046809B32469A40720D04FF4D874056838
:100C700004EB01142D5915F00405956005682D59F4
:100C80001AD0ED08556005682C5904F00204D460B0
:100C90004FF4DA74056804EB01142E5906F00F06C0
:100CA000082E0CD308250DE0E468DCE7416A41F426
:100CB00000114162012070BD6D0D1560E3E72D59F3
:100CC00005F00F05156105682D59C5F307259561D8
:100CD00005682C59240C54614FF4DC72046802EB53
:100CE0000112A4581C700468A458240A5C7004689B
:100CF000A458240C9C700468A258120EDA704FF4A9
:100D0000DE72046802EB0112A4581C710468A45836
:100D1000240A5C710468A458240C9C710468A258CD
:100D2000120EDA71006829B1016941F020010161F8
:100D3000002070BDC16841F02001C160F8E72DE9D5
:100D4000F05F0546006800244669D0F80490876883
:100D5000D0F80CB0D0F810A0D0F81880F10748D027
:100D6000F90714D001218160B80703D5284600F0A7
:100D7000F6F90CE0780702D54FF4006407E0380775
:100D800002D54FF4805402E0284600F0E7F9F80558
:100D900016D529684FF480708860B80503D52846B9
:100DA00000F0DFF90CE0780502D544F4005407E0C8
:100DB000380502D544F4804402E0284600F0D0F91A
:100DC000F80316D529684FF480308860B80303D53E
:100DD000284600F0C8F90CE0780302D544F400443A
:100DE00007E0380302D544F4803402E0284600F0DE
:100DF000B9F9300707D55FEACB6004D52968102020
:100E000044F40074C86070074FF0080707D55FEA24
:100E10000B7004D52868C760284600F057F9B00762
:100E200006D52868C068800702D0284600F050F92F
:100E3000700607D55FEACA6004D52968102044F41B
:100E400080640861B00607D55FEA0A7004D5286897
:100E50000761284600F054F9F00606D528680069B5
:100E6000800702D0284600F04CF9B00308D55FEAAD
:100E7000C96005D5296810204860284600F042F96D
:100E8000F00307D55FEA097004D528684760284653
:100E900000F06AF9300446D55FEA497040D5F005A4
:100EA00004D55FEAC87001D044F00104B00504D550
:100EB0005FEA887001D544F00204700504D55FEA4A
:100EC000487001D544F00404300529D518F0700F9E
:100ED00026D008F07000402815D006DC102809D074
:100EE00020280AD0302816D10AE050280ED06028D9
:100EF00011D10EE044F008040DE044F010040AE0C3
:100F000044F0200407E044F0400404E044F080048E
:100F100001E044F480742868816921F070018161E6
:100F2000296804204860002C05D0686A2043686264
:100F30002846FFF789FEBDE8F09F70B5040003D096
:100F400094F8200010B104E0012070BD204600F0AC
:100F500081F82068016841F00101016000F096FB12
:100F60000546052604E000F091FB401B0A2811D835
:100F700020684068C007F6D02068016821F00201AF
:100F8000016000F083FB05460BE000F07FFB401B97
:100F90000A2806D9606A40F40030606284F8206054
:100FA000D2E7206840688007EFD4207E01282068BF
:100FB00001683DD021F080010160607E0128206839
:100FC000016838D021F040010160A07E012820682E
:100FD000016833D021F020010160E07E0128206803
:100FE00001682ED041F010010160207F01282068A7
:100FF000016829D021F008010160607F0128206884
:10100000016824D021F004010160D4E90201084301
:10101000D4E90412114308436168491E084321685A
:10102000C86100206062012084F82000002070BDAB
:1010300041F08001C0E741F04001C5E741F02001E7
:10104000CAE721F01001CFE741F00801D4E741F0F1
:101050000401D9E710B586B0044614216846FFF7AD
:101060006AF917492068884227D11648002102688A
:1010700042F000720260006800F0007005901148B4
:101080001038026842F0080202600068022200F094
:10109000080005900320CDE90210CDE900020920E7
:1010A00004906946084800F003FA00220521142044
:1010B00000F0B0FC142000F09FFC06B010BD000052
:1010C0000064004040380240000C024070470000BD
:1010D00010B5094A016891420CD1084B00211C4609
:1010E000A3F11C02FFF7B1FD044821461C3800683B
:1010F000FFF7EEFA10BD000000640040E04700205A
:1011000070477047704770B5044690F8200001287A
:1011100004D0606A40F40020606217E0022084F886
:1011200020002068016821F00101016000F0AEFAA2
:1011300005460DE000F0AAFA401B0A2808D9606AAB
:1011400040F400306062052084F82000012070BD6A
:1011500020684068C007EDD1606270BD704770477D
:10116000704770477047704770472DE9F04104465B
:10117000876D00F08BFA054694F8350000260228AA
:1011800006D08020606584F834600120BDE8F081DD
:101190002068016821F0160101602068416921F092
:1011A00080014161206C08B9A06C20B12068016801
:1011B00021F0080101602068016821F0010101604F
:1011C0000CE000F063FA401B052807D92020606579
:1011D000032084F8350084F83460D7E7206800687D
:1011E000C007EED194F85C103F208840B860012021
:1011F00084F8350084F834600020C7E790F8351093
:10120000022903D08021416501207047052180F823
:1012100035100068016821F001010160002070476D
:101220002DE9F84304464FF00009CDF800906348DB
:101230004FF41651A56D0068B0FBF1F72E6894F8D5
:101240005C20082101FA02F030420FD020680268C9
:1012500052070BD5026822F00402026094F85C0089
:101260008140A960606D40F00100606594F85C10F9
:101270004FF0010808FA01F0304208D021684969AE
:10128000090604D5A860606D40F00200606594F81E
:101290005C1004208840304208D021680968890722
:1012A00004D5A860606D40F00400606594F85C109F
:1012B00010208840304218D021680968090714D5E9
:1012C000A86020680168490304D50068000308D5B8
:1012D000A16C07E00168C90503D4016821F0080189
:1012E0000160216C09B12046884794F85C102020E9
:1012F0008840304231D021680968C9062DD5A860E0
:1013000094F8350005282068016806D0490347D5C0
:10131000006800031DD4616C1CE021F0160101601F
:101320002068416921F080014161206C08B9A06CFE
:1013300020B12068016821F00801016094F85C1078
:101340003F208840A86084F8358084F83490216D6F
:101350001FE0E16B09B120468847606D00282BD063
:10136000606DC00714D0052084F83500206801683E
:1013700021F0010101600098401C0090B84203D8A0
:1013800020680068C007F6D184F8358084F834906E
:10139000E16C002910D001B02046BDE8F0430847B9
:1013A0000168C905D5D4016821F01001016084F8F5
:1013B000358084F83490CCE7BDE8F883180000202D
:1013C0002DE9F041044600F061F905465CB10220C8
:1013D00084F83500002684F834602068016821F024
:1013E000010101600DE00120BDE8F08100F04EF93F
:1013F000401B052805D920206065032084F83500AE
:10140000F2E720680068C007F0D121680A68204828
:101410000240D4E901031843D4E903352B431843B0
:1014200063691843A3691843E3691843236A18439F
:101430001043626A042A03D1D4E90B231A431043F0
:10144000086020684069656A20F0070128460D435E
:10145000012704280CD1A06A0543E06A40B1204668
:10146000FFF7E8FA20B14020606584F83570BAE7EC
:10147000206845612046FFF7C9FA94F85C203F21B7
:1014800091408160666584F835700020ACE700000B
:101490003F8010F070470000044910B50A6802420E
:1014A00002D00860FFF7F6FF10BD0000143C0140B9
:1014B0002DE9F84FDFF89C910022A9F1040B0327D6
:1014C0004FF00F0C09F1040AABF1040E01250B6873
:1014D00095402B40AB426ED10C7904F00304012CF3
:1014E00001D0022C15D18668540007FA04F826EAC8
:1014F0000806D1F80C8008FA04F848EA0608C0F893
:1015000008804468AC430D79C5F300159540254328
:1015100045600C79E443A40708D0C568540007FA75
:1015200004F6B5438E68A6402E43C6600C7904F0DD
:101530000304022C11D1D40800EB8406356A540749
:10154000E40E0CFA04F825EA0805D1F8108008FA30
:1015500004F848EA0508C6F820800568540007FA30
:1015600004F6B5430E7906F00306A6402E43066046
:101570004C6814F4403F66D0374C256845F48045EC
:101580002560246822F0030504F480440094334C61
:1015900005EB0408D8F808589407260F0CFA06F44F
:1015A000A5432F4CA04201D1002424E02D4CA042A1
:1015B00002D101241FE046E02B4CA04201D10224BD
:1015C00019E02A4CA04201D1032414E0284CA04287
:1015D00001D104240FE0274CA04201D105240AE0E8
:1015E000254CA04201D1062405E0244CA04201D1A3
:1015F000072400E00824B4402C43C8F80848D9F870
:1016000000404D464E689C43F60200D51C432C60BA
:10161000DAF8004055464E689C43B60200D51C439C
:101620002C60DBF800405D464E689C43B60300D555
:101630001C432C60DEF8004075464E689C43F60360
:1016400000D51C432C60521C102AFFF43FAFBDE8AC
:10165000F88F0000083C014044380240003001404F
:10166000000002400004024000080240000C02405A
:10167000001002400014024000180240001C02400A
:101680000AB1816170470904FBE7000001488068E6
:10169000704700000C00002070B5040025D094F8BD
:1016A0003D00002520B984F83C50204600F0B8F8F1
:1016B000242084F83D002068016821F001010160C8
:1016C0002068016841F4004101602068016821F44C
:1016D0000041016000F08AFA4D4B6168994201D8DF
:1016E0004C4900E04C49884201D2012070BD4B4971
:1016F0002268B0FBF1F1566826F03F060E435660B3
:1017000062689A4206D94FF4967251434FF47A7246
:10171000B1FBF2F12268491C166A26F03F063143FC
:1017200011626168994210D84900401EB0FBF1F285
:10173000521CC2F30B02042A01D2042022E0B0FBA7
:10174000F1F0401CC0F30B001CE0A268F2B301EB07
:10175000C10303EB0116431EB3FBF6F35B1C43F41A
:1017600080431B0549D092B301EBC10202EB01118A
:10177000401EB0FBF1F0401CC0F30B0040F4804071
:1017800040F400402168CA694CF6FF739A43104345
:10179000C861D4E9071001432068026822F0C00242
:1017A00011430160D4E9030101432068826848F2D3
:1017B000FF339A4311438160D4E905100143206847
:1017C000C26822F0FF021143C16001E00EE016E0A2
:1017D0002068016841F0010101602564202084F83F
:1017E0003D00256384F83E50002070BD01EB4106AA
:1017F000431EB3FBF6F35B1CB3E70120C2E701EB2A
:101800004101401EB0FBF1F0401CC0F30B00B7E7F4
:10181000A086010080841E0000093D0040420F00A8
:1018200010B586B0044614216846FEF784FD1349BE
:101830002068884220D11248016841F0020101600D
:101840000068694600F002000590C0200090122058
:101850000190012002900320039004200490094885
:10186000FFF726FE06481030016841F400110160C0
:10187000006800F40010059006B010BD0054004050
:10188000303802400004024070B5040013D02168D3
:101890004CF6CC400860216845F255500860D4E908
:1018A000000141602168A0688860FFF7EFFE0546EF
:1018B00041F601060CE0012070BDFFF7E7FE401B7A
:1018C000B04205D92068C068800701D0032070BDF0
:1018D0002068C0688007F0D121684AF6AA20086015
:1018E000002070BD00684AF6AA2101600020704700
:1018F0000248816802781144816070470C00002022
:101900000B4810B5016841F400710160016841F4B1
:1019100080610160016841F480710160032000F082
:1019200099F80F2000F006F800F04AF8002010BDEA
:10193000003C024030B505461C4887B000240168D1
:1019400041F002010160006805A900F00200069064
:10195000684600F02BF900F059F915494000B0FB3A
:10196000F1F11548134A491E026040F2E732C0E91E
:101970000324C0E90114846100F0A8FB040012D123
:101980000D4800F0F1FB04000DD12C2000F034F8DC
:10199000102D07D2002229462C2000F03BF80748E2
:1019A000056000E0012407B0204630BD4438024005
:1019B00040420F00000401406C0A0020100000208B
:1019C0000C4882B0016841F480410160006800F475
:1019D000804000900748001F016841F0805101607D
:1019E0000068002200F0805000900F21901E02B08D
:1019F00000F010B844380240002809DB00F01F0254
:101A0000012191404009800000F1E020C0F8001160
:101A100070470000F0B40E4B1B68C3F30223C3F100
:101A20000704042C00D904241D1D072D01D2002316
:101A300000E0DB1E012606FA04F56D1E0D409D40F8
:101A40009E40761E164045EA0601F0BC02F045BAFB
:101A50000CED00E0064A00F0070110684FF6FF03A6
:101A6000184040EA01200349084310607047000015
:101A70000CED00E00000FA052DE9F0470D460400EA
:101A800065D0DFF81491D9F80000EFB200F007003C
:101A9000A84207D289F80070D9F8000000F00700CA
:101AA000A84254D120683D4E810712D5400703D586
:101AB000306840F4E05030602078000703D530688B
:101AC00040F4604030603068A16820F0F0000843C6
:101AD00030602078C0072DD030496068083901286F
:101AE00012D0022813D0032811D0096889070029D1
:101AF0002DDA316821F0030101433160FFF7C6FDA3
:101B0000804641F2883A0EE009688903EFE70968E8
:101B10008901ECE7FFF7BAFDA0EB0801514502D9B6
:101B20000320BDE8F0873068616800F00C00B0EB7E
:101B3000810FEFD1D9F80010484601F00701A94202
:101B400007D90770006800F00700A84201D0012003
:101B5000E7E72078400705D53068E16820F4E050D9
:101B6000084330602078000706D53068216920F4EA
:101B7000604040EAC100306000F058F83168084A1F
:101B8000C1F30311515CC84006490860064800686B
:101B9000FFF7D0FE0020C4E7003C024008380240B6
:101BA000004D000818000020100000200F220260E5
:101BB0000C4A136803F003034360136803F0F00357
:101BC0008360136803F4E053C36012684FF4E0537A
:101BD00003EAD20202610448006800F007000860CE
:101BE0007047000008380240003C024004480549A4
:101BF00000680968044AC1F38221515CC8407047FB
:101C00001800002008380240104D0008044805491B
:101C100000680968044AC1F34231515CC84070470A
:101C20001800002008380240104D0008154810B573
:101C3000006810F00C01144813D0431004290FD091
:101C400008290ED10F4C241F216801F03F022168A2
:101C5000490207D52068C0F38810A0FB030106E005
:101C6000184610BD2168C1F38811A1FB00010023B3
:101C7000FEF708FB2168C1F30141491C4900B0FB94
:101C8000F1F010BD083802400024F4002DE9F84FAF
:101C9000040075D02078DFF838A3C007AAF1040546
:101CA00048D00AF104000168C1F38101012908D07C
:101CB0000068C0F3810002280AD1DAF8000040026F
:101CC00006D52868800335D560680028E1D031E06A
:101CD0006068B0F5803F10D0B0F5A02F286810D014
:101CE00020F480302860286820F480202860606814
:101CF000A0B1FFF7CBFC06460CE0286840F480302A
:101D0000F4E740F480202860F7E7FFF7BFFC801B72
:101D1000642871D828688003F7D50BE0FFF7B6FC7C
:101D2000064604E0FFF7B2FC801B6428F1D828685F
:101D30008003F7D42078DFF89C9280074FF0000BE7
:101D40003DD5A348001D016811F00C0F08D00068B4
:101D5000C0F3810002280AD1DAF80000400206D45C
:101D60002868800715D5E068012809D111E0E068EE
:101D7000B8B10120C9F80000FFF788FC064605E06D
:101D800022E1FFF783FC801B0228C2D82868800765
:101D9000F7D52868216920F0F80040EAC1002860E2
:101DA0000DE0C9F800B0FFF771FC064604E0FFF74C
:101DB0006DFC801B02281FD828688007F7D4207884
:101DC000000722D5824F84486169703771B10121C3
:101DD0000160FFF75BFC064604E0FFF757FC801B41
:101DE000022809D838688007F7D50EE0C0F800B09F
:101DF000FFF74CFC064605E082E0FFF747FC801B3E
:101E000002287DD838688007F7D42078400765D548
:101E10006F484FF000083C300068C0000BD46C489D
:101E20003C30016841F08051016000684FF00108CA
:101E300000F080500090694F3868C0050FD43868B2
:101E400040F480703860FFF721FC064604E0FFF79D
:101E50001DFC801B022853D83868C005F7D55C4F9D
:101E6000A0686C3701280FD00528386810D020F002
:101E700001003860386820F004003860A068B0B114
:101E8000FFF704FC06460EE0386840F00100F4E776
:101E900040F004003860F7E7FFF7F8FB811B41F2E0
:101EA0008830814263D838688007F5D50DE0FFF7A8
:101EB000EDFB064606E0FFF7E9FB811B41F28830A7
:101EC000814254D838688007F5D4B8F1000F05D0A6
:101ED0003F483C30016821F080510160A069B8B3EF
:101EE0003B49091D0968C1F38101022946D0022836
:101EF000584606D0C9F86000FFF7C8FB044639E031
:101F000035E04F46C9F86000FFF7C0FB064604E025
:101F1000FFF7BCFB801B022829D828688001F7D472
:101F2000D4E907010843A16A2D4A490802EB01419F
:101F3000626A41EA8211084394F82C1040EA016178
:101F4000CAF8001001203866FFF7A0FB044605E040
:101F50003CE0FFF79BFB001B022808D828688001A3
:101F6000F7D533E0FFF792FB001B022802D90320CC
:101F7000BDE8F88F28688001F4D427E00128F7D065
:101F8000DAF80000E26900F4800191421CD1226A73
:101F900000F03F01914217D147F6C071626A0140DB
:101FA000B1EB821F10D1A26A4FF0FF3300F4403131
:101FB00003EB5202B1EB024F06D194F82C1000F063
:101FC0007060B0EB016F01D00120D1E70020CFE7B6
:101FD0000438024000004742800E47420070004033
:101FE0000000FFFF7047704710B590F83C20012AB1
:101FF00022D0012280F83C20CA688C6822F440720A
:1020000022434C6822F4806222430C6822F400626E
:1020100022430C6922F4805222434C6922F400527C
:102020002243C969002322F480420A4301684A64BA
:1020300080F83C30002010BD022010BD70B590F833
:102040003C20012A32D0012580F83C50022280F841
:102050003D2002685368946823F070060B68334390
:102060005360134B02689A4214D0B2F1804F11D0E2
:10207000104B9A420ED0104B9A420BD00F4B9A4203
:1020800008D00F4B9A4205D00E4B9A4202D00E4B0D
:102090009A4204D1496824F080031943916080F882
:1020A0003D50002180F83C10084670BD022070BDF4
:1020B000000001400004004000080040000C004007
:1020C00000040140004001400018004010B5040029
:1020D00003D094F83D0010B107E0012010BD0020AE
:1020E00084F83C00204600F01FF8022084F83D00F0
:1020F000211D206801F02AFC012084F8460084F8A4
:102100003E0084F83F0084F8400084F8410084F8E1
:10211000420084F8430084F8440084F8450084F8C1
:102120003D00002010BD000008B500680B4A0C49B6
:10213000904207D1086840F400300860086800F455
:10214000003009E0074A904207D1086840F4802037
:102150000860086800F48020009008BD0044014039
:10216000443802400048014090F83D10012901D058
:1021700001207047022180F83D100168CA6842F0D2
:102180000102CA6000681149884214D0B0F1804F42
:1021900011D00F4988420ED00E4988420BD00E490B
:1021A000884208D00D49884205D00D49884202D0A6
:1021B0000C49884204D1816801F00701062903D047
:1021C000016841F0010101600020704700000140FA
:1021D0000004004000080040000C004000040140E2
:1021E00000400140001800402DE9F0410D46040078
:1021F00003D094F83D0018B108E00120BDE8F0815B
:10220000002084F83C00204600F040F8022084F8CA
:102210003D002068816844F2070291438160211DDE
:10222000206801F093FB206881688269066A2B6848
:10223000AF690B4340F203318A4342EA0722A9689F
:10224000EF6911434FF6FC429143EA6841EA0721E6
:102250000A4329692F6A090141EA073111436A6873
:102260006D6926F0AA0646EA05152A4383602068B0
:10227000816154F8460B0262012004F81F09E075E1
:102280002076E0762077A0750020B7E7F0B587B01C
:10229000044614216846FEF74EF845482168002799
:1022A000434A103802240325424B434EB1F1804F7C
:1022B00019D0DFF808C1614543D1116841F002012E
:1022C0001160116801F002010591016841F00201FD
:1022D00001600068694600F00200059030208DE83A
:1022E0009100304646E0116841F00101116011682B
:1022F00001F001010591016841F0010101600168EF
:1023000001F001010591016841F0020101600068DE
:10231000012700F0020005904FF400408DE8910085
:10232000CDE9035769461846FFF7C2F808208DE843
:102330009100CDE9035769463046FFF7B9F807B079
:10234000F0BD1F4EB14218D1116841F00401116077
:10235000116801F004010591016841F00801016074
:102360000068694600F0080005904FF440508DE881
:1023700091001448CDE90354DFE7134EB142DED19A
:10238000116841F008011160116801F00801059120
:10239000016841F0010101600068CDE9005400F0DE
:1023A0000100CDE90440CDE9027569461846C4E74D
:1023B0004038024000000240000402400004004097
:1023C00000080040000C0240000C004070B590F87E
:1023D0003E50044690F83F3090F8422090F8430079
:1023E000022621B104290BD0012D16D10FE0012DB9
:1023F00013D1012A11D184F83E6084F8426016E0BE
:10240000012B0AD1012808D184F83F600DE0012B8F
:1024100003D1012A01D1012801D0012070BD84F827
:102420003E6084F83F6084F8426084F8436091B174
:10243000042904D001220021206801F0EFFA0122D2
:102440000421206801F0EAFA2068016841F00101E6
:102450000160002070BD012200212068F2E7704772
:102460002DE9F04104460068C66805694FF0000791
:10247000A90713D5B10711D5F91E016101202077F5
:10248000206880698007204602D0FFF7E8FF04E05B
:1024900000F0D4F8204600F095F92777680716D5A4
:1024A000700714D521686FF00400086102202077BE
:1024B0002068806910F4407F204602D0FFF7CFFFEC
:1024C00004E000F0BBF8204600F07CF927772807ED
:1024D00015D5300713D521686FF008000861042076
:1024E00020772068C0698007204602D0FFF7B7FF39
:1024F00004E000F0A3F8204600F064F92777E8062E
:1025000016D5F00614D521686FF010000861082078
:1025100020772068C06910F4407F204602D0FFF782
:102520009EFF04E000F08AF8204600F04BF9277780
:10253000E80708D0F00706D021686FF001000861B5
:10254000204600F0A9F9280608D5300606D52168EE
:102550006FF0800008612046FFF744FD680608D54B
:10256000700606D521686FF040000861204600F033
:102570009DF9A8060AD5B00608D521686FF020009D
:1025800008612046BDE8F041FFF72DBDBDE8F081B0
:1025900030B587B0044614216846FDF7CCFE214DC6
:1025A0002168214A022301242048A9420FD1116841
:1025B00041F010011160116801F0100105914FF414
:1025C000D4418DE81A00CDE90334694611E0184D75
:1025D000A94212D1116841F010011160116801F097
:1025E0001001059160218DE81A000321CDE9033126
:1025F0006946FEF75DFF07B030BD0E488142FAD153
:10260000106840F002001060106800F002000590B1
:10261000C8008DE819000920CDE903306946064855
:10262000E7E700000000014030380240001002409F
:10263000004001400018004000040240704770B59F
:10264000044690F83C0000260D4601280FD00120DA
:1026500084F83C006AB1042A1DD0082A2FD00C2A25
:102660003FD00126002084F83C00304670BD022097
:1026700070BD206801F0E0F92068816941F008012F
:1026800081612068816921F004018161206881698C
:102690002A69114311E0206801F0FEF92068816980
:1026A00041F4006181612068816921F48061816168
:1026B000206881692A6941EA02218161D2E72068A4
:1026C00001F020FA2068C16941F00801C161206869
:1026D000C16921F00401C1612068C1692A691143FF
:1026E00011E0206801F042FA2068C16941F40061FC
:1026F000C1612068C16921F48061C1612068C1693C
:102700002A6941EA0221C161ACE710B5040003D097
:1027100094F83D0010B107E0012010BD002084F8BE
:102720003C00204600F01EF8022084F83D00211DE8
:10273000206801F00BF9012084F8460084F83E007F
:1027400084F83F0084F8400084F8410084F8420097
:1027500084F8430084F8440084F8450084F83D0080
:10276000002010BD08B50068124A1349904207D1F5
:10277000086840F001000860086800F0010009E006
:102780000E4A904208D1086840F48030086008681A
:1027900000F48030009008BD09498842FBD106480A
:1027A000001F016841F040010160006800F0400036
:1027B000F0E70000000001404438024000400140C2
:1027C000001800407047000010B5044649B10429C4
:1027D0000AD008290BD094F8410001280AD0012022
:1027E00010BD94F83E00F8E794F83F00F5E794F840
:1027F0004000F2E70220B1B3042938D0082939D0CB
:1028000084F841000122206801F008F91B49206882
:102810001B4A884201D0904203D1436C43F40043E9
:1028200043642068884213D0B0F1804F10D015491E
:1028300088420DD0144988420AD01449884207D0F2
:10284000904205D01249884202D01249884204D1F0
:10285000816801F00701062903D0016841F00101F8
:102860000160002010BDFFE784F83E00CAE784F84D
:102870003F00C7E784F84000C4E7000000000140C3
:10288000000401400004004000080040000C00402B
:10289000004001400018004000680349884201D10F
:1028A000FFF726B8704700000004014070477047EA
:1028B00070470000F8B5016804460868CA684B69AB
:1028C00010F00F0F4FF0000559D003F0010602F48D
:1028D0009077374365D0C10705D0D10503D5616C2A
:1028E00041F001016164410705D5D90703D0616C4E
:1028F00041F002016164810705D5D90703D0616CFD
:1029000041F004016164010707D502F02001314361
:1029100003D0616C41F008016164616C00293AD018
:10292000800604D5900602D5204601F075F920688E
:102930004069616CC0F38010090700D460B3204681
:1029400001F043F920684069400621D52068143021
:1029500050E8001F21F0400140E80012002AF5D1A4
:10296000E06BA8B172490165E06BFEF747FC0028F7
:1029700011D0E06B016D01B0BDE8F040084783065F
:102980000FD593060DD52046BDE8F84001F044B9B7
:102990002046FFF78DFFF8BD2046FFF789FF6564ED
:1029A000F8BD266B2023012E7ED1C6067CD5D60627
:1029B0007AD508684868009048694FF002064006DA
:1029C0004DD5E26B106840684FF480770004000C2E
:1029D0003AD0A18D814237D9E085D069B8422DD057
:1029E00020680C3050E8001F21F4807140E800128C
:1029F000002AF5D12068143050E8001F21F00101B1
:102A000040E80012002AF5D12068143050E8001F79
:102A100021F0400140E80012002AF5D184F842304C
:102A2000256320680C3050E8001F21F0100140E8B9
:102A30000012002AF5D1E06BFEF797FB6663A08DCC
:102A4000E18D401A81B206E0A18D8142A8D1D06902
:102A5000B842A5D166632046FFF729FFF8BDA08DD7
:102A6000E18D401A81B2E08D0028F7D00029F5D021
:102A700020680C3050E8002F22F4907240E80027C4
:102A8000002FF5D12068143050E8002F22F0010209
:102A900040E80027002FF5D184F8423025632068F4
:102AA0000C3050E8002F00E006E022F0100240E871
:102AB0000023002BF3D1CDE705062BD5150629D52C
:102AC00094F841002128C9D1A068B0F5805F01D1F8
:102AD0002069B0B1206A411C2162216800784860F9
:102AE000E08C401E0004000CE084B7D12068C1686F
:102AF00021F08001C1602068C16841F04001C160DF
:102B0000F8BD206A0088C0F308004860206A801C75
:102B10002062E5E74006F3D55006F1D5CA682046A5
:102B200022F04002CA6084F8413000F0AAF8F8BDF3
:102B3000BD3B000870B5040004D094F841000025A6
:102B400010B106E0012070BD84F84050204600F02E
:102B500023F8242084F841002068C16821F4005142
:102B6000C160204601F0BAF82068016921F4904163
:102B700001612068416921F02A0141612068C16832
:102B800041F40051C1606564202084F8410084F85C
:102B900042006563002070BD2DE9F04387B0044614
:102BA00014216846FDF7C7FB3049206888425AD196
:102BB0002F480025016841F400310160006800F4ED
:102BC000003005902A481038016841F00101016089
:102BD0000068694600F0010005900C20009002207A
:102BE000CDE9010503200390072004902148FEF75A
:102BF0005FFC224E20484FF000673060C6E9017547
:102C00004FF48068C6E903584FF480797561C6E9CE
:102C10000659356230467562FEF7D2FB08B1FDF702
:102C200078FFE663B463154E134860361830E6E863
:102C300002074020A6E82101104846F814596030E8
:102C4000C6E9065935627562FEF7BAFB08B1FDF7B1
:102C500060FFA663002205212620B463FEF7DAFE9A
:102C60002620FEF7C9FE07B0BDE8F083004400400F
:102C7000403802400000024088600240AC09002059
:102C800070477047FEE7000010B504460068806A90
:102C900090ED020AB5EEC00AF1EE10FA01DCB1EED9
:102CA000400A10EE101AB1F17C5F02DD9FED240A9C
:102CB00001E09FED240A80ED0B0A206890ED070AE1
:102CC000806A80ED000A206890ED080AC06A80EDF5
:102CD000000A206890ED090A006B80ED000A206868
:102CE00090ED040A806A80ED010A206890ED050AE3
:102CF000C06A80ED010A206890ED060A006B80ED45
:102D0000010A2068806A01F0EFFB2068C06A01F0C8
:102D1000EBFB2068006B01F0E7FB2068816A91ED16
:102D2000080A80ED000A2068C16A91ED080A80ED6A
:102D3000010A2068016B91ED080A80ED020A10BDBE
:102D40000000FA440000484410B504460068806A58
:102D500001F08AF92068C06A01F086F92068006BEA
:102D600001F082F920689FED0E0A80ED040A2068C8
:102D700080ED050A206880ED060A206880ED070ACC
:102D8000206880ED080A206880ED090A206880ED3F
:102D9000000A206880ED010A206880ED020A10BD5B
:102DA000000000001E4991ED221AD1ED5C0A91ED60
:102DB000050A71EE201A31EEC02AD1ED3F1A0168E2
:102DC00072EE612A31EEA02A32EE402AB1EE400ABC
:102DD00030EE410A32EE412A30EE610A70EE601A9E
:102DE000B5EE000A22EE001A62EE800A61EE801A49
:102DF00091ED042A9FED0B0A00EE802A81ED042A52
:102E00000168D1ED050A41EE000AC1ED050A00682E
:102E1000D0ED060A41EE800AC0ED060A70470000B8
:102E2000F00100206F12833A104810B50E4901607E
:102E30000321416000214FF410228160C0E9031298
:102E40004FF4001242610176012242768276C27608
:102E500001774277FEF771F8002803D0BDE81040F3
:102E6000FDF757BE10BD000000640040540600206E
:102E70000D4808B5016841F40011016000680022A6
:102E800000F40010009005211020FEF7C3FD102073
:102E9000FEF7B2FD002205211120FEF7BBFDBDE8C3
:102EA00008401120FEF7A8BD3038024010B596B09A
:102EB0001C2211496846FDF725FA0021684601F0F9
:102EC000A9F80E4C0C491C2220601C3107A8FDF704
:102ED00019FA002107A801F09DF8074960601C223B
:102EE00038310EA8FDF70EFA00210EA801F092F875
:102EF000A06016B010BD0000A44C00080000002027
:102F00002DE9F04186B014216846FDF714FA3A48DD
:102F10000026016841F010010160016801F0100114
:102F20000591016841F080010160016801F08001B4
:102F30000591016841F001010160016801F00101A2
:102F40000591016841F002010160016801F0020190
:102F50000591016841F0080101600068DFF89C807C
:102F600000F008004FF4B06405900122214640466D
:102F7000FEF786FB224F002204213846FEF780FB35
:102F8000002202214046FEF77BFB0094012402252B
:102F9000694640460194CDE90245FEF789FA2003CF
:102FA000CDE90006694602944046FEF781FA042006
:102FB00003958DE8510069463846FEF779FA80207E
:102FC00000904FF44410CDE9010469463846FEF7FD
:102FD0006FFACDE90054CDE9026569464046FEF737
:102FE00067FA002205211720FEF714FD1720FEF7CF
:102FF00003FD06B0BDE8F081303802400010024009
:10300000000C02400D4810B50B4901600C494160AD
:1030100000214FF480428160C0E903124161816167
:10302000C1610162FEF738FB002803D0BDE8104003
:10303000FDF76FBD10BD0000005400407C0600206D
:10304000801A0600094810B5074901600021416057
:1030500040F6FF718160FEF717FC002803D0BDE841
:103060001040FDF756BD10BD00300040D0060020D6
:103070000C4810B50A490160A7214160002144F6BF
:103080001F62C0E90212016180218161FFF71EF811
:10309000002803D0BDE81040FDF73BBD10BD000087
:1030A000004401408C0800200C4810B50A4901601A
:1030B000A7214160002144F61F62C0E902120161AC
:1030C00080218161FFF702F8002803D0BDE810409D
:1030D000FDF71FBD10BD000000480140D4080020CE
:1030E00010B588B01C216846FDF725F9164815492A
:1030F0000024C0E9001441F26701C0E902418021C7
:1031000004618161FFF701FB08B1FDF702FD60205A
:10311000CDE900040294002269460B480494FFF7AD
:103120008EFA08B1FDF7F5FC042269460648FFF760
:1031300086FA08B1FDF7EDFC0348FFF729FA08B05D
:1031400010BD0000001800401C09002010B592B00E
:1031500000240F941C2168461094FDF7ECF8202100
:1031600007A8FDF7E8F82E482C49C0E9001441F201
:103170006701C0E9024180210461C0E90541FFF710
:10318000C4FA08B1FDF7C5FC0F940FA924481094A8
:10319000FEF754FF08B1FDF7BCFC6020CDE9000448
:1031A0000294039404940594002269461C480694F2
:1031B000FFF745FA08B1FDF7ACFC04226946184850
:1031C000FFF73DFA08B1FDF7A4FC08226946144850
:1031D000FFF735FA08B1FDF79CFC0C226946104850
:1031E000FFF72DFA08B1FDF794FC4FF48070CDE99C
:1031F00008400001CDE90A40079440000C904000CF
:103200000E9007A90648FEF7EFFE08B1FDF781FC16
:103210000348FFF7BDF912B010BD000000000140E7
:10322000DC06002010B58CB024216846FDF783F839
:103230000024154809944FF080410A94C0E9001415
:103240004FF6FF71C0E90241046184610320CDE9BA
:1032500000040120CDE902040494CDE9054007945F
:10326000694609480894FEF7BFFF08B1FDF751FC15
:10327000099409A904480A94FEF7E0FE002801D049
:10328000FDF747FC0CB010BD2407002010B58CB032
:1032900024216846FDF74FF8002416480994144984
:1032A0000A94C0E900144FF6FF71C0E902410461BD
:1032B00084610320CDE900040120CDE902040494D7
:1032C000CDE90540079469460A480894FEF78CFF4B
:1032D00008B1FDF71EFC099409A906480A94FEF7F7
:1032E000ADFE002801D0FDF714FC0CB010BD0000AD
:1032F000000400406C07002010B58CB02421684603
:10330000FDF719F800241648099414490A94C0E9F5
:1033100000144FF6FF71C0E902410461846103208B
:10332000CDE900040120CDE902040494CDE9054073
:10333000079469460A480894FEF756FF08B1FDF75E
:10334000E8FB099409A906480A94FEF777FE0028CD
:1033500001D0FDF7DEFB0CB010BD000000080040FE
:10336000B407002010B58CB024216846FCF7E3FFB9
:1033700000241648099414490A94C0E900144FF631
:10338000FF71C0E90241046184610320CDE90004BA
:103390000120CDE902040494CDE905400794694673
:1033A0000A480894FEF720FF08B1FDF7B2FB099424
:1033B00009A906480A94FEF741FE002801D0FDF74E
:1033C000A8FB0CB010BD0000000C0040FC07002062
:1033D00010B588B01C216846FCF7ADFF16481549AA
:1033E0000024C0E9001441F26701C0E902418021D4
:1033F00004618161FFF789F908B1FDF78AFB60205C
:10340000CDE900040294002269460B480494FFF7BA
:1034100016F908B1FDF77DFB042269460648FFF75F
:103420000EF908B1FDF775FB0348FFF7B1F808B0D6
:1034300010BD000000400140440800200C4810B5B9
:103440000A4901604FF4E1214160002181600C22B2
:10345000C160C0E904128161C161FFF76BFB002804
:1034600003D0BDE81040FDF754BB10BD0044004040
:1034700064090020FEE700009FED140A80ED070AB2
:1034800080ED080A80ED090A80ED0A0A80ED0B0A3A
:1034900091ED000A80ED110A91ED010A80ED120A0A
:1034A00091ED020A80ED130A91ED030A80ED140AF2
:1034B00091ED040A80ED150A91ED050A80ED160ADA
:1034C00091ED060A80ED170A704700000000000029
:1034D00010B504460C48A0660C48E0660C486066CF
:1034E0000C4820673C212068FEF770FFD4E90101F9
:1034F000FFF76AF9E1686068FFF766F92046BDE802
:1035000010400549FFF7B8BF1D35000819360008FF
:1035100011370008C9360008D4010020D0ED040A94
:10352000C0ED080A90ED060A80ED070A70EEC00AA9
:10353000C0ED090A90ED0B0A30EE200A80ED0B0A6F
:1035400090ED151AF1EE411AB4EEE10AF1EE10FA1F
:1035500002D2B0EE610A06E0B4EEC10AF1EE10FA52
:1035600001DDB0EE410A80ED0B0A90ED111AB7EEC5
:10357000002A61EE202AC0ED0C2A90ED121A21EEED
:10358000000A80ED0D0A90ED0A1AD0ED131A30EE04
:10359000C11A21EE211AD0ED141A32EE612A21EE61
:1035A000021A90ED0F2A02EE211A80ED0E1AD0EDCC
:1035B000161AB1EE612AB4EEC20AF1EE10FA02D286
:1035C000B0EE420A06E0B4EEE10AF1EE10FA01DDD7
:1035D000B0EE610A80ED0D0A32EE800A30EE010A8B
:1035E00080ED100AD0ED171AB1EE612AB4EEC20ACE
:1035F000F1EE10FA02D2B0EE420A06E0B4EEE10AB1
:10360000F1EE10FA01DDB0EE610A80ED100AC0EDB6
:103610000A0A80ED0F1A70472A4A10B553429142A8
:1036200001DA114602E0994200DD194642688468D9
:103630000029126823DD84B1042C10D0082C10D08E
:103640001364C2687AB1042A12D04068082AA3EB36
:103650000101006811D0016410BD5363F1E7936369
:10366000EFE7D363EDE74068591A0068416310BD86
:103670004068591A0068816310BDC16310BD7CB1F8
:10368000042C10D0082C194410D01164C16879B1F1
:10369000042911D040680829006811D0036410BDC6
:1036A00019445163F2E719449163EFE7D163EDE701
:1036B00040680068436310BD40680068836310BDC4
:1036C000C36310BD98EFFFFFD0E901130022096822
:1036D00073B1042B0ED0082B0ED00A64C16869B1F7
:1036E00004290FD04068082900680FD00264704791
:1036F0004A63F3E78A63F1E7CA63EFE7406800686B
:10370000426370474068006882637047C2637047D5
:1037100010B50F4904460020088020680168496AF6
:1037200009B200EE101A0021B8EEC00A84ED040AB6
:10373000006841622069FCF77BFE9FED061B53EC9D
:10374000112BFCF703FEFCF786FE606110BD000044
:10375000D0010020000000D8F3AF633FFEE7000077
:10376000324C2DED028B2046616B8847304E30463F
:10377000716888479FED2F8A2F4D304FDFF8C0804A
:10378000A87E400708D4287830B9306880ED048AD4
:1037900080ED058A80ED038AA87EC00701D02878D5
:1037A00090B184ED048A84ED058A84ED068A216C4B
:1037B0001E488847A87E800729D501220221384665
:1037C000FDF75EFF012228E0306895ED020A80EDEA
:1037D000070A95ED030A80ED080A80ED098AB168B1
:1037E00013488847F16812488847306890ED000A0E
:1037F00084ED040A90ED010A84ED050A90ED020AB9
:103800000A4884ED060AE16B8847A16BD0E70022E5
:1038100002213846FDF734FF002204214046FDF71F
:103820002FFF012000F0EAFBAAE70000840000203F
:10383000C001002000000000C8030020001002406A
:10384000000C0240054C0548E16A88470448FEF731
:1038500049F8012000F0D2FBF5E70000C803002082
:10386000D0060020012000F0C9FBFBE710B5502076
:1038700080F31188BFF34F8FBFF36F8F01F04AF9C8
:1038800018B104494FF080500860002080F311887F
:1038900010BD000004ED00E030B593B03021684663
:1038A000FCF749FD14210CA8FCF745FD1E48002536
:1038B000016841F080510160006800F08050119073
:1038C0001A48016841F4804101600068022400F454
:1038D00080401190092000904FF480300190012029
:1038E000CDE905048005079008AA0420A82182E8F4
:1038F00013000B906846FEF7C9F908B172B6FEE7EF
:103900000CA90F2081E831004FF4A0500F904FF424
:103910008050109005210CA8FEF7AEF8002801D0C9
:1039200072B6FEE713B030BD403802400070004070
:103930000248016841F470010160704788ED00E0C1
:103940000148FEF78DBD00006C0A0020F0B502684A
:10395000274D284E284FDFF8A4C0294B4FF0804E4A
:10396000A84209D0704507D0B04205D0B84203D074
:10397000604501D0984203D122F070044A68224386
:10398000A8421BD0704519D0B04217D0B84215D00C
:10399000604513D0984211D01A4CA0420ED01A4C58
:1039A000A0420BD0194CA04208D0194CA04205D01F
:1039B000184CA04202D0184CA04203D122F440740B
:1039C000CA6822434C6922F0800222438C68C46298
:1039D0000C688462A84201D0984201D10969016350
:1039E000016841F004010160012141610260F0BD04
:1039F000000001400004004000080040000C0040AE
:103A000000040140004001400044014000480140E2
:103A100000180040001C00400020004010B501F0DC
:103A20001F010123046A8B409C430462036A8A409D
:103A30001343036210BD0000F0B5026A036A23F06D
:103A40000103036243688469114E24F073050C6816
:103A5000104F2C4322F002058A682A43B04201D05D
:103A6000B84205D122F00805CA682A4322F00402B0
:103A7000B04201D0B84205D14D6923F440731D43D3
:103A80008B692B4343608461496841630262F0BDE6
:103A90000000014000040140F0B5026A036A23F00F
:103AA00010030362436884690D6824F4E64444EA21
:103AB00005248D6822F0200242EA05120F4D104EB7
:103AC000A84201D0B04206D1CF6822F0800242EA7B
:103AD000071222F04002A84201D0B04207D14D693E
:103AE00023F4406343EA85038D6943EA8503436019
:103AF0008461496881630262F0BD000000000140FA
:103B000000040140F0B5026A036A23F48073036283
:103B10004368C46922F4007224F073050C68124EE5
:103B20002C438D6842EA05220E4DA84201D0B042D6
:103B300006D1CF6822F4006242EA072222F48062B2
:103B4000A84201D0B04207D14D6923F4405343EA63
:103B500005138D6943EA05134360C4614968C16375
:103B60000262F0BD000001400004014030B5036A6C
:103B7000026A22F4805202624268C4690D6824F429
:103B8000E64444EA05248D6823F4005343EA0533F0
:103B9000084DA84202D0084DA84204D14D6922F434
:103BA000804242EA85124260C4614968016403624E
:103BB00030BD0000000001400004014010B5806BE2
:103BC0000021C185FEF774FE10BD01680C3151E87B
:103BD000002F22F4907241E80023002BF5D10168F8
:103BE000143151E8002F22F0010241E80023002B9C
:103BF000F5D1016B012909D101680C3151E8002F81
:103C000022F0100241E80023002BF5D1202180F89A
:103C1000421000210163704708B590F84210222934
:103C200001D0022008BD81684FF48053994201D130
:103C3000026922B1826A99421BD049B10AE0026846
:103C4000816A5268C2F308020A80816A891C08E00E
:103C5000016971B10168496801F07F011170816AE1
:103C6000491C8162C18D491E0904090CC18503D01C
:103C70001BE001684968F1E70168CA6822F0200288
:103C8000CA600168CA6822F48072CA6001684A6921
:103C900022F001024A61202180F842100021416394
:103CA000026B012A03D0FEF7EBFF002008BD016381
:103CB00001680C3151E8002F22F0100241E8002386
:103CC000002BF5D101680A68D20602D50A68496856
:103CD0000091818DFEF7EBFDE7E7000070B504462B
:103CE00000680169E26821F4405111430161A16853
:103CF0002069E26901436069104301432068C2689A
:103D000049F20C639A430A43C26020684169A26980
:103D100021F440711143416131492068884202D049
:103D20003049884202D1FDF771FF01E0FDF75EFFE7
:103D3000E2690023192164253226B2F5004F62683A
:103D400028D0A0FB0101930F9200FCF79BFA0146DB
:103D5000B0FBF5F06FF01802504301EB800006EB6A
:103D60000010B0FBF5F000F0F002B1FBF5F002EB53
:103D70000012B1FBF5F06FF01803584301EB80001F
:103D800006EB0010B0FBF5F000F00F0021681044C6
:103D9000886070BDA0FB010192185B41FCF772FACC
:103DA0000146B0FBF5F00201B1FBF5F06FF018032E
:103DB000584301EB800006EBC000B0FBF5F000F0CB
:103DC000F80002EB4002B1FBF5F0584301EB800034
:103DD00006EBC000B0FBF5F000F00700D6E70000EE
:103DE000001001400014014010B50448FCF74CFEDF
:103DF000BDE810400148FEF75DBD000064090020E9
:103E000038B51F4900230868026842680092C268FA
:103E100042F01002C2600868426942F0400242610A
:103E2000C86B0968174A90F834509624091D012D73
:103E300008D0012580F8345090F83550012D02D07B
:103E400080F8343038BD022580F83550436503686A
:103E50001D6825F480251D6003685C608368402B25
:103E6000036808D099600168CA600068016841F081
:103E70000101016038BD9A600268D160F5E7000079
:103E800064090020E847002010B50178A5291ED15B
:103E900041785A291BD181786C2918D100210A4612
:103EA000835C521C1944C9B26B2AF9DB90F86B2071
:103EB0008A420CD101466C220548FCF723FA0449DA
:103EC000A1F5C67000F07AFB02490120087010BD10
:103ED0000C4A0020FC030020FEE70907090E002819
:103EE00004DB00F1E02080F80014704700F00F00C0
:103EF00000F1E02080F8141D704710B52DED028B05
:103F0000B0EE608AF0EE408A18EE101A18EE900AB1
:103F1000FCF761FB00F07040B0F1005F0CD018EED0
:103F2000100A20F00040C0F1FF40C00F02BFB0EE09
:103F3000480ABDEC028B10BDB0EE680ABDEC028BE6
:103F400010BD02E008C8121F08C1002AFAD170474C
:103F50007047002001E001C1121F002AFBD1704709
:103F6000891A11D0801A01EE100AF8EEC11A01EE7A
:103F7000101AB8EEC12A81EE821A70EE601AB0EE05
:103F8000600A01EE210A704730EE200AF6EE000AC0
:103F900020EE200A7047FDF7B3FCFFF77DFCFEF72B
:103FA000AFFFFEF765FFFFF749FAFFF7CFF8FFF71E
:103FB00039F9FFF76BF9FFF79FF9FFF7D3F9FFF72F
:103FC00007FAFFF78DF8FFF753F8FFF76DF8FEF7E4
:103FD0002BFFFFF717F8FFF735F8FCF77FFDFCF72D
:103FE00053FBFFF70DFFFEF761FF00F00EF8FEE751
:103FF00001460020842900D0C81C704710B500B9C4
:10400000012000F021FC002010BD10B500F042FCA2
:10401000002010BD7FB50D4604464169B0F9080087
:1040200081B1A16971B1FFF7E3FFD4E905128DE811
:104030000700D4E900102B46226900F03EFD0390F2
:1040400004B070BDFFF7D4FF03A9CDE90001208AB9
:104050002B4682B2D4E9001000F002FD012801D005
:104060000020EDE70398EBE79FED0A0A80ED000AD8
:1040700080ED010A80ED020A80ED030A80ED050A59
:1040800080ED060A80ED070A80ED080A80ED040A3B
:1040900070470000000000002DE9F041184E0F4667
:1040A0000446F5683068001D00F006FB38B930683A
:1040B00090F82C1001208840316981433161601CE7
:1040C00007D137B13168BDE8F0410E48091D00F055
:1040D00037BB30682C44AC424460316805D2B06BC9
:1040E000BDE8F041091D00F013BB706B091D00F025
:1040F0000FFBB06A844200D2B462BDE8F0810000D8
:104100001C000020900B00202DE9F041054600F036
:1041100023FB2E4EB068401CB06030682C4F10B1AD
:10412000706940B32DE03560B068012829D10024C2
:1041300004EB840007EB800000F0DCFA641C072C21
:10414000F6D323488C3000F0D5FA2148A03000F097
:10415000D1FA1F48B43000F0CDFA1D48C83000F045
:10416000C9FA1B48DC3000F0C5FA19488C3070637E
:104170001430B06305E03068E96AC06A884200D84C
:104180003560706A0121401C7062E86A32698140C2
:104190001143316100EB800007EB8000291D00F026
:1041A000CFFA00F0F9FA706900280CD03068E96A9B
:1041B000C06A884207D207494FF080500860BFF3B9
:1041C0004F8FBFF36F8FBDE8F08100001C0000200F
:1041D000B40A002004ED00E010B5044690F8510048
:1041E00058B101280CD002280FD0502080F311883C
:1041F000BFF34F8FBFF36F8FFEE7206B00F0E0FA45
:104200002046BDE8104000F0DBBA10BD10484FF466
:104210007051420706D0C01D0D4920F00700411A19
:10422000C1F570510B4A00230144C2E9000308396B
:10423000183A21F0070111604B600B600B1AC0E9BE
:10424000001393604FF000405360506170470000CE
:10425000A40B002070000020134E144DA6F1C807D7
:104260004FF08058DFF8489011E000F075FAF068E0
:10427000C468201D00F020FAA868401EA860686885
:10428000401E686000F088FA2046FFF7A5FF6868C6
:104290000028EAD138680128F9D9C9F80080BFF3AD
:1042A0004F8FBFF36F8FF2E77C0B00201C000020C4
:1042B00004ED00E02DE9F0479A46DDE909848146E6
:1042C0006FF00303206B03EB82021044089D20F083
:1042D0000706700707D0502080F31188BFF34F8F77
:1042E000BFF36F8FFEE7002761B1002023180A5C3F
:1042F00083F834200A5C12B1401C1028F6D384F8ED
:10430000437001E084F83470072D00D30625E56280
:10431000C4E91157201D00F0F8F904F1180000F06D
:10432000F4F92461C5F107006462A061E76484F8D0
:10433000507052464946304600F0C0F82060B8F14F
:10434000000F01D0C8F80040BDE8F08730B5114932
:1043500000E011460A688242FBD34B685C18844235
:1043600003D1406818444860084643681C189442CA
:1043700009D1084C183C2468A24209D052681A445A
:1043800042600A6812680260814200D0086030BD55
:104390000460F9E7700000200648416B096829B104
:1043A000416BC968C9684968816270474FF0FF3145
:1043B000FAE700001C00002008484068401C4FF04D
:1043C000500080F3118804D0BFF34F8FBFF36F8F7D
:1043D000FEE7BFF34F8FBFF36F8FFEE7780000203B
:1043E0002DE9F0410546002600F08AFA324F386880
:1043F00008B9FFF70BFF786905424ED1C5B3083500
:1044000068070ED005F00700C0F1080005446807F2
:1044100007D0502080F31188BFF34F8FBFF36F8F09
:10442000FEE72DB37868854237D82349183108460E
:10443000046801E0214604466068A84202D2206870
:104440000028F7D13868844227D00E6820680860B9
:1044500060680836411B10290FD96019420708D03F
:10446000502080F31188BFF34F8FBFF36F8FFEE7AB
:1044700013E041606560FFF769FF61687868401A82
:104480007860BA68904200D2B86078690143002031
:10449000C4E90001F868401CF86000F0A1FB700757
:1044A00007D0502080F31188BFF34F8FBFF36F8F79
:1044B000FEE73046BDE8F0815800002010B5031F2C
:1044C0004FF080741C601B1F21F001011960191F3F
:1044D000044B0B6014390A60091F6FF00202443864
:1044E0000A6010BDB943000890EC020A30EE600A81
:1044F00080ED020AB5EEC00AF1EE10FA01DCB1EE71
:10450000400AD0ED090AB4EEE00AF1EE10FA03D841
:104510009FED290A80ED020A90ED040AD0ED020A0F
:1045200030EE200A80ED040AD0ED0E1A90ED0A2A32
:1045300031EE821AB4EEC01AF1EE10FA06D332EE62
:10454000611AB4EEC01AF1EE10FA01DDB0EE410AC4
:1045500080ED040A90ED0B1A21EE201A80ED051A69
:10456000D0ED0C1A21EE800A80ED060AD0ED031A78
:1045700090ED0D2A31EE000A70EEE11A61EE821A1A
:10458000C0ED071A30EE210A80ED080A90ED0F1AEF
:10459000B4EEC10AF1EE10FA06DCB1EE411AB4EE47
:1045A000C10AF1EE10FA01D2B0EE410A80ED080A1C
:1045B000C0ED030A704700000000000070B5B1F8BC
:1045C0000320F3EE080A52BA00EE102AB8EE400AB1
:1045D00020EE200ADFED320A80EE801ADFED310A8C
:1045E00080ED001AB1F8052052BA00EE102AB8EE9C
:1045F000400A80EE201A80ED011AB1F8692052BA03
:1046000000EE102AF8EE401A81EEA00ADFED260A2D
:1046100080ED020AB4EEC10AF1EE10FA03D230EED8
:10462000200A80ED020ADFED211A214C002390EDD3
:10463000021A90ED010A03EB430500EB850231EE0F
:10464000401A21EE212A01EE103AB8EEC11A01EE0D
:10465000020A01E030EE600A10EE106A82ED030AF1
:10466000A642F7DA03E030EE200A82ED030AB5EE47
:10467000C00AF1EE10FAF6D30D449FED0E1AB5F80C
:1046800007605B1C76BA00EE106A202BB8EE400A79
:1046900080EE012A82ED042A6D7A1575C7DB70BDA4
:1046A000002474490000C8420000B4430000003DEB
:1046B0000000B44300007A44D0E9013201699A60F5
:1046C000D0E901235A604A68824201D182684A6077
:1046D000002202610868401E0860086870470000F8
:1046E000034B036003F154000860802010607047A2
:1046F0000004002000F108014FF0FF32C0E9011270
:10470000C1600161002101607047002101617047B3
:1047100030B50C68621C02D000F1080202E00269A8
:1047200004E01A4653681D68A542FAD953684B60E5
:1047300099608A60516008610168491C016030BD60
:1047400042684A6093688B60936859609160086121
:104750000168491C01607047502080F31188BFF345
:104760004F8FBFF36F8F0A494868401C486001288B
:104770000CD10848006810F0FF0F07D0502080F3DC
:104780001188BFF34F8FBFF36F8FFEE770470000B4
:104790007800002004ED00E00849486828B1401E78
:1047A000486001D180F311887047502080F3118850
:1047B000BFF34F8FBFF36F8FFEE70000780000203C
:1047C00070B500282AD0164DA0F108046068696908
:1047D000084207D1502080F31188BFF34F8FBFF3F9
:1047E0006F8FFEE722683AB1502080F31188BFF343
:1047F0004F8FBFF36F8FFEE78843606000F080F853
:1048000060686968084468602046FFF79FFD286972
:10481000401C2861BDE8704000F0E2B970BD0000A6
:10482000580000204FF0E02000210161816105491E
:104830004FF47A720968B1FBF2F1491E4161072118
:10484000016170471800002010B5020014D00F4815
:10485000006B38B1502080F31188BFF34F8FBFF346
:104860006F8FFEE700F04CF800211046FFF714FCB4
:1048700000F0B6F9002807D105494FF080500860D4
:10488000BFF34F8FBFF36F8F10BD00001C000020DF
:1048900004ED00E010B586B00024039405AA04A935
:1048A00003A80494FFF71CFFDDE903010094CDE9A0
:1048B000011000230EA11048059A00F0FEF80F49E0
:1048C0000028C86211D0502080F31188BFF34F8FA9
:1048D000BFF36F8F4FF0FF30886201204861CC60DA
:1048E00006B0BDE8104000F041B806B010BD0000B1
:1048F00049444C4500000000594200081C000020BB
:104900000248016B491C0163704700001C00002035
:10491000144A106B10B10120D06170470020D061A3
:1049200010691149B0FA80F0C0F11F0000EB80005F
:1049300051F820306BB101EB800000F108034168B1
:1049400049684160994201D149684160C868106076
:104950007047502080F31188BFF34F8FBFF36F8FE4
:10496000FEE700001C000020B40A00201CB53748F8
:104970000168374A914207D1502080F31188BFF374
:104980004F8FBFF36F8FFEE700683149491E8842A1
:1049900007D1502080F31188BFF34F8FBFF36F8F83
:1049A000FEE72C4908780190FF20087008788DF800
:1049B00000009DF800009DF8002000F0F0009042FB
:1049C00007D0502080F31188BFF34F8FBFF36F8F54
:1049D000FEE79DF80000204C00F0500020700720FA
:1049E000A06006E0401EA0609DF8000040008DF829
:1049F00000009DF800000006A068F3D4032807D04B
:104A0000502080F31188BFF34F8FBFF36F8FFEE705
:104A10004FF44070A060019808700C482030016885
:104A200041F470010160016841F070410160FFF7DD
:104A3000F9FE00206060FBF7D7FB0848016841F0F1
:104A400040410160FBF7BCFB00201CBD00ED00E015
:104A500071C20F4100E400E07800002034EF00E074
:104A60002DE9FF5F8346DDE90E87994616468A46A3
:104A70009000FFF7B5FC05001CD05420FFF7B0FCF8
:104A8000040014D00020256384F85100CDE90240D1
:104A9000CDE900874B46324651465846FFF70AFC9F
:104AA0002046FFF731FB012004B0BDE8F09F284607
:104AB000FFF786FE4FF0FF30F6E7F0B585B005460C
:104AC000DDE90B040A9EA8B1E4B1542700972063E6
:104AD000022084F851000020CDE9024004AF2846AE
:104AE000CDE90067FFF7E6FB2046FFF70DFB0498D2
:104AF00005B0F0BD502080F31188BFF34F8FBFF396
:104B00006F8FFEE7502080F31188BFF34F8FBFF304
:104B10006F8FFEE72DE9F0412F4F0026386B28B14B
:104B2000B869401CB8613046BDE8F081FD686D1C75
:104B3000FD6013D1786B006838B1502080F3118884
:104B4000BFF34F8FBFF36F8FFEE7786BB96B79635D
:104B5000B863386A401C3862FFF71EFCB86ADFF899
:104B60007C80854209D3786B0068A0B1786BC068FF
:104B7000C4686068854211D2B8623868C06A00EBC8
:104B8000800158F82100012800D90126F869002881
:104B9000C9D00126C7E74FF0FF30EDE7201DFFF732
:104BA0008BFDA06A18B104F11800FFF785FDE06ADB
:104BB00001213A6981401143396100EB800108EB22
:104BC0008100211DFFF7BCFDE06A3968C96A88428F
:104BD000C9D30126C7E700001C000020B40A00204A
:104BE0002DE9F0472C4D00242746286B38B1FFF7FC
:104BF000B3FD286B401E2863286B40B146E050206F
:104C000080F31188BFF34F8FBFF36F8FFEE7A86863
:104C100022490126D0B3A1F1B4098846D8F8001082
:104C2000E9B1D8F80C00C46804F11800FFF744FD9E
:104C3000201DFFF741FDE06A2A6906FA00F11143E1
:104C4000296100EB800109EB8100211DFFF778FD50
:104C5000E06A2968C96A8842E0D3EE61DEE70CB1F8
:104C6000FFF79AFBAC693CB1FFF754FF00B1EE616E
:104C7000641EF9D10020A861E86938B1084901270C
:104C800038070860BFF34F8FBFF36F8FFFF784FDC6
:104C90003846BDE8F08700001C000020680B0020AB
:104CA00004ED00E0184D0008453800080100000040
:104CB0000000000080000000000000000000000074
:104CC0002C4D000865380008FFFF000000000000C0
:104CD000000100000000000000000000244D00085A
:104CE0006137000800000000000000000002000022
:104CF000000000000000000000061016000610165C
:104D0000000000000000000001020304060708097B
:104D100000000000010203044D6F6E69746F72544D
:104D200061736B00436F6E74726F6C0053797374B0
:104D3000656D0000544D00080000002000040000D4
:104D400030060008EC4D000800040020784A0000FE
:104D5000523F0008C132018210036124F41AAA01F3
:104D60004113F001142064021B20D804134C0302E9
:104D7000242013E506F208022E40434844650AD772
:104D8000233C3A7A10096840CBFA43404910012489
:104D900022CC14200C011B204C041A8C0413492D26
:104DA0001B08A50413892C620833C0409A3F6C1974
:104DB0009C19A016408345B40714201C0942200208
:104DC00053046BD13484A11AFC740B6C4408741A1C
:104DD0006C7413DC062A20190A650C745A247409B1
:0C4DE0006AE8012C0B104509400000009F
:040000050800018965
:00000001FF
