:020000040800F2
:1000000070780020D50300089B730008ED5B0008A2
:10001000997300089B250008FDA10008000000005E
:1000200000000000000000000000000015030008B0
:100030005129000800000000710300082183000816
:10004000EF030008EF030008EF030008EF030008C8
:10005000EF030008EF030008EF030008EF030008B8
:10006000EF030008EF030008EF030008EF030008A8
:10007000EF030008EF030008EF030008EF03000898
:10008000EF030008EF030008EF030008EF03000888
:10009000C5250008EF030008EF030008EF03000880
:1000A000EF030008EF030008EF030008EF03000868
:1000B000F1830008EF030008EF030008EF030008D6
:1000C000EF030008EF030008EF030008EF03000848
:1000D000EF030008EF030008EF030008EF03000838
:1000E000EF030008EF030008EF030008EF03000828
:1000F000EF030008EF030008EF030008EF03000818
:10010000EF030008EF030008EF030008EF03000807
:10011000EF030008EF030008EF030008EF030008F7
:10012000BD280008EF030008EF030008C9280008F5
:10013000EF030008EF030008EF030008EF030008D7
:100140009D260008EF030008EF030008057800086B
:10015000EF030008EF030008EF030008EF030008B7
:10016000EF030008EF030008EF030008EF030008A7
:10017000EF030008EF030008EF0300080000000091
:10018000EF030008EF03000800F002F800F0B2F8F7
:100190000AA090E8000C82448344AAF10107DA45E2
:1001A00001D100F0A7F8AFF2090EBAE80F0013F082
:1001B000010F18BFFB1A43F00103184724DF0000AA
:1001C00044DF00000A444FF0000C10F8013B13F02C
:1001D000070408BF10F8014B1D1108BF10F8015BA0
:1001E000641E05D010F8016B641E01F8016BF9D193
:1001F00013F0080F1EBF10F8014BAD1C0C1B09D1EA
:100200006D1E58BF01F801CBFAD505E014F8016B5B
:1002100001F8016B6D1EF9D59142D6D370470000ED
:100220000023002400250026103A28BF78C1FBD8FF
:10023000520728BF30C148BF0B6070476E2900F0DD
:100240009884702900F0F98566290CF004876529E7
:100250000CF0018767290CF0FE8661290CF0FD8601
:1002600003681B0A28BF41F08001692900F0AC81B6
:10027000642900F0A981752900F0A6816F2900F09A
:100280008685782900F0C585E92900F02185E429D3
:1002900000F01E85F52900F01B85EF2900F083850D
:1002A000F82900F0C4850368DB0928BF41F080010C
:1002B000632900F0A284732900F0A784E32901F0E8
:1002C000E581F32901F0EA81002070471FB50CF0A9
:1002D000B8FE01F039FA0400002000210CF0A2FB66
:1002E000401C6060002000210CF086FBE0601FBD18
:1002F00010B510BD01F0FAF91146FFF7E7FF0BF05A
:10030000AFF801F0D7FA03B4FFF7F2FF03BC01F036
:100310001BFB00002C4B19680868B0E8F04F80F315
:100320000988BFF36F8F4FF0000080F3118870478A
:100330000000000008480068006880F308884FF05B
:10034000000080F3148862B661B6BFF34F8FBFF32D
:100350006F8F00DF00BF00BF08ED00E0DFF80C008A
:10036000016841F470010160704700BF88ED00E052
:10037000EFF30980BFF36F8F134B1A681EF0100F55
:1003800008BF20ED108A20E9F04F106009B44FF04B
:10039000500080F31188BFF34F8FBFF36F8F0CF0C5
:1003A00011F94FF0000080F3118809BC1968086842
:1003B000B0E8F04F1EF0100F08BFB0EC108A80F3C9
:1003C0000988BFF36F8F704720000020EFF305808E
:1003D000704700000948804709480047FEE7FEE7EC
:1003E000FEE7FEE7FEE7FEE7FEE7FEE7FEE7FEE7E5
:1003F00004480549054A064B70470000E1830008A0
:10040000890100087072002070780020707400204C
:100410007074002053EA020C00F069802DE9F04B63
:100420004FF00006002B1FBFB3FA83F503FA05F463
:1004300024FA05F65E4012BF1643B2FA82F502FABC
:1004400005F4C5F120051EBF22FA05FC44EA0C04A0
:10045000203556EA044C4FEA144418BF641C4FF090
:1004600000084FF00009904271EB030C39D30029CA
:1004700019BFB1FA81F701FA07F6B0FA80F700FA6E
:1004800007F6C7F120071EBF20FA07FC46EA0C0654
:100490002037B6FBF4FCA7EB0507103F07F01F0B56
:1004A000CBF120060CFA0BFB2CFA06F644BFB34640
:1004B0000026202FA4BF5E464FF0000B5BEA060C1F
:1004C00008BF4FF0010B19EB0B09ABFB027C48EBAB
:1004D0000608C01B06FB02CC0BFB03CC71EB0C0126
:1004E000C1E70B46024641464846BDE8F08B13B5CE
:1004F0004FF000004FF00001AFF30080BDE81C405A
:10050000704700000FB47CB50C0009AA009001D020
:100510002044401E084B7B4469460190089800F037
:1005200042FB05461CB10020694600F04FFB2846FF
:100530007CBC5DF814FB0000BD0600000FB47CB568
:100540000C0009AA009001D02044401E084B7B44B7
:1005500069460190089800F026FB05461CB1002072
:10056000694600F033FB28467CBC5DF814FB0000B4
:100570008506000070B50C460546012A05D028788E
:10058000800600D5EA69002302E0012305E05B1C38
:10059000934202D2E05C0028F9D1A869E618C01A9B
:1005A000A861286A18442862284600F050FA04E03E
:1005B000D5E9012114F8010B9047B442F8D328463D
:1005C00000F05BFA70BD00002DE9F0410646002402
:1005D00010687529314616A510D000F05FFA002882
:1005E00002DA404213A507E031688A0701D512A557
:1005F00002E0490704D511A5012401E000F057FAF3
:1006000000210A2206F1240709E0B0FBF2FCB0FB4E
:10061000F2F302FB1C00303078541846491C0028C5
:10062000F3D123462A463046BDE8F04100F048BAEF
:10063000000000002D0000002B0000002000000042
:100640002DE9F05F894604464FF0000ADFF874B1E7
:10065000FB44C0F820A02046E1688847002874D0F9
:10066000252806D0D4E901219047206A401C206249
:10067000F1E700265F462046E168884720280546C6
:1006800007DB312D05D2781910F8200C08B106438C
:10069000F1E7B00701D526F00406C4F81CA0002736
:1006A000C4F818A02A2D09D0284609F0D7FE38B37F
:1006B00004EB8708303DC8F8185019E059F8041BBE
:1006C000204604EB87029161E1688847012F0546C7
:1006D00018D1E069002820DA26F020061DE0D8F8BD
:1006E000180000EB800005EB40003038C8F8180017
:1006F0002046E1688847054609F0B0FE0028EED1A3
:10070000012F0AD02E2D08D12046E16888477F1C92
:100710000546022F46F02006C4DBA069002803DA54
:10072000404246F00106A061F00701D026F0100615
:100730006C2D0BD0682D09D04C2D39D06A2D35D0B9
:10074000742D35D07A2D33D016E038E0E1682F468D
:1007500020468847B842054609D16C2F26D04FF471
:100760008060E168064320468847054604E06C2F18
:100770001AD04FF4807006430DB3A5F1410019283B
:1007800002D8203546F400664A46294620462660AF
:100790004E46FFF753FD80B101280BD0F61D26F021
:1007A000070000F1080956E74020E4E78020D8E779
:1007B0000020D6E706F104094DE7284652E7206AF3
:1007C000BDE8F09F74D9000010B5431C02E010F89A
:1007D000011B71B18107FAD14FF0013202C88C1AA6
:1007E0008C4314EAC211F9D0C01A0A0603D0C01E05
:1007F00010BDC01A10BD0A0401D0801E10BD090230
:10080000FCD0401E10BD421E12F8013F002BFBD150
:1008100011F8013B002B02F8013BF9D17047032A84
:1008200040F2308010F0030C00F0158011F8013B0D
:10083000BCF1020F624498BF11F801CB00F8013BF4
:1008400038BF11F8013BA2F1040298BF00F801CBB8
:1008500038BF00F8013B11F0030300F06780083A4D
:10086000C0F0088051F8043B083A51F804CBA0E8E6
:100870000810F5E7121D5CBF51F8043B40F8043B3B
:10088000AFF30080D20724BF11F8013B11F801CB70
:1008900048BF11F8012B24BF00F8013B00F801CB41
:1008A00048BF00F8012B7047431A28BF9A427FF6D1
:1008B000B6AF032A1044114440F2268010F0030F13
:1008C0001EBF11F8013D521E00F8013D10F0030F4C
:1008D0007FF4F6AF11F0030300F0CD82083AC0F0C8
:1008E0000B8051F8043D083A51F804CD40F8043D1E
:1008F00040F804CDFFF7F3BF121D5CBF51F8043D73
:1009000040F8043DAFF30080D20724BF11F8013D49
:1009100011F801CD48BF11F8012C24BF00F8013DAA
:1009200000F801CD48BF00F8012C704710B5203AFF
:10093000C0F00B80B1E81850203AA0E81850B1E898
:100940001850A0E81850BFF4F5AF5FEA027C24BF4E
:10095000B1E81850A0E8185044BF18C918C0BDE845
:1009600010405FEA827C24BF51F8043B40F8043B0E
:1009700008BF7047D20728BF31F8023B48BF11F8C3
:10098000012B28BF20F8023B48BF00F8012B70471D
:1009900002F0FF0343EA032242EA024200F002B8F7
:1009A0004FF000020429C0F0128010F0030C00F098
:1009B0001B80CCF1040CBCF1020F18BF00F8012B16
:1009C000A8BF20F8022BA1EB0C0100F00DB85FEAE4
:1009D000C17C24BF00F8012B00F8012B48BF00F8B0
:1009E000012B70474FF0000200B51346944696461F
:1009F000203922BFA0E80C50A0E80C50B1F1200132
:100A0000BFF4F7AF090728BFA0E80C5048BF0CC0DF
:100A10005DF804EB890028BF40F8042B08BF70473D
:100A200048BF20F8022B11F0804F18BF00F8012BAF
:100A3000704770477047704710B500F047FA00687C
:100A400010BD10B5044600F041FA046010BD70B549
:100A5000044685690068C10601D5302600E02026DD
:100A6000C00707D070BDD4E9012130469047206A05
:100A7000401C20626D1EF6D570BD70B504468569B8
:100A80000078C00707D170BDD4E90121202090472C
:100A9000206A401C20626D1EF6D570BD09684A05AB
:100AA00001D540B27047C905FCD500B2704709684E
:100AB0004A0501D5C0B27047C905FCD580B2704760
:100AC0002DE9F0470D4699469246044600F1240868
:100AD0000168880604D5E06921F01001216000E07A
:100AE0000120A84201DD471B00E00027A1697A1917
:100AF00002EB0900081AA0612078C00602D4204643
:100B0000FFF7A5FF002608E0D4E901211AF8060046
:100B10009047206A401C761C20624E45F4DB20780A
:100B2000C0060AD52046FFF792FF06E0D4E901216E
:100B300030209047206A401C2062381EA7F1010730
:100B4000F4DC07E0D4E9012118F805009047206A99
:100B5000401C2062281EA5F10105F3DC2046FFF7AA
:100B60008CFF2078000602D50220BDE8F087012026
:100B7000FBE711680268006A530501D508700AE0B6
:100B8000D30501D5088006E0130603D5C217C1E9D5
:100B9000000200E0086001207047000001694A1C63
:100BA00002610878704700B58FB0CDE901310021AE
:100BB000059105497944CDE9031011466846FFF7D0
:100BC0003FFD0FB000BD0000E5FFFFFF0A6802F81F
:100BD000010B0A607047D1E900239A4202D2531CEC
:100BE0000B601070704710B5436913B1AFF300800C
:100BF00001E0FFF7BFFC012010BD127800F12401D5
:100C00000A7000224A700122EDE711684FF0FF32AE
:100C1000E9E700002DE9FF5F15468A460446DFF844
:100C2000AC80F8440027D8E900103E46CDE900101A
:100C300010E03AF816106A4602A800F033FD411C95
:100C400007D02178890603D5E269391891420DD879
:100C50000744761C2078800602D5E069B84205DD9D
:100C6000AE42E6DB3AF816000028E2D1A069C01BCC
:100C7000A0612046FFF7EBFED8E90010CDE9001097
:100C8000002017E03AF818106A4602A800F00AFDA2
:100C9000B0F1FF3F81460BD000250DF1080B05E0B8
:100CA000D4E901211BF8050090476D1C4D45F7D391
:100CB00008F10100B0428046E4DB206A384420623B
:100CC0002046FFF7DAFEBDE8FF9F0000B6D3000024
:100CD0002DE9F0418046D21D22F007020025D2E91D
:100CE0000002F52915A614D0011E72F1000106DAE2
:100CF0000023D0EB030063EB020211A608E0D8F852
:100D000000108B0701D50FA602E0490701D50EA6FA
:100D100001251146002408F1240704E000F0DAF868
:100D200030323A55641C50EA0102F7D12B46324664
:100D300021464046BDE8F041FFF7C2BE000000007A
:100D40002D0000002B0000002000000030B4002126
:100D500000F1240408E002F00705D208303542EA29
:100D60004372DB086554491C52EA0305F3D1046859
:100D7000002310A2250707D5A40600D421B1C46919
:100D800001230DA2641EC46130BCFFF799BE10B5EB
:100D9000044621461068FFF78AFE02462046BDE859
:100DA00010400023D2E7D21D22F00701D1E9002331
:100DB000CCE700000000000030000000F0B40D4659
:100DC0000188090502D5214C7C4402E01F4C7C447B
:100DD0000E34002100F1240608E002F00F0712098A
:100DE000E75D42EA03721B097754491C52EA030784
:100DF000F3D102780023120704D5702D06D009B173
:100E0000022311342246F0BCFFF75ABE01231034EE
:100E1000F8E770B504460D4621461068FFF747FE17
:100E2000024629462046BDE870400023C6E7D21D91
:100E300022F00703D3E90023C0E70368126843F0F8
:100E4000200303600823C3610023B7E718D2000022
:100E5000431A28BF9A427FF669AD104410F0030F81
:100E600011441EBF11F8013D521E00F8013D10F063
:100E7000030F7FF4F6AF103AC0F00A8010B531E9E5
:100E80001850103A20E91850BFF4F9AFBDE81040EF
:100E9000530724BF31E9081020E9081044BF51F876
:100EA000043D40F8043D12F0030F08BF7047D2071D
:100EB00028BF31F8023D48BF11F8012C28BF20F8A7
:100EC000023D48BF00F8012C704700000048704701
:100ED0000C72002030B5B0F10A024FEA900E71F1A9
:100EE00000034EEA817EB0EB0E0061EB91014FEA08
:100EF000101E4EEA017E10EB0E0041EB11114FEA7D
:100F0000102E4EEA016E10EB0E0041EB11214FEA5C
:100F1000104E4EEA014E10EB0E0041EB114140180D
:100F200041F100014FEAD00040EA41704FEAD1019F
:100F300010EB80054FEA810444EA907444EB01040D
:100F40006D1944EB0404521BA3414FF0000348BF4A
:100F50000A3200D530BD401C41F1000130BD704760
:100F60002DE9FF4F0C461E464FF0FF378BB0D2E9FC
:100F70000001DDF860800A908A46C1F30A5505B980
:100F80003D46002108464FF00000BAF1000F00F482
:100F9000400005DA00EB80004FF4400101EA500008
:100FA0004FEA9059B9F1010F00DDB9460A9850EAAD
:100FB0004A000ED044F61050A5F2FF3545432F14D9
:100FC000B8F1000F1ED07542291E1EDDC9F10002C6
:100FD0001CE0B8F1010F4FF0000001D0302103E018
:100FE000F24305E02154401CB042FBDB30460022B6
:100FF000002121540B99C1F80880C1E900200FB0ED
:10100000BDE8F08FBD1B6D1CDEE74A4600DA694281
:1010100006A800F0DDFB06AB93E8070003AB83E80E
:10102000070050460A9900F096FC8DE80700A0F5ED
:1010300000501F3800900398002D0ADD42F21F0176
:101040004A460844002303A90390684600F0FFFEC7
:1010500009E0A0F500504A461F38002303A9039079
:10106000684600F009FF8DE807000004000C03D07B
:101070004FF0FF30410800E01046B8F1000F03D0F8
:101080000022009215461EE0751E05D4FFF722FFD0
:10109000303262556D1EF9D5B3460122084302D0A5
:1010A00000227F1C04E02078302801D100227F1E1E
:1010B000002A099784D01DE0112D07DAFFF70AFFF7
:1010C000303262556D1C50EA0102F5D1084302D05E
:1010D0000098C8B10EE00021681E05E0235C625C48
:1010E00063542254401E491C8142F7DBAB46A81BC7
:1010F000401E0990002004F80B000B98099AC0F8D4
:101100000880C0E9002B7AE711264FF0000857E766
:101110002DE9F04F88460446D21D22F0070191B018
:10112000D1E90001CDE90A0109F0BCF802460B98AB
:10113000C00F01D02D2007E02068810701D52B20AA
:1011400002E0202101EAC000032A099001D0072A09
:1011500005DB03464146204600F0FAFA0BE1207811
:10116000800601D5E06900E00620B8F1650F8146F0
:1011700006D0B8F1660F18D0B8F1670F70D131E022
:101180000020B9F1110F009001DB112301E009F1FA
:1011900001030AAA01A90CA8FFF7E2FEDDE90C7021
:1011A000002609F10105834647E001204B460090E7
:1011B0004FF000470AAA01A90CA8FFF7D1FEDDE90C
:1011C0000DB00C995D46002610B909F101000D180B
:1011D000B9EB050003D4C0F1FF3609F10105A5EB19
:1011E00009002BE0B9F1010F01DA4FF001090020ED
:1011F000B9F1110F0090484601DD112300E00346CC
:101200000AAA01A90CA8FFF7ABFEDDE90C704D4658
:1012100000268346207800070AD4AB4500DA5D46F5
:1012200001A8012D04DD411911F8011C302907D056
:101230004F4502DA17F1040F04DA012082460FE06D
:101240006D1EEEE7002F02DCED1B3E4403E0781C30
:10125000A84200DD7D1CB81B00F1010A4FF00047D9
:101260002078000703D4AA4501DB4FF0FF3A0021A4
:10127000B7F1004F0DF143088DF8431024D0022040
:101280002B23002F01DA7F422D230A21021EA0F119
:10129000010000DC5FB197FBF1FC97FBF1F201FB71
:1012A0001C7C17460CF1300C08F801CDEEE7A8F1D4
:1012B000010003702188090501D5452100E0652161
:1012C000A0F1010800F8011C09980FA9A1EB08077B
:1012D000FF1D00B10120411901EBEA70A1693844FA
:1012E000081A401EA0612078C00602D42046FFF7ED
:1012F000AEFB099828B1D4E901219047206A401C2F
:1013000020622078C00622D52046FFF7A0FB1EE011
:10131000002E04DBB34502DD01A8805D00E0302033
:10132000D4E901219047206A401C2062761CAAF172
:1013300001005FEA000A0AD100F006FAC0680168FD
:10134000405CD4E901219047206A401C2062281E9D
:10135000A5F10105DCDC07E0D4E9012118F8010B57
:101360009047206A401C2062381EA7F10107F3DC79
:101370002046FFF782FB032011B041E62DE9F04F34
:1013800004460D46D21D22F0070089B0D0E900972F
:101390004846394608F086FF0246F80F01D02D2353
:1013A00007E02068810701D52B2302E0202101EA14
:1013B000C0038DF820300BB1012000E00020032A8B
:1013C000824601D0072A04DB2946204600F0C0F9F6
:1013D0003FE12078800601D40D2500E0E569C7F3E0
:1013E0000A560D2D49DA00214FEA175B08464FF0E7
:1013F0000000002F00F4400007DA00EB80004FF4FB
:10140000400100EBD07001EA60008115012901DD87
:101410004FF0FF3100224FEA850CBCF1180F06D3C4
:101420001346ACF118004FF08052C24003E04FF475
:10143000801323FA0CF30CF10C0CBCF1200F04D335
:10144000ACF1200C09FA0CF001E007FA0CF00029CD
:101450004FF0004801DD18B90FE00ED140450CD324
:1014600019EB02095F4121B9404502D19F4329EAA6
:101470000209BBEB175F00D0761C2088000502D55F
:101480007B48784402E07A487844193808AA302327
:1014900002F80A30037C0AF10101002E0AF1020A67
:1014A00053546A4602DC4FF0300101E04FF0310145
:1014B0004FF001088DF8001002D0A6F2FF3603E0CD
:1014C00059EA470100D06B4E002D02DC2178090754
:1014D00004D54FF002082E218DF80110C4460021DA
:1014E0000BE0C7F303433F01C35C491C6D1E02F8C8
:1014F0000830052908F1010801DA002DF1DC00218E
:101500000CE000EB1973491C1B786D1E082902F8CA
:1015100008304FEA091908F1010801DA002DF0DC62
:1015200021688B0602D516E0A8F10108E04505DD2B
:1015300002EB080313F8013C302BF5D0B8F1000F93
:1015400009DD02EB080313F8013C2E2B03D1090738
:1015500001D4A8F10108002D05DD3E2102F8081094
:101560006D1E08F10108407C002E02F8080008F109
:10157000010804DA2D20764202F8080002E02B2050
:1015800002F808000A214FF47A70864208F1010837
:101590000BDB96FBF0F3303302F8083096FBF0F3E8
:1015A00008F1010800FB136601E0642E0CDB6420E7
:1015B00096FBF0F3303302F8083096FBF0F308F1B5
:1015C000010800FB136601E00A2E06DB96FBF1F032
:1015D000303002F8080008F1010896FBF1F001FB39
:1015E0001060303002F80800A16908F1010808EB2A
:1015F000050202EB0A00081AA0612078C00602D496
:101600002046FFF724FA216A08AE01EB0A002062A7
:1016100004E0D4E9012116F8010B9047BAF1010A60
:10162000F7D22078C00602D52046FFF710FA6E46A2
:1016300009E016F8010B3E280FD0D4E901219047AC
:10164000206A401C2062B8F10108F2D22046FFF760
:1016500014FA09B00320BDE8F08F206A2844206204
:1016600003E0D4E90121302090476D1EEBD3F8E769
:1016700099CB000002FCFFFF10B5436913B1AFF333
:10168000008001E0FFF7C6FA012010BD128800F1CA
:10169000240182840022C2840122EDE711684FF008
:1016A000FF32E9E770B516460C46054600F044F8EF
:1016B000036893F80101012806D0FF2C0FD8185DAC
:1016C00068B101202C7070BDD3F807013246214665
:1016D00003F2071303442846BDE8704018474FF053
:1016E000FF3070BD004870470C7200207546FFF750
:1016F000F9FFAE4605006946534620F007008546CF
:1017000018B020B5FEF774FEBDE820404FF000068B
:101710004FF000074FF000084FF0000B21F00701D9
:10172000AC46ACE8C009ACE8C009ACE8C009ACE81C
:10173000C0098D467047000010B500F005F8001D87
:1017400010BD00BFE1B20000004870472C720020BD
:101750002DE9F0411F46044603260168072A01F4DB
:10176000006004DB08B116A505E016A503E008B18A
:1017700015A500E015A521F010002060A069C01E8D
:10178000A0610FB1401EA0612046FFF760F94FB184
:10179000D4E9012138469047206A401C2062C01CD1
:1017A000206206E0206AFAE7D4E9012115F8010B6E
:1017B0009047761EF8D22046FFF75FF9BDE8F0812A
:1017C0004E414E006E616E00494E4600696E6600E5
:1017D0002DE9F047814616468AB0354878440DC851
:1017E0008DE80D0032487844801C03AC0DC884E8B5
:1017F0000D0041F69B300844372190FBF1F290FB3D
:10180000F1F5A5F1800501FB12041B3C02D56442F1
:10181000012000E00020DFF898A080460027FA446D
:10182000AAF1BE0A0EE0E0070AD03246684607EB8E
:10183000470101230AEB810100F01EFB8DE8070040
:1018400064107F1C002CEED1194F7F44AE3F19E08D
:10185000E80715D007EB04100DF1180A90E80E0008
:101860008AE80E00C068F04201D19819089032460B
:10187000012306A903A800F0FFFA03AB83E80700E1
:101880006D10641C002DE3D14FF001033246694610
:10189000B8F1000F03A802D000F0D9FA01E000F07F
:1018A000EBFAC9E90001C9F808200AB0BDE8F087E1
:1018B000D0C8000010B50446AFF300802046BDE854
:1018C0001040FEF720BD00004FF0013C50F8042B03
:1018D00051F8043B9A4221D1A2EB0C03934313EA43
:1018E000CC1317D150F8042B51F8043B9A4215D170
:1018F000A2EB0C03934313EACC130BD150F8042B47
:1019000051F8043B9A4209D1A2EB0C03934313EA2A
:10191000CC13DBD04FF00000704700BFD01A01BAE3
:10192000B1FA81F101F0180122FA01F0CB40C1F1C6
:101930002001DBB2C0B2C01A2CFA01F3D11A9143D4
:1019400011EAC311E6D1704701491820ABBEFEE78A
:101950002600020070475FEA400C08BF91F0000FBC
:101960004FEA8C234FEAC12243EA51514FEA1C50FF
:1019700018BF00F5F0404FEA300018BF41F00041B9
:101980005FEA6C5C00F02980BCF1FF3F08BF40F0CB
:1019900080407047130C06BF12044FF0100C4FF03C
:1019A000000C130E04BF12020CF1080C130F04BF3D
:1019B00012010CF1040C930F04BF92000CF1020C05
:1019C000D30F04BF52000CF1010C11464FF000027E
:1019D000A0F11F00A0EB0C00704711F0004F08BFF2
:1019E000704731F000413FF4D5AF0B0C06BF09043E
:1019F0004FF0100C4FF0000C0B0E04BF09020CF15D
:101A0000080C0B0F04BF09010CF1040C8B0F04BF71
:101A100089000CF1020CCB0F04BF49000CF1010C42
:101A2000CCF12003A0EB0C0022FA03F302FA0CF233
:101A300041EA030100F10100704720F07F4C80EA89
:101A4000030023F07F47ACEB070303F57C5300F062
:101A5000004003F1FF032DE980494FEA154B09B41B
:101A60004FEA144325EA0B4E24EA03480FF20426FA
:101A700006EB132749083E785FEA320203FB06674C
:101A8000C7F5000707FB06F64FEA54374FEAD6467C
:101A900006F1020607FB066CCCF1005C4FEA1C471E
:101AA0002CEA074C07FB06F40CFB06F504EB154685
:101AB0004FEA961634BF00204FF000404FEAD1376E
:101AC00006FB07FC4FEA1C4C0CFB0BF7D21B03FB7D
:101AD0000CF761EB07010CFB0EF7B0EB074072EB64
:101AE00017420CFB08F734BFA2EB0742B2EB0742E8
:101AF00061EB17414FEA0C444FEA910706FB07FCE4
:101B00004FEA1C4C0CFB0BF7B0EBC74072EB5732A3
:101B100003FB0CF734BFA2EBC742B2EBC74261EB49
:101B200057310CFB0EF7B0EBC70072EB57720CFB92
:101B300008F734BFA2EBC702B2EBC70261EB5771E3
:101B4000039F4FEA816141EA921104EBCC044FEA12
:101B5000D1374FEA826206FB07FC42EA90124FEA55
:101B600080604FEA1C4C0CFB0BF7D21B03FB0CF7FD
:101B700061EB07010CFB0EF7B0EB074072EB17426D
:101B80000CFB08F734BFA2EB0742B2EB074261EB54
:101B900017414FEA8C554FEA910704EB9C2406FB52
:101BA00007FC4FEA1C4C0CFB0BF7B0EBC74072EB89
:101BB000573203FB0CF734BFA2EBC742B2EBC7426C
:101BC00061EB57310CFB0EF7B0EBC70072EB5772AD
:101BD0000CFB08F734BFA2EBC702B2EBC70261EB04
:101BE000577115EB4C254FEA816141EA92114FEA9A
:101BF00082624FEAD13742EA901206FB07FC44F1B9
:101C000000044FEA80604FEA1C4C0CFB0BF7D21B20
:101C100003FB0CF761EB07010CFB0EF7B0EB074081
:101C200072EB17420CFB08F734BFA2EB0742B2EB92
:101C3000074261EB174115EB1C154FEA813141EA70
:101C400092414FEA823242EA90424FEA80304FEAB4
:101C50000C7644F1000448EA03434EEA0B484FF087
:101C6000000EB2EB080C71EB030724BF6246394645
:101C70004EEB0E0E4FF0000B0018524149414BEB5A
:101C80000B0BB2EB080C71EB03077BF1000B24BFCD
:101C9000624639464EEB0E0E4FF0000B00185241D3
:101CA00049414BEB0B0BB2EB080C71EB03077BF1DB
:101CB000000B24BF624639464EEB0E0E51EA020776
:101CC00018BF46F0010616EB0E7655F1000254F1EE
:101CD000000103D5BDE88901BDE80088BDE88901A0
:101CE000BDE80048B619524141EB0101A3F10103DF
:101CF000704780807F7E7D7C7B7A79787776767579
:101D00007473727171706F6E6E6D6C6C6B6A6A69F0
:101D10006868676666656464636362616160605F8A
:101D20005F5E5E5D5D5C5C5B5B5A5A595958585703
:101D3000575656555555545453535252525151506B
:101D400050504F4F4F4E4E4D4D4D4C4C4C4B4B4BBE
:101D50004A4A4A4949494848484747474746464604
:101D6000454545444444444343434342424242413F
:101D70004141002B9C4630D477002BD01CB54FEA54
:101D8000370703B44FF010004FF01001BAF1000F05
:101D900006D0BCF1000FDCBF40F0080040F00801A5
:101DA0004FF000000FBCBDE810400BF1010BBBF180
:101DB000010F08BF5FEA170722BF12F1010211F1FC
:101DC00001014FF0004143F1000300F0004043EAFD
:101DD00000007047F9D35708D0E746EA064613F1EA
:101DE000400F4FEA16461FDD13F1200FDFBF1643E9
:101DF0000A46002120335B42BED0C3F1200746EAE9
:101E0000064602FA07F74FEA164646EA0706C3F106
:101E1000200722FA03F201FA07F721FA03F14FF043
:101E2000000342EA0702A7E746EA020646EA064638
:101E30004FEA164646EA0106BCBF46EA0646360C9D
:101E40004FF000034FF000024FF0000194E72DE93E
:101E5000804C9A46934670B491E8380007C831EA3E
:101E6000400C48BF34EA430C03D5FFF7E6FDFFF70B
:101E700080FFF0BCBDE8008C2DE9804C9A4693466B
:101E800070B491E8380007C810F0804F08BF13F015
:101E9000804F03D100F005F8FFF76BFFF0BCBDE801
:101EA000008C20F07F4780EA030023F07F4C07EB93
:101EB0000C03A3F57C5300F00040A3F1FE0392F065
:101EC000000F00F0B38095F0000F00F077802DE94F
:101ED00001494FEA11404FEA144621EA004800FB4D
:101EE00006FC24EA064708FB06F607FB08F800FB99
:101EF00007F718EB06484CEB164C4FEA124B18EB61
:101F000007484FEA15464CEB174022EA0B4E0BFBF5
:101F100006FC25EA06470EFB06F607FB0EFE0BFB4A
:101F200007F71EEB064E4CEB164C4FF000061EEB6F
:101F3000074E4CEB174B18EB0B0840F1000018EB69
:101F40000E0B58EB000840F100008F1A4FF0000113
:101F50003CBFC943661B14BFB5EB040C00213CBF5A
:101F6000C943F61B4FEA17444EEA8E0E27EA044592
:101F70004FEA1C4704FB07622CEA074C05FB07F7F6
:101F80000CFB05F604FB0CFC16EB074642EB174274
:101F900016EB0C4642EB1C421BEB060658EB02020A
:101FA000414146EA9E0601D5BDE80189B619524174
:101FB00041EB0101A3F10103BDE801894FEA14459A
:101FC0004FEA114724EA054621EA074C05FB07F4CE
:101FD00006FB07F70CFB06F105FB0CFC11EB0741B8
:101FE00044EB17444FEA124711EB0C4144EB1C44FD
:101FF00022EA074C05FB07F206FB07F70CFB06F687
:1020000005FB0CFC16EB074642EB174216EB0C46A1
:1020100042EB1C456A1854F1000148BF7047B619DD
:10202000524141EB0101A3F10103704795F0000F0C
:1020300037D04FEA11424FEA144721EA024624EA18
:10204000074C02FB07F106FB07F70CFB06F402FB4B
:102050000CFC14EB074441EB17414FEA154714EB16
:102060000C4441EB1C4125EA074C02FB07F506FB3B
:1020700007F70CFB06F602FB0CFC16EB074645EBDC
:10208000174516EB0C4645EB1C42121951F10001A5
:1020900048BF7047B619524141EB0101A3F101035A
:1020A00070474FEA14454FEA114724EA054621EAF2
:1020B000074C05FB07F106FB07F70CFB06F24FF098
:1020C000000605FB0CFC12EB074241EB174112EB3B
:1020D0000C4251EB1C4148BF7047921841EB010183
:1020E000A3F1010370470000464910B54A6822F485
:1020F00040324A604A6843681A434A6001684A6845
:1021000022F480724A6001684A68036942EA032245
:102110004A6001684A6822F040724A6001684A6871
:1021200083681A434A6001688A6822F400628A6000
:1021300001688A68C3681A438A60816A6FF07062B6
:10214000D14201688A6822F070628A6001688A68F8
:102150000CD0836A1A438A6001688A6822F0405270
:102160008A6001688A68C36A1A4301E022F040521B
:102170008A6001688A6822F002028A6001688A68BF
:10218000037E42EA43028A6090F820100029016829
:102190004A680FD042F400624A6001684A6822F43B
:1021A00060424A6001684A68174C436A04EB433353
:1021B0001A4301E022F400624A600168CA6A22F40C
:1021C0007002CA620168CA6A838B104C04EB035325
:1021D0001A43CA6201688A6822F400728A60016840
:1021E0008A6890F8303042EA43228A6001688A683F
:1021F00022F480628A6001688A68406942EA80202D
:10220000886010BD0023014000E0FFFF0000F0FFE8
:1022100001221021014801F06ABE000000000240C6
:1022200000221021014801F062BE000000000240BF
:102230007047000001221146014801F058BE00001D
:102240000004024000220121014801F050BE0000BC
:1022500000040240704770B504464FF47A7502E0FE
:10226000284600F005F8641EA4B2F9D270BD000043
:1022700070B5054608F0F6FD4FEA000408F0F2FDDF
:10228000001BA842FAD370BD10B5FFF7D1FFFFF7CE
:10229000E1FF08F0F1FC044608F076FD204310BD94
:1022A0002DE9FC410746002016460D46009001909E
:1022B000FFF7B6FF922000F0BDF806226946122013
:1022C00000F09AF8FFF7A4FF9DF801009DF80010B8
:1022D000000200B2084300EE100A464CB8EEC00AF5
:1022E000D4ED000A20EE200A85ED000A9DF80300D7
:1022F0009DF80210000200B2084300EE100AD4ED6F
:10230000000AB8EEC00A20EE200A85ED010A9DF809
:1023100005009DF80410000200B2084300EE100A08
:10232000B8EEC00A20EE200A85ED020AFFF78AFF08
:1023300008226946002000F05FF8FFF77BFF9DF858
:1023400000000F2830D19DF803009DF80210000214
:1023500000B2084300EE100AD4ED010AB8EEC00A3C
:1023600020EE200A87ED000A9DF805009DF8041074
:10237000000200B2084300EE100AD4ED010AB8EEE4
:10238000C00A20EE200A87ED010A9DF807009DF89B
:102390000610000200B2084300EE100AB8EEC00AB0
:1023A00020EE200A87ED020AFFF73AFFA22000F094
:1023B00041F802226946222000F01EF8FFF728FFAC
:1023C0009DF800009DF80110C00040EA5110B0F5E2
:1023D000806F01DBA0F5006000EE100AB4EE001A79
:1023E000F8EEC00AB3EE070A00EE810A86ED000A95
:1023F000BDE8FC815409002070B514460D4640F03C
:10240000800000F017F806E0552000F013F8641E75
:1024100005F8010BE4B2002CF6D170BD10B50C46E6
:1024200040F0800000F006F8552000F003F820701E
:1024300010BD000001B582B04FF47A700090012306
:1024400001AA02A9024802F0C4FF9DF804000EBDD3
:10245000200E002010B50C46FFF7ECFF2046BDE82B
:102460001040FFF7E7BF000070B506462DED088B62
:1024700014460D46B0EE628AB0EE429AF0EE618AE2
:10248000F0EE609A10EE100A0AF06AFD9FED3FBB75
:1024900053EC1B2B0AF066FC0AF0DAFA0AEE100A7B
:1024A00019EE900A0AF05CFD53EC1B2B0AF05AFC63
:1024B0000AF0CEFA09EE900AB0EE4A0A08F042FBA2
:1024C000DFED34AA40EE2A8AB0EE690A08F03AFB42
:1024D000B0EE40BAB0EE4A0A08F0D6F82BEE000A89
:1024E00000EE6A9AB0EE690A08F0CEF8B0EE40BA93
:1024F000B0EE4A0A08F0C8F82BEE000A00EE6A8A2D
:10250000B0EE4A0A08F0C0F860EE28AAB0EE4A0A17
:1025100008F018FB48EE00AAB0EE690AC6ED00AA62
:1025200008F0B2F860EE09AAB0EE690A08F00AFBFA
:1025300048EE40AAB0EE4A0AC5ED00AA08F0A4F899
:1025400020EE088AB0EE690A08F09EF828EE008AAC
:10255000B0EE4A0A08F0F6FA60EE288AB0EE690A90
:1025600008F092F808EEC08AB0EE690A08F0EAFABC
:1025700060EE098AB0EE4A0A08F086F808EE808A12
:1025800084ED008ABDEC088B70BD0000514CDE006C
:1025900033DF913F0AE81C417047FEE700B58BB07E
:1025A000684600F082F86946054800F005FF022100
:1025B000034800F087FE024801F01CFA0BB000BD92
:1025C000D00D0020014800F0F8BF0000D00D002021
:1025D00070B5174C40F2FF15082625600025A56050
:1025E000C4E90356134C060A26706070080AA070EE
:1025F000E170100A20716271180AA071E371002065
:10260000215C09B9401CC0B208280FD0401CC0B2E0
:102610000828F5D3074B06491B1F1A1D064800F072
:1026200063FE0449091F4D608D6070BD002070BDC0
:10263000A05100202C080020D00D002070B50025EE
:102640000B4CA0F5007005380AD0012807D1D4F84A
:102650008435082204F53670984784F8FA5270BD24
:10266000D4F8AC3208220248984784F8225070BD52
:10267000F800002000B58BB0684600F016F86946F7
:10268000054800F099FE0221034800F01BFE0248B5
:1026900001F0B0F90BB000BDF80D0020014800F0CA
:1026A0008CBF0000F80D00207047002101604160E0
:1026B0008160C160016101224161C0E90612C0E987
:1026C0000821704710B5124A016891420DD1114B93
:1026D00000211C46A3F11C0200F0F5FE0D48214626
:1026E0001C380068FFF7AAFF10BD0B4A9142FBD1CE
:1026F000084B002124331C46A3F11C0200F0E3FE2A
:102700000448214608300068FFF7CEFF10BD0000E6
:1027100000640040405100200068004010B50B4CA0
:10272000036888B0A34202D0094CA3420BD10091A8
:102730000021029103910821049106AB694600F043
:10274000D3FD002800D0012008B010BD0064004077
:1027500000680040002070470020704710B500223C
:102760000449054806F08EF90449034806F07DF94E
:10277000002010BD086300202C560020085B0020BC
:1027800070B505460146084806F06FF9064806F0A0
:1027900045F9064C29462046E268904721692046C3
:1027A0008847002070BD00002C560020D006002075
:1027B00000207047094A10B5D2F8BC22D2F8142282
:1027C0000AB1012010BD0A460146044806F05AF934
:1027D000BDE81040014806F0CFB900002C5600209B
:1027E0004188491C8AB2428081888A4202D941804C
:1027F000012103E00178012901D100210170704716
:10280000064941620649C16206498162012101709F
:102810000021418064218180704700003928000830
:1028200029280008E127000819B10A6842614968AF
:10283000816100214180704770B51B4D04462DED2C
:10284000028B6E429FED198A90ED020A29463046AE
:10285000B0EE481AF1EE000A08F03EFBA08294EDBB
:10286000030A29463046B9EE001AF0EE480A08F08D
:1028700033FBE08294ED040A29463046B0EE481A54
:10288000DFED0B0A08F028FB20830A486169024645
:102890000160A169416040F21111BDEC028B064854
:1028A000BDE87040FFF73ABF0083FFFF0000000063
:1028B000DB0FC940E8060020D00D0020014801F0E0
:1028C000CDB80000D00E0020014801F0C7B80000CC
:1028D000300F002001681823CAB2103AB2FBF3F29D
:1028E000054B6FF30901032A9B5CC36500D9091DE1
:1028F0008165084670470000B4D0000810B5014655
:1029000000208B698A6A4FF0C07453B1B3F5005F41
:1029100015D072B1012A0CD0022A0AD0032A09D19B
:1029200004E01AB1012A06D0022A03D1C96AC901FA
:1029300000D5012010BDC96AA142FAD010BD002AFD
:10294000F7D0012AF2D0022AF3D0032AF3D010BD27
:1029500070470000174810B581688847164C20461C
:10296000D4F8A01204F528748847D4F8D812134874
:1029700088471248A26812498038904710490F488A
:102980001C31A268C43890470D49D4F8E022383190
:102990000C4890470A490B485431D4F8E022443897
:1029A00090470948016A884704F026FDBDE81040B9
:1029B000FFF7F2BDD0060020F8000020D003002071
:1029C0008800002028060020F0060020044810B5EA
:1029D00001698847FFF7E2FDBDE81040FFF74ABEF6
:1029E000D409002072B6FEE710B504464068DFED5A
:1029F0002F0AD0E90012806891ED000AE16830EEFC
:102A0000C00A4968DFED2A0A81ED000A92ED000A4A
:102A1000E16830EEC00A496881ED010A016891ED74
:102A20000D0AE168496881ED020A016891ED0E0A1C
:102A3000E168496881ED030A016891ED090AE168DE
:102A4000496881ED040A016891ED0A0AE168496864
:102A500081ED050A016891ED0E0AE168496881ED92
:102A6000070A006890ED0D0AE068406880ED060AEC
:102A7000204600F089F9204600F014F9206900781A
:102A8000002811D1207801280ED003202070A168E1
:102A90000868401C0860A168B0F5FA7F04D90020DE
:102AA000086021690120087010BD000000D04F456A
:102AB0000088D44570B504462DED028B00789FED5B
:102AC000628A01284FD0022856D0032851D160686D
:102AD0000568204600F058F9E068D5F8C0320222B7
:102AE0000168406891ED001AD0ED020A90ED000AED
:102AF00005F5E87105F5C6709847E06880ED020AB3
:102B000060684568204600F0CDF8E068D5F8C0322E
:102B100002220168406891ED011AD0ED030A90EDA0
:102B2000010A05F5E87105F5C6709847E06880ED83
:102B3000030AE068416891ED010AB5EEC00AF1EEC2
:102B400010FA01DCB1EE400A10EE102A3F48824232
:102B50006BDC91ED000AB5EEC00AF1EE10FA49DD2A
:102B6000F0EE400A48E0E06880ED028AE06880ED1F
:102B7000038ABDEC028B70BD60680568204600F0DA
:102B800003F9E068D5F8C03203220168406891ED8E
:102B9000021AD0ED060A90ED040A05F5167105F546
:102BA00005709847E06880ED020A60684568204635
:102BB00000F078F8E068D5F8C03203220168406878
:102BC00091ED031AD0ED070A90ED050A05F516718F
:102BD00005F505709847E06880ED030AE0684168F4
:102BE000006891ED010A80ED010AE068006880ED5F
:102BF000008ABEE7F1EE400A10EE901A81420EDD27
:102C00009FED131A70EE410AF5EEC00AF1EE10FACC
:102C100001DC71EE400A10EE901A814205DC216958
:102C200001200870A16800200860E0684168006821
:102C300091ED040A80ED020AE0684168006891EDB8
:102C4000050A80ED030A94E7000000006F12033CC0
:102C50000000804510B5044640680068D0F8A41212
:102C6000884760684068D0F8A41288476068816827
:102C700001F11C008969BDE8104008470269002184
:102C80009FED070A1170C268126882ED000AC268DF
:102C9000126882ED010A82681160806841607047A5
:102CA0000000000010B5C0684FF0FF344FF08B43B8
:102CB000416891ED010A15E0B5EEC00AF1EE10FA97
:102CC00001DD012207E0B5EEC00AF1EE10FA01D2F3
:102CD000224600E00022520300EE902AF8EEE00ABD
:102CE00030EE600AB5EEC00AF1EE10FA02DDF0EE49
:102CF000400A01E0F1EE400A10EE902A9A42DBDC35
:102D000081ED010A0268154C154B92ED010A10EE97
:102D1000101AA14202DD9FED130A05E010EE101A11
:102D2000994201D99FED100A9FED101A82ED010A18
:102D30000068DFED0F0A90ED030AB4EEC10AF1EE70
:102D400010FA01DDB0EE410AB4EEE00AF1EE10FA3D
:102D500001D2B0EE600A80ED030A10BD0000A74367
:102D600000009BC30000A74300009BC3EA856141AC
:102D7000B00958C110B50446FFF736FE2046BDE83D
:102D80001040FFF797BE000010B5C068436893ED90
:102D9000040ADFED570A57494FF0FF3215E000BF34
:102DA000B5EEC00AF1EE10FA01DD012407E0B5EE40
:102DB000C00AF1EE10FA01D2144600E0002401EE40
:102DC000104AB8EEC11A01EE600AB5EEC00AF1EE83
:102DD00010FA02DDB0EE401A01E0B1EE401A11EE39
:102DE000104A8C42DCDC83ED040A036893ED020A8E
:102DF00015E000BFB5EEC00AF1EE10FA01DD0124C6
:102E000007E0B5EEC00AF1EE10FA01D2144600E078
:102E1000002401EE104AB8EEC11A01EE600AB5EEC8
:102E2000C00AF1EE10FA02DDB0EE401A01E0B1EE98
:102E3000401A11EE104A8C42DCDC83ED020A416834
:102E40004FF08B4391ED000A16E000BFB5EEC00ACB
:102E5000F1EE10FA01DD012407E0B5EEC00AF1EE53
:102E600010FA01D2144600E00024640300EE904AF8
:102E7000F8EEE00A30EE600AB5EEC00AF1EE10FAA4
:102E800002DDF0EE400A01E0F1EE400A10EE904A59
:102E90009C42DBDC81ED000A006890ED000A15E041
:102EA000B5EEC00AF1EE10FA01DD012107E0B5EE42
:102EB000C00AF1EE10FA01D2114600E000214903E8
:102EC00000EE901AF8EEE00A30EE600AB5EEC00AA5
:102ED000F1EE10FA02DDF0EE400A01E0F1EE400AF8
:102EE00010EE901A9942DBDC80ED000A10BD000064
:102EF0000000B4430000344378B50024009490F8F7
:102F00003C20012A19D0012280F83C200A680723BE
:102F10000568092A13D9EE680A3A02EB4202934087
:102F20009E43EE600B788A680A3B03EB43039A40AA
:102F30000368DD682A43DA6010E0022078BD2E695C
:102F400002EB420293409E432E610B788A6803EBAA
:102F500043039A4003681D692A431A614A681F2384
:102F6000072A13D205686E6B521E02EB8202934051
:102F70009E436E630B790A885B1E92B203EB830358
:102F80009A4003685D6B2A435A6327E005680D2A5F
:102F900012D22E6BD21F02EB820293409E432E630D
:102FA0000B790A88DB1F92B203EB83039A40036814
:102FB0001D6B2A431A6311E0EE6A0D3A02EB82029E
:102FC00093409E43EE620B790A880D3B92B203EB6D
:102FD00083039A400368DD6A2A43DA62164B056868
:102FE000144A9D4206D10D68122D03D1556845F44F
:102FF0008005556005689D4218D10B68102B01D0E3
:10300000112B13D1536843F400035360096810294E
:103010000CD10A490A4A0968B1FBF2F101EB8101BE
:10302000490000E0491E00910029FBD180F83C4096
:10303000002078BD00230140002001401C0000203A
:1030400040420F000068C06C704770B504004FF03C
:10305000000503D0206C002610B107E0012070BDF0
:10306000204600F01DF8666484F83C60206CC006C1
:1030700010D4206C20F4885040F0020020642046D8
:10308000FFF732F86664206C20F0020040F0010087
:10309000206400E0012584F83C60284670BD0000F3
:1030A00010B586B0044614216846FDF79BFC174B0B
:1030B0002268002116489A4209D1016841F48071C2
:1030C0000160006800F48070059006B010BD114BDF
:1030D0009A42FAD1026842F480620260006800F409
:1030E000806005900A481438026842F020020260AD
:1030F000006800F020000590181500900320CDE92D
:1031000001016946044800F0F5FDDEE700200140BA
:103110004438024000220140001402402DE9F041F1
:10312000044600680D4681684FF0000749050BD53D
:103130008068C00508D5206C40F02000206484F829
:103140003C700120BDE8F08100F0D6FE064613E099
:10315000681C11D025B100F0CFFE801BA8420BD90E
:1031600020680068800707D4206C40F004002064C9
:1031700084F83C700320E5E7206800688007E7D505
:1031800021686FF012000860206C40F40070206429
:103190002068816811F0405F13D1217E89B9C16A2E
:1031A00011F4700F02D0806840050AD4206C20F41E
:1031B00080702064206CC00403D4206C40F00100B7
:1031C00020640020BEE7000018B50021009190F8AF
:1031D0003C20012A07D0012280F83C200268936835
:1031E000DB0702D011E0022018BD936843F0010311
:1031F00093602E4A2E4B1268B2FBF3F202EB4202AE
:1032000000E0521E0092002AFBD102689368DB079F
:1032100042D0036C40F20164A34343F4807303641F
:1032200053685B0505D5036C23F4005343F48053C6
:103230000364036CDB0404D5436C23F0060343648E
:1032400000E0416480F83C101A496FF022031360DB
:1032500049680068CA06184906D0884224D18168A6
:1032600011F0405F13D01FE08842F8D0134A90421B
:1032700003D1D1F80423D206F1D0114A904213D1E0
:10328000D1F8041301F01F011029E8D30CE0816884
:1032900041F08041816007E0016C41F01001016460
:1032A000416C41F001014164002018BD1C00002068
:1032B00040420F0000230140002001400021014056
:1032C0000022014090F82020012A07D0022A05D0D0
:1032D000416A41F4802141620120704700684269DF
:1032E0000A43426100207047F0B590F8205004680E
:1032F000A468012D05D0022D03D0416A41F480213C
:1033000057E014F0406F01D1E5004FD5C4F30164DC
:103310000125A5401D608D684FF4C0739DB1CE6836
:1033200035434E6845EAC605066803EB0417F551B8
:103330004FF4C275076805EB04150E697E51097DCF
:10334000012905D009E00E88CD6845EA4655EBE72E
:1033500001684E5946F480764E511179D5795679E7
:1033600041EA056195792D0445EA062529434FF484
:10337000C676056806EB0416A9511178D57841EA9E
:103380000561957852782D0445EA022211434FF4E5
:10339000C475026805EB04155151006803EB041174
:1033A000425842F0010242500020F0BD416A41F40F
:1033B000001141620120F0BD10B590F82020012AD3
:1033C00007D0022A05D0416A41F4802141620120E0
:1033D00010BD3B48D0F8002242F00102C0F80022A4
:1033E000D0F8002222F47C52C0F80022D0F800224B
:1033F0004B6A42EA0322C0F800220A7D02F01F0352
:1034000001229A40D0F81C329343C0F81C32CB6999
:10341000B3B9D0F80C329343C0F80C328C894B68A6
:1034200064F31F434C6900EBC404C4F840320C89B8
:103430000B6864F31F434C6900EBC404C4F84432C6
:10344000CB69012B16D1D0F80C321343C0F80C32E3
:103450000C884B6864F31F434C6900EBC404C4F848
:1034600040320C89CB6864F31F434C6900EBC40401
:10347000C4F844328B69002BD0F804320ED01343C9
:10348000C0F804320B69002BD0F8143208D0134373
:10349000C0F81432096A012904D008E09343EFE729
:1034A0009343F5E7D0F81C121143C0F81C12D0F872
:1034B000001221F00101C0F80012002010BD000030
:1034C00000640040704770B590F82040012C05D092
:1034D000022C03D0416A41F4802128E0046809B33A
:1034E0002469A40720D04FF4D874056804EB0114B4
:1034F0002D5915F00405956005682D591AD0ED0871
:10350000556005682C5904F00204D4604FF4DA7455
:10351000056804EB01142E5906F00F06082E0CD393
:1035200008250DE0E468DCE7416A41F400114162DE
:10353000012070BD6D0D1560E3E72D5905F00F05F5
:10354000156105682D59C5F30725956105682C5946
:10355000240C54614FF4DC72046802EB0112A4588D
:103560001C700468A458240A5C700468A458240CD5
:103570009C700468A258120EDA704FF4DE72046870
:1035800002EB0112A4581C710468A458240A5C714F
:103590000468A458240C9C710468A258120EDA71B5
:1035A000006829B1016941F020010161002070BD6E
:1035B000C16841F02001C160F8E72DE9F05F0546E0
:1035C000006800244669D0F804908768D0F80CB0F1
:1035D000D0F810A0D0F81880F10748D0F90714D01F
:1035E00001218160B80703D5284600F030FA0CE0CD
:1035F000780702D54FF4006407E0380702D54FF48E
:10360000805402E0284600F021FAF80516D5296812
:103610004FF480708860B80503D5284600F019FA89
:103620000CE0780502D544F4005407E0380502D5D3
:1036300044F4804402E0284600F00AFAF80316D564
:1036400029684FF480308860B80303D5284600F01D
:1036500002FA0CE0780302D544F4004407E0380392
:1036600002D544F4803402E0284600F0F3F9300734
:1036700007D55FEACB6004D52968102044F40074B4
:10368000C86070074FF0080707D55FEA0B7004D5D4
:103690002868C760284600F099F9B00706D5286861
:1036A000C068800702D0284600F092F9700607D55E
:1036B0005FEACA6004D52968102044F48064086178
:1036C000B00607D55FEA0A7004D528680761284666
:1036D00000F08CF9F00606D528680069800702D052
:1036E000284600F084F9B00308D55FEAC96005D523
:1036F000296810204860284600F07AF9F00307D5C1
:103700005FEA097004D528684760284600F0A4F9EC
:10371000300446D55FEA497040D5F00504D55FEA2C
:10372000C87001D044F00104B00504D55FEA887088
:1037300001D544F00204700504D55FEA487001D554
:1037400044F00404300529D518F0700F26D008F095
:103750007000402815D006DC102809D020280AD097
:10376000302816D10AE050280ED0602811D10EE082
:1037700044F008040DE044F010040AE044F0200492
:1037800007E044F0400404E044F0800401E044F425
:1037900080742868816921F07001816129680420A2
:1037A0004860002C05D0686A204368622846FFF70D
:1037B00089FEBDE8F09F70B5040003D094F82000A6
:1037C00010B104E0012070BD204600F081F82068AF
:1037D000016841F00101016000F08EFB05460526FD
:1037E00004E000F089FB401B0A2811D820684068DB
:1037F000C007F6D02068016821F00201016000F0E6
:103800007BFB05460BE000F077FB401B0A2806D93E
:10381000606A40F40030606284F82060D2E720687B
:1038200040688007EFD4207E0128206801683DD0E1
:1038300021F080010160607E01282068016838D095
:1038400021F040010160A07E01282068016833D08A
:1038500021F020010160E07E0128206801682ED05F
:1038600041F010010160207F01282068016829D003
:1038700021F008010160607F01282068016824D0E0
:1038800021F004010160D4E902010843D4E90412E3
:10389000114308436168491E08432168C86100203C
:1038A0006062012084F82000002070BD41F080019A
:1038B000C0E741F04001C5E741F02001CAE721F02F
:1038C0001001CFE741F00801D4E741F00401D9E746
:1038D000F0B587B0044614216846FDF783F8364BEF
:1038E0003648DFF8D0E01968D4F800C0334A032521
:1038F0000226092710300024491CF44522D1196002
:10390000012907D1016841F000710160006800F0F1
:1039100000700590106840F0080010601068CDE954
:10392000005600F00800CDE9047069462448CDE94E
:10393000024500F0DFF900220521142000F08CFB85
:10394000142032E0DFF87CE0F44530D1D0F800C03C
:103950004CF0806CC0F800C0D0F800C001290CF019
:10396000806CCDF814C0196007D1016841F0007176
:103970000160006800F000700590106840F00200DF
:103980001060106802AB00F0020005906020CDE9E5
:10399000000683E8B00069460B4800F0ABF900224E
:1039A0000521402000F058FB402000F047FB07B005
:1039B000F0BD0000006400400C00002030380240E0
:1039C000000C024000680040000402407047000004
:1039D000044A0168914202D0034A914201D1FEF7A4
:1039E00071BE704700640040006800407047704737
:1039F0007047000070B5044690F82000012804D0FC
:103A0000606A40F40020606218E0022084F8200020
:103A10002068016821F00101016000F06DFA05469F
:103A20000EE000BF00F068FA401B0A2808D9606A5F
:103A300040F400306062052084F82000012070BD51
:103A400020684068C007EDD1606270BD7047704764
:103A50007047704770477047704700002DE9F84382
:103A600004464FF00009CDF8009063484FF416511A
:103A7000A56D0068B0FBF1F72E6894F85C10082083
:103A800000FA01F131420FD021680A6852070BD5C4
:103A90000A6822F004020A6094F85C108840A8606A
:103AA000606D40F00100606594F85C104FF0010813
:103AB00008FA01F0304208D021684969090604D5A6
:103AC000A860606D40F00200606594F85C1004200E
:103AD0008840304208D021680968890704D5A86069
:103AE000606D40F00400606594F85C101020884020
:103AF000304218D021680968090714D5A8602068E9
:103B00000168490304D50068000308D5A16C07E0EB
:103B10000168C90503D4016821F008010160216C26
:103B200009B12046884794F85C1020208840304234
:103B300031D021680968C9062DD5A86094F83500F0
:103B400005282068016806D0490347D500680003AE
:103B50001DD4616C1CE021F01601016020684169F0
:103B600021F080014161206C08B9A06C20B120686F
:103B7000016821F00801016094F85C103F20884042
:103B8000A86084F8358084F83490216D1FE0E16BE3
:103B900009B120468847606D00282BD0606DC007B2
:103BA00014D0052084F835002068016821F0010157
:103BB00001600098401C0090B84203D8206800685B
:103BC000C007F6D184F8358084F83490E16C002980
:103BD00010D001B02046BDE8F04308470168C90590
:103BE000D5D4016821F01001016084F8358084F893
:103BF0003490CCE7BDE8F8831C0000202DE9F041AB
:103C0000044600F079F906465CB1022084F83500DC
:103C1000002584F834502068016821F0010101601A
:103C20000DE00120BDE8F08100F066F9801B052859
:103C300005D920206065032084F83500F2E720686C
:103C40000068C007F0D12268116820480140D4E91B
:103C500001031843D4E90336334318436369184317
:103C6000A3691843E3691843236A18430843616A48
:103C7000042903D1D4E90B131943084310602068C9
:103C80004069666A20F0070130460E430127042888
:103C90000CD1A06A0643E06A40B12046FEF72EFE32
:103CA00020B14020606584F83570BAE7206846612D
:103CB0002046FEF70FFE94F85C203F219140816082
:103CC000656584F835700020ACE700003F8010F097
:103CD00070B5044600F010F90546601C02D0044897
:103CE0000078044400F008F9401BA042FAD370BDEC
:103CF000100000202DE9F84FDFF8BCA100220125BB
:103D000003264FF00F090AF1040BAAF1040E00BFBD
:103D10000B6805FA02F42340A34270D10F7907F033
:103D20000307012F01D0022F16D187684FEA4208FE
:103D300006FA08FC27EA0C07D1F80CC00CFA08FCBC
:103D40004CEA070CC0F808C04768A7430C79C4F3D5
:103D5000001494403C4344600C79E443A4070AD027
:103D6000C4684FEA420C06FA0CF7BC438F6807FAA6
:103D70000CF72743C7600C7904F00304022C12D11E
:103D8000D40800EB840CDCF820405707FF0E09FA3A
:103D900007F824EA0804D1F8108008FA07F848EA7E
:103DA0000408CCF8208004684FEA420C06FA0CF7AD
:103DB000BC430F7907F0030707FA0CF727430760A6
:103DC0004C6814F4403F70D03C4C276847F480475F
:103DD0002760246822F0030704F480440094384CE0
:103DE00007EB040CDCF8084897074FEA177809FA44
:103DF00008F7BC43334FB84202D1002724E054E017
:103E0000314FB84201D101271EE0304FB84201D1F5
:103E1000022719E02E4FB84201D1032714E02D4F9D
:103E2000B84201D104270FE02B4FB84201D105273A
:103E30000AE02A4FB84201D1062705E0284FB842D0
:103E400001D1072700E0082707FA08F72743CCF835
:103E50000878DAF800405746D1F804C09C435FEA7E
:103E6000CC2C00D51C433C60DBF800405F46D1F809
:103E700004C09C435FEA8C2C00D51C433C60DEF8F8
:103E800000407746D1F804C09C435FEA8C3C00D5E3
:103E90001C433C60084F083F3C68D1F804C09C4379
:103EA0005FEACC3C00D51C433C60521C102AFFF456
:103EB0002FAFBDE8F88F0000083C014044380240B5
:103EC00000300140000002400004024000080240AF
:103ED000000C024000100240001402400018024092
:103EE000001C02400069084000D0012070470AB160
:103EF000816170470904FBE7014880687047000052
:103F00001000002009480168094A12781144016034
:103F10004FF08041496A006800EB4002C2EBC010DC
:103F200001EBC00003490860704700001800002042
:103F300010000020200700200B4810B5016841F454
:103F400000710160016841F480610160016841F421
:103F500080710160032000F09FF80F2000F006F848
:103F600000F050F8002010BD003C024030B505467E
:103F7000204887B00024016841F001010160006819
:103F800006A900F00100009001A800F04DFE049881
:103F9000B0B100F06FFE400017494FF08042B0FB17
:103FA000F1F11648491E026040F2E732C0E90324ED
:103FB000C0E90114846101F04FFB040003D015E057
:103FC00000F058FEE8E70D4801F088FB04000DD131
:103FD0001C2000F033F8102D07D2002229461C20A7
:103FE00000F03AF80648056000E0012407B02046DA
:103FF00030BD00004038024040420F00D80F002082
:10400000140000200C4882B0016841F48041016036
:10401000006800F4804000900748001F016841F0EC
:10402000805101600068002200F0805000900F2154
:10403000901E02B000F010B844380240002809DB9E
:1040400000F01F02012191404009800000F1E020B2
:10405000C0F8001170470000F0B40E4B1B680C460E
:10406000C3F30223C3F10705042D00D90425191D4C
:10407000072901D2002300E0DB1E012606FA05F124
:10408000491E214099409E40761E16403143F0BCA7
:1040900006F020B90CED00E0064900F007020868C0
:1040A0004FF6FF03184040EA0220034A104308601D
:1040B000704700000CED00E00000FA057047006852
:1040C000416200207047F0B50368586A39B19C6AB4
:1040D0004FF4827600EB144400204D1E0AE040EAC3
:1040E000024098620FE006EB8007DF59401C04EBAA
:1040F0001744C0B2A842F6D344EA02404FF480729B
:1041000002EB810158500020F0BDD0F8E00404F02B
:10411000CCBF01EBC10200EB8202D0F8E004126ACE
:1041200004F01DBF01EBC10200EB8202D0F8E004F5
:10413000D2F8602204F06FBFD0F8E00404F0B7BFFB
:104140000A0601F00F0101EBC10100EB810101D56D
:10415000143101E001F51571006805F09DBE70B5E0
:1041600004460B0601F00F0000EBC00104EB8101D7
:104170004FF001024FF0000502D54A75143103E0FB
:1041800081F8555201F51571087094F894040128CE
:1041900008D084F89424206805F098FB84F894549F
:1041A000002070BD022070BD70B5044601F00F0004
:1041B0002279904201D9012070BD0B0601F00F0158
:1041C00001EBC10104EB81014FF001024FF000054A
:1041D00002D54A75143103E081F8555201F5157185
:1041E0008D70087094F89404012808D084F8942401
:1041F000206805F0DDFC84F89454002070BD022096
:1042000070BD01F00F0101EBC10100EB8100D0F89E
:10421000680270472DE9F04104460F0601F00F00D7
:1042200000EBC00104EB81014FF001064FF00005E7
:1042300002D54E75143103E081F8555201F5157120
:10424000C2F30A0208708A600B714A7802B148838F
:10425000022B00D14D7194F89404012809D084F800
:104260009464206805F080FA284684F89454BDE8E8
:10427000F0810220FBE710B501F00F0404EBC4014C
:1042800000EB8101C1E998230023C1F8683281F86D
:10429000553281F85442837901F51571012B00D113
:1042A000CA618279006805F0DBFC002010BD70B5A2
:1042B00004460D4601F00F002179884201D9012002
:1042C00070BD29064FF000064FF0010206D500EB45
:1042D000C00104EB81014A75143107E005EBC5010B
:1042E00004EB810181F8556201F515718A7008703F
:1042F00094F89404012807D084F89424206805F0E9
:1043000083FC280702D007E0022070BDA17904F2E7
:104310009C42206805F020FC84F89464002070BD65
:1043200010B501F00F0404EBC40100EB8101C1E9F9
:10433000082300238B6201234B7501F8144F837906
:10434000012B00D1CA618279006805F089FC002048
:1043500010BD00002DE9FC5F05680446284605F005
:1043600037FE00287DD1206805F05EFE002878D059
:10437000D5F80808C0F30D20C4F8D404206805F06F
:1043800053FE800704D52068416901F002014161B4
:10439000206805F049FEC10604F29C40009034D527
:1043A0002068816921F0100181612F6A07F00F00F8
:1043B00000EBC00004EB8006C7F3434006F515761A
:1043C000022802D0062811D01AE047F6F070074202
:1043D00016D0C7F30A1217462846F16805F028FEE2
:1043E000F0683844F0607069384408E008222846D4
:1043F000009905F01DFE7069C7F30A110844706149
:104400002068816941F010018161206805F00CFE8F
:1044100000034FF0080B4FF0000A4FF001097CD564
:104420000026206805F0DFFD074674E0F80770D02D
:10443000F1B2206805F0F0FD8046C00707D005EB1B
:104440004611C1F8089B3146204603F0E1F95FEAC6
:10445000087024D505EB4611C1F808BB2068016C33
:1044600000E023E200EB46100191D0F8082BFB4B53
:10447000994205D9110403D54FF40041C0F8081B37
:10448000204600F0F6FAF5490198884207D9A0794C
:10449000012804D120680121009A05F05DFB5FEA44
:1044A000C86004D505EB46111020C1F8080B5FEA7F
:1044B00088701DD56869000605D5D5F8040840F454
:1044C0008061C5F8041806EBC60004EB800090F884
:1044D000571200F51570012905D180F803A0F1B23B
:1044E000204600F0E9F905EB46110220C1F8080B5F
:1044F0005FEA886004D505EB46102021C0F8081B50
:104500005FEA884005D505EB46104FF40051C0F82E
:10451000081B7F08761C002F88D1206805F084FDD9
:1045200040036ED5206805F057FD0746002666E07B
:10453000F80762D0F1B2206805F05CFD8046C00744
:1045400023D006F00F01D5F8342809FA01F18A4387
:10455000C5F8342805EB4611C1F80899A07901285F
:104560000FD106EBC60004EB8000D0E9072111440F
:10457000016236B9606A20B920680121009A05F00D
:10458000EBFAF1B22046FFF7C4FD5FEA087003D5ED
:1045900005EB4611C1F808B95FEAC86004D505EB20
:1045A00046111020C1F808095FEA486004D505EB00
:1045B00046104021C0F808195FEA887016D53146C8
:1045C000284605F0DAFC06EBC60004EB8000C17D4E
:1045D0001430012905D180F803A0F1B2204600F083
:1045E00067F905EB46110220C1F808095FEA086087
:1045F00003D53146204603F071F97F08761C002F61
:1046000096D1206805F010FD002811DAD5F80408CD
:1046100020F00101C5F8041894F8CC0401282BD02F
:10462000204600F00BFA2068416901F00041416129
:10463000206805F0F9FC00050BD5D5F80808C0077F
:1046400002D0204600F03EFA2068416901F4006182
:104650004161206805F0E8FCC00467D5D5F804087E
:1046600020F00100C5F804081021206805F085FC41
:1046700000214FF67F3220E084F8CCA400212046B0
:10468000FFF71CFDCFE700BF05EB4110C0F808297C
:10469000D0F8003923F40013C0F80039C0F8082B13
:1046A000D0F8003B23F40013C0F8003BD0F8003BE7
:1046B00043F00063C0F8003B491C20798842E3D8EE
:1046C000D5F81C0840F00111C5F81C18E07B002843
:1046D00028460DD0D0F8840840F00B01C5F88418A6
:1046E000D5F8440840F00B012846C5F844180DE001
:1046F000D0F8140842F22B010843C5F81408D5F885
:10470000100840F00B012846C5F81018D0F8000832
:1047100020F4FE61C5F80018A1792068009A05F020
:104720001BFA2068416901F480514161206805F05D
:104730007BFC800415D5206805F056F8206805F04C
:104740003AFCE07100F090FA0146E279206805F049
:10475000CDFC204600F05CF92068416901F400516D
:104760004161206805F060FC000707D5204600F095
:1047700069F92068416901F008014161206805F08C
:1047800053FC000616D5A86920F08001A961012616
:104790000DE000BF06EBC60004EB800090F8570266
:1047A000012803D1F1B22046FFF7CAFC761C20791C
:1047B000B042EFD8206805F037FCC0021FD50126B3
:1047C0004F4614E005EB4610D0F8000906EBC60191
:1047D00004EB81010A7E012A08D1002806DACF7590
:1047E000F0B240F080012046FFF7AAFC761C207949
:1047F000B042E7D82068416901F480114161206826
:1048000005F012FC800234D501204A4629E000BFA1
:1048100005EB4011D1F8001B00EBC00304EB830350
:1048200093F85862012E1BD1002919DA94F8D46448
:10483000C1F3004106F001068E4211D183F85722E0
:10484000A96941F08003AB616969090608D4D5F80C
:10485000040840F40070C5F8040805E00A30544F1D
:10486000401C21798142D3D82068416901F40011AC
:104870004161206805F0D8FB400007D52046FFF7CE
:1048800044FC2068416901F080414161206805F0E5
:10489000CBFB40070AD520684568680702D520464B
:1048A000FFF74AFC2068416829434160BDE8FC9F4E
:1048B000D0F8E00404F04DBCD0F8E00404F05DBC96
:1048C000F8B5040005D094F895042668002510B1C9
:1048D00006E00120F8BD84F89454204600F056F814
:1048E000032084F89504B6F1A04F00D1A57120688B
:1048F00005F02CF9207C8DF8000094E80F0004F0FE
:1049000081FF0226B8BB0021206805F0B0FB90BBF8
:10491000002001270DE000BF00EBC00104EB810186
:104920004F750875C8850D76CD610D62401CC0B20B
:104930004D6221798142EFD8002011E000EBC001E7
:1049400004EB810181F8555281F8540281F85852E4
:10495000C1F85C52C1F86052401CC0B2C1F8645248
:1049600021798142EAD8207C8DF8000094E80F007C
:1049700005F02EF810B184F89564AAE7657484F800
:104980009574206805F016F80020F8BD10B586B0C3
:10499000044614216846FCF725F82068B0F1A04FC2
:1049A0002FD119480021026842F00102026000681C
:1049B00000F0010005904FF4C05000900220CDE9B6
:1049C0000101032003900A20049069460F48FFF775
:1049D00091F90D48001D016841F0800101600A480D
:1049E0001430016841F4804101600068002200F445
:1049F0008040059005214320FFF72EFB4320FFF761
:104A00001DFB06B010BD000030380240000002401F
:104A100070B50446C079012570B1022801D0FDF7B8
:104A2000E1FF2946D4F8E00404F016FCD4F8E004D1
:104A3000BDE8704004F0CABB0025F2E7D0F8E004FE
:104A400004F0F3BBD0F8E00404F0F9BB10B5044661
:104A500090F8940401280AD0012084F89404617429
:104A6000206805F032FB002084F8940410BD022079
:104A700010BDD0F8E02400F29C41104604F0F8BBD1
:104A800010B50446006894F89414012909D0012156
:104A900084F89414C168490609D5617B012902D0C4
:104AA00005E0022010BD816B41F4803181632068F4
:104AB00005F041FA206804F06FFF002084F89404A8
:104AC00010BD000010B50446D0F8E00404F012FC5C
:104AD0002068D0F8001E41F00101C0F8001EE07A05
:104AE000002804D00248016841F00601016010BDB1
:104AF00010ED00E02DE9F0470E46050065D0DFF827
:104B00001481D8F80000F7B200F00700B04207D2D5
:104B100088F80070D8F8000000F00700B04254D1C7
:104B200028683D4C810712D5400703D5206840F422
:104B3000E05020602878000703D5206840F46040EA
:104B400020602068A96820F0F000084320602878E1
:104B5000C0072DD0304968680839012812D00228D2
:104B600013D0032811D00968890700292DDA21689C
:104B700021F0030101432160FFF7BEF9814641F2B4
:104B8000883A0EE009688903EFE709688901ECE7D4
:104B9000FFF7B2F9A0EB0901514502D90320BDE8A6
:104BA000F0872068696800F00C00B0EB810FEFD14E
:104BB000D8F80010404601F00701B14207D907704C
:104BC000006800F00700B04201D00120E7E7287834
:104BD000400705D52068E96820F4E05008432060CC
:104BE0002878000706D52068296920F4604040EA4B
:104BF000C100206000F04EF82168084AC1F303119B
:104C0000515CC8400649086006480068FFF7AEF9E5
:104C10000020C4E7003C024008380240BCD0000835
:104C20001C000020140000200F2202600C4A1368B0
:104C300003F003034360136803F0F0038360136819
:104C400003F4E053C36012684FF4E05303EAD20266
:104C500002610448006800F0070008607047000027
:104C600008380240003C02400148006870470000DC
:104C70001C0000200448054900680968044AC1F383
:104C80008221515CC84070471C0000200838024057
:104C9000CCD00008154810B5006810F00C0214487C
:104CA00013D01449042A0FD0082A0ED10F4C241F08
:104CB0002268236802F03F025B0207D52068C0F338
:104CC0008810A0FB010106E0084610BD2168C1F371
:104CD0008811A1FB00010023FBF79CFB2168C1F3B5
:104CE0000141491C4900B0FBF1F010BD08380240F9
:104CF0000024F400001BB7002DE9F84F04006ED02B
:104D00002078DFF84C93C007A9F104054AD009F1D7
:104D100004000168C1F38101012908D00068C0F3D3
:104D2000810002280AD1D9F80000400206D528687F
:104D3000800337D560680028E1D033E06068B0F5C3
:104D4000803F10D0B0F5A02F286810D020F480301C
:104D50002860286820F4802028606068A8B1FFF7E8
:104D6000CBF806460DE0286840F48030F4E740F4C4
:104D700080202860F7E700BFFFF7BEF8801B64289B
:104D800073D828688003F7D50CE0FFF7B5F806461E
:104D900005E000BFFFF7B0F8801B6428F0D8286852
:104DA0008003F7D42078DFF8AC8280074FF0000A48
:104DB0003ED5A748001D016811F00C0F08D000680F
:104DC000C0F3810002280BD1D9F80000400207D4BB
:104DD0002868800716D5E068012800D112E033E189
:104DE000E068B8B10120C8F80000FFF785F8064672
:104DF00005E000BFFFF780F8801B0228C0D82868B4
:104E00008007F7D52868216920F0F80040EAC10042
:104E100028600DE0C8F800A0FFF76EF8064604E031
:104E2000FFF76AF8801B02281FD828688007F7D48C
:104E30002078000722D5864F87486169703771B1A5
:104E400001210160FFF758F8064604E0FFF754F827
:104E5000801B022809D838688007F7D50EE0C0F813
:104E600000A0FFF749F8064605E082E0FFF744F8A6
:104E7000801B02287DD838688007F7D42078400747
:104E800068D5DFF8CCB100270BF13C0BDBF8000054
:104E9000C0000BD4DBF8001041F08051CBF80010BB
:104EA000DBF80000012700F0805000906B4E306866
:104EB000C00510D4306840F480703060FFF71CF8F3
:104EC000009005E0FFF718F80099401A022850D822
:104ED0003068C005F6D55E4EA0686C3601280FD04C
:104EE0000528306810D020F001003060306820F0D4
:104EF00004003060A068B8B1FEF7FEFF00900FE03C
:104F0000306840F00100F4E740F004003060F7E75B
:104F1000FEF7F2FF0099411A41F28830814266D8CB
:104F200030688007F4D50EE0FEF7E6FF009007E05A
:104F3000FEF7E2FF0099411A41F28830814256D8CB
:104F400030688007F4D42FB1DBF8001021F08051D5
:104F5000CBF80010A069C8B33D49091D0968C1F329
:104F6000810102294AD00228504607D0C8F86000C3
:104F700000E03CE0FEF7C0FF04463BE04746C8F8CF
:104F80006000FEF7B9FF064605E000BFFEF7B4FF7C
:104F9000801B02282BD828688001F7D4D4E90701A8
:104FA0000843A16A2E4A490802EB0141626A41EABC
:104FB0008211084394F82C1040EA0161C9F80010EE
:104FC00001203866FEF798FF044606E03EE000BF89
:104FD000FEF792FF001B022809D828688001F7D548
:104FE00034E000BFFEF788FF001B022802D903202F
:104FF000BDE8F88F28688001F4D427E00128F7D0B5
:10500000D9F80000E26900F4800191421CD1226AC3
:1050100000F03F01914217D147F6C071626A01402A
:10502000B1EB821F10D1A26A4FF0FF3300F4403180
:1050300003EB5202B1EB024F06D194F82C1000F0B2
:105040007060B0EB016F01D00120D1E70020CFE705
:105050000438024000004742800E47420070004082
:105060000000FFFF70B5040009D0606A002540B160
:1050700025616561A56294F8510040B10CE0012002
:1050800070BD6068B0F5827FF4D0E561F2E784F826
:105090005050204600F044F8022084F85100206867
:1050A000016821F040010160A088218900F482702C
:1050B00001F404410843A18901F400610843217C03
:1050C00001F002010843217D01F001010843218B19
:1050D00001F400710843217F01F03801084394F87E
:1050E000201001F080010843218D01F40051084394
:1050F00021680860A069042101EA104094F8241096
:1051000001F010010843216848602068C16921F45A
:105110000061C1616565012084F85100002070BD07
:105120002DE9F04186B0054614216846FBF75AFC8C
:10513000DFF81CC129684748022603230527464A91
:105140000024614563D143491431D1F800C04CF4C7
:10515000805CC1F800C0096801F4805105910168C4
:1051600041F002010160016801F00201059101684E
:1051700041F0010101600068CDE9024300F0010047
:1051800005901820CDE90006984669460497104618
:10519000FEF7B0FD8020CDE90006CDE90248694662
:1051A00004972E48FEF7A6FD2E4E2D484FF0C067FF
:1051B0003060C6E901744FF48068C6E90348746141
:1051C000B461F461346230467462FEF717FD08B1D1
:1051D000FDF708FCEE64B563224E21486036483086
:1051E000E6E802074020A6E811011E4846F81449E7
:1051F0006030B461F46134627462FEF7FFFC08B1A0
:10520000FDF7F0FBAE64B56306B0BDE8F081164D66
:10521000A942F9D10F4910310D6845F480450D6060
:10522000096801F480410591016841F002010160C3
:105230000068CDE9024300F0020005904FF42040E1
:10524000CDE90006694604971046FEF753FDDBE7FB
:1052500000300140303802400004024000000240AB
:1052600010640240D00E0020003800402DE9F84FB5
:10527000984616468A460446FEF73EFE814694F856
:10528000510001281ED1BAF1000F73D0002E71D049
:1052900094F85000012815D0012784F8507003209D
:1052A00084F8510000256565C4F830A0A686E6861E
:1052B000A563A587E58765642564A068B0F5004F00
:1052C00003D00CE00220BDE8F88F2068016821F0CF
:1052D000400101602068016841F48041016020685C
:1052E0000168490603D4016841F040010160E068AB
:1052F000B0F5006F606803D048B3012E27D047E0B7
:1053000008B1012E1FD1206B21680088C86006E01B
:1053100020688168890709D5216B0988C160206BE5
:10532000801C2063E08E401EE0860CE0FEF7E4FD6A
:10533000A0EB0901414503D3B8F1FF3F03D035E0AD
:10534000B8F1000F32D0E08E0028E1D123E0206BCD
:1053500021680078087306E02068816889070AD50B
:10536000216B09780173206B401C2063E08E401E86
:10537000E0860DE02BE0FEF7BFFDA0EB0901414503
:1053800003D3B8F1FF3F03D010E0B8F1000F0DD008
:10539000E08E0028E0D14A464146204602F010FE49
:1053A00008B120206065A06830B109E084F8517030
:1053B00084F85050032086E72068C1688068009018
:1053C00084F8517004F8505F60680028F3D0012021
:1053D00079E72DE9FF4F81B01D46934604464FF013
:1053E00001090E9EFEF788FD074694F8510061689A
:1053F000012806D0B1F5827F3CD1A168C9BB042841
:1054000038D10298002871D0BBF1000FFBD0002DDD
:10541000F9D094F8500001282CD04FF0010A84F8FC
:1054200050A094F85100042802D0052084F85100BF
:105430004FF00008C4F85480C4F838B0E587A58759
:1054400002992163E586A586C4F84080C4F84480AB
:1054500020680168490603D4016841F040010160F9
:10546000E068B0F5006F606808D0F0B3012D49D056
:1054700081E0FFE7022005B0BDE8F08F08B1012D03
:1054800039D1206B21680088C860206B801C2063A4
:10549000E08E401EE0862EE02068816889070FD5E7
:1054A000E18E69B1B9F1010F0AD1216B0988C160A0
:1054B000206B801C2063E08E401EE0864FF00009C8
:1054C00020688168C9070CD0E18F51B1C068A16B19
:1054D0000880A06B801CA063E08F401EE0874FF027
:1054E0000109FEF709FDC01B01E00BE067E0B042D7
:1054F00001D3701C50D1E08E0028CDD1E08F002860
:10550000CAD13EE0206B216800780873206B401CF4
:105510002063E08E401EE0862DE0206881688907C8
:105520000FD5E18E69B1B9F1010F0AD1216B09786C
:105530000173206B401C2063E08E401EE0864FF01C
:10554000000920688168C9070CD0E18F51B1C0689B
:10555000A16B0870A06B401CA063E08F401EE08729
:105560004FF00109FEF7C8FCC01BB04202D3701C0B
:1055700001D011E086B1E08E0028CED1E08F002866
:10558000CBD13A463146204602F01AFD50B12020D8
:10559000606584F8508012E084F851A084F850804F
:1055A000032068E7A06818B92068C1688068009087
:1055B00084F851A084F85080606D0028F1D001205B
:1055C00059E770477047000070B590F83C20012AF9
:1055D00032D0012480F83C40022280F83D2003684C
:1055E0005A689D6822F070060A6832435A60134B6D
:1055F00002689A4214D0B2F1804F11D0104B9A42F7
:105600000ED0104B9A420BD00F4B9A4208D00F4B42
:105610009A4205D00E4B9A4202D00E4B9A4204D1C8
:10562000496825F080031943916080F83D400021CE
:1056300080F83C10084670BD022070BD000001409B
:105640000004004000080040000C0040000401403D
:10565000004001400018004010B5040003D094F849
:105660003D0010B107E0012010BD002084F83C008F
:10567000204600F01FF8022084F83D00211D20681C
:1056800002F0BCFE012084F8460084F83E0084F855
:105690003F0084F8400084F8410084F8420084F818
:1056A000430084F8440084F8450084F83D0000205D
:1056B00010BD000008B500680649884208D10648B8
:1056C000016841F004010160006800F004000090EE
:1056D00008BD0000000800404038024090F83D102E
:1056E000012901D001207047022180F83D10016896
:1056F000CA6842F00102CA6000681149884214D0A9
:10570000B0F1804F11D00F4988420ED00E49884227
:105710000BD00E49884208D00D49884205D00D496A
:10572000884202D00C49884204D1816801F0070107
:10573000062903D0016841F0010101600020704793
:10574000000001400004004000080040000C004040
:1057500000040140004001400018004070B50446BC
:1057600090F83C000025012817D0012684F83C6001
:10577000022084F83D002068826822F0770222F43B
:105780007F4282600868502838D00DDC20284FD036
:1057900005DC90B3102811D14AE0022070BD3028FA
:1057A00046D040280AD13BE060282FD070280DD089
:1057B000B0F5805F03D0B0F5005F12D0012584F80A
:1057C0003D60002084F83C00284670BDCB68D1E9DC
:1057D0000121206802F07AFE2068816841F077019B
:1057E00009E0CB68D1E90121206802F06FFE206852
:1057F000816841F480418160E1E719E0CA68496845
:10580000206802F037FF5021206806E0CA68496826
:10581000206802F040FF6021206802F061FECEE7C0
:10582000CA684968206802F025FF40212068F4E733
:10583000226801461046F0E770472DE9F041044622
:105840000068C66805694FF00007A90713D5B107BE
:1058500011D5F91E01610120207720688069800739
:10586000204602D0FFF7E8FF04E000F0A9F8204648
:1058700000F03BF92777680716D5700714D5216823
:105880006FF004000861022020772068806910F41E
:10589000407F204602D0FFF7CFFF04E000F090F8F1
:1058A000204600F022F92777280715D5300713D5B1
:1058B00021686FF008000861042020772068C06923
:1058C0008007204602D0FFF7B7FF04E000F078F829
:1058D000204600F00AF92777E80616D5F00614D519
:1058E00021686FF010000861082020772068C069E7
:1058F00010F4407F204602D0FFF79EFF04E000F046
:105900005FF8204600F0F1F82777E80708D0F007A5
:1059100006D021686FF001000861204600F0E6F82B
:10592000280608D5300606D521686FF0800008618A
:105930002046FFF746FE680608D5700606D52168A2
:105940006FF040000861204600F0D7F8A8060AD59D
:10595000B00608D521686FF0200008612046BDE838
:10596000F041FFF72FBEBDE8F081000010B586B012
:10597000044614216846FBF735F80E492068884232
:1059800015D10D480021026842F00802026000684B
:1059900000F0080005904FF4804000900220CDE90F
:1059A00001010390049069460448FEF7A3F906B08C
:1059B00010BD00000008004030380240000C0240DA
:1059C000704770B5044690F83C0000260D4601284B
:1059D0000FD0012084F83C006AB1042A1DD0082AA7
:1059E0002FD00C2A3FD00126002084F83C003046FE
:1059F00070BD022070BD206802F07AFD20688169C8
:105A000041F0080181612068816921F00401816110
:105A1000206881692A69114311E0206802F098FD2D
:105A20002068816941F4006181612068816921F405
:105A300080618161206881692A6941EA022181616E
:105A4000D2E7206802F0BAFD2068C16941F0080180
:105A5000C1612068C16921F00401C1612068C16988
:105A60002A69114311E0206802F0DCFD2068C16959
:105A700041F40061C1612068C16921F48061C161A4
:105A80002068C1692A6941EA0221C161ACE710B509
:105A9000040003D094F83D0010B107E0012010BDD0
:105AA000002084F83C00204600F01EF8022084F814
:105AB0003D00211D206802F0A1FC012084F8460071
:105AC00084F83E0084F83F0084F8400084F84100E8
:105AD00084F8420084F8430084F8440084F84500C8
